
IONIZER_UV.elf:     file format elf32-littlearm

Sections:
Idx Name          Size      VMA       LMA       File off  Algn
  0 .isr_vector   000000c0  08000000  08000000  00010000  2**0
                  CONTENTS, ALLOC, LOAD, READONLY, DATA
  1 .text         0001493c  080000c0  080000c0  000100c0  2**2
                  CONTENTS, ALLOC, LOAD, READONLY, CODE
  2 .rodata       00000bd8  08014a00  08014a00  00024a00  2**3
                  CONTENTS, ALLOC, LOAD, READONLY, DATA
  3 .init_array   00000004  080155d8  080155d8  000255d8  2**2
                  CONTENTS, ALLOC, LOAD, DATA
  4 .fini_array   00000004  080155dc  080155dc  000255dc  2**2
                  CONTENTS, ALLOC, LOAD, DATA
  5 .data         000001e0  20000000  080155e0  00030000  2**2
                  CONTENTS, ALLOC, LOAD, DATA
  6 .bss          00000840  200001e0  080157c0  000301e0  2**3
                  ALLOC
  7 ._user_heap_stack 00000600  20000a20  080157c0  00030a20  2**0
                  ALLOC
  8 .ARM.attributes 00000028  00000000  00000000  000301e0  2**0
                  CONTENTS, READONLY
  9 .debug_info   000266ba  00000000  00000000  00030208  2**0
                  CONTENTS, READONLY, DEBUGGING
 10 .debug_abbrev 00004afc  00000000  00000000  000568c2  2**0
                  CONTENTS, READONLY, DEBUGGING
 11 .debug_aranges 000019d8  00000000  00000000  0005b3c0  2**3
                  CONTENTS, READONLY, DEBUGGING
 12 .debug_ranges 000017a0  00000000  00000000  0005cd98  2**3
                  CONTENTS, READONLY, DEBUGGING
 13 .debug_line   0000f4a9  00000000  00000000  0005e538  2**0
                  CONTENTS, READONLY, DEBUGGING
 14 .debug_str    00007b8d  00000000  00000000  0006d9e1  2**0
                  CONTENTS, READONLY, DEBUGGING
 15 .comment      0000007c  00000000  00000000  0007556e  2**0
                  CONTENTS, READONLY
 16 .debug_frame  00006cb8  00000000  00000000  000755ec  2**2
                  CONTENTS, READONLY, DEBUGGING

Disassembly of section .text:

080000c0 <__do_global_dtors_aux>:
 80000c0:	b510      	push	{r4, lr}
 80000c2:	4c06      	ldr	r4, [pc, #24]	; (80000dc <__do_global_dtors_aux+0x1c>)
 80000c4:	7823      	ldrb	r3, [r4, #0]
 80000c6:	2b00      	cmp	r3, #0
 80000c8:	d107      	bne.n	80000da <__do_global_dtors_aux+0x1a>
 80000ca:	4b05      	ldr	r3, [pc, #20]	; (80000e0 <__do_global_dtors_aux+0x20>)
 80000cc:	2b00      	cmp	r3, #0
 80000ce:	d002      	beq.n	80000d6 <__do_global_dtors_aux+0x16>
 80000d0:	4804      	ldr	r0, [pc, #16]	; (80000e4 <__do_global_dtors_aux+0x24>)
 80000d2:	e000      	b.n	80000d6 <__do_global_dtors_aux+0x16>
 80000d4:	bf00      	nop
 80000d6:	2301      	movs	r3, #1
 80000d8:	7023      	strb	r3, [r4, #0]
 80000da:	bd10      	pop	{r4, pc}
 80000dc:	200001e0 	.word	0x200001e0
 80000e0:	00000000 	.word	0x00000000
 80000e4:	080149e4 	.word	0x080149e4

080000e8 <frame_dummy>:
 80000e8:	4b04      	ldr	r3, [pc, #16]	; (80000fc <frame_dummy+0x14>)
 80000ea:	b510      	push	{r4, lr}
 80000ec:	2b00      	cmp	r3, #0
 80000ee:	d003      	beq.n	80000f8 <frame_dummy+0x10>
 80000f0:	4903      	ldr	r1, [pc, #12]	; (8000100 <frame_dummy+0x18>)
 80000f2:	4804      	ldr	r0, [pc, #16]	; (8000104 <frame_dummy+0x1c>)
 80000f4:	e000      	b.n	80000f8 <frame_dummy+0x10>
 80000f6:	bf00      	nop
 80000f8:	bd10      	pop	{r4, pc}
 80000fa:	46c0      	nop			; (mov r8, r8)
 80000fc:	00000000 	.word	0x00000000
 8000100:	200001e4 	.word	0x200001e4
 8000104:	080149e4 	.word	0x080149e4

08000108 <strlen>:
 8000108:	2300      	movs	r3, #0
 800010a:	5cc2      	ldrb	r2, [r0, r3]
 800010c:	3301      	adds	r3, #1
 800010e:	2a00      	cmp	r2, #0
 8000110:	d1fb      	bne.n	800010a <strlen+0x2>
 8000112:	1e58      	subs	r0, r3, #1
 8000114:	4770      	bx	lr
	...

08000118 <__gnu_thumb1_case_uqi>:
 8000118:	b402      	push	{r1}
 800011a:	4671      	mov	r1, lr
 800011c:	0849      	lsrs	r1, r1, #1
 800011e:	0049      	lsls	r1, r1, #1
 8000120:	5c09      	ldrb	r1, [r1, r0]
 8000122:	0049      	lsls	r1, r1, #1
 8000124:	448e      	add	lr, r1
 8000126:	bc02      	pop	{r1}
 8000128:	4770      	bx	lr
 800012a:	46c0      	nop			; (mov r8, r8)

0800012c <__udivsi3>:
 800012c:	2200      	movs	r2, #0
 800012e:	0843      	lsrs	r3, r0, #1
 8000130:	428b      	cmp	r3, r1
 8000132:	d374      	bcc.n	800021e <__udivsi3+0xf2>
 8000134:	0903      	lsrs	r3, r0, #4
 8000136:	428b      	cmp	r3, r1
 8000138:	d35f      	bcc.n	80001fa <__udivsi3+0xce>
 800013a:	0a03      	lsrs	r3, r0, #8
 800013c:	428b      	cmp	r3, r1
 800013e:	d344      	bcc.n	80001ca <__udivsi3+0x9e>
 8000140:	0b03      	lsrs	r3, r0, #12
 8000142:	428b      	cmp	r3, r1
 8000144:	d328      	bcc.n	8000198 <__udivsi3+0x6c>
 8000146:	0c03      	lsrs	r3, r0, #16
 8000148:	428b      	cmp	r3, r1
 800014a:	d30d      	bcc.n	8000168 <__udivsi3+0x3c>
 800014c:	22ff      	movs	r2, #255	; 0xff
 800014e:	0209      	lsls	r1, r1, #8
 8000150:	ba12      	rev	r2, r2
 8000152:	0c03      	lsrs	r3, r0, #16
 8000154:	428b      	cmp	r3, r1
 8000156:	d302      	bcc.n	800015e <__udivsi3+0x32>
 8000158:	1212      	asrs	r2, r2, #8
 800015a:	0209      	lsls	r1, r1, #8
 800015c:	d065      	beq.n	800022a <__udivsi3+0xfe>
 800015e:	0b03      	lsrs	r3, r0, #12
 8000160:	428b      	cmp	r3, r1
 8000162:	d319      	bcc.n	8000198 <__udivsi3+0x6c>
 8000164:	e000      	b.n	8000168 <__udivsi3+0x3c>
 8000166:	0a09      	lsrs	r1, r1, #8
 8000168:	0bc3      	lsrs	r3, r0, #15
 800016a:	428b      	cmp	r3, r1
 800016c:	d301      	bcc.n	8000172 <__udivsi3+0x46>
 800016e:	03cb      	lsls	r3, r1, #15
 8000170:	1ac0      	subs	r0, r0, r3
 8000172:	4152      	adcs	r2, r2
 8000174:	0b83      	lsrs	r3, r0, #14
 8000176:	428b      	cmp	r3, r1
 8000178:	d301      	bcc.n	800017e <__udivsi3+0x52>
 800017a:	038b      	lsls	r3, r1, #14
 800017c:	1ac0      	subs	r0, r0, r3
 800017e:	4152      	adcs	r2, r2
 8000180:	0b43      	lsrs	r3, r0, #13
 8000182:	428b      	cmp	r3, r1
 8000184:	d301      	bcc.n	800018a <__udivsi3+0x5e>
 8000186:	034b      	lsls	r3, r1, #13
 8000188:	1ac0      	subs	r0, r0, r3
 800018a:	4152      	adcs	r2, r2
 800018c:	0b03      	lsrs	r3, r0, #12
 800018e:	428b      	cmp	r3, r1
 8000190:	d301      	bcc.n	8000196 <__udivsi3+0x6a>
 8000192:	030b      	lsls	r3, r1, #12
 8000194:	1ac0      	subs	r0, r0, r3
 8000196:	4152      	adcs	r2, r2
 8000198:	0ac3      	lsrs	r3, r0, #11
 800019a:	428b      	cmp	r3, r1
 800019c:	d301      	bcc.n	80001a2 <__udivsi3+0x76>
 800019e:	02cb      	lsls	r3, r1, #11
 80001a0:	1ac0      	subs	r0, r0, r3
 80001a2:	4152      	adcs	r2, r2
 80001a4:	0a83      	lsrs	r3, r0, #10
 80001a6:	428b      	cmp	r3, r1
 80001a8:	d301      	bcc.n	80001ae <__udivsi3+0x82>
 80001aa:	028b      	lsls	r3, r1, #10
 80001ac:	1ac0      	subs	r0, r0, r3
 80001ae:	4152      	adcs	r2, r2
 80001b0:	0a43      	lsrs	r3, r0, #9
 80001b2:	428b      	cmp	r3, r1
 80001b4:	d301      	bcc.n	80001ba <__udivsi3+0x8e>
 80001b6:	024b      	lsls	r3, r1, #9
 80001b8:	1ac0      	subs	r0, r0, r3
 80001ba:	4152      	adcs	r2, r2
 80001bc:	0a03      	lsrs	r3, r0, #8
 80001be:	428b      	cmp	r3, r1
 80001c0:	d301      	bcc.n	80001c6 <__udivsi3+0x9a>
 80001c2:	020b      	lsls	r3, r1, #8
 80001c4:	1ac0      	subs	r0, r0, r3
 80001c6:	4152      	adcs	r2, r2
 80001c8:	d2cd      	bcs.n	8000166 <__udivsi3+0x3a>
 80001ca:	09c3      	lsrs	r3, r0, #7
 80001cc:	428b      	cmp	r3, r1
 80001ce:	d301      	bcc.n	80001d4 <__udivsi3+0xa8>
 80001d0:	01cb      	lsls	r3, r1, #7
 80001d2:	1ac0      	subs	r0, r0, r3
 80001d4:	4152      	adcs	r2, r2
 80001d6:	0983      	lsrs	r3, r0, #6
 80001d8:	428b      	cmp	r3, r1
 80001da:	d301      	bcc.n	80001e0 <__udivsi3+0xb4>
 80001dc:	018b      	lsls	r3, r1, #6
 80001de:	1ac0      	subs	r0, r0, r3
 80001e0:	4152      	adcs	r2, r2
 80001e2:	0943      	lsrs	r3, r0, #5
 80001e4:	428b      	cmp	r3, r1
 80001e6:	d301      	bcc.n	80001ec <__udivsi3+0xc0>
 80001e8:	014b      	lsls	r3, r1, #5
 80001ea:	1ac0      	subs	r0, r0, r3
 80001ec:	4152      	adcs	r2, r2
 80001ee:	0903      	lsrs	r3, r0, #4
 80001f0:	428b      	cmp	r3, r1
 80001f2:	d301      	bcc.n	80001f8 <__udivsi3+0xcc>
 80001f4:	010b      	lsls	r3, r1, #4
 80001f6:	1ac0      	subs	r0, r0, r3
 80001f8:	4152      	adcs	r2, r2
 80001fa:	08c3      	lsrs	r3, r0, #3
 80001fc:	428b      	cmp	r3, r1
 80001fe:	d301      	bcc.n	8000204 <__udivsi3+0xd8>
 8000200:	00cb      	lsls	r3, r1, #3
 8000202:	1ac0      	subs	r0, r0, r3
 8000204:	4152      	adcs	r2, r2
 8000206:	0883      	lsrs	r3, r0, #2
 8000208:	428b      	cmp	r3, r1
 800020a:	d301      	bcc.n	8000210 <__udivsi3+0xe4>
 800020c:	008b      	lsls	r3, r1, #2
 800020e:	1ac0      	subs	r0, r0, r3
 8000210:	4152      	adcs	r2, r2
 8000212:	0843      	lsrs	r3, r0, #1
 8000214:	428b      	cmp	r3, r1
 8000216:	d301      	bcc.n	800021c <__udivsi3+0xf0>
 8000218:	004b      	lsls	r3, r1, #1
 800021a:	1ac0      	subs	r0, r0, r3
 800021c:	4152      	adcs	r2, r2
 800021e:	1a41      	subs	r1, r0, r1
 8000220:	d200      	bcs.n	8000224 <__udivsi3+0xf8>
 8000222:	4601      	mov	r1, r0
 8000224:	4152      	adcs	r2, r2
 8000226:	4610      	mov	r0, r2
 8000228:	4770      	bx	lr
 800022a:	e7ff      	b.n	800022c <__udivsi3+0x100>
 800022c:	b501      	push	{r0, lr}
 800022e:	2000      	movs	r0, #0
 8000230:	f000 f8f0 	bl	8000414 <__aeabi_idiv0>
 8000234:	bd02      	pop	{r1, pc}
 8000236:	46c0      	nop			; (mov r8, r8)

08000238 <__aeabi_uidivmod>:
 8000238:	2900      	cmp	r1, #0
 800023a:	d0f7      	beq.n	800022c <__udivsi3+0x100>
 800023c:	e776      	b.n	800012c <__udivsi3>
 800023e:	4770      	bx	lr

08000240 <__divsi3>:
 8000240:	4603      	mov	r3, r0
 8000242:	430b      	orrs	r3, r1
 8000244:	d47f      	bmi.n	8000346 <__divsi3+0x106>
 8000246:	2200      	movs	r2, #0
 8000248:	0843      	lsrs	r3, r0, #1
 800024a:	428b      	cmp	r3, r1
 800024c:	d374      	bcc.n	8000338 <__divsi3+0xf8>
 800024e:	0903      	lsrs	r3, r0, #4
 8000250:	428b      	cmp	r3, r1
 8000252:	d35f      	bcc.n	8000314 <__divsi3+0xd4>
 8000254:	0a03      	lsrs	r3, r0, #8
 8000256:	428b      	cmp	r3, r1
 8000258:	d344      	bcc.n	80002e4 <__divsi3+0xa4>
 800025a:	0b03      	lsrs	r3, r0, #12
 800025c:	428b      	cmp	r3, r1
 800025e:	d328      	bcc.n	80002b2 <__divsi3+0x72>
 8000260:	0c03      	lsrs	r3, r0, #16
 8000262:	428b      	cmp	r3, r1
 8000264:	d30d      	bcc.n	8000282 <__divsi3+0x42>
 8000266:	22ff      	movs	r2, #255	; 0xff
 8000268:	0209      	lsls	r1, r1, #8
 800026a:	ba12      	rev	r2, r2
 800026c:	0c03      	lsrs	r3, r0, #16
 800026e:	428b      	cmp	r3, r1
 8000270:	d302      	bcc.n	8000278 <__divsi3+0x38>
 8000272:	1212      	asrs	r2, r2, #8
 8000274:	0209      	lsls	r1, r1, #8
 8000276:	d065      	beq.n	8000344 <__divsi3+0x104>
 8000278:	0b03      	lsrs	r3, r0, #12
 800027a:	428b      	cmp	r3, r1
 800027c:	d319      	bcc.n	80002b2 <__divsi3+0x72>
 800027e:	e000      	b.n	8000282 <__divsi3+0x42>
 8000280:	0a09      	lsrs	r1, r1, #8
 8000282:	0bc3      	lsrs	r3, r0, #15
 8000284:	428b      	cmp	r3, r1
 8000286:	d301      	bcc.n	800028c <__divsi3+0x4c>
 8000288:	03cb      	lsls	r3, r1, #15
 800028a:	1ac0      	subs	r0, r0, r3
 800028c:	4152      	adcs	r2, r2
 800028e:	0b83      	lsrs	r3, r0, #14
 8000290:	428b      	cmp	r3, r1
 8000292:	d301      	bcc.n	8000298 <__divsi3+0x58>
 8000294:	038b      	lsls	r3, r1, #14
 8000296:	1ac0      	subs	r0, r0, r3
 8000298:	4152      	adcs	r2, r2
 800029a:	0b43      	lsrs	r3, r0, #13
 800029c:	428b      	cmp	r3, r1
 800029e:	d301      	bcc.n	80002a4 <__divsi3+0x64>
 80002a0:	034b      	lsls	r3, r1, #13
 80002a2:	1ac0      	subs	r0, r0, r3
 80002a4:	4152      	adcs	r2, r2
 80002a6:	0b03      	lsrs	r3, r0, #12
 80002a8:	428b      	cmp	r3, r1
 80002aa:	d301      	bcc.n	80002b0 <__divsi3+0x70>
 80002ac:	030b      	lsls	r3, r1, #12
 80002ae:	1ac0      	subs	r0, r0, r3
 80002b0:	4152      	adcs	r2, r2
 80002b2:	0ac3      	lsrs	r3, r0, #11
 80002b4:	428b      	cmp	r3, r1
 80002b6:	d301      	bcc.n	80002bc <__divsi3+0x7c>
 80002b8:	02cb      	lsls	r3, r1, #11
 80002ba:	1ac0      	subs	r0, r0, r3
 80002bc:	4152      	adcs	r2, r2
 80002be:	0a83      	lsrs	r3, r0, #10
 80002c0:	428b      	cmp	r3, r1
 80002c2:	d301      	bcc.n	80002c8 <__divsi3+0x88>
 80002c4:	028b      	lsls	r3, r1, #10
 80002c6:	1ac0      	subs	r0, r0, r3
 80002c8:	4152      	adcs	r2, r2
 80002ca:	0a43      	lsrs	r3, r0, #9
 80002cc:	428b      	cmp	r3, r1
 80002ce:	d301      	bcc.n	80002d4 <__divsi3+0x94>
 80002d0:	024b      	lsls	r3, r1, #9
 80002d2:	1ac0      	subs	r0, r0, r3
 80002d4:	4152      	adcs	r2, r2
 80002d6:	0a03      	lsrs	r3, r0, #8
 80002d8:	428b      	cmp	r3, r1
 80002da:	d301      	bcc.n	80002e0 <__divsi3+0xa0>
 80002dc:	020b      	lsls	r3, r1, #8
 80002de:	1ac0      	subs	r0, r0, r3
 80002e0:	4152      	adcs	r2, r2
 80002e2:	d2cd      	bcs.n	8000280 <__divsi3+0x40>
 80002e4:	09c3      	lsrs	r3, r0, #7
 80002e6:	428b      	cmp	r3, r1
 80002e8:	d301      	bcc.n	80002ee <__divsi3+0xae>
 80002ea:	01cb      	lsls	r3, r1, #7
 80002ec:	1ac0      	subs	r0, r0, r3
 80002ee:	4152      	adcs	r2, r2
 80002f0:	0983      	lsrs	r3, r0, #6
 80002f2:	428b      	cmp	r3, r1
 80002f4:	d301      	bcc.n	80002fa <__divsi3+0xba>
 80002f6:	018b      	lsls	r3, r1, #6
 80002f8:	1ac0      	subs	r0, r0, r3
 80002fa:	4152      	adcs	r2, r2
 80002fc:	0943      	lsrs	r3, r0, #5
 80002fe:	428b      	cmp	r3, r1
 8000300:	d301      	bcc.n	8000306 <__divsi3+0xc6>
 8000302:	014b      	lsls	r3, r1, #5
 8000304:	1ac0      	subs	r0, r0, r3
 8000306:	4152      	adcs	r2, r2
 8000308:	0903      	lsrs	r3, r0, #4
 800030a:	428b      	cmp	r3, r1
 800030c:	d301      	bcc.n	8000312 <__divsi3+0xd2>
 800030e:	010b      	lsls	r3, r1, #4
 8000310:	1ac0      	subs	r0, r0, r3
 8000312:	4152      	adcs	r2, r2
 8000314:	08c3      	lsrs	r3, r0, #3
 8000316:	428b      	cmp	r3, r1
 8000318:	d301      	bcc.n	800031e <__divsi3+0xde>
 800031a:	00cb      	lsls	r3, r1, #3
 800031c:	1ac0      	subs	r0, r0, r3
 800031e:	4152      	adcs	r2, r2
 8000320:	0883      	lsrs	r3, r0, #2
 8000322:	428b      	cmp	r3, r1
 8000324:	d301      	bcc.n	800032a <__divsi3+0xea>
 8000326:	008b      	lsls	r3, r1, #2
 8000328:	1ac0      	subs	r0, r0, r3
 800032a:	4152      	adcs	r2, r2
 800032c:	0843      	lsrs	r3, r0, #1
 800032e:	428b      	cmp	r3, r1
 8000330:	d301      	bcc.n	8000336 <__divsi3+0xf6>
 8000332:	004b      	lsls	r3, r1, #1
 8000334:	1ac0      	subs	r0, r0, r3
 8000336:	4152      	adcs	r2, r2
 8000338:	1a41      	subs	r1, r0, r1
 800033a:	d200      	bcs.n	800033e <__divsi3+0xfe>
 800033c:	4601      	mov	r1, r0
 800033e:	4152      	adcs	r2, r2
 8000340:	4610      	mov	r0, r2
 8000342:	4770      	bx	lr
 8000344:	e05d      	b.n	8000402 <__divsi3+0x1c2>
 8000346:	0fca      	lsrs	r2, r1, #31
 8000348:	d000      	beq.n	800034c <__divsi3+0x10c>
 800034a:	4249      	negs	r1, r1
 800034c:	1003      	asrs	r3, r0, #32
 800034e:	d300      	bcc.n	8000352 <__divsi3+0x112>
 8000350:	4240      	negs	r0, r0
 8000352:	4053      	eors	r3, r2
 8000354:	2200      	movs	r2, #0
 8000356:	469c      	mov	ip, r3
 8000358:	0903      	lsrs	r3, r0, #4
 800035a:	428b      	cmp	r3, r1
 800035c:	d32d      	bcc.n	80003ba <__divsi3+0x17a>
 800035e:	0a03      	lsrs	r3, r0, #8
 8000360:	428b      	cmp	r3, r1
 8000362:	d312      	bcc.n	800038a <__divsi3+0x14a>
 8000364:	22fc      	movs	r2, #252	; 0xfc
 8000366:	0189      	lsls	r1, r1, #6
 8000368:	ba12      	rev	r2, r2
 800036a:	0a03      	lsrs	r3, r0, #8
 800036c:	428b      	cmp	r3, r1
 800036e:	d30c      	bcc.n	800038a <__divsi3+0x14a>
 8000370:	0189      	lsls	r1, r1, #6
 8000372:	1192      	asrs	r2, r2, #6
 8000374:	428b      	cmp	r3, r1
 8000376:	d308      	bcc.n	800038a <__divsi3+0x14a>
 8000378:	0189      	lsls	r1, r1, #6
 800037a:	1192      	asrs	r2, r2, #6
 800037c:	428b      	cmp	r3, r1
 800037e:	d304      	bcc.n	800038a <__divsi3+0x14a>
 8000380:	0189      	lsls	r1, r1, #6
 8000382:	d03a      	beq.n	80003fa <__divsi3+0x1ba>
 8000384:	1192      	asrs	r2, r2, #6
 8000386:	e000      	b.n	800038a <__divsi3+0x14a>
 8000388:	0989      	lsrs	r1, r1, #6
 800038a:	09c3      	lsrs	r3, r0, #7
 800038c:	428b      	cmp	r3, r1
 800038e:	d301      	bcc.n	8000394 <__divsi3+0x154>
 8000390:	01cb      	lsls	r3, r1, #7
 8000392:	1ac0      	subs	r0, r0, r3
 8000394:	4152      	adcs	r2, r2
 8000396:	0983      	lsrs	r3, r0, #6
 8000398:	428b      	cmp	r3, r1
 800039a:	d301      	bcc.n	80003a0 <__divsi3+0x160>
 800039c:	018b      	lsls	r3, r1, #6
 800039e:	1ac0      	subs	r0, r0, r3
 80003a0:	4152      	adcs	r2, r2
 80003a2:	0943      	lsrs	r3, r0, #5
 80003a4:	428b      	cmp	r3, r1
 80003a6:	d301      	bcc.n	80003ac <__divsi3+0x16c>
 80003a8:	014b      	lsls	r3, r1, #5
 80003aa:	1ac0      	subs	r0, r0, r3
 80003ac:	4152      	adcs	r2, r2
 80003ae:	0903      	lsrs	r3, r0, #4
 80003b0:	428b      	cmp	r3, r1
 80003b2:	d301      	bcc.n	80003b8 <__divsi3+0x178>
 80003b4:	010b      	lsls	r3, r1, #4
 80003b6:	1ac0      	subs	r0, r0, r3
 80003b8:	4152      	adcs	r2, r2
 80003ba:	08c3      	lsrs	r3, r0, #3
 80003bc:	428b      	cmp	r3, r1
 80003be:	d301      	bcc.n	80003c4 <__divsi3+0x184>
 80003c0:	00cb      	lsls	r3, r1, #3
 80003c2:	1ac0      	subs	r0, r0, r3
 80003c4:	4152      	adcs	r2, r2
 80003c6:	0883      	lsrs	r3, r0, #2
 80003c8:	428b      	cmp	r3, r1
 80003ca:	d301      	bcc.n	80003d0 <__divsi3+0x190>
 80003cc:	008b      	lsls	r3, r1, #2
 80003ce:	1ac0      	subs	r0, r0, r3
 80003d0:	4152      	adcs	r2, r2
 80003d2:	d2d9      	bcs.n	8000388 <__divsi3+0x148>
 80003d4:	0843      	lsrs	r3, r0, #1
 80003d6:	428b      	cmp	r3, r1
 80003d8:	d301      	bcc.n	80003de <__divsi3+0x19e>
 80003da:	004b      	lsls	r3, r1, #1
 80003dc:	1ac0      	subs	r0, r0, r3
 80003de:	4152      	adcs	r2, r2
 80003e0:	1a41      	subs	r1, r0, r1
 80003e2:	d200      	bcs.n	80003e6 <__divsi3+0x1a6>
 80003e4:	4601      	mov	r1, r0
 80003e6:	4663      	mov	r3, ip
 80003e8:	4152      	adcs	r2, r2
 80003ea:	105b      	asrs	r3, r3, #1
 80003ec:	4610      	mov	r0, r2
 80003ee:	d301      	bcc.n	80003f4 <__divsi3+0x1b4>
 80003f0:	4240      	negs	r0, r0
 80003f2:	2b00      	cmp	r3, #0
 80003f4:	d500      	bpl.n	80003f8 <__divsi3+0x1b8>
 80003f6:	4249      	negs	r1, r1
 80003f8:	4770      	bx	lr
 80003fa:	4663      	mov	r3, ip
 80003fc:	105b      	asrs	r3, r3, #1
 80003fe:	d300      	bcc.n	8000402 <__divsi3+0x1c2>
 8000400:	4240      	negs	r0, r0
 8000402:	b501      	push	{r0, lr}
 8000404:	2000      	movs	r0, #0
 8000406:	f000 f805 	bl	8000414 <__aeabi_idiv0>
 800040a:	bd02      	pop	{r1, pc}

0800040c <__aeabi_idivmod>:
 800040c:	2900      	cmp	r1, #0
 800040e:	d0f8      	beq.n	8000402 <__divsi3+0x1c2>
 8000410:	e716      	b.n	8000240 <__divsi3>
 8000412:	4770      	bx	lr

08000414 <__aeabi_idiv0>:
 8000414:	4770      	bx	lr
 8000416:	46c0      	nop			; (mov r8, r8)

08000418 <__aeabi_cdrcmple>:
 8000418:	4684      	mov	ip, r0
 800041a:	1c10      	adds	r0, r2, #0
 800041c:	4662      	mov	r2, ip
 800041e:	468c      	mov	ip, r1
 8000420:	1c19      	adds	r1, r3, #0
 8000422:	4663      	mov	r3, ip
 8000424:	e000      	b.n	8000428 <__aeabi_cdcmpeq>
 8000426:	46c0      	nop			; (mov r8, r8)

08000428 <__aeabi_cdcmpeq>:
 8000428:	b51f      	push	{r0, r1, r2, r3, r4, lr}
 800042a:	f001 fe15 	bl	8002058 <__ledf2>
 800042e:	2800      	cmp	r0, #0
 8000430:	d401      	bmi.n	8000436 <__aeabi_cdcmpeq+0xe>
 8000432:	2100      	movs	r1, #0
 8000434:	42c8      	cmn	r0, r1
 8000436:	bd1f      	pop	{r0, r1, r2, r3, r4, pc}

08000438 <__aeabi_dcmpeq>:
 8000438:	b510      	push	{r4, lr}
 800043a:	f001 fd6f 	bl	8001f1c <__eqdf2>
 800043e:	4240      	negs	r0, r0
 8000440:	3001      	adds	r0, #1
 8000442:	bd10      	pop	{r4, pc}

08000444 <__aeabi_dcmplt>:
 8000444:	b510      	push	{r4, lr}
 8000446:	f001 fe07 	bl	8002058 <__ledf2>
 800044a:	2800      	cmp	r0, #0
 800044c:	db01      	blt.n	8000452 <__aeabi_dcmplt+0xe>
 800044e:	2000      	movs	r0, #0
 8000450:	bd10      	pop	{r4, pc}
 8000452:	2001      	movs	r0, #1
 8000454:	bd10      	pop	{r4, pc}
 8000456:	46c0      	nop			; (mov r8, r8)

08000458 <__aeabi_dcmple>:
 8000458:	b510      	push	{r4, lr}
 800045a:	f001 fdfd 	bl	8002058 <__ledf2>
 800045e:	2800      	cmp	r0, #0
 8000460:	dd01      	ble.n	8000466 <__aeabi_dcmple+0xe>
 8000462:	2000      	movs	r0, #0
 8000464:	bd10      	pop	{r4, pc}
 8000466:	2001      	movs	r0, #1
 8000468:	bd10      	pop	{r4, pc}
 800046a:	46c0      	nop			; (mov r8, r8)

0800046c <__aeabi_dcmpgt>:
 800046c:	b510      	push	{r4, lr}
 800046e:	f001 fd8f 	bl	8001f90 <__gedf2>
 8000472:	2800      	cmp	r0, #0
 8000474:	dc01      	bgt.n	800047a <__aeabi_dcmpgt+0xe>
 8000476:	2000      	movs	r0, #0
 8000478:	bd10      	pop	{r4, pc}
 800047a:	2001      	movs	r0, #1
 800047c:	bd10      	pop	{r4, pc}
 800047e:	46c0      	nop			; (mov r8, r8)

08000480 <__aeabi_dcmpge>:
 8000480:	b510      	push	{r4, lr}
 8000482:	f001 fd85 	bl	8001f90 <__gedf2>
 8000486:	2800      	cmp	r0, #0
 8000488:	da01      	bge.n	800048e <__aeabi_dcmpge+0xe>
 800048a:	2000      	movs	r0, #0
 800048c:	bd10      	pop	{r4, pc}
 800048e:	2001      	movs	r0, #1
 8000490:	bd10      	pop	{r4, pc}
 8000492:	46c0      	nop			; (mov r8, r8)

08000494 <__aeabi_cfrcmple>:
 8000494:	4684      	mov	ip, r0
 8000496:	1c08      	adds	r0, r1, #0
 8000498:	4661      	mov	r1, ip
 800049a:	e7ff      	b.n	800049c <__aeabi_cfcmpeq>

0800049c <__aeabi_cfcmpeq>:
 800049c:	b51f      	push	{r0, r1, r2, r3, r4, lr}
 800049e:	f000 fb8b 	bl	8000bb8 <__lesf2>
 80004a2:	2800      	cmp	r0, #0
 80004a4:	d401      	bmi.n	80004aa <__aeabi_cfcmpeq+0xe>
 80004a6:	2100      	movs	r1, #0
 80004a8:	42c8      	cmn	r0, r1
 80004aa:	bd1f      	pop	{r0, r1, r2, r3, r4, pc}

080004ac <__aeabi_fcmpeq>:
 80004ac:	b510      	push	{r4, lr}
 80004ae:	f000 fb1d 	bl	8000aec <__eqsf2>
 80004b2:	4240      	negs	r0, r0
 80004b4:	3001      	adds	r0, #1
 80004b6:	bd10      	pop	{r4, pc}

080004b8 <__aeabi_fcmplt>:
 80004b8:	b510      	push	{r4, lr}
 80004ba:	f000 fb7d 	bl	8000bb8 <__lesf2>
 80004be:	2800      	cmp	r0, #0
 80004c0:	db01      	blt.n	80004c6 <__aeabi_fcmplt+0xe>
 80004c2:	2000      	movs	r0, #0
 80004c4:	bd10      	pop	{r4, pc}
 80004c6:	2001      	movs	r0, #1
 80004c8:	bd10      	pop	{r4, pc}
 80004ca:	46c0      	nop			; (mov r8, r8)

080004cc <__aeabi_fcmple>:
 80004cc:	b510      	push	{r4, lr}
 80004ce:	f000 fb73 	bl	8000bb8 <__lesf2>
 80004d2:	2800      	cmp	r0, #0
 80004d4:	dd01      	ble.n	80004da <__aeabi_fcmple+0xe>
 80004d6:	2000      	movs	r0, #0
 80004d8:	bd10      	pop	{r4, pc}
 80004da:	2001      	movs	r0, #1
 80004dc:	bd10      	pop	{r4, pc}
 80004de:	46c0      	nop			; (mov r8, r8)

080004e0 <__aeabi_fcmpgt>:
 80004e0:	b510      	push	{r4, lr}
 80004e2:	f000 fb29 	bl	8000b38 <__gesf2>
 80004e6:	2800      	cmp	r0, #0
 80004e8:	dc01      	bgt.n	80004ee <__aeabi_fcmpgt+0xe>
 80004ea:	2000      	movs	r0, #0
 80004ec:	bd10      	pop	{r4, pc}
 80004ee:	2001      	movs	r0, #1
 80004f0:	bd10      	pop	{r4, pc}
 80004f2:	46c0      	nop			; (mov r8, r8)

080004f4 <__aeabi_fcmpge>:
 80004f4:	b510      	push	{r4, lr}
 80004f6:	f000 fb1f 	bl	8000b38 <__gesf2>
 80004fa:	2800      	cmp	r0, #0
 80004fc:	da01      	bge.n	8000502 <__aeabi_fcmpge+0xe>
 80004fe:	2000      	movs	r0, #0
 8000500:	bd10      	pop	{r4, pc}
 8000502:	2001      	movs	r0, #1
 8000504:	bd10      	pop	{r4, pc}
 8000506:	46c0      	nop			; (mov r8, r8)

08000508 <__aeabi_f2uiz>:
 8000508:	219e      	movs	r1, #158	; 0x9e
 800050a:	b510      	push	{r4, lr}
 800050c:	05c9      	lsls	r1, r1, #23
 800050e:	1c04      	adds	r4, r0, #0
 8000510:	f7ff fff0 	bl	80004f4 <__aeabi_fcmpge>
 8000514:	2800      	cmp	r0, #0
 8000516:	d103      	bne.n	8000520 <__aeabi_f2uiz+0x18>
 8000518:	1c20      	adds	r0, r4, #0
 800051a:	f000 fe4b 	bl	80011b4 <__aeabi_f2iz>
 800051e:	bd10      	pop	{r4, pc}
 8000520:	219e      	movs	r1, #158	; 0x9e
 8000522:	1c20      	adds	r0, r4, #0
 8000524:	05c9      	lsls	r1, r1, #23
 8000526:	f000 fca9 	bl	8000e7c <__aeabi_fsub>
 800052a:	f000 fe43 	bl	80011b4 <__aeabi_f2iz>
 800052e:	2380      	movs	r3, #128	; 0x80
 8000530:	061b      	lsls	r3, r3, #24
 8000532:	469c      	mov	ip, r3
 8000534:	4460      	add	r0, ip
 8000536:	e7f2      	b.n	800051e <__aeabi_f2uiz+0x16>

08000538 <__aeabi_fadd>:
 8000538:	b5f0      	push	{r4, r5, r6, r7, lr}
 800053a:	46c6      	mov	lr, r8
 800053c:	024e      	lsls	r6, r1, #9
 800053e:	0247      	lsls	r7, r0, #9
 8000540:	0a76      	lsrs	r6, r6, #9
 8000542:	0a7b      	lsrs	r3, r7, #9
 8000544:	0044      	lsls	r4, r0, #1
 8000546:	0fc5      	lsrs	r5, r0, #31
 8000548:	00f7      	lsls	r7, r6, #3
 800054a:	0048      	lsls	r0, r1, #1
 800054c:	4698      	mov	r8, r3
 800054e:	b500      	push	{lr}
 8000550:	0e24      	lsrs	r4, r4, #24
 8000552:	002a      	movs	r2, r5
 8000554:	00db      	lsls	r3, r3, #3
 8000556:	0e00      	lsrs	r0, r0, #24
 8000558:	0fc9      	lsrs	r1, r1, #31
 800055a:	46bc      	mov	ip, r7
 800055c:	428d      	cmp	r5, r1
 800055e:	d067      	beq.n	8000630 <__aeabi_fadd+0xf8>
 8000560:	1a22      	subs	r2, r4, r0
 8000562:	2a00      	cmp	r2, #0
 8000564:	dc00      	bgt.n	8000568 <__aeabi_fadd+0x30>
 8000566:	e0a5      	b.n	80006b4 <__aeabi_fadd+0x17c>
 8000568:	2800      	cmp	r0, #0
 800056a:	d13a      	bne.n	80005e2 <__aeabi_fadd+0xaa>
 800056c:	2f00      	cmp	r7, #0
 800056e:	d100      	bne.n	8000572 <__aeabi_fadd+0x3a>
 8000570:	e093      	b.n	800069a <__aeabi_fadd+0x162>
 8000572:	1e51      	subs	r1, r2, #1
 8000574:	2900      	cmp	r1, #0
 8000576:	d000      	beq.n	800057a <__aeabi_fadd+0x42>
 8000578:	e0bc      	b.n	80006f4 <__aeabi_fadd+0x1bc>
 800057a:	2401      	movs	r4, #1
 800057c:	1bdb      	subs	r3, r3, r7
 800057e:	015a      	lsls	r2, r3, #5
 8000580:	d546      	bpl.n	8000610 <__aeabi_fadd+0xd8>
 8000582:	019b      	lsls	r3, r3, #6
 8000584:	099e      	lsrs	r6, r3, #6
 8000586:	0030      	movs	r0, r6
 8000588:	f002 fd08 	bl	8002f9c <__clzsi2>
 800058c:	3805      	subs	r0, #5
 800058e:	4086      	lsls	r6, r0
 8000590:	4284      	cmp	r4, r0
 8000592:	dd00      	ble.n	8000596 <__aeabi_fadd+0x5e>
 8000594:	e09d      	b.n	80006d2 <__aeabi_fadd+0x19a>
 8000596:	1b04      	subs	r4, r0, r4
 8000598:	0032      	movs	r2, r6
 800059a:	2020      	movs	r0, #32
 800059c:	3401      	adds	r4, #1
 800059e:	40e2      	lsrs	r2, r4
 80005a0:	1b04      	subs	r4, r0, r4
 80005a2:	40a6      	lsls	r6, r4
 80005a4:	0033      	movs	r3, r6
 80005a6:	1e5e      	subs	r6, r3, #1
 80005a8:	41b3      	sbcs	r3, r6
 80005aa:	2400      	movs	r4, #0
 80005ac:	4313      	orrs	r3, r2
 80005ae:	075a      	lsls	r2, r3, #29
 80005b0:	d004      	beq.n	80005bc <__aeabi_fadd+0x84>
 80005b2:	220f      	movs	r2, #15
 80005b4:	401a      	ands	r2, r3
 80005b6:	2a04      	cmp	r2, #4
 80005b8:	d000      	beq.n	80005bc <__aeabi_fadd+0x84>
 80005ba:	3304      	adds	r3, #4
 80005bc:	015a      	lsls	r2, r3, #5
 80005be:	d529      	bpl.n	8000614 <__aeabi_fadd+0xdc>
 80005c0:	3401      	adds	r4, #1
 80005c2:	2cff      	cmp	r4, #255	; 0xff
 80005c4:	d100      	bne.n	80005c8 <__aeabi_fadd+0x90>
 80005c6:	e081      	b.n	80006cc <__aeabi_fadd+0x194>
 80005c8:	002a      	movs	r2, r5
 80005ca:	019b      	lsls	r3, r3, #6
 80005cc:	0a5b      	lsrs	r3, r3, #9
 80005ce:	b2e4      	uxtb	r4, r4
 80005d0:	025b      	lsls	r3, r3, #9
 80005d2:	05e4      	lsls	r4, r4, #23
 80005d4:	0a58      	lsrs	r0, r3, #9
 80005d6:	07d2      	lsls	r2, r2, #31
 80005d8:	4320      	orrs	r0, r4
 80005da:	4310      	orrs	r0, r2
 80005dc:	bc04      	pop	{r2}
 80005de:	4690      	mov	r8, r2
 80005e0:	bdf0      	pop	{r4, r5, r6, r7, pc}
 80005e2:	2cff      	cmp	r4, #255	; 0xff
 80005e4:	d0e3      	beq.n	80005ae <__aeabi_fadd+0x76>
 80005e6:	2180      	movs	r1, #128	; 0x80
 80005e8:	0038      	movs	r0, r7
 80005ea:	04c9      	lsls	r1, r1, #19
 80005ec:	4308      	orrs	r0, r1
 80005ee:	4684      	mov	ip, r0
 80005f0:	2a1b      	cmp	r2, #27
 80005f2:	dd00      	ble.n	80005f6 <__aeabi_fadd+0xbe>
 80005f4:	e082      	b.n	80006fc <__aeabi_fadd+0x1c4>
 80005f6:	2020      	movs	r0, #32
 80005f8:	4661      	mov	r1, ip
 80005fa:	40d1      	lsrs	r1, r2
 80005fc:	1a82      	subs	r2, r0, r2
 80005fe:	4660      	mov	r0, ip
 8000600:	4090      	lsls	r0, r2
 8000602:	0002      	movs	r2, r0
 8000604:	1e50      	subs	r0, r2, #1
 8000606:	4182      	sbcs	r2, r0
 8000608:	430a      	orrs	r2, r1
 800060a:	1a9b      	subs	r3, r3, r2
 800060c:	015a      	lsls	r2, r3, #5
 800060e:	d4b8      	bmi.n	8000582 <__aeabi_fadd+0x4a>
 8000610:	075a      	lsls	r2, r3, #29
 8000612:	d1ce      	bne.n	80005b2 <__aeabi_fadd+0x7a>
 8000614:	08de      	lsrs	r6, r3, #3
 8000616:	002a      	movs	r2, r5
 8000618:	2cff      	cmp	r4, #255	; 0xff
 800061a:	d13a      	bne.n	8000692 <__aeabi_fadd+0x15a>
 800061c:	2e00      	cmp	r6, #0
 800061e:	d100      	bne.n	8000622 <__aeabi_fadd+0xea>
 8000620:	e0ae      	b.n	8000780 <__aeabi_fadd+0x248>
 8000622:	2380      	movs	r3, #128	; 0x80
 8000624:	03db      	lsls	r3, r3, #15
 8000626:	4333      	orrs	r3, r6
 8000628:	025b      	lsls	r3, r3, #9
 800062a:	0a5b      	lsrs	r3, r3, #9
 800062c:	24ff      	movs	r4, #255	; 0xff
 800062e:	e7cf      	b.n	80005d0 <__aeabi_fadd+0x98>
 8000630:	1a21      	subs	r1, r4, r0
 8000632:	2900      	cmp	r1, #0
 8000634:	dd52      	ble.n	80006dc <__aeabi_fadd+0x1a4>
 8000636:	2800      	cmp	r0, #0
 8000638:	d031      	beq.n	800069e <__aeabi_fadd+0x166>
 800063a:	2cff      	cmp	r4, #255	; 0xff
 800063c:	d0b7      	beq.n	80005ae <__aeabi_fadd+0x76>
 800063e:	2080      	movs	r0, #128	; 0x80
 8000640:	003e      	movs	r6, r7
 8000642:	04c0      	lsls	r0, r0, #19
 8000644:	4306      	orrs	r6, r0
 8000646:	46b4      	mov	ip, r6
 8000648:	291b      	cmp	r1, #27
 800064a:	dd00      	ble.n	800064e <__aeabi_fadd+0x116>
 800064c:	e0aa      	b.n	80007a4 <__aeabi_fadd+0x26c>
 800064e:	2620      	movs	r6, #32
 8000650:	4660      	mov	r0, ip
 8000652:	40c8      	lsrs	r0, r1
 8000654:	1a71      	subs	r1, r6, r1
 8000656:	4666      	mov	r6, ip
 8000658:	408e      	lsls	r6, r1
 800065a:	0031      	movs	r1, r6
 800065c:	1e4e      	subs	r6, r1, #1
 800065e:	41b1      	sbcs	r1, r6
 8000660:	4301      	orrs	r1, r0
 8000662:	185b      	adds	r3, r3, r1
 8000664:	0159      	lsls	r1, r3, #5
 8000666:	d5d3      	bpl.n	8000610 <__aeabi_fadd+0xd8>
 8000668:	3401      	adds	r4, #1
 800066a:	2cff      	cmp	r4, #255	; 0xff
 800066c:	d100      	bne.n	8000670 <__aeabi_fadd+0x138>
 800066e:	e087      	b.n	8000780 <__aeabi_fadd+0x248>
 8000670:	2201      	movs	r2, #1
 8000672:	4978      	ldr	r1, [pc, #480]	; (8000854 <__aeabi_fadd+0x31c>)
 8000674:	401a      	ands	r2, r3
 8000676:	085b      	lsrs	r3, r3, #1
 8000678:	400b      	ands	r3, r1
 800067a:	4313      	orrs	r3, r2
 800067c:	e797      	b.n	80005ae <__aeabi_fadd+0x76>
 800067e:	2c00      	cmp	r4, #0
 8000680:	d000      	beq.n	8000684 <__aeabi_fadd+0x14c>
 8000682:	e0a7      	b.n	80007d4 <__aeabi_fadd+0x29c>
 8000684:	2b00      	cmp	r3, #0
 8000686:	d000      	beq.n	800068a <__aeabi_fadd+0x152>
 8000688:	e0b6      	b.n	80007f8 <__aeabi_fadd+0x2c0>
 800068a:	1e3b      	subs	r3, r7, #0
 800068c:	d162      	bne.n	8000754 <__aeabi_fadd+0x21c>
 800068e:	2600      	movs	r6, #0
 8000690:	2200      	movs	r2, #0
 8000692:	0273      	lsls	r3, r6, #9
 8000694:	0a5b      	lsrs	r3, r3, #9
 8000696:	b2e4      	uxtb	r4, r4
 8000698:	e79a      	b.n	80005d0 <__aeabi_fadd+0x98>
 800069a:	0014      	movs	r4, r2
 800069c:	e787      	b.n	80005ae <__aeabi_fadd+0x76>
 800069e:	2f00      	cmp	r7, #0
 80006a0:	d04d      	beq.n	800073e <__aeabi_fadd+0x206>
 80006a2:	1e48      	subs	r0, r1, #1
 80006a4:	2800      	cmp	r0, #0
 80006a6:	d157      	bne.n	8000758 <__aeabi_fadd+0x220>
 80006a8:	4463      	add	r3, ip
 80006aa:	2401      	movs	r4, #1
 80006ac:	015a      	lsls	r2, r3, #5
 80006ae:	d5af      	bpl.n	8000610 <__aeabi_fadd+0xd8>
 80006b0:	2402      	movs	r4, #2
 80006b2:	e7dd      	b.n	8000670 <__aeabi_fadd+0x138>
 80006b4:	2a00      	cmp	r2, #0
 80006b6:	d124      	bne.n	8000702 <__aeabi_fadd+0x1ca>
 80006b8:	1c62      	adds	r2, r4, #1
 80006ba:	b2d2      	uxtb	r2, r2
 80006bc:	2a01      	cmp	r2, #1
 80006be:	ddde      	ble.n	800067e <__aeabi_fadd+0x146>
 80006c0:	1bde      	subs	r6, r3, r7
 80006c2:	0172      	lsls	r2, r6, #5
 80006c4:	d535      	bpl.n	8000732 <__aeabi_fadd+0x1fa>
 80006c6:	1afe      	subs	r6, r7, r3
 80006c8:	000d      	movs	r5, r1
 80006ca:	e75c      	b.n	8000586 <__aeabi_fadd+0x4e>
 80006cc:	002a      	movs	r2, r5
 80006ce:	2300      	movs	r3, #0
 80006d0:	e77e      	b.n	80005d0 <__aeabi_fadd+0x98>
 80006d2:	0033      	movs	r3, r6
 80006d4:	4a60      	ldr	r2, [pc, #384]	; (8000858 <__aeabi_fadd+0x320>)
 80006d6:	1a24      	subs	r4, r4, r0
 80006d8:	4013      	ands	r3, r2
 80006da:	e768      	b.n	80005ae <__aeabi_fadd+0x76>
 80006dc:	2900      	cmp	r1, #0
 80006de:	d163      	bne.n	80007a8 <__aeabi_fadd+0x270>
 80006e0:	1c61      	adds	r1, r4, #1
 80006e2:	b2c8      	uxtb	r0, r1
 80006e4:	2801      	cmp	r0, #1
 80006e6:	dd4e      	ble.n	8000786 <__aeabi_fadd+0x24e>
 80006e8:	29ff      	cmp	r1, #255	; 0xff
 80006ea:	d049      	beq.n	8000780 <__aeabi_fadd+0x248>
 80006ec:	4463      	add	r3, ip
 80006ee:	085b      	lsrs	r3, r3, #1
 80006f0:	000c      	movs	r4, r1
 80006f2:	e75c      	b.n	80005ae <__aeabi_fadd+0x76>
 80006f4:	2aff      	cmp	r2, #255	; 0xff
 80006f6:	d041      	beq.n	800077c <__aeabi_fadd+0x244>
 80006f8:	000a      	movs	r2, r1
 80006fa:	e779      	b.n	80005f0 <__aeabi_fadd+0xb8>
 80006fc:	2201      	movs	r2, #1
 80006fe:	1a9b      	subs	r3, r3, r2
 8000700:	e784      	b.n	800060c <__aeabi_fadd+0xd4>
 8000702:	2c00      	cmp	r4, #0
 8000704:	d01d      	beq.n	8000742 <__aeabi_fadd+0x20a>
 8000706:	28ff      	cmp	r0, #255	; 0xff
 8000708:	d022      	beq.n	8000750 <__aeabi_fadd+0x218>
 800070a:	2480      	movs	r4, #128	; 0x80
 800070c:	04e4      	lsls	r4, r4, #19
 800070e:	4252      	negs	r2, r2
 8000710:	4323      	orrs	r3, r4
 8000712:	2a1b      	cmp	r2, #27
 8000714:	dd00      	ble.n	8000718 <__aeabi_fadd+0x1e0>
 8000716:	e08a      	b.n	800082e <__aeabi_fadd+0x2f6>
 8000718:	001c      	movs	r4, r3
 800071a:	2520      	movs	r5, #32
 800071c:	40d4      	lsrs	r4, r2
 800071e:	1aaa      	subs	r2, r5, r2
 8000720:	4093      	lsls	r3, r2
 8000722:	1e5a      	subs	r2, r3, #1
 8000724:	4193      	sbcs	r3, r2
 8000726:	4323      	orrs	r3, r4
 8000728:	4662      	mov	r2, ip
 800072a:	0004      	movs	r4, r0
 800072c:	1ad3      	subs	r3, r2, r3
 800072e:	000d      	movs	r5, r1
 8000730:	e725      	b.n	800057e <__aeabi_fadd+0x46>
 8000732:	2e00      	cmp	r6, #0
 8000734:	d000      	beq.n	8000738 <__aeabi_fadd+0x200>
 8000736:	e726      	b.n	8000586 <__aeabi_fadd+0x4e>
 8000738:	2200      	movs	r2, #0
 800073a:	2400      	movs	r4, #0
 800073c:	e7a9      	b.n	8000692 <__aeabi_fadd+0x15a>
 800073e:	000c      	movs	r4, r1
 8000740:	e735      	b.n	80005ae <__aeabi_fadd+0x76>
 8000742:	2b00      	cmp	r3, #0
 8000744:	d04d      	beq.n	80007e2 <__aeabi_fadd+0x2aa>
 8000746:	43d2      	mvns	r2, r2
 8000748:	2a00      	cmp	r2, #0
 800074a:	d0ed      	beq.n	8000728 <__aeabi_fadd+0x1f0>
 800074c:	28ff      	cmp	r0, #255	; 0xff
 800074e:	d1e0      	bne.n	8000712 <__aeabi_fadd+0x1da>
 8000750:	4663      	mov	r3, ip
 8000752:	24ff      	movs	r4, #255	; 0xff
 8000754:	000d      	movs	r5, r1
 8000756:	e72a      	b.n	80005ae <__aeabi_fadd+0x76>
 8000758:	29ff      	cmp	r1, #255	; 0xff
 800075a:	d00f      	beq.n	800077c <__aeabi_fadd+0x244>
 800075c:	0001      	movs	r1, r0
 800075e:	e773      	b.n	8000648 <__aeabi_fadd+0x110>
 8000760:	2b00      	cmp	r3, #0
 8000762:	d061      	beq.n	8000828 <__aeabi_fadd+0x2f0>
 8000764:	24ff      	movs	r4, #255	; 0xff
 8000766:	2f00      	cmp	r7, #0
 8000768:	d100      	bne.n	800076c <__aeabi_fadd+0x234>
 800076a:	e720      	b.n	80005ae <__aeabi_fadd+0x76>
 800076c:	2280      	movs	r2, #128	; 0x80
 800076e:	4641      	mov	r1, r8
 8000770:	03d2      	lsls	r2, r2, #15
 8000772:	4211      	tst	r1, r2
 8000774:	d002      	beq.n	800077c <__aeabi_fadd+0x244>
 8000776:	4216      	tst	r6, r2
 8000778:	d100      	bne.n	800077c <__aeabi_fadd+0x244>
 800077a:	003b      	movs	r3, r7
 800077c:	24ff      	movs	r4, #255	; 0xff
 800077e:	e716      	b.n	80005ae <__aeabi_fadd+0x76>
 8000780:	24ff      	movs	r4, #255	; 0xff
 8000782:	2300      	movs	r3, #0
 8000784:	e724      	b.n	80005d0 <__aeabi_fadd+0x98>
 8000786:	2c00      	cmp	r4, #0
 8000788:	d1ea      	bne.n	8000760 <__aeabi_fadd+0x228>
 800078a:	2b00      	cmp	r3, #0
 800078c:	d058      	beq.n	8000840 <__aeabi_fadd+0x308>
 800078e:	2f00      	cmp	r7, #0
 8000790:	d100      	bne.n	8000794 <__aeabi_fadd+0x25c>
 8000792:	e70c      	b.n	80005ae <__aeabi_fadd+0x76>
 8000794:	4463      	add	r3, ip
 8000796:	015a      	lsls	r2, r3, #5
 8000798:	d400      	bmi.n	800079c <__aeabi_fadd+0x264>
 800079a:	e739      	b.n	8000610 <__aeabi_fadd+0xd8>
 800079c:	4a2e      	ldr	r2, [pc, #184]	; (8000858 <__aeabi_fadd+0x320>)
 800079e:	000c      	movs	r4, r1
 80007a0:	4013      	ands	r3, r2
 80007a2:	e704      	b.n	80005ae <__aeabi_fadd+0x76>
 80007a4:	2101      	movs	r1, #1
 80007a6:	e75c      	b.n	8000662 <__aeabi_fadd+0x12a>
 80007a8:	2c00      	cmp	r4, #0
 80007aa:	d11e      	bne.n	80007ea <__aeabi_fadd+0x2b2>
 80007ac:	2b00      	cmp	r3, #0
 80007ae:	d040      	beq.n	8000832 <__aeabi_fadd+0x2fa>
 80007b0:	43c9      	mvns	r1, r1
 80007b2:	2900      	cmp	r1, #0
 80007b4:	d00b      	beq.n	80007ce <__aeabi_fadd+0x296>
 80007b6:	28ff      	cmp	r0, #255	; 0xff
 80007b8:	d036      	beq.n	8000828 <__aeabi_fadd+0x2f0>
 80007ba:	291b      	cmp	r1, #27
 80007bc:	dc47      	bgt.n	800084e <__aeabi_fadd+0x316>
 80007be:	001c      	movs	r4, r3
 80007c0:	2620      	movs	r6, #32
 80007c2:	40cc      	lsrs	r4, r1
 80007c4:	1a71      	subs	r1, r6, r1
 80007c6:	408b      	lsls	r3, r1
 80007c8:	1e59      	subs	r1, r3, #1
 80007ca:	418b      	sbcs	r3, r1
 80007cc:	4323      	orrs	r3, r4
 80007ce:	4463      	add	r3, ip
 80007d0:	0004      	movs	r4, r0
 80007d2:	e747      	b.n	8000664 <__aeabi_fadd+0x12c>
 80007d4:	2b00      	cmp	r3, #0
 80007d6:	d118      	bne.n	800080a <__aeabi_fadd+0x2d2>
 80007d8:	1e3b      	subs	r3, r7, #0
 80007da:	d02d      	beq.n	8000838 <__aeabi_fadd+0x300>
 80007dc:	000d      	movs	r5, r1
 80007de:	24ff      	movs	r4, #255	; 0xff
 80007e0:	e6e5      	b.n	80005ae <__aeabi_fadd+0x76>
 80007e2:	003b      	movs	r3, r7
 80007e4:	0004      	movs	r4, r0
 80007e6:	000d      	movs	r5, r1
 80007e8:	e6e1      	b.n	80005ae <__aeabi_fadd+0x76>
 80007ea:	28ff      	cmp	r0, #255	; 0xff
 80007ec:	d01c      	beq.n	8000828 <__aeabi_fadd+0x2f0>
 80007ee:	2480      	movs	r4, #128	; 0x80
 80007f0:	04e4      	lsls	r4, r4, #19
 80007f2:	4249      	negs	r1, r1
 80007f4:	4323      	orrs	r3, r4
 80007f6:	e7e0      	b.n	80007ba <__aeabi_fadd+0x282>
 80007f8:	2f00      	cmp	r7, #0
 80007fa:	d100      	bne.n	80007fe <__aeabi_fadd+0x2c6>
 80007fc:	e6d7      	b.n	80005ae <__aeabi_fadd+0x76>
 80007fe:	1bde      	subs	r6, r3, r7
 8000800:	0172      	lsls	r2, r6, #5
 8000802:	d51f      	bpl.n	8000844 <__aeabi_fadd+0x30c>
 8000804:	1afb      	subs	r3, r7, r3
 8000806:	000d      	movs	r5, r1
 8000808:	e6d1      	b.n	80005ae <__aeabi_fadd+0x76>
 800080a:	24ff      	movs	r4, #255	; 0xff
 800080c:	2f00      	cmp	r7, #0
 800080e:	d100      	bne.n	8000812 <__aeabi_fadd+0x2da>
 8000810:	e6cd      	b.n	80005ae <__aeabi_fadd+0x76>
 8000812:	2280      	movs	r2, #128	; 0x80
 8000814:	4640      	mov	r0, r8
 8000816:	03d2      	lsls	r2, r2, #15
 8000818:	4210      	tst	r0, r2
 800081a:	d0af      	beq.n	800077c <__aeabi_fadd+0x244>
 800081c:	4216      	tst	r6, r2
 800081e:	d1ad      	bne.n	800077c <__aeabi_fadd+0x244>
 8000820:	003b      	movs	r3, r7
 8000822:	000d      	movs	r5, r1
 8000824:	24ff      	movs	r4, #255	; 0xff
 8000826:	e6c2      	b.n	80005ae <__aeabi_fadd+0x76>
 8000828:	4663      	mov	r3, ip
 800082a:	24ff      	movs	r4, #255	; 0xff
 800082c:	e6bf      	b.n	80005ae <__aeabi_fadd+0x76>
 800082e:	2301      	movs	r3, #1
 8000830:	e77a      	b.n	8000728 <__aeabi_fadd+0x1f0>
 8000832:	003b      	movs	r3, r7
 8000834:	0004      	movs	r4, r0
 8000836:	e6ba      	b.n	80005ae <__aeabi_fadd+0x76>
 8000838:	2680      	movs	r6, #128	; 0x80
 800083a:	2200      	movs	r2, #0
 800083c:	03f6      	lsls	r6, r6, #15
 800083e:	e6f0      	b.n	8000622 <__aeabi_fadd+0xea>
 8000840:	003b      	movs	r3, r7
 8000842:	e6b4      	b.n	80005ae <__aeabi_fadd+0x76>
 8000844:	1e33      	subs	r3, r6, #0
 8000846:	d000      	beq.n	800084a <__aeabi_fadd+0x312>
 8000848:	e6e2      	b.n	8000610 <__aeabi_fadd+0xd8>
 800084a:	2200      	movs	r2, #0
 800084c:	e721      	b.n	8000692 <__aeabi_fadd+0x15a>
 800084e:	2301      	movs	r3, #1
 8000850:	e7bd      	b.n	80007ce <__aeabi_fadd+0x296>
 8000852:	46c0      	nop			; (mov r8, r8)
 8000854:	7dffffff 	.word	0x7dffffff
 8000858:	fbffffff 	.word	0xfbffffff

0800085c <__aeabi_fdiv>:
 800085c:	b5f0      	push	{r4, r5, r6, r7, lr}
 800085e:	4657      	mov	r7, sl
 8000860:	464e      	mov	r6, r9
 8000862:	46de      	mov	lr, fp
 8000864:	4645      	mov	r5, r8
 8000866:	b5e0      	push	{r5, r6, r7, lr}
 8000868:	0244      	lsls	r4, r0, #9
 800086a:	0043      	lsls	r3, r0, #1
 800086c:	0fc6      	lsrs	r6, r0, #31
 800086e:	b083      	sub	sp, #12
 8000870:	1c0f      	adds	r7, r1, #0
 8000872:	0a64      	lsrs	r4, r4, #9
 8000874:	0e1b      	lsrs	r3, r3, #24
 8000876:	46b2      	mov	sl, r6
 8000878:	d053      	beq.n	8000922 <__aeabi_fdiv+0xc6>
 800087a:	2bff      	cmp	r3, #255	; 0xff
 800087c:	d027      	beq.n	80008ce <__aeabi_fdiv+0x72>
 800087e:	2280      	movs	r2, #128	; 0x80
 8000880:	00e4      	lsls	r4, r4, #3
 8000882:	04d2      	lsls	r2, r2, #19
 8000884:	4314      	orrs	r4, r2
 8000886:	227f      	movs	r2, #127	; 0x7f
 8000888:	4252      	negs	r2, r2
 800088a:	4690      	mov	r8, r2
 800088c:	4498      	add	r8, r3
 800088e:	2300      	movs	r3, #0
 8000890:	4699      	mov	r9, r3
 8000892:	469b      	mov	fp, r3
 8000894:	027d      	lsls	r5, r7, #9
 8000896:	0078      	lsls	r0, r7, #1
 8000898:	0ffb      	lsrs	r3, r7, #31
 800089a:	0a6d      	lsrs	r5, r5, #9
 800089c:	0e00      	lsrs	r0, r0, #24
 800089e:	9300      	str	r3, [sp, #0]
 80008a0:	d024      	beq.n	80008ec <__aeabi_fdiv+0x90>
 80008a2:	28ff      	cmp	r0, #255	; 0xff
 80008a4:	d046      	beq.n	8000934 <__aeabi_fdiv+0xd8>
 80008a6:	2380      	movs	r3, #128	; 0x80
 80008a8:	2100      	movs	r1, #0
 80008aa:	00ed      	lsls	r5, r5, #3
 80008ac:	04db      	lsls	r3, r3, #19
 80008ae:	431d      	orrs	r5, r3
 80008b0:	387f      	subs	r0, #127	; 0x7f
 80008b2:	4647      	mov	r7, r8
 80008b4:	1a38      	subs	r0, r7, r0
 80008b6:	464f      	mov	r7, r9
 80008b8:	430f      	orrs	r7, r1
 80008ba:	00bf      	lsls	r7, r7, #2
 80008bc:	46b9      	mov	r9, r7
 80008be:	0033      	movs	r3, r6
 80008c0:	9a00      	ldr	r2, [sp, #0]
 80008c2:	4f87      	ldr	r7, [pc, #540]	; (8000ae0 <__aeabi_fdiv+0x284>)
 80008c4:	4053      	eors	r3, r2
 80008c6:	464a      	mov	r2, r9
 80008c8:	58ba      	ldr	r2, [r7, r2]
 80008ca:	9301      	str	r3, [sp, #4]
 80008cc:	4697      	mov	pc, r2
 80008ce:	2c00      	cmp	r4, #0
 80008d0:	d14e      	bne.n	8000970 <__aeabi_fdiv+0x114>
 80008d2:	2308      	movs	r3, #8
 80008d4:	4699      	mov	r9, r3
 80008d6:	33f7      	adds	r3, #247	; 0xf7
 80008d8:	4698      	mov	r8, r3
 80008da:	3bfd      	subs	r3, #253	; 0xfd
 80008dc:	469b      	mov	fp, r3
 80008de:	027d      	lsls	r5, r7, #9
 80008e0:	0078      	lsls	r0, r7, #1
 80008e2:	0ffb      	lsrs	r3, r7, #31
 80008e4:	0a6d      	lsrs	r5, r5, #9
 80008e6:	0e00      	lsrs	r0, r0, #24
 80008e8:	9300      	str	r3, [sp, #0]
 80008ea:	d1da      	bne.n	80008a2 <__aeabi_fdiv+0x46>
 80008ec:	2d00      	cmp	r5, #0
 80008ee:	d126      	bne.n	800093e <__aeabi_fdiv+0xe2>
 80008f0:	2000      	movs	r0, #0
 80008f2:	2101      	movs	r1, #1
 80008f4:	0033      	movs	r3, r6
 80008f6:	9a00      	ldr	r2, [sp, #0]
 80008f8:	4f7a      	ldr	r7, [pc, #488]	; (8000ae4 <__aeabi_fdiv+0x288>)
 80008fa:	4053      	eors	r3, r2
 80008fc:	4642      	mov	r2, r8
 80008fe:	1a10      	subs	r0, r2, r0
 8000900:	464a      	mov	r2, r9
 8000902:	430a      	orrs	r2, r1
 8000904:	0092      	lsls	r2, r2, #2
 8000906:	58ba      	ldr	r2, [r7, r2]
 8000908:	001d      	movs	r5, r3
 800090a:	4697      	mov	pc, r2
 800090c:	9b00      	ldr	r3, [sp, #0]
 800090e:	002c      	movs	r4, r5
 8000910:	469a      	mov	sl, r3
 8000912:	468b      	mov	fp, r1
 8000914:	465b      	mov	r3, fp
 8000916:	2b02      	cmp	r3, #2
 8000918:	d131      	bne.n	800097e <__aeabi_fdiv+0x122>
 800091a:	4653      	mov	r3, sl
 800091c:	21ff      	movs	r1, #255	; 0xff
 800091e:	2400      	movs	r4, #0
 8000920:	e038      	b.n	8000994 <__aeabi_fdiv+0x138>
 8000922:	2c00      	cmp	r4, #0
 8000924:	d117      	bne.n	8000956 <__aeabi_fdiv+0xfa>
 8000926:	2304      	movs	r3, #4
 8000928:	4699      	mov	r9, r3
 800092a:	2300      	movs	r3, #0
 800092c:	4698      	mov	r8, r3
 800092e:	3301      	adds	r3, #1
 8000930:	469b      	mov	fp, r3
 8000932:	e7af      	b.n	8000894 <__aeabi_fdiv+0x38>
 8000934:	20ff      	movs	r0, #255	; 0xff
 8000936:	2d00      	cmp	r5, #0
 8000938:	d10b      	bne.n	8000952 <__aeabi_fdiv+0xf6>
 800093a:	2102      	movs	r1, #2
 800093c:	e7da      	b.n	80008f4 <__aeabi_fdiv+0x98>
 800093e:	0028      	movs	r0, r5
 8000940:	f002 fb2c 	bl	8002f9c <__clzsi2>
 8000944:	1f43      	subs	r3, r0, #5
 8000946:	409d      	lsls	r5, r3
 8000948:	2376      	movs	r3, #118	; 0x76
 800094a:	425b      	negs	r3, r3
 800094c:	1a18      	subs	r0, r3, r0
 800094e:	2100      	movs	r1, #0
 8000950:	e7af      	b.n	80008b2 <__aeabi_fdiv+0x56>
 8000952:	2103      	movs	r1, #3
 8000954:	e7ad      	b.n	80008b2 <__aeabi_fdiv+0x56>
 8000956:	0020      	movs	r0, r4
 8000958:	f002 fb20 	bl	8002f9c <__clzsi2>
 800095c:	1f43      	subs	r3, r0, #5
 800095e:	409c      	lsls	r4, r3
 8000960:	2376      	movs	r3, #118	; 0x76
 8000962:	425b      	negs	r3, r3
 8000964:	1a1b      	subs	r3, r3, r0
 8000966:	4698      	mov	r8, r3
 8000968:	2300      	movs	r3, #0
 800096a:	4699      	mov	r9, r3
 800096c:	469b      	mov	fp, r3
 800096e:	e791      	b.n	8000894 <__aeabi_fdiv+0x38>
 8000970:	230c      	movs	r3, #12
 8000972:	4699      	mov	r9, r3
 8000974:	33f3      	adds	r3, #243	; 0xf3
 8000976:	4698      	mov	r8, r3
 8000978:	3bfc      	subs	r3, #252	; 0xfc
 800097a:	469b      	mov	fp, r3
 800097c:	e78a      	b.n	8000894 <__aeabi_fdiv+0x38>
 800097e:	2b03      	cmp	r3, #3
 8000980:	d100      	bne.n	8000984 <__aeabi_fdiv+0x128>
 8000982:	e0a5      	b.n	8000ad0 <__aeabi_fdiv+0x274>
 8000984:	4655      	mov	r5, sl
 8000986:	2b01      	cmp	r3, #1
 8000988:	d000      	beq.n	800098c <__aeabi_fdiv+0x130>
 800098a:	e081      	b.n	8000a90 <__aeabi_fdiv+0x234>
 800098c:	2301      	movs	r3, #1
 800098e:	2100      	movs	r1, #0
 8000990:	2400      	movs	r4, #0
 8000992:	402b      	ands	r3, r5
 8000994:	0264      	lsls	r4, r4, #9
 8000996:	05c9      	lsls	r1, r1, #23
 8000998:	0a60      	lsrs	r0, r4, #9
 800099a:	07db      	lsls	r3, r3, #31
 800099c:	4308      	orrs	r0, r1
 800099e:	4318      	orrs	r0, r3
 80009a0:	b003      	add	sp, #12
 80009a2:	bc3c      	pop	{r2, r3, r4, r5}
 80009a4:	4690      	mov	r8, r2
 80009a6:	4699      	mov	r9, r3
 80009a8:	46a2      	mov	sl, r4
 80009aa:	46ab      	mov	fp, r5
 80009ac:	bdf0      	pop	{r4, r5, r6, r7, pc}
 80009ae:	2480      	movs	r4, #128	; 0x80
 80009b0:	2300      	movs	r3, #0
 80009b2:	03e4      	lsls	r4, r4, #15
 80009b4:	21ff      	movs	r1, #255	; 0xff
 80009b6:	e7ed      	b.n	8000994 <__aeabi_fdiv+0x138>
 80009b8:	21ff      	movs	r1, #255	; 0xff
 80009ba:	2400      	movs	r4, #0
 80009bc:	e7ea      	b.n	8000994 <__aeabi_fdiv+0x138>
 80009be:	2301      	movs	r3, #1
 80009c0:	1a59      	subs	r1, r3, r1
 80009c2:	291b      	cmp	r1, #27
 80009c4:	dd66      	ble.n	8000a94 <__aeabi_fdiv+0x238>
 80009c6:	9a01      	ldr	r2, [sp, #4]
 80009c8:	4013      	ands	r3, r2
 80009ca:	2100      	movs	r1, #0
 80009cc:	2400      	movs	r4, #0
 80009ce:	e7e1      	b.n	8000994 <__aeabi_fdiv+0x138>
 80009d0:	2380      	movs	r3, #128	; 0x80
 80009d2:	03db      	lsls	r3, r3, #15
 80009d4:	421c      	tst	r4, r3
 80009d6:	d038      	beq.n	8000a4a <__aeabi_fdiv+0x1ee>
 80009d8:	421d      	tst	r5, r3
 80009da:	d051      	beq.n	8000a80 <__aeabi_fdiv+0x224>
 80009dc:	431c      	orrs	r4, r3
 80009de:	0264      	lsls	r4, r4, #9
 80009e0:	0a64      	lsrs	r4, r4, #9
 80009e2:	0033      	movs	r3, r6
 80009e4:	21ff      	movs	r1, #255	; 0xff
 80009e6:	e7d5      	b.n	8000994 <__aeabi_fdiv+0x138>
 80009e8:	0163      	lsls	r3, r4, #5
 80009ea:	016c      	lsls	r4, r5, #5
 80009ec:	42a3      	cmp	r3, r4
 80009ee:	d23b      	bcs.n	8000a68 <__aeabi_fdiv+0x20c>
 80009f0:	261b      	movs	r6, #27
 80009f2:	2100      	movs	r1, #0
 80009f4:	3801      	subs	r0, #1
 80009f6:	2501      	movs	r5, #1
 80009f8:	001f      	movs	r7, r3
 80009fa:	0049      	lsls	r1, r1, #1
 80009fc:	005b      	lsls	r3, r3, #1
 80009fe:	2f00      	cmp	r7, #0
 8000a00:	db01      	blt.n	8000a06 <__aeabi_fdiv+0x1aa>
 8000a02:	429c      	cmp	r4, r3
 8000a04:	d801      	bhi.n	8000a0a <__aeabi_fdiv+0x1ae>
 8000a06:	1b1b      	subs	r3, r3, r4
 8000a08:	4329      	orrs	r1, r5
 8000a0a:	3e01      	subs	r6, #1
 8000a0c:	2e00      	cmp	r6, #0
 8000a0e:	d1f3      	bne.n	80009f8 <__aeabi_fdiv+0x19c>
 8000a10:	001c      	movs	r4, r3
 8000a12:	1e63      	subs	r3, r4, #1
 8000a14:	419c      	sbcs	r4, r3
 8000a16:	430c      	orrs	r4, r1
 8000a18:	0001      	movs	r1, r0
 8000a1a:	317f      	adds	r1, #127	; 0x7f
 8000a1c:	2900      	cmp	r1, #0
 8000a1e:	ddce      	ble.n	80009be <__aeabi_fdiv+0x162>
 8000a20:	0763      	lsls	r3, r4, #29
 8000a22:	d004      	beq.n	8000a2e <__aeabi_fdiv+0x1d2>
 8000a24:	230f      	movs	r3, #15
 8000a26:	4023      	ands	r3, r4
 8000a28:	2b04      	cmp	r3, #4
 8000a2a:	d000      	beq.n	8000a2e <__aeabi_fdiv+0x1d2>
 8000a2c:	3404      	adds	r4, #4
 8000a2e:	0123      	lsls	r3, r4, #4
 8000a30:	d503      	bpl.n	8000a3a <__aeabi_fdiv+0x1de>
 8000a32:	0001      	movs	r1, r0
 8000a34:	4b2c      	ldr	r3, [pc, #176]	; (8000ae8 <__aeabi_fdiv+0x28c>)
 8000a36:	3180      	adds	r1, #128	; 0x80
 8000a38:	401c      	ands	r4, r3
 8000a3a:	29fe      	cmp	r1, #254	; 0xfe
 8000a3c:	dd0d      	ble.n	8000a5a <__aeabi_fdiv+0x1fe>
 8000a3e:	2301      	movs	r3, #1
 8000a40:	9a01      	ldr	r2, [sp, #4]
 8000a42:	21ff      	movs	r1, #255	; 0xff
 8000a44:	4013      	ands	r3, r2
 8000a46:	2400      	movs	r4, #0
 8000a48:	e7a4      	b.n	8000994 <__aeabi_fdiv+0x138>
 8000a4a:	2380      	movs	r3, #128	; 0x80
 8000a4c:	03db      	lsls	r3, r3, #15
 8000a4e:	431c      	orrs	r4, r3
 8000a50:	0264      	lsls	r4, r4, #9
 8000a52:	0a64      	lsrs	r4, r4, #9
 8000a54:	0033      	movs	r3, r6
 8000a56:	21ff      	movs	r1, #255	; 0xff
 8000a58:	e79c      	b.n	8000994 <__aeabi_fdiv+0x138>
 8000a5a:	2301      	movs	r3, #1
 8000a5c:	9a01      	ldr	r2, [sp, #4]
 8000a5e:	01a4      	lsls	r4, r4, #6
 8000a60:	0a64      	lsrs	r4, r4, #9
 8000a62:	b2c9      	uxtb	r1, r1
 8000a64:	4013      	ands	r3, r2
 8000a66:	e795      	b.n	8000994 <__aeabi_fdiv+0x138>
 8000a68:	1b1b      	subs	r3, r3, r4
 8000a6a:	261a      	movs	r6, #26
 8000a6c:	2101      	movs	r1, #1
 8000a6e:	e7c2      	b.n	80009f6 <__aeabi_fdiv+0x19a>
 8000a70:	9b00      	ldr	r3, [sp, #0]
 8000a72:	468b      	mov	fp, r1
 8000a74:	469a      	mov	sl, r3
 8000a76:	2400      	movs	r4, #0
 8000a78:	e74c      	b.n	8000914 <__aeabi_fdiv+0xb8>
 8000a7a:	0263      	lsls	r3, r4, #9
 8000a7c:	d5e5      	bpl.n	8000a4a <__aeabi_fdiv+0x1ee>
 8000a7e:	2500      	movs	r5, #0
 8000a80:	2480      	movs	r4, #128	; 0x80
 8000a82:	03e4      	lsls	r4, r4, #15
 8000a84:	432c      	orrs	r4, r5
 8000a86:	0264      	lsls	r4, r4, #9
 8000a88:	0a64      	lsrs	r4, r4, #9
 8000a8a:	9b00      	ldr	r3, [sp, #0]
 8000a8c:	21ff      	movs	r1, #255	; 0xff
 8000a8e:	e781      	b.n	8000994 <__aeabi_fdiv+0x138>
 8000a90:	9501      	str	r5, [sp, #4]
 8000a92:	e7c1      	b.n	8000a18 <__aeabi_fdiv+0x1bc>
 8000a94:	0023      	movs	r3, r4
 8000a96:	2020      	movs	r0, #32
 8000a98:	40cb      	lsrs	r3, r1
 8000a9a:	1a41      	subs	r1, r0, r1
 8000a9c:	408c      	lsls	r4, r1
 8000a9e:	1e61      	subs	r1, r4, #1
 8000aa0:	418c      	sbcs	r4, r1
 8000aa2:	431c      	orrs	r4, r3
 8000aa4:	0763      	lsls	r3, r4, #29
 8000aa6:	d004      	beq.n	8000ab2 <__aeabi_fdiv+0x256>
 8000aa8:	230f      	movs	r3, #15
 8000aaa:	4023      	ands	r3, r4
 8000aac:	2b04      	cmp	r3, #4
 8000aae:	d000      	beq.n	8000ab2 <__aeabi_fdiv+0x256>
 8000ab0:	3404      	adds	r4, #4
 8000ab2:	0163      	lsls	r3, r4, #5
 8000ab4:	d505      	bpl.n	8000ac2 <__aeabi_fdiv+0x266>
 8000ab6:	2301      	movs	r3, #1
 8000ab8:	9a01      	ldr	r2, [sp, #4]
 8000aba:	2101      	movs	r1, #1
 8000abc:	4013      	ands	r3, r2
 8000abe:	2400      	movs	r4, #0
 8000ac0:	e768      	b.n	8000994 <__aeabi_fdiv+0x138>
 8000ac2:	2301      	movs	r3, #1
 8000ac4:	9a01      	ldr	r2, [sp, #4]
 8000ac6:	01a4      	lsls	r4, r4, #6
 8000ac8:	0a64      	lsrs	r4, r4, #9
 8000aca:	4013      	ands	r3, r2
 8000acc:	2100      	movs	r1, #0
 8000ace:	e761      	b.n	8000994 <__aeabi_fdiv+0x138>
 8000ad0:	2380      	movs	r3, #128	; 0x80
 8000ad2:	03db      	lsls	r3, r3, #15
 8000ad4:	431c      	orrs	r4, r3
 8000ad6:	0264      	lsls	r4, r4, #9
 8000ad8:	0a64      	lsrs	r4, r4, #9
 8000ada:	4653      	mov	r3, sl
 8000adc:	21ff      	movs	r1, #255	; 0xff
 8000ade:	e759      	b.n	8000994 <__aeabi_fdiv+0x138>
 8000ae0:	08015014 	.word	0x08015014
 8000ae4:	08015054 	.word	0x08015054
 8000ae8:	f7ffffff 	.word	0xf7ffffff

08000aec <__eqsf2>:
 8000aec:	b570      	push	{r4, r5, r6, lr}
 8000aee:	0042      	lsls	r2, r0, #1
 8000af0:	0245      	lsls	r5, r0, #9
 8000af2:	024e      	lsls	r6, r1, #9
 8000af4:	004c      	lsls	r4, r1, #1
 8000af6:	0fc3      	lsrs	r3, r0, #31
 8000af8:	0a6d      	lsrs	r5, r5, #9
 8000afa:	0e12      	lsrs	r2, r2, #24
 8000afc:	0a76      	lsrs	r6, r6, #9
 8000afe:	0e24      	lsrs	r4, r4, #24
 8000b00:	0fc9      	lsrs	r1, r1, #31
 8000b02:	2001      	movs	r0, #1
 8000b04:	2aff      	cmp	r2, #255	; 0xff
 8000b06:	d006      	beq.n	8000b16 <__eqsf2+0x2a>
 8000b08:	2cff      	cmp	r4, #255	; 0xff
 8000b0a:	d003      	beq.n	8000b14 <__eqsf2+0x28>
 8000b0c:	42a2      	cmp	r2, r4
 8000b0e:	d101      	bne.n	8000b14 <__eqsf2+0x28>
 8000b10:	42b5      	cmp	r5, r6
 8000b12:	d006      	beq.n	8000b22 <__eqsf2+0x36>
 8000b14:	bd70      	pop	{r4, r5, r6, pc}
 8000b16:	2d00      	cmp	r5, #0
 8000b18:	d1fc      	bne.n	8000b14 <__eqsf2+0x28>
 8000b1a:	2cff      	cmp	r4, #255	; 0xff
 8000b1c:	d1fa      	bne.n	8000b14 <__eqsf2+0x28>
 8000b1e:	2e00      	cmp	r6, #0
 8000b20:	d1f8      	bne.n	8000b14 <__eqsf2+0x28>
 8000b22:	428b      	cmp	r3, r1
 8000b24:	d006      	beq.n	8000b34 <__eqsf2+0x48>
 8000b26:	2001      	movs	r0, #1
 8000b28:	2a00      	cmp	r2, #0
 8000b2a:	d1f3      	bne.n	8000b14 <__eqsf2+0x28>
 8000b2c:	0028      	movs	r0, r5
 8000b2e:	1e45      	subs	r5, r0, #1
 8000b30:	41a8      	sbcs	r0, r5
 8000b32:	e7ef      	b.n	8000b14 <__eqsf2+0x28>
 8000b34:	2000      	movs	r0, #0
 8000b36:	e7ed      	b.n	8000b14 <__eqsf2+0x28>

08000b38 <__gesf2>:
 8000b38:	b5f0      	push	{r4, r5, r6, r7, lr}
 8000b3a:	0042      	lsls	r2, r0, #1
 8000b3c:	0245      	lsls	r5, r0, #9
 8000b3e:	024c      	lsls	r4, r1, #9
 8000b40:	0fc3      	lsrs	r3, r0, #31
 8000b42:	0048      	lsls	r0, r1, #1
 8000b44:	0a6d      	lsrs	r5, r5, #9
 8000b46:	0e12      	lsrs	r2, r2, #24
 8000b48:	0a64      	lsrs	r4, r4, #9
 8000b4a:	0e00      	lsrs	r0, r0, #24
 8000b4c:	0fc9      	lsrs	r1, r1, #31
 8000b4e:	2aff      	cmp	r2, #255	; 0xff
 8000b50:	d01e      	beq.n	8000b90 <__gesf2+0x58>
 8000b52:	28ff      	cmp	r0, #255	; 0xff
 8000b54:	d021      	beq.n	8000b9a <__gesf2+0x62>
 8000b56:	2a00      	cmp	r2, #0
 8000b58:	d10a      	bne.n	8000b70 <__gesf2+0x38>
 8000b5a:	426e      	negs	r6, r5
 8000b5c:	416e      	adcs	r6, r5
 8000b5e:	b2f6      	uxtb	r6, r6
 8000b60:	2800      	cmp	r0, #0
 8000b62:	d10f      	bne.n	8000b84 <__gesf2+0x4c>
 8000b64:	2c00      	cmp	r4, #0
 8000b66:	d10d      	bne.n	8000b84 <__gesf2+0x4c>
 8000b68:	2000      	movs	r0, #0
 8000b6a:	2d00      	cmp	r5, #0
 8000b6c:	d009      	beq.n	8000b82 <__gesf2+0x4a>
 8000b6e:	e005      	b.n	8000b7c <__gesf2+0x44>
 8000b70:	2800      	cmp	r0, #0
 8000b72:	d101      	bne.n	8000b78 <__gesf2+0x40>
 8000b74:	2c00      	cmp	r4, #0
 8000b76:	d001      	beq.n	8000b7c <__gesf2+0x44>
 8000b78:	428b      	cmp	r3, r1
 8000b7a:	d011      	beq.n	8000ba0 <__gesf2+0x68>
 8000b7c:	2101      	movs	r1, #1
 8000b7e:	4258      	negs	r0, r3
 8000b80:	4308      	orrs	r0, r1
 8000b82:	bdf0      	pop	{r4, r5, r6, r7, pc}
 8000b84:	2e00      	cmp	r6, #0
 8000b86:	d0f7      	beq.n	8000b78 <__gesf2+0x40>
 8000b88:	2001      	movs	r0, #1
 8000b8a:	3901      	subs	r1, #1
 8000b8c:	4308      	orrs	r0, r1
 8000b8e:	e7f8      	b.n	8000b82 <__gesf2+0x4a>
 8000b90:	2d00      	cmp	r5, #0
 8000b92:	d0de      	beq.n	8000b52 <__gesf2+0x1a>
 8000b94:	2002      	movs	r0, #2
 8000b96:	4240      	negs	r0, r0
 8000b98:	e7f3      	b.n	8000b82 <__gesf2+0x4a>
 8000b9a:	2c00      	cmp	r4, #0
 8000b9c:	d0db      	beq.n	8000b56 <__gesf2+0x1e>
 8000b9e:	e7f9      	b.n	8000b94 <__gesf2+0x5c>
 8000ba0:	4282      	cmp	r2, r0
 8000ba2:	dceb      	bgt.n	8000b7c <__gesf2+0x44>
 8000ba4:	db04      	blt.n	8000bb0 <__gesf2+0x78>
 8000ba6:	42a5      	cmp	r5, r4
 8000ba8:	d8e8      	bhi.n	8000b7c <__gesf2+0x44>
 8000baa:	2000      	movs	r0, #0
 8000bac:	42a5      	cmp	r5, r4
 8000bae:	d2e8      	bcs.n	8000b82 <__gesf2+0x4a>
 8000bb0:	2101      	movs	r1, #1
 8000bb2:	1e58      	subs	r0, r3, #1
 8000bb4:	4308      	orrs	r0, r1
 8000bb6:	e7e4      	b.n	8000b82 <__gesf2+0x4a>

08000bb8 <__lesf2>:
 8000bb8:	b5f0      	push	{r4, r5, r6, r7, lr}
 8000bba:	0042      	lsls	r2, r0, #1
 8000bbc:	024d      	lsls	r5, r1, #9
 8000bbe:	004c      	lsls	r4, r1, #1
 8000bc0:	0246      	lsls	r6, r0, #9
 8000bc2:	0a76      	lsrs	r6, r6, #9
 8000bc4:	0e12      	lsrs	r2, r2, #24
 8000bc6:	0fc3      	lsrs	r3, r0, #31
 8000bc8:	0a6d      	lsrs	r5, r5, #9
 8000bca:	0e24      	lsrs	r4, r4, #24
 8000bcc:	0fc9      	lsrs	r1, r1, #31
 8000bce:	2aff      	cmp	r2, #255	; 0xff
 8000bd0:	d016      	beq.n	8000c00 <__lesf2+0x48>
 8000bd2:	2cff      	cmp	r4, #255	; 0xff
 8000bd4:	d018      	beq.n	8000c08 <__lesf2+0x50>
 8000bd6:	2a00      	cmp	r2, #0
 8000bd8:	d10a      	bne.n	8000bf0 <__lesf2+0x38>
 8000bda:	4270      	negs	r0, r6
 8000bdc:	4170      	adcs	r0, r6
 8000bde:	b2c0      	uxtb	r0, r0
 8000be0:	2c00      	cmp	r4, #0
 8000be2:	d015      	beq.n	8000c10 <__lesf2+0x58>
 8000be4:	2800      	cmp	r0, #0
 8000be6:	d005      	beq.n	8000bf4 <__lesf2+0x3c>
 8000be8:	2001      	movs	r0, #1
 8000bea:	3901      	subs	r1, #1
 8000bec:	4308      	orrs	r0, r1
 8000bee:	bdf0      	pop	{r4, r5, r6, r7, pc}
 8000bf0:	2c00      	cmp	r4, #0
 8000bf2:	d013      	beq.n	8000c1c <__lesf2+0x64>
 8000bf4:	4299      	cmp	r1, r3
 8000bf6:	d014      	beq.n	8000c22 <__lesf2+0x6a>
 8000bf8:	2001      	movs	r0, #1
 8000bfa:	425b      	negs	r3, r3
 8000bfc:	4318      	orrs	r0, r3
 8000bfe:	e7f6      	b.n	8000bee <__lesf2+0x36>
 8000c00:	2002      	movs	r0, #2
 8000c02:	2e00      	cmp	r6, #0
 8000c04:	d1f3      	bne.n	8000bee <__lesf2+0x36>
 8000c06:	e7e4      	b.n	8000bd2 <__lesf2+0x1a>
 8000c08:	2002      	movs	r0, #2
 8000c0a:	2d00      	cmp	r5, #0
 8000c0c:	d1ef      	bne.n	8000bee <__lesf2+0x36>
 8000c0e:	e7e2      	b.n	8000bd6 <__lesf2+0x1e>
 8000c10:	2d00      	cmp	r5, #0
 8000c12:	d1e7      	bne.n	8000be4 <__lesf2+0x2c>
 8000c14:	2000      	movs	r0, #0
 8000c16:	2e00      	cmp	r6, #0
 8000c18:	d0e9      	beq.n	8000bee <__lesf2+0x36>
 8000c1a:	e7ed      	b.n	8000bf8 <__lesf2+0x40>
 8000c1c:	2d00      	cmp	r5, #0
 8000c1e:	d1e9      	bne.n	8000bf4 <__lesf2+0x3c>
 8000c20:	e7ea      	b.n	8000bf8 <__lesf2+0x40>
 8000c22:	42a2      	cmp	r2, r4
 8000c24:	dc06      	bgt.n	8000c34 <__lesf2+0x7c>
 8000c26:	dbdf      	blt.n	8000be8 <__lesf2+0x30>
 8000c28:	42ae      	cmp	r6, r5
 8000c2a:	d803      	bhi.n	8000c34 <__lesf2+0x7c>
 8000c2c:	2000      	movs	r0, #0
 8000c2e:	42ae      	cmp	r6, r5
 8000c30:	d3da      	bcc.n	8000be8 <__lesf2+0x30>
 8000c32:	e7dc      	b.n	8000bee <__lesf2+0x36>
 8000c34:	2001      	movs	r0, #1
 8000c36:	4249      	negs	r1, r1
 8000c38:	4308      	orrs	r0, r1
 8000c3a:	e7d8      	b.n	8000bee <__lesf2+0x36>

08000c3c <__aeabi_fmul>:
 8000c3c:	b5f8      	push	{r3, r4, r5, r6, r7, lr}
 8000c3e:	4657      	mov	r7, sl
 8000c40:	464e      	mov	r6, r9
 8000c42:	4645      	mov	r5, r8
 8000c44:	46de      	mov	lr, fp
 8000c46:	b5e0      	push	{r5, r6, r7, lr}
 8000c48:	0247      	lsls	r7, r0, #9
 8000c4a:	0046      	lsls	r6, r0, #1
 8000c4c:	4688      	mov	r8, r1
 8000c4e:	0a7f      	lsrs	r7, r7, #9
 8000c50:	0e36      	lsrs	r6, r6, #24
 8000c52:	0fc4      	lsrs	r4, r0, #31
 8000c54:	2e00      	cmp	r6, #0
 8000c56:	d047      	beq.n	8000ce8 <__aeabi_fmul+0xac>
 8000c58:	2eff      	cmp	r6, #255	; 0xff
 8000c5a:	d024      	beq.n	8000ca6 <__aeabi_fmul+0x6a>
 8000c5c:	00fb      	lsls	r3, r7, #3
 8000c5e:	2780      	movs	r7, #128	; 0x80
 8000c60:	04ff      	lsls	r7, r7, #19
 8000c62:	431f      	orrs	r7, r3
 8000c64:	2300      	movs	r3, #0
 8000c66:	4699      	mov	r9, r3
 8000c68:	469a      	mov	sl, r3
 8000c6a:	3e7f      	subs	r6, #127	; 0x7f
 8000c6c:	4643      	mov	r3, r8
 8000c6e:	025d      	lsls	r5, r3, #9
 8000c70:	0058      	lsls	r0, r3, #1
 8000c72:	0fdb      	lsrs	r3, r3, #31
 8000c74:	0a6d      	lsrs	r5, r5, #9
 8000c76:	0e00      	lsrs	r0, r0, #24
 8000c78:	4698      	mov	r8, r3
 8000c7a:	d043      	beq.n	8000d04 <__aeabi_fmul+0xc8>
 8000c7c:	28ff      	cmp	r0, #255	; 0xff
 8000c7e:	d03b      	beq.n	8000cf8 <__aeabi_fmul+0xbc>
 8000c80:	00eb      	lsls	r3, r5, #3
 8000c82:	2580      	movs	r5, #128	; 0x80
 8000c84:	2200      	movs	r2, #0
 8000c86:	04ed      	lsls	r5, r5, #19
 8000c88:	431d      	orrs	r5, r3
 8000c8a:	387f      	subs	r0, #127	; 0x7f
 8000c8c:	1836      	adds	r6, r6, r0
 8000c8e:	1c73      	adds	r3, r6, #1
 8000c90:	4641      	mov	r1, r8
 8000c92:	469b      	mov	fp, r3
 8000c94:	464b      	mov	r3, r9
 8000c96:	4061      	eors	r1, r4
 8000c98:	4313      	orrs	r3, r2
 8000c9a:	2b0f      	cmp	r3, #15
 8000c9c:	d864      	bhi.n	8000d68 <__aeabi_fmul+0x12c>
 8000c9e:	4875      	ldr	r0, [pc, #468]	; (8000e74 <__aeabi_fmul+0x238>)
 8000ca0:	009b      	lsls	r3, r3, #2
 8000ca2:	58c3      	ldr	r3, [r0, r3]
 8000ca4:	469f      	mov	pc, r3
 8000ca6:	2f00      	cmp	r7, #0
 8000ca8:	d142      	bne.n	8000d30 <__aeabi_fmul+0xf4>
 8000caa:	2308      	movs	r3, #8
 8000cac:	4699      	mov	r9, r3
 8000cae:	3b06      	subs	r3, #6
 8000cb0:	26ff      	movs	r6, #255	; 0xff
 8000cb2:	469a      	mov	sl, r3
 8000cb4:	e7da      	b.n	8000c6c <__aeabi_fmul+0x30>
 8000cb6:	4641      	mov	r1, r8
 8000cb8:	2a02      	cmp	r2, #2
 8000cba:	d028      	beq.n	8000d0e <__aeabi_fmul+0xd2>
 8000cbc:	2a03      	cmp	r2, #3
 8000cbe:	d100      	bne.n	8000cc2 <__aeabi_fmul+0x86>
 8000cc0:	e0ce      	b.n	8000e60 <__aeabi_fmul+0x224>
 8000cc2:	2a01      	cmp	r2, #1
 8000cc4:	d000      	beq.n	8000cc8 <__aeabi_fmul+0x8c>
 8000cc6:	e0ac      	b.n	8000e22 <__aeabi_fmul+0x1e6>
 8000cc8:	4011      	ands	r1, r2
 8000cca:	2000      	movs	r0, #0
 8000ccc:	2200      	movs	r2, #0
 8000cce:	b2cc      	uxtb	r4, r1
 8000cd0:	0240      	lsls	r0, r0, #9
 8000cd2:	05d2      	lsls	r2, r2, #23
 8000cd4:	0a40      	lsrs	r0, r0, #9
 8000cd6:	07e4      	lsls	r4, r4, #31
 8000cd8:	4310      	orrs	r0, r2
 8000cda:	4320      	orrs	r0, r4
 8000cdc:	bc3c      	pop	{r2, r3, r4, r5}
 8000cde:	4690      	mov	r8, r2
 8000ce0:	4699      	mov	r9, r3
 8000ce2:	46a2      	mov	sl, r4
 8000ce4:	46ab      	mov	fp, r5
 8000ce6:	bdf8      	pop	{r3, r4, r5, r6, r7, pc}
 8000ce8:	2f00      	cmp	r7, #0
 8000cea:	d115      	bne.n	8000d18 <__aeabi_fmul+0xdc>
 8000cec:	2304      	movs	r3, #4
 8000cee:	4699      	mov	r9, r3
 8000cf0:	3b03      	subs	r3, #3
 8000cf2:	2600      	movs	r6, #0
 8000cf4:	469a      	mov	sl, r3
 8000cf6:	e7b9      	b.n	8000c6c <__aeabi_fmul+0x30>
 8000cf8:	20ff      	movs	r0, #255	; 0xff
 8000cfa:	2202      	movs	r2, #2
 8000cfc:	2d00      	cmp	r5, #0
 8000cfe:	d0c5      	beq.n	8000c8c <__aeabi_fmul+0x50>
 8000d00:	2203      	movs	r2, #3
 8000d02:	e7c3      	b.n	8000c8c <__aeabi_fmul+0x50>
 8000d04:	2d00      	cmp	r5, #0
 8000d06:	d119      	bne.n	8000d3c <__aeabi_fmul+0x100>
 8000d08:	2000      	movs	r0, #0
 8000d0a:	2201      	movs	r2, #1
 8000d0c:	e7be      	b.n	8000c8c <__aeabi_fmul+0x50>
 8000d0e:	2401      	movs	r4, #1
 8000d10:	22ff      	movs	r2, #255	; 0xff
 8000d12:	400c      	ands	r4, r1
 8000d14:	2000      	movs	r0, #0
 8000d16:	e7db      	b.n	8000cd0 <__aeabi_fmul+0x94>
 8000d18:	0038      	movs	r0, r7
 8000d1a:	f002 f93f 	bl	8002f9c <__clzsi2>
 8000d1e:	2676      	movs	r6, #118	; 0x76
 8000d20:	1f43      	subs	r3, r0, #5
 8000d22:	409f      	lsls	r7, r3
 8000d24:	2300      	movs	r3, #0
 8000d26:	4276      	negs	r6, r6
 8000d28:	1a36      	subs	r6, r6, r0
 8000d2a:	4699      	mov	r9, r3
 8000d2c:	469a      	mov	sl, r3
 8000d2e:	e79d      	b.n	8000c6c <__aeabi_fmul+0x30>
 8000d30:	230c      	movs	r3, #12
 8000d32:	4699      	mov	r9, r3
 8000d34:	3b09      	subs	r3, #9
 8000d36:	26ff      	movs	r6, #255	; 0xff
 8000d38:	469a      	mov	sl, r3
 8000d3a:	e797      	b.n	8000c6c <__aeabi_fmul+0x30>
 8000d3c:	0028      	movs	r0, r5
 8000d3e:	f002 f92d 	bl	8002f9c <__clzsi2>
 8000d42:	1f43      	subs	r3, r0, #5
 8000d44:	409d      	lsls	r5, r3
 8000d46:	2376      	movs	r3, #118	; 0x76
 8000d48:	425b      	negs	r3, r3
 8000d4a:	1a18      	subs	r0, r3, r0
 8000d4c:	2200      	movs	r2, #0
 8000d4e:	e79d      	b.n	8000c8c <__aeabi_fmul+0x50>
 8000d50:	2080      	movs	r0, #128	; 0x80
 8000d52:	2400      	movs	r4, #0
 8000d54:	03c0      	lsls	r0, r0, #15
 8000d56:	22ff      	movs	r2, #255	; 0xff
 8000d58:	e7ba      	b.n	8000cd0 <__aeabi_fmul+0x94>
 8000d5a:	003d      	movs	r5, r7
 8000d5c:	4652      	mov	r2, sl
 8000d5e:	e7ab      	b.n	8000cb8 <__aeabi_fmul+0x7c>
 8000d60:	003d      	movs	r5, r7
 8000d62:	0021      	movs	r1, r4
 8000d64:	4652      	mov	r2, sl
 8000d66:	e7a7      	b.n	8000cb8 <__aeabi_fmul+0x7c>
 8000d68:	0c3b      	lsrs	r3, r7, #16
 8000d6a:	469c      	mov	ip, r3
 8000d6c:	042a      	lsls	r2, r5, #16
 8000d6e:	0c12      	lsrs	r2, r2, #16
 8000d70:	0c2b      	lsrs	r3, r5, #16
 8000d72:	0014      	movs	r4, r2
 8000d74:	4660      	mov	r0, ip
 8000d76:	4665      	mov	r5, ip
 8000d78:	043f      	lsls	r7, r7, #16
 8000d7a:	0c3f      	lsrs	r7, r7, #16
 8000d7c:	437c      	muls	r4, r7
 8000d7e:	4342      	muls	r2, r0
 8000d80:	435d      	muls	r5, r3
 8000d82:	437b      	muls	r3, r7
 8000d84:	0c27      	lsrs	r7, r4, #16
 8000d86:	189b      	adds	r3, r3, r2
 8000d88:	18ff      	adds	r7, r7, r3
 8000d8a:	42ba      	cmp	r2, r7
 8000d8c:	d903      	bls.n	8000d96 <__aeabi_fmul+0x15a>
 8000d8e:	2380      	movs	r3, #128	; 0x80
 8000d90:	025b      	lsls	r3, r3, #9
 8000d92:	469c      	mov	ip, r3
 8000d94:	4465      	add	r5, ip
 8000d96:	0424      	lsls	r4, r4, #16
 8000d98:	043a      	lsls	r2, r7, #16
 8000d9a:	0c24      	lsrs	r4, r4, #16
 8000d9c:	1912      	adds	r2, r2, r4
 8000d9e:	0193      	lsls	r3, r2, #6
 8000da0:	1e5c      	subs	r4, r3, #1
 8000da2:	41a3      	sbcs	r3, r4
 8000da4:	0c3f      	lsrs	r7, r7, #16
 8000da6:	0e92      	lsrs	r2, r2, #26
 8000da8:	197d      	adds	r5, r7, r5
 8000daa:	431a      	orrs	r2, r3
 8000dac:	01ad      	lsls	r5, r5, #6
 8000dae:	4315      	orrs	r5, r2
 8000db0:	012b      	lsls	r3, r5, #4
 8000db2:	d504      	bpl.n	8000dbe <__aeabi_fmul+0x182>
 8000db4:	2301      	movs	r3, #1
 8000db6:	465e      	mov	r6, fp
 8000db8:	086a      	lsrs	r2, r5, #1
 8000dba:	401d      	ands	r5, r3
 8000dbc:	4315      	orrs	r5, r2
 8000dbe:	0032      	movs	r2, r6
 8000dc0:	327f      	adds	r2, #127	; 0x7f
 8000dc2:	2a00      	cmp	r2, #0
 8000dc4:	dd25      	ble.n	8000e12 <__aeabi_fmul+0x1d6>
 8000dc6:	076b      	lsls	r3, r5, #29
 8000dc8:	d004      	beq.n	8000dd4 <__aeabi_fmul+0x198>
 8000dca:	230f      	movs	r3, #15
 8000dcc:	402b      	ands	r3, r5
 8000dce:	2b04      	cmp	r3, #4
 8000dd0:	d000      	beq.n	8000dd4 <__aeabi_fmul+0x198>
 8000dd2:	3504      	adds	r5, #4
 8000dd4:	012b      	lsls	r3, r5, #4
 8000dd6:	d503      	bpl.n	8000de0 <__aeabi_fmul+0x1a4>
 8000dd8:	0032      	movs	r2, r6
 8000dda:	4b27      	ldr	r3, [pc, #156]	; (8000e78 <__aeabi_fmul+0x23c>)
 8000ddc:	3280      	adds	r2, #128	; 0x80
 8000dde:	401d      	ands	r5, r3
 8000de0:	2afe      	cmp	r2, #254	; 0xfe
 8000de2:	dc94      	bgt.n	8000d0e <__aeabi_fmul+0xd2>
 8000de4:	2401      	movs	r4, #1
 8000de6:	01a8      	lsls	r0, r5, #6
 8000de8:	0a40      	lsrs	r0, r0, #9
 8000dea:	b2d2      	uxtb	r2, r2
 8000dec:	400c      	ands	r4, r1
 8000dee:	e76f      	b.n	8000cd0 <__aeabi_fmul+0x94>
 8000df0:	2080      	movs	r0, #128	; 0x80
 8000df2:	03c0      	lsls	r0, r0, #15
 8000df4:	4207      	tst	r7, r0
 8000df6:	d007      	beq.n	8000e08 <__aeabi_fmul+0x1cc>
 8000df8:	4205      	tst	r5, r0
 8000dfa:	d105      	bne.n	8000e08 <__aeabi_fmul+0x1cc>
 8000dfc:	4328      	orrs	r0, r5
 8000dfe:	0240      	lsls	r0, r0, #9
 8000e00:	0a40      	lsrs	r0, r0, #9
 8000e02:	4644      	mov	r4, r8
 8000e04:	22ff      	movs	r2, #255	; 0xff
 8000e06:	e763      	b.n	8000cd0 <__aeabi_fmul+0x94>
 8000e08:	4338      	orrs	r0, r7
 8000e0a:	0240      	lsls	r0, r0, #9
 8000e0c:	0a40      	lsrs	r0, r0, #9
 8000e0e:	22ff      	movs	r2, #255	; 0xff
 8000e10:	e75e      	b.n	8000cd0 <__aeabi_fmul+0x94>
 8000e12:	2401      	movs	r4, #1
 8000e14:	1aa3      	subs	r3, r4, r2
 8000e16:	2b1b      	cmp	r3, #27
 8000e18:	dd05      	ble.n	8000e26 <__aeabi_fmul+0x1ea>
 8000e1a:	400c      	ands	r4, r1
 8000e1c:	2200      	movs	r2, #0
 8000e1e:	2000      	movs	r0, #0
 8000e20:	e756      	b.n	8000cd0 <__aeabi_fmul+0x94>
 8000e22:	465e      	mov	r6, fp
 8000e24:	e7cb      	b.n	8000dbe <__aeabi_fmul+0x182>
 8000e26:	002a      	movs	r2, r5
 8000e28:	2020      	movs	r0, #32
 8000e2a:	40da      	lsrs	r2, r3
 8000e2c:	1ac3      	subs	r3, r0, r3
 8000e2e:	409d      	lsls	r5, r3
 8000e30:	002b      	movs	r3, r5
 8000e32:	1e5d      	subs	r5, r3, #1
 8000e34:	41ab      	sbcs	r3, r5
 8000e36:	4313      	orrs	r3, r2
 8000e38:	075a      	lsls	r2, r3, #29
 8000e3a:	d004      	beq.n	8000e46 <__aeabi_fmul+0x20a>
 8000e3c:	220f      	movs	r2, #15
 8000e3e:	401a      	ands	r2, r3
 8000e40:	2a04      	cmp	r2, #4
 8000e42:	d000      	beq.n	8000e46 <__aeabi_fmul+0x20a>
 8000e44:	3304      	adds	r3, #4
 8000e46:	015a      	lsls	r2, r3, #5
 8000e48:	d504      	bpl.n	8000e54 <__aeabi_fmul+0x218>
 8000e4a:	2401      	movs	r4, #1
 8000e4c:	2201      	movs	r2, #1
 8000e4e:	400c      	ands	r4, r1
 8000e50:	2000      	movs	r0, #0
 8000e52:	e73d      	b.n	8000cd0 <__aeabi_fmul+0x94>
 8000e54:	2401      	movs	r4, #1
 8000e56:	019b      	lsls	r3, r3, #6
 8000e58:	0a58      	lsrs	r0, r3, #9
 8000e5a:	400c      	ands	r4, r1
 8000e5c:	2200      	movs	r2, #0
 8000e5e:	e737      	b.n	8000cd0 <__aeabi_fmul+0x94>
 8000e60:	2080      	movs	r0, #128	; 0x80
 8000e62:	2401      	movs	r4, #1
 8000e64:	03c0      	lsls	r0, r0, #15
 8000e66:	4328      	orrs	r0, r5
 8000e68:	0240      	lsls	r0, r0, #9
 8000e6a:	0a40      	lsrs	r0, r0, #9
 8000e6c:	400c      	ands	r4, r1
 8000e6e:	22ff      	movs	r2, #255	; 0xff
 8000e70:	e72e      	b.n	8000cd0 <__aeabi_fmul+0x94>
 8000e72:	46c0      	nop			; (mov r8, r8)
 8000e74:	08015094 	.word	0x08015094
 8000e78:	f7ffffff 	.word	0xf7ffffff

08000e7c <__aeabi_fsub>:
 8000e7c:	b5f0      	push	{r4, r5, r6, r7, lr}
 8000e7e:	464f      	mov	r7, r9
 8000e80:	46d6      	mov	lr, sl
 8000e82:	4646      	mov	r6, r8
 8000e84:	0044      	lsls	r4, r0, #1
 8000e86:	b5c0      	push	{r6, r7, lr}
 8000e88:	0fc2      	lsrs	r2, r0, #31
 8000e8a:	0247      	lsls	r7, r0, #9
 8000e8c:	0248      	lsls	r0, r1, #9
 8000e8e:	0a40      	lsrs	r0, r0, #9
 8000e90:	4684      	mov	ip, r0
 8000e92:	4666      	mov	r6, ip
 8000e94:	0a7b      	lsrs	r3, r7, #9
 8000e96:	0048      	lsls	r0, r1, #1
 8000e98:	0fc9      	lsrs	r1, r1, #31
 8000e9a:	469a      	mov	sl, r3
 8000e9c:	0e24      	lsrs	r4, r4, #24
 8000e9e:	0015      	movs	r5, r2
 8000ea0:	00db      	lsls	r3, r3, #3
 8000ea2:	0e00      	lsrs	r0, r0, #24
 8000ea4:	4689      	mov	r9, r1
 8000ea6:	00f6      	lsls	r6, r6, #3
 8000ea8:	28ff      	cmp	r0, #255	; 0xff
 8000eaa:	d100      	bne.n	8000eae <__aeabi_fsub+0x32>
 8000eac:	e08f      	b.n	8000fce <__aeabi_fsub+0x152>
 8000eae:	2101      	movs	r1, #1
 8000eb0:	464f      	mov	r7, r9
 8000eb2:	404f      	eors	r7, r1
 8000eb4:	0039      	movs	r1, r7
 8000eb6:	4291      	cmp	r1, r2
 8000eb8:	d066      	beq.n	8000f88 <__aeabi_fsub+0x10c>
 8000eba:	1a22      	subs	r2, r4, r0
 8000ebc:	2a00      	cmp	r2, #0
 8000ebe:	dc00      	bgt.n	8000ec2 <__aeabi_fsub+0x46>
 8000ec0:	e09d      	b.n	8000ffe <__aeabi_fsub+0x182>
 8000ec2:	2800      	cmp	r0, #0
 8000ec4:	d13d      	bne.n	8000f42 <__aeabi_fsub+0xc6>
 8000ec6:	2e00      	cmp	r6, #0
 8000ec8:	d100      	bne.n	8000ecc <__aeabi_fsub+0x50>
 8000eca:	e08b      	b.n	8000fe4 <__aeabi_fsub+0x168>
 8000ecc:	1e51      	subs	r1, r2, #1
 8000ece:	2900      	cmp	r1, #0
 8000ed0:	d000      	beq.n	8000ed4 <__aeabi_fsub+0x58>
 8000ed2:	e0b5      	b.n	8001040 <__aeabi_fsub+0x1c4>
 8000ed4:	2401      	movs	r4, #1
 8000ed6:	1b9b      	subs	r3, r3, r6
 8000ed8:	015a      	lsls	r2, r3, #5
 8000eda:	d544      	bpl.n	8000f66 <__aeabi_fsub+0xea>
 8000edc:	019b      	lsls	r3, r3, #6
 8000ede:	099f      	lsrs	r7, r3, #6
 8000ee0:	0038      	movs	r0, r7
 8000ee2:	f002 f85b 	bl	8002f9c <__clzsi2>
 8000ee6:	3805      	subs	r0, #5
 8000ee8:	4087      	lsls	r7, r0
 8000eea:	4284      	cmp	r4, r0
 8000eec:	dd00      	ble.n	8000ef0 <__aeabi_fsub+0x74>
 8000eee:	e096      	b.n	800101e <__aeabi_fsub+0x1a2>
 8000ef0:	1b04      	subs	r4, r0, r4
 8000ef2:	003a      	movs	r2, r7
 8000ef4:	2020      	movs	r0, #32
 8000ef6:	3401      	adds	r4, #1
 8000ef8:	40e2      	lsrs	r2, r4
 8000efa:	1b04      	subs	r4, r0, r4
 8000efc:	40a7      	lsls	r7, r4
 8000efe:	003b      	movs	r3, r7
 8000f00:	1e5f      	subs	r7, r3, #1
 8000f02:	41bb      	sbcs	r3, r7
 8000f04:	2400      	movs	r4, #0
 8000f06:	4313      	orrs	r3, r2
 8000f08:	075a      	lsls	r2, r3, #29
 8000f0a:	d004      	beq.n	8000f16 <__aeabi_fsub+0x9a>
 8000f0c:	220f      	movs	r2, #15
 8000f0e:	401a      	ands	r2, r3
 8000f10:	2a04      	cmp	r2, #4
 8000f12:	d000      	beq.n	8000f16 <__aeabi_fsub+0x9a>
 8000f14:	3304      	adds	r3, #4
 8000f16:	015a      	lsls	r2, r3, #5
 8000f18:	d527      	bpl.n	8000f6a <__aeabi_fsub+0xee>
 8000f1a:	3401      	adds	r4, #1
 8000f1c:	2cff      	cmp	r4, #255	; 0xff
 8000f1e:	d100      	bne.n	8000f22 <__aeabi_fsub+0xa6>
 8000f20:	e079      	b.n	8001016 <__aeabi_fsub+0x19a>
 8000f22:	2201      	movs	r2, #1
 8000f24:	019b      	lsls	r3, r3, #6
 8000f26:	0a5b      	lsrs	r3, r3, #9
 8000f28:	b2e4      	uxtb	r4, r4
 8000f2a:	402a      	ands	r2, r5
 8000f2c:	025b      	lsls	r3, r3, #9
 8000f2e:	05e4      	lsls	r4, r4, #23
 8000f30:	0a58      	lsrs	r0, r3, #9
 8000f32:	07d2      	lsls	r2, r2, #31
 8000f34:	4320      	orrs	r0, r4
 8000f36:	4310      	orrs	r0, r2
 8000f38:	bc1c      	pop	{r2, r3, r4}
 8000f3a:	4690      	mov	r8, r2
 8000f3c:	4699      	mov	r9, r3
 8000f3e:	46a2      	mov	sl, r4
 8000f40:	bdf0      	pop	{r4, r5, r6, r7, pc}
 8000f42:	2cff      	cmp	r4, #255	; 0xff
 8000f44:	d0e0      	beq.n	8000f08 <__aeabi_fsub+0x8c>
 8000f46:	2180      	movs	r1, #128	; 0x80
 8000f48:	04c9      	lsls	r1, r1, #19
 8000f4a:	430e      	orrs	r6, r1
 8000f4c:	2a1b      	cmp	r2, #27
 8000f4e:	dc7b      	bgt.n	8001048 <__aeabi_fsub+0x1cc>
 8000f50:	0031      	movs	r1, r6
 8000f52:	2020      	movs	r0, #32
 8000f54:	40d1      	lsrs	r1, r2
 8000f56:	1a82      	subs	r2, r0, r2
 8000f58:	4096      	lsls	r6, r2
 8000f5a:	1e72      	subs	r2, r6, #1
 8000f5c:	4196      	sbcs	r6, r2
 8000f5e:	430e      	orrs	r6, r1
 8000f60:	1b9b      	subs	r3, r3, r6
 8000f62:	015a      	lsls	r2, r3, #5
 8000f64:	d4ba      	bmi.n	8000edc <__aeabi_fsub+0x60>
 8000f66:	075a      	lsls	r2, r3, #29
 8000f68:	d1d0      	bne.n	8000f0c <__aeabi_fsub+0x90>
 8000f6a:	2201      	movs	r2, #1
 8000f6c:	08df      	lsrs	r7, r3, #3
 8000f6e:	402a      	ands	r2, r5
 8000f70:	2cff      	cmp	r4, #255	; 0xff
 8000f72:	d133      	bne.n	8000fdc <__aeabi_fsub+0x160>
 8000f74:	2f00      	cmp	r7, #0
 8000f76:	d100      	bne.n	8000f7a <__aeabi_fsub+0xfe>
 8000f78:	e0a8      	b.n	80010cc <__aeabi_fsub+0x250>
 8000f7a:	2380      	movs	r3, #128	; 0x80
 8000f7c:	03db      	lsls	r3, r3, #15
 8000f7e:	433b      	orrs	r3, r7
 8000f80:	025b      	lsls	r3, r3, #9
 8000f82:	0a5b      	lsrs	r3, r3, #9
 8000f84:	24ff      	movs	r4, #255	; 0xff
 8000f86:	e7d1      	b.n	8000f2c <__aeabi_fsub+0xb0>
 8000f88:	1a21      	subs	r1, r4, r0
 8000f8a:	2900      	cmp	r1, #0
 8000f8c:	dd4c      	ble.n	8001028 <__aeabi_fsub+0x1ac>
 8000f8e:	2800      	cmp	r0, #0
 8000f90:	d02a      	beq.n	8000fe8 <__aeabi_fsub+0x16c>
 8000f92:	2cff      	cmp	r4, #255	; 0xff
 8000f94:	d0b8      	beq.n	8000f08 <__aeabi_fsub+0x8c>
 8000f96:	2080      	movs	r0, #128	; 0x80
 8000f98:	04c0      	lsls	r0, r0, #19
 8000f9a:	4306      	orrs	r6, r0
 8000f9c:	291b      	cmp	r1, #27
 8000f9e:	dd00      	ble.n	8000fa2 <__aeabi_fsub+0x126>
 8000fa0:	e0af      	b.n	8001102 <__aeabi_fsub+0x286>
 8000fa2:	0030      	movs	r0, r6
 8000fa4:	2720      	movs	r7, #32
 8000fa6:	40c8      	lsrs	r0, r1
 8000fa8:	1a79      	subs	r1, r7, r1
 8000faa:	408e      	lsls	r6, r1
 8000fac:	1e71      	subs	r1, r6, #1
 8000fae:	418e      	sbcs	r6, r1
 8000fb0:	4306      	orrs	r6, r0
 8000fb2:	199b      	adds	r3, r3, r6
 8000fb4:	0159      	lsls	r1, r3, #5
 8000fb6:	d5d6      	bpl.n	8000f66 <__aeabi_fsub+0xea>
 8000fb8:	3401      	adds	r4, #1
 8000fba:	2cff      	cmp	r4, #255	; 0xff
 8000fbc:	d100      	bne.n	8000fc0 <__aeabi_fsub+0x144>
 8000fbe:	e085      	b.n	80010cc <__aeabi_fsub+0x250>
 8000fc0:	2201      	movs	r2, #1
 8000fc2:	497a      	ldr	r1, [pc, #488]	; (80011ac <__aeabi_fsub+0x330>)
 8000fc4:	401a      	ands	r2, r3
 8000fc6:	085b      	lsrs	r3, r3, #1
 8000fc8:	400b      	ands	r3, r1
 8000fca:	4313      	orrs	r3, r2
 8000fcc:	e79c      	b.n	8000f08 <__aeabi_fsub+0x8c>
 8000fce:	2e00      	cmp	r6, #0
 8000fd0:	d000      	beq.n	8000fd4 <__aeabi_fsub+0x158>
 8000fd2:	e770      	b.n	8000eb6 <__aeabi_fsub+0x3a>
 8000fd4:	e76b      	b.n	8000eae <__aeabi_fsub+0x32>
 8000fd6:	1e3b      	subs	r3, r7, #0
 8000fd8:	d1c5      	bne.n	8000f66 <__aeabi_fsub+0xea>
 8000fda:	2200      	movs	r2, #0
 8000fdc:	027b      	lsls	r3, r7, #9
 8000fde:	0a5b      	lsrs	r3, r3, #9
 8000fe0:	b2e4      	uxtb	r4, r4
 8000fe2:	e7a3      	b.n	8000f2c <__aeabi_fsub+0xb0>
 8000fe4:	0014      	movs	r4, r2
 8000fe6:	e78f      	b.n	8000f08 <__aeabi_fsub+0x8c>
 8000fe8:	2e00      	cmp	r6, #0
 8000fea:	d04d      	beq.n	8001088 <__aeabi_fsub+0x20c>
 8000fec:	1e48      	subs	r0, r1, #1
 8000fee:	2800      	cmp	r0, #0
 8000ff0:	d157      	bne.n	80010a2 <__aeabi_fsub+0x226>
 8000ff2:	199b      	adds	r3, r3, r6
 8000ff4:	2401      	movs	r4, #1
 8000ff6:	015a      	lsls	r2, r3, #5
 8000ff8:	d5b5      	bpl.n	8000f66 <__aeabi_fsub+0xea>
 8000ffa:	2402      	movs	r4, #2
 8000ffc:	e7e0      	b.n	8000fc0 <__aeabi_fsub+0x144>
 8000ffe:	2a00      	cmp	r2, #0
 8001000:	d125      	bne.n	800104e <__aeabi_fsub+0x1d2>
 8001002:	1c62      	adds	r2, r4, #1
 8001004:	b2d2      	uxtb	r2, r2
 8001006:	2a01      	cmp	r2, #1
 8001008:	dd72      	ble.n	80010f0 <__aeabi_fsub+0x274>
 800100a:	1b9f      	subs	r7, r3, r6
 800100c:	017a      	lsls	r2, r7, #5
 800100e:	d535      	bpl.n	800107c <__aeabi_fsub+0x200>
 8001010:	1af7      	subs	r7, r6, r3
 8001012:	000d      	movs	r5, r1
 8001014:	e764      	b.n	8000ee0 <__aeabi_fsub+0x64>
 8001016:	2201      	movs	r2, #1
 8001018:	2300      	movs	r3, #0
 800101a:	402a      	ands	r2, r5
 800101c:	e786      	b.n	8000f2c <__aeabi_fsub+0xb0>
 800101e:	003b      	movs	r3, r7
 8001020:	4a63      	ldr	r2, [pc, #396]	; (80011b0 <__aeabi_fsub+0x334>)
 8001022:	1a24      	subs	r4, r4, r0
 8001024:	4013      	ands	r3, r2
 8001026:	e76f      	b.n	8000f08 <__aeabi_fsub+0x8c>
 8001028:	2900      	cmp	r1, #0
 800102a:	d16c      	bne.n	8001106 <__aeabi_fsub+0x28a>
 800102c:	1c61      	adds	r1, r4, #1
 800102e:	b2c8      	uxtb	r0, r1
 8001030:	2801      	cmp	r0, #1
 8001032:	dd4e      	ble.n	80010d2 <__aeabi_fsub+0x256>
 8001034:	29ff      	cmp	r1, #255	; 0xff
 8001036:	d049      	beq.n	80010cc <__aeabi_fsub+0x250>
 8001038:	199b      	adds	r3, r3, r6
 800103a:	085b      	lsrs	r3, r3, #1
 800103c:	000c      	movs	r4, r1
 800103e:	e763      	b.n	8000f08 <__aeabi_fsub+0x8c>
 8001040:	2aff      	cmp	r2, #255	; 0xff
 8001042:	d041      	beq.n	80010c8 <__aeabi_fsub+0x24c>
 8001044:	000a      	movs	r2, r1
 8001046:	e781      	b.n	8000f4c <__aeabi_fsub+0xd0>
 8001048:	2601      	movs	r6, #1
 800104a:	1b9b      	subs	r3, r3, r6
 800104c:	e789      	b.n	8000f62 <__aeabi_fsub+0xe6>
 800104e:	2c00      	cmp	r4, #0
 8001050:	d01c      	beq.n	800108c <__aeabi_fsub+0x210>
 8001052:	28ff      	cmp	r0, #255	; 0xff
 8001054:	d021      	beq.n	800109a <__aeabi_fsub+0x21e>
 8001056:	2480      	movs	r4, #128	; 0x80
 8001058:	04e4      	lsls	r4, r4, #19
 800105a:	4252      	negs	r2, r2
 800105c:	4323      	orrs	r3, r4
 800105e:	2a1b      	cmp	r2, #27
 8001060:	dd00      	ble.n	8001064 <__aeabi_fsub+0x1e8>
 8001062:	e096      	b.n	8001192 <__aeabi_fsub+0x316>
 8001064:	001c      	movs	r4, r3
 8001066:	2520      	movs	r5, #32
 8001068:	40d4      	lsrs	r4, r2
 800106a:	1aaa      	subs	r2, r5, r2
 800106c:	4093      	lsls	r3, r2
 800106e:	1e5a      	subs	r2, r3, #1
 8001070:	4193      	sbcs	r3, r2
 8001072:	4323      	orrs	r3, r4
 8001074:	1af3      	subs	r3, r6, r3
 8001076:	0004      	movs	r4, r0
 8001078:	000d      	movs	r5, r1
 800107a:	e72d      	b.n	8000ed8 <__aeabi_fsub+0x5c>
 800107c:	2f00      	cmp	r7, #0
 800107e:	d000      	beq.n	8001082 <__aeabi_fsub+0x206>
 8001080:	e72e      	b.n	8000ee0 <__aeabi_fsub+0x64>
 8001082:	2200      	movs	r2, #0
 8001084:	2400      	movs	r4, #0
 8001086:	e7a9      	b.n	8000fdc <__aeabi_fsub+0x160>
 8001088:	000c      	movs	r4, r1
 800108a:	e73d      	b.n	8000f08 <__aeabi_fsub+0x8c>
 800108c:	2b00      	cmp	r3, #0
 800108e:	d058      	beq.n	8001142 <__aeabi_fsub+0x2c6>
 8001090:	43d2      	mvns	r2, r2
 8001092:	2a00      	cmp	r2, #0
 8001094:	d0ee      	beq.n	8001074 <__aeabi_fsub+0x1f8>
 8001096:	28ff      	cmp	r0, #255	; 0xff
 8001098:	d1e1      	bne.n	800105e <__aeabi_fsub+0x1e2>
 800109a:	0033      	movs	r3, r6
 800109c:	24ff      	movs	r4, #255	; 0xff
 800109e:	000d      	movs	r5, r1
 80010a0:	e732      	b.n	8000f08 <__aeabi_fsub+0x8c>
 80010a2:	29ff      	cmp	r1, #255	; 0xff
 80010a4:	d010      	beq.n	80010c8 <__aeabi_fsub+0x24c>
 80010a6:	0001      	movs	r1, r0
 80010a8:	e778      	b.n	8000f9c <__aeabi_fsub+0x120>
 80010aa:	2b00      	cmp	r3, #0
 80010ac:	d06e      	beq.n	800118c <__aeabi_fsub+0x310>
 80010ae:	24ff      	movs	r4, #255	; 0xff
 80010b0:	2e00      	cmp	r6, #0
 80010b2:	d100      	bne.n	80010b6 <__aeabi_fsub+0x23a>
 80010b4:	e728      	b.n	8000f08 <__aeabi_fsub+0x8c>
 80010b6:	2280      	movs	r2, #128	; 0x80
 80010b8:	4651      	mov	r1, sl
 80010ba:	03d2      	lsls	r2, r2, #15
 80010bc:	4211      	tst	r1, r2
 80010be:	d003      	beq.n	80010c8 <__aeabi_fsub+0x24c>
 80010c0:	4661      	mov	r1, ip
 80010c2:	4211      	tst	r1, r2
 80010c4:	d100      	bne.n	80010c8 <__aeabi_fsub+0x24c>
 80010c6:	0033      	movs	r3, r6
 80010c8:	24ff      	movs	r4, #255	; 0xff
 80010ca:	e71d      	b.n	8000f08 <__aeabi_fsub+0x8c>
 80010cc:	24ff      	movs	r4, #255	; 0xff
 80010ce:	2300      	movs	r3, #0
 80010d0:	e72c      	b.n	8000f2c <__aeabi_fsub+0xb0>
 80010d2:	2c00      	cmp	r4, #0
 80010d4:	d1e9      	bne.n	80010aa <__aeabi_fsub+0x22e>
 80010d6:	2b00      	cmp	r3, #0
 80010d8:	d063      	beq.n	80011a2 <__aeabi_fsub+0x326>
 80010da:	2e00      	cmp	r6, #0
 80010dc:	d100      	bne.n	80010e0 <__aeabi_fsub+0x264>
 80010de:	e713      	b.n	8000f08 <__aeabi_fsub+0x8c>
 80010e0:	199b      	adds	r3, r3, r6
 80010e2:	015a      	lsls	r2, r3, #5
 80010e4:	d400      	bmi.n	80010e8 <__aeabi_fsub+0x26c>
 80010e6:	e73e      	b.n	8000f66 <__aeabi_fsub+0xea>
 80010e8:	4a31      	ldr	r2, [pc, #196]	; (80011b0 <__aeabi_fsub+0x334>)
 80010ea:	000c      	movs	r4, r1
 80010ec:	4013      	ands	r3, r2
 80010ee:	e70b      	b.n	8000f08 <__aeabi_fsub+0x8c>
 80010f0:	2c00      	cmp	r4, #0
 80010f2:	d11e      	bne.n	8001132 <__aeabi_fsub+0x2b6>
 80010f4:	2b00      	cmp	r3, #0
 80010f6:	d12f      	bne.n	8001158 <__aeabi_fsub+0x2dc>
 80010f8:	2e00      	cmp	r6, #0
 80010fa:	d04f      	beq.n	800119c <__aeabi_fsub+0x320>
 80010fc:	0033      	movs	r3, r6
 80010fe:	000d      	movs	r5, r1
 8001100:	e702      	b.n	8000f08 <__aeabi_fsub+0x8c>
 8001102:	2601      	movs	r6, #1
 8001104:	e755      	b.n	8000fb2 <__aeabi_fsub+0x136>
 8001106:	2c00      	cmp	r4, #0
 8001108:	d11f      	bne.n	800114a <__aeabi_fsub+0x2ce>
 800110a:	2b00      	cmp	r3, #0
 800110c:	d043      	beq.n	8001196 <__aeabi_fsub+0x31a>
 800110e:	43c9      	mvns	r1, r1
 8001110:	2900      	cmp	r1, #0
 8001112:	d00b      	beq.n	800112c <__aeabi_fsub+0x2b0>
 8001114:	28ff      	cmp	r0, #255	; 0xff
 8001116:	d039      	beq.n	800118c <__aeabi_fsub+0x310>
 8001118:	291b      	cmp	r1, #27
 800111a:	dc44      	bgt.n	80011a6 <__aeabi_fsub+0x32a>
 800111c:	001c      	movs	r4, r3
 800111e:	2720      	movs	r7, #32
 8001120:	40cc      	lsrs	r4, r1
 8001122:	1a79      	subs	r1, r7, r1
 8001124:	408b      	lsls	r3, r1
 8001126:	1e59      	subs	r1, r3, #1
 8001128:	418b      	sbcs	r3, r1
 800112a:	4323      	orrs	r3, r4
 800112c:	199b      	adds	r3, r3, r6
 800112e:	0004      	movs	r4, r0
 8001130:	e740      	b.n	8000fb4 <__aeabi_fsub+0x138>
 8001132:	2b00      	cmp	r3, #0
 8001134:	d11a      	bne.n	800116c <__aeabi_fsub+0x2f0>
 8001136:	2e00      	cmp	r6, #0
 8001138:	d124      	bne.n	8001184 <__aeabi_fsub+0x308>
 800113a:	2780      	movs	r7, #128	; 0x80
 800113c:	2200      	movs	r2, #0
 800113e:	03ff      	lsls	r7, r7, #15
 8001140:	e71b      	b.n	8000f7a <__aeabi_fsub+0xfe>
 8001142:	0033      	movs	r3, r6
 8001144:	0004      	movs	r4, r0
 8001146:	000d      	movs	r5, r1
 8001148:	e6de      	b.n	8000f08 <__aeabi_fsub+0x8c>
 800114a:	28ff      	cmp	r0, #255	; 0xff
 800114c:	d01e      	beq.n	800118c <__aeabi_fsub+0x310>
 800114e:	2480      	movs	r4, #128	; 0x80
 8001150:	04e4      	lsls	r4, r4, #19
 8001152:	4249      	negs	r1, r1
 8001154:	4323      	orrs	r3, r4
 8001156:	e7df      	b.n	8001118 <__aeabi_fsub+0x29c>
 8001158:	2e00      	cmp	r6, #0
 800115a:	d100      	bne.n	800115e <__aeabi_fsub+0x2e2>
 800115c:	e6d4      	b.n	8000f08 <__aeabi_fsub+0x8c>
 800115e:	1b9f      	subs	r7, r3, r6
 8001160:	017a      	lsls	r2, r7, #5
 8001162:	d400      	bmi.n	8001166 <__aeabi_fsub+0x2ea>
 8001164:	e737      	b.n	8000fd6 <__aeabi_fsub+0x15a>
 8001166:	1af3      	subs	r3, r6, r3
 8001168:	000d      	movs	r5, r1
 800116a:	e6cd      	b.n	8000f08 <__aeabi_fsub+0x8c>
 800116c:	24ff      	movs	r4, #255	; 0xff
 800116e:	2e00      	cmp	r6, #0
 8001170:	d100      	bne.n	8001174 <__aeabi_fsub+0x2f8>
 8001172:	e6c9      	b.n	8000f08 <__aeabi_fsub+0x8c>
 8001174:	2280      	movs	r2, #128	; 0x80
 8001176:	4650      	mov	r0, sl
 8001178:	03d2      	lsls	r2, r2, #15
 800117a:	4210      	tst	r0, r2
 800117c:	d0a4      	beq.n	80010c8 <__aeabi_fsub+0x24c>
 800117e:	4660      	mov	r0, ip
 8001180:	4210      	tst	r0, r2
 8001182:	d1a1      	bne.n	80010c8 <__aeabi_fsub+0x24c>
 8001184:	0033      	movs	r3, r6
 8001186:	000d      	movs	r5, r1
 8001188:	24ff      	movs	r4, #255	; 0xff
 800118a:	e6bd      	b.n	8000f08 <__aeabi_fsub+0x8c>
 800118c:	0033      	movs	r3, r6
 800118e:	24ff      	movs	r4, #255	; 0xff
 8001190:	e6ba      	b.n	8000f08 <__aeabi_fsub+0x8c>
 8001192:	2301      	movs	r3, #1
 8001194:	e76e      	b.n	8001074 <__aeabi_fsub+0x1f8>
 8001196:	0033      	movs	r3, r6
 8001198:	0004      	movs	r4, r0
 800119a:	e6b5      	b.n	8000f08 <__aeabi_fsub+0x8c>
 800119c:	2700      	movs	r7, #0
 800119e:	2200      	movs	r2, #0
 80011a0:	e71c      	b.n	8000fdc <__aeabi_fsub+0x160>
 80011a2:	0033      	movs	r3, r6
 80011a4:	e6b0      	b.n	8000f08 <__aeabi_fsub+0x8c>
 80011a6:	2301      	movs	r3, #1
 80011a8:	e7c0      	b.n	800112c <__aeabi_fsub+0x2b0>
 80011aa:	46c0      	nop			; (mov r8, r8)
 80011ac:	7dffffff 	.word	0x7dffffff
 80011b0:	fbffffff 	.word	0xfbffffff

080011b4 <__aeabi_f2iz>:
 80011b4:	0241      	lsls	r1, r0, #9
 80011b6:	0043      	lsls	r3, r0, #1
 80011b8:	0fc2      	lsrs	r2, r0, #31
 80011ba:	0a49      	lsrs	r1, r1, #9
 80011bc:	0e1b      	lsrs	r3, r3, #24
 80011be:	2000      	movs	r0, #0
 80011c0:	2b7e      	cmp	r3, #126	; 0x7e
 80011c2:	dd0d      	ble.n	80011e0 <__aeabi_f2iz+0x2c>
 80011c4:	2b9d      	cmp	r3, #157	; 0x9d
 80011c6:	dc0c      	bgt.n	80011e2 <__aeabi_f2iz+0x2e>
 80011c8:	2080      	movs	r0, #128	; 0x80
 80011ca:	0400      	lsls	r0, r0, #16
 80011cc:	4301      	orrs	r1, r0
 80011ce:	2b95      	cmp	r3, #149	; 0x95
 80011d0:	dc0a      	bgt.n	80011e8 <__aeabi_f2iz+0x34>
 80011d2:	2096      	movs	r0, #150	; 0x96
 80011d4:	1ac3      	subs	r3, r0, r3
 80011d6:	40d9      	lsrs	r1, r3
 80011d8:	4248      	negs	r0, r1
 80011da:	2a00      	cmp	r2, #0
 80011dc:	d100      	bne.n	80011e0 <__aeabi_f2iz+0x2c>
 80011de:	0008      	movs	r0, r1
 80011e0:	4770      	bx	lr
 80011e2:	4b03      	ldr	r3, [pc, #12]	; (80011f0 <__aeabi_f2iz+0x3c>)
 80011e4:	18d0      	adds	r0, r2, r3
 80011e6:	e7fb      	b.n	80011e0 <__aeabi_f2iz+0x2c>
 80011e8:	3b96      	subs	r3, #150	; 0x96
 80011ea:	4099      	lsls	r1, r3
 80011ec:	e7f4      	b.n	80011d8 <__aeabi_f2iz+0x24>
 80011ee:	46c0      	nop			; (mov r8, r8)
 80011f0:	7fffffff 	.word	0x7fffffff

080011f4 <__aeabi_i2f>:
 80011f4:	b570      	push	{r4, r5, r6, lr}
 80011f6:	2800      	cmp	r0, #0
 80011f8:	d030      	beq.n	800125c <__aeabi_i2f+0x68>
 80011fa:	17c3      	asrs	r3, r0, #31
 80011fc:	18c4      	adds	r4, r0, r3
 80011fe:	405c      	eors	r4, r3
 8001200:	0fc5      	lsrs	r5, r0, #31
 8001202:	0020      	movs	r0, r4
 8001204:	f001 feca 	bl	8002f9c <__clzsi2>
 8001208:	239e      	movs	r3, #158	; 0x9e
 800120a:	1a1b      	subs	r3, r3, r0
 800120c:	2b96      	cmp	r3, #150	; 0x96
 800120e:	dc0d      	bgt.n	800122c <__aeabi_i2f+0x38>
 8001210:	2296      	movs	r2, #150	; 0x96
 8001212:	1ad2      	subs	r2, r2, r3
 8001214:	4094      	lsls	r4, r2
 8001216:	002a      	movs	r2, r5
 8001218:	0264      	lsls	r4, r4, #9
 800121a:	0a64      	lsrs	r4, r4, #9
 800121c:	b2db      	uxtb	r3, r3
 800121e:	0264      	lsls	r4, r4, #9
 8001220:	05db      	lsls	r3, r3, #23
 8001222:	0a60      	lsrs	r0, r4, #9
 8001224:	07d2      	lsls	r2, r2, #31
 8001226:	4318      	orrs	r0, r3
 8001228:	4310      	orrs	r0, r2
 800122a:	bd70      	pop	{r4, r5, r6, pc}
 800122c:	2b99      	cmp	r3, #153	; 0x99
 800122e:	dc19      	bgt.n	8001264 <__aeabi_i2f+0x70>
 8001230:	2299      	movs	r2, #153	; 0x99
 8001232:	1ad2      	subs	r2, r2, r3
 8001234:	2a00      	cmp	r2, #0
 8001236:	dd29      	ble.n	800128c <__aeabi_i2f+0x98>
 8001238:	4094      	lsls	r4, r2
 800123a:	0022      	movs	r2, r4
 800123c:	4c14      	ldr	r4, [pc, #80]	; (8001290 <__aeabi_i2f+0x9c>)
 800123e:	4014      	ands	r4, r2
 8001240:	0751      	lsls	r1, r2, #29
 8001242:	d004      	beq.n	800124e <__aeabi_i2f+0x5a>
 8001244:	210f      	movs	r1, #15
 8001246:	400a      	ands	r2, r1
 8001248:	2a04      	cmp	r2, #4
 800124a:	d000      	beq.n	800124e <__aeabi_i2f+0x5a>
 800124c:	3404      	adds	r4, #4
 800124e:	0162      	lsls	r2, r4, #5
 8001250:	d413      	bmi.n	800127a <__aeabi_i2f+0x86>
 8001252:	01a4      	lsls	r4, r4, #6
 8001254:	0a64      	lsrs	r4, r4, #9
 8001256:	b2db      	uxtb	r3, r3
 8001258:	002a      	movs	r2, r5
 800125a:	e7e0      	b.n	800121e <__aeabi_i2f+0x2a>
 800125c:	2200      	movs	r2, #0
 800125e:	2300      	movs	r3, #0
 8001260:	2400      	movs	r4, #0
 8001262:	e7dc      	b.n	800121e <__aeabi_i2f+0x2a>
 8001264:	2205      	movs	r2, #5
 8001266:	0021      	movs	r1, r4
 8001268:	1a12      	subs	r2, r2, r0
 800126a:	40d1      	lsrs	r1, r2
 800126c:	22b9      	movs	r2, #185	; 0xb9
 800126e:	1ad2      	subs	r2, r2, r3
 8001270:	4094      	lsls	r4, r2
 8001272:	1e62      	subs	r2, r4, #1
 8001274:	4194      	sbcs	r4, r2
 8001276:	430c      	orrs	r4, r1
 8001278:	e7da      	b.n	8001230 <__aeabi_i2f+0x3c>
 800127a:	4b05      	ldr	r3, [pc, #20]	; (8001290 <__aeabi_i2f+0x9c>)
 800127c:	002a      	movs	r2, r5
 800127e:	401c      	ands	r4, r3
 8001280:	239f      	movs	r3, #159	; 0x9f
 8001282:	01a4      	lsls	r4, r4, #6
 8001284:	1a1b      	subs	r3, r3, r0
 8001286:	0a64      	lsrs	r4, r4, #9
 8001288:	b2db      	uxtb	r3, r3
 800128a:	e7c8      	b.n	800121e <__aeabi_i2f+0x2a>
 800128c:	0022      	movs	r2, r4
 800128e:	e7d5      	b.n	800123c <__aeabi_i2f+0x48>
 8001290:	fbffffff 	.word	0xfbffffff

08001294 <__aeabi_dadd>:
 8001294:	b5f8      	push	{r3, r4, r5, r6, r7, lr}
 8001296:	4645      	mov	r5, r8
 8001298:	46de      	mov	lr, fp
 800129a:	4657      	mov	r7, sl
 800129c:	464e      	mov	r6, r9
 800129e:	030c      	lsls	r4, r1, #12
 80012a0:	b5e0      	push	{r5, r6, r7, lr}
 80012a2:	004e      	lsls	r6, r1, #1
 80012a4:	0fc9      	lsrs	r1, r1, #31
 80012a6:	4688      	mov	r8, r1
 80012a8:	000d      	movs	r5, r1
 80012aa:	0a61      	lsrs	r1, r4, #9
 80012ac:	0f44      	lsrs	r4, r0, #29
 80012ae:	430c      	orrs	r4, r1
 80012b0:	00c7      	lsls	r7, r0, #3
 80012b2:	0319      	lsls	r1, r3, #12
 80012b4:	0058      	lsls	r0, r3, #1
 80012b6:	0fdb      	lsrs	r3, r3, #31
 80012b8:	469b      	mov	fp, r3
 80012ba:	0a4b      	lsrs	r3, r1, #9
 80012bc:	0f51      	lsrs	r1, r2, #29
 80012be:	430b      	orrs	r3, r1
 80012c0:	0d76      	lsrs	r6, r6, #21
 80012c2:	0d40      	lsrs	r0, r0, #21
 80012c4:	0019      	movs	r1, r3
 80012c6:	00d2      	lsls	r2, r2, #3
 80012c8:	45d8      	cmp	r8, fp
 80012ca:	d100      	bne.n	80012ce <__aeabi_dadd+0x3a>
 80012cc:	e0ae      	b.n	800142c <__aeabi_dadd+0x198>
 80012ce:	1a35      	subs	r5, r6, r0
 80012d0:	2d00      	cmp	r5, #0
 80012d2:	dc00      	bgt.n	80012d6 <__aeabi_dadd+0x42>
 80012d4:	e0f6      	b.n	80014c4 <__aeabi_dadd+0x230>
 80012d6:	2800      	cmp	r0, #0
 80012d8:	d10f      	bne.n	80012fa <__aeabi_dadd+0x66>
 80012da:	4313      	orrs	r3, r2
 80012dc:	d100      	bne.n	80012e0 <__aeabi_dadd+0x4c>
 80012de:	e0db      	b.n	8001498 <__aeabi_dadd+0x204>
 80012e0:	1e6b      	subs	r3, r5, #1
 80012e2:	2b00      	cmp	r3, #0
 80012e4:	d000      	beq.n	80012e8 <__aeabi_dadd+0x54>
 80012e6:	e137      	b.n	8001558 <__aeabi_dadd+0x2c4>
 80012e8:	1aba      	subs	r2, r7, r2
 80012ea:	4297      	cmp	r7, r2
 80012ec:	41bf      	sbcs	r7, r7
 80012ee:	1a64      	subs	r4, r4, r1
 80012f0:	427f      	negs	r7, r7
 80012f2:	1be4      	subs	r4, r4, r7
 80012f4:	2601      	movs	r6, #1
 80012f6:	0017      	movs	r7, r2
 80012f8:	e024      	b.n	8001344 <__aeabi_dadd+0xb0>
 80012fa:	4bc6      	ldr	r3, [pc, #792]	; (8001614 <__aeabi_dadd+0x380>)
 80012fc:	429e      	cmp	r6, r3
 80012fe:	d04d      	beq.n	800139c <__aeabi_dadd+0x108>
 8001300:	2380      	movs	r3, #128	; 0x80
 8001302:	041b      	lsls	r3, r3, #16
 8001304:	4319      	orrs	r1, r3
 8001306:	2d38      	cmp	r5, #56	; 0x38
 8001308:	dd00      	ble.n	800130c <__aeabi_dadd+0x78>
 800130a:	e107      	b.n	800151c <__aeabi_dadd+0x288>
 800130c:	2d1f      	cmp	r5, #31
 800130e:	dd00      	ble.n	8001312 <__aeabi_dadd+0x7e>
 8001310:	e138      	b.n	8001584 <__aeabi_dadd+0x2f0>
 8001312:	2020      	movs	r0, #32
 8001314:	1b43      	subs	r3, r0, r5
 8001316:	469a      	mov	sl, r3
 8001318:	000b      	movs	r3, r1
 800131a:	4650      	mov	r0, sl
 800131c:	4083      	lsls	r3, r0
 800131e:	4699      	mov	r9, r3
 8001320:	0013      	movs	r3, r2
 8001322:	4648      	mov	r0, r9
 8001324:	40eb      	lsrs	r3, r5
 8001326:	4318      	orrs	r0, r3
 8001328:	0003      	movs	r3, r0
 800132a:	4650      	mov	r0, sl
 800132c:	4082      	lsls	r2, r0
 800132e:	1e50      	subs	r0, r2, #1
 8001330:	4182      	sbcs	r2, r0
 8001332:	40e9      	lsrs	r1, r5
 8001334:	431a      	orrs	r2, r3
 8001336:	1aba      	subs	r2, r7, r2
 8001338:	1a61      	subs	r1, r4, r1
 800133a:	4297      	cmp	r7, r2
 800133c:	41a4      	sbcs	r4, r4
 800133e:	0017      	movs	r7, r2
 8001340:	4264      	negs	r4, r4
 8001342:	1b0c      	subs	r4, r1, r4
 8001344:	0223      	lsls	r3, r4, #8
 8001346:	d562      	bpl.n	800140e <__aeabi_dadd+0x17a>
 8001348:	0264      	lsls	r4, r4, #9
 800134a:	0a65      	lsrs	r5, r4, #9
 800134c:	2d00      	cmp	r5, #0
 800134e:	d100      	bne.n	8001352 <__aeabi_dadd+0xbe>
 8001350:	e0df      	b.n	8001512 <__aeabi_dadd+0x27e>
 8001352:	0028      	movs	r0, r5
 8001354:	f001 fe22 	bl	8002f9c <__clzsi2>
 8001358:	0003      	movs	r3, r0
 800135a:	3b08      	subs	r3, #8
 800135c:	2b1f      	cmp	r3, #31
 800135e:	dd00      	ble.n	8001362 <__aeabi_dadd+0xce>
 8001360:	e0d2      	b.n	8001508 <__aeabi_dadd+0x274>
 8001362:	2220      	movs	r2, #32
 8001364:	003c      	movs	r4, r7
 8001366:	1ad2      	subs	r2, r2, r3
 8001368:	409d      	lsls	r5, r3
 800136a:	40d4      	lsrs	r4, r2
 800136c:	409f      	lsls	r7, r3
 800136e:	4325      	orrs	r5, r4
 8001370:	429e      	cmp	r6, r3
 8001372:	dd00      	ble.n	8001376 <__aeabi_dadd+0xe2>
 8001374:	e0c4      	b.n	8001500 <__aeabi_dadd+0x26c>
 8001376:	1b9e      	subs	r6, r3, r6
 8001378:	1c73      	adds	r3, r6, #1
 800137a:	2b1f      	cmp	r3, #31
 800137c:	dd00      	ble.n	8001380 <__aeabi_dadd+0xec>
 800137e:	e0f1      	b.n	8001564 <__aeabi_dadd+0x2d0>
 8001380:	2220      	movs	r2, #32
 8001382:	0038      	movs	r0, r7
 8001384:	0029      	movs	r1, r5
 8001386:	1ad2      	subs	r2, r2, r3
 8001388:	40d8      	lsrs	r0, r3
 800138a:	4091      	lsls	r1, r2
 800138c:	4097      	lsls	r7, r2
 800138e:	002c      	movs	r4, r5
 8001390:	4301      	orrs	r1, r0
 8001392:	1e78      	subs	r0, r7, #1
 8001394:	4187      	sbcs	r7, r0
 8001396:	40dc      	lsrs	r4, r3
 8001398:	2600      	movs	r6, #0
 800139a:	430f      	orrs	r7, r1
 800139c:	077b      	lsls	r3, r7, #29
 800139e:	d009      	beq.n	80013b4 <__aeabi_dadd+0x120>
 80013a0:	230f      	movs	r3, #15
 80013a2:	403b      	ands	r3, r7
 80013a4:	2b04      	cmp	r3, #4
 80013a6:	d005      	beq.n	80013b4 <__aeabi_dadd+0x120>
 80013a8:	1d3b      	adds	r3, r7, #4
 80013aa:	42bb      	cmp	r3, r7
 80013ac:	41bf      	sbcs	r7, r7
 80013ae:	427f      	negs	r7, r7
 80013b0:	19e4      	adds	r4, r4, r7
 80013b2:	001f      	movs	r7, r3
 80013b4:	0223      	lsls	r3, r4, #8
 80013b6:	d52c      	bpl.n	8001412 <__aeabi_dadd+0x17e>
 80013b8:	4b96      	ldr	r3, [pc, #600]	; (8001614 <__aeabi_dadd+0x380>)
 80013ba:	3601      	adds	r6, #1
 80013bc:	429e      	cmp	r6, r3
 80013be:	d100      	bne.n	80013c2 <__aeabi_dadd+0x12e>
 80013c0:	e09a      	b.n	80014f8 <__aeabi_dadd+0x264>
 80013c2:	4645      	mov	r5, r8
 80013c4:	4b94      	ldr	r3, [pc, #592]	; (8001618 <__aeabi_dadd+0x384>)
 80013c6:	08ff      	lsrs	r7, r7, #3
 80013c8:	401c      	ands	r4, r3
 80013ca:	0760      	lsls	r0, r4, #29
 80013cc:	0576      	lsls	r6, r6, #21
 80013ce:	0264      	lsls	r4, r4, #9
 80013d0:	4307      	orrs	r7, r0
 80013d2:	0b24      	lsrs	r4, r4, #12
 80013d4:	0d76      	lsrs	r6, r6, #21
 80013d6:	2100      	movs	r1, #0
 80013d8:	0324      	lsls	r4, r4, #12
 80013da:	0b23      	lsrs	r3, r4, #12
 80013dc:	0d0c      	lsrs	r4, r1, #20
 80013de:	4a8f      	ldr	r2, [pc, #572]	; (800161c <__aeabi_dadd+0x388>)
 80013e0:	0524      	lsls	r4, r4, #20
 80013e2:	431c      	orrs	r4, r3
 80013e4:	4014      	ands	r4, r2
 80013e6:	0533      	lsls	r3, r6, #20
 80013e8:	4323      	orrs	r3, r4
 80013ea:	005b      	lsls	r3, r3, #1
 80013ec:	07ed      	lsls	r5, r5, #31
 80013ee:	085b      	lsrs	r3, r3, #1
 80013f0:	432b      	orrs	r3, r5
 80013f2:	0038      	movs	r0, r7
 80013f4:	0019      	movs	r1, r3
 80013f6:	bc3c      	pop	{r2, r3, r4, r5}
 80013f8:	4690      	mov	r8, r2
 80013fa:	4699      	mov	r9, r3
 80013fc:	46a2      	mov	sl, r4
 80013fe:	46ab      	mov	fp, r5
 8001400:	bdf8      	pop	{r3, r4, r5, r6, r7, pc}
 8001402:	4664      	mov	r4, ip
 8001404:	4304      	orrs	r4, r0
 8001406:	d100      	bne.n	800140a <__aeabi_dadd+0x176>
 8001408:	e211      	b.n	800182e <__aeabi_dadd+0x59a>
 800140a:	0004      	movs	r4, r0
 800140c:	4667      	mov	r7, ip
 800140e:	077b      	lsls	r3, r7, #29
 8001410:	d1c6      	bne.n	80013a0 <__aeabi_dadd+0x10c>
 8001412:	4645      	mov	r5, r8
 8001414:	0760      	lsls	r0, r4, #29
 8001416:	08ff      	lsrs	r7, r7, #3
 8001418:	4307      	orrs	r7, r0
 800141a:	08e4      	lsrs	r4, r4, #3
 800141c:	4b7d      	ldr	r3, [pc, #500]	; (8001614 <__aeabi_dadd+0x380>)
 800141e:	429e      	cmp	r6, r3
 8001420:	d030      	beq.n	8001484 <__aeabi_dadd+0x1f0>
 8001422:	0324      	lsls	r4, r4, #12
 8001424:	0576      	lsls	r6, r6, #21
 8001426:	0b24      	lsrs	r4, r4, #12
 8001428:	0d76      	lsrs	r6, r6, #21
 800142a:	e7d4      	b.n	80013d6 <__aeabi_dadd+0x142>
 800142c:	1a33      	subs	r3, r6, r0
 800142e:	469a      	mov	sl, r3
 8001430:	2b00      	cmp	r3, #0
 8001432:	dd78      	ble.n	8001526 <__aeabi_dadd+0x292>
 8001434:	2800      	cmp	r0, #0
 8001436:	d031      	beq.n	800149c <__aeabi_dadd+0x208>
 8001438:	4876      	ldr	r0, [pc, #472]	; (8001614 <__aeabi_dadd+0x380>)
 800143a:	4286      	cmp	r6, r0
 800143c:	d0ae      	beq.n	800139c <__aeabi_dadd+0x108>
 800143e:	2080      	movs	r0, #128	; 0x80
 8001440:	0400      	lsls	r0, r0, #16
 8001442:	4301      	orrs	r1, r0
 8001444:	4653      	mov	r3, sl
 8001446:	2b38      	cmp	r3, #56	; 0x38
 8001448:	dc00      	bgt.n	800144c <__aeabi_dadd+0x1b8>
 800144a:	e0e9      	b.n	8001620 <__aeabi_dadd+0x38c>
 800144c:	430a      	orrs	r2, r1
 800144e:	1e51      	subs	r1, r2, #1
 8001450:	418a      	sbcs	r2, r1
 8001452:	2100      	movs	r1, #0
 8001454:	19d2      	adds	r2, r2, r7
 8001456:	42ba      	cmp	r2, r7
 8001458:	41bf      	sbcs	r7, r7
 800145a:	1909      	adds	r1, r1, r4
 800145c:	427c      	negs	r4, r7
 800145e:	0017      	movs	r7, r2
 8001460:	190c      	adds	r4, r1, r4
 8001462:	0223      	lsls	r3, r4, #8
 8001464:	d5d3      	bpl.n	800140e <__aeabi_dadd+0x17a>
 8001466:	4b6b      	ldr	r3, [pc, #428]	; (8001614 <__aeabi_dadd+0x380>)
 8001468:	3601      	adds	r6, #1
 800146a:	429e      	cmp	r6, r3
 800146c:	d100      	bne.n	8001470 <__aeabi_dadd+0x1dc>
 800146e:	e13a      	b.n	80016e6 <__aeabi_dadd+0x452>
 8001470:	2001      	movs	r0, #1
 8001472:	4b69      	ldr	r3, [pc, #420]	; (8001618 <__aeabi_dadd+0x384>)
 8001474:	401c      	ands	r4, r3
 8001476:	087b      	lsrs	r3, r7, #1
 8001478:	4007      	ands	r7, r0
 800147a:	431f      	orrs	r7, r3
 800147c:	07e0      	lsls	r0, r4, #31
 800147e:	4307      	orrs	r7, r0
 8001480:	0864      	lsrs	r4, r4, #1
 8001482:	e78b      	b.n	800139c <__aeabi_dadd+0x108>
 8001484:	0023      	movs	r3, r4
 8001486:	433b      	orrs	r3, r7
 8001488:	d100      	bne.n	800148c <__aeabi_dadd+0x1f8>
 800148a:	e1cb      	b.n	8001824 <__aeabi_dadd+0x590>
 800148c:	2280      	movs	r2, #128	; 0x80
 800148e:	0312      	lsls	r2, r2, #12
 8001490:	4314      	orrs	r4, r2
 8001492:	0324      	lsls	r4, r4, #12
 8001494:	0b24      	lsrs	r4, r4, #12
 8001496:	e79e      	b.n	80013d6 <__aeabi_dadd+0x142>
 8001498:	002e      	movs	r6, r5
 800149a:	e77f      	b.n	800139c <__aeabi_dadd+0x108>
 800149c:	0008      	movs	r0, r1
 800149e:	4310      	orrs	r0, r2
 80014a0:	d100      	bne.n	80014a4 <__aeabi_dadd+0x210>
 80014a2:	e0b4      	b.n	800160e <__aeabi_dadd+0x37a>
 80014a4:	1e58      	subs	r0, r3, #1
 80014a6:	2800      	cmp	r0, #0
 80014a8:	d000      	beq.n	80014ac <__aeabi_dadd+0x218>
 80014aa:	e0de      	b.n	800166a <__aeabi_dadd+0x3d6>
 80014ac:	18ba      	adds	r2, r7, r2
 80014ae:	42ba      	cmp	r2, r7
 80014b0:	419b      	sbcs	r3, r3
 80014b2:	1864      	adds	r4, r4, r1
 80014b4:	425b      	negs	r3, r3
 80014b6:	18e4      	adds	r4, r4, r3
 80014b8:	0017      	movs	r7, r2
 80014ba:	2601      	movs	r6, #1
 80014bc:	0223      	lsls	r3, r4, #8
 80014be:	d5a6      	bpl.n	800140e <__aeabi_dadd+0x17a>
 80014c0:	2602      	movs	r6, #2
 80014c2:	e7d5      	b.n	8001470 <__aeabi_dadd+0x1dc>
 80014c4:	2d00      	cmp	r5, #0
 80014c6:	d16e      	bne.n	80015a6 <__aeabi_dadd+0x312>
 80014c8:	1c70      	adds	r0, r6, #1
 80014ca:	0540      	lsls	r0, r0, #21
 80014cc:	0d40      	lsrs	r0, r0, #21
 80014ce:	2801      	cmp	r0, #1
 80014d0:	dc00      	bgt.n	80014d4 <__aeabi_dadd+0x240>
 80014d2:	e0f9      	b.n	80016c8 <__aeabi_dadd+0x434>
 80014d4:	1ab8      	subs	r0, r7, r2
 80014d6:	4684      	mov	ip, r0
 80014d8:	4287      	cmp	r7, r0
 80014da:	4180      	sbcs	r0, r0
 80014dc:	1ae5      	subs	r5, r4, r3
 80014de:	4240      	negs	r0, r0
 80014e0:	1a2d      	subs	r5, r5, r0
 80014e2:	0228      	lsls	r0, r5, #8
 80014e4:	d400      	bmi.n	80014e8 <__aeabi_dadd+0x254>
 80014e6:	e089      	b.n	80015fc <__aeabi_dadd+0x368>
 80014e8:	1bd7      	subs	r7, r2, r7
 80014ea:	42ba      	cmp	r2, r7
 80014ec:	4192      	sbcs	r2, r2
 80014ee:	1b1c      	subs	r4, r3, r4
 80014f0:	4252      	negs	r2, r2
 80014f2:	1aa5      	subs	r5, r4, r2
 80014f4:	46d8      	mov	r8, fp
 80014f6:	e729      	b.n	800134c <__aeabi_dadd+0xb8>
 80014f8:	4645      	mov	r5, r8
 80014fa:	2400      	movs	r4, #0
 80014fc:	2700      	movs	r7, #0
 80014fe:	e76a      	b.n	80013d6 <__aeabi_dadd+0x142>
 8001500:	4c45      	ldr	r4, [pc, #276]	; (8001618 <__aeabi_dadd+0x384>)
 8001502:	1af6      	subs	r6, r6, r3
 8001504:	402c      	ands	r4, r5
 8001506:	e749      	b.n	800139c <__aeabi_dadd+0x108>
 8001508:	003d      	movs	r5, r7
 800150a:	3828      	subs	r0, #40	; 0x28
 800150c:	4085      	lsls	r5, r0
 800150e:	2700      	movs	r7, #0
 8001510:	e72e      	b.n	8001370 <__aeabi_dadd+0xdc>
 8001512:	0038      	movs	r0, r7
 8001514:	f001 fd42 	bl	8002f9c <__clzsi2>
 8001518:	3020      	adds	r0, #32
 800151a:	e71d      	b.n	8001358 <__aeabi_dadd+0xc4>
 800151c:	430a      	orrs	r2, r1
 800151e:	1e51      	subs	r1, r2, #1
 8001520:	418a      	sbcs	r2, r1
 8001522:	2100      	movs	r1, #0
 8001524:	e707      	b.n	8001336 <__aeabi_dadd+0xa2>
 8001526:	2b00      	cmp	r3, #0
 8001528:	d000      	beq.n	800152c <__aeabi_dadd+0x298>
 800152a:	e0f3      	b.n	8001714 <__aeabi_dadd+0x480>
 800152c:	1c70      	adds	r0, r6, #1
 800152e:	0543      	lsls	r3, r0, #21
 8001530:	0d5b      	lsrs	r3, r3, #21
 8001532:	2b01      	cmp	r3, #1
 8001534:	dc00      	bgt.n	8001538 <__aeabi_dadd+0x2a4>
 8001536:	e0ad      	b.n	8001694 <__aeabi_dadd+0x400>
 8001538:	4b36      	ldr	r3, [pc, #216]	; (8001614 <__aeabi_dadd+0x380>)
 800153a:	4298      	cmp	r0, r3
 800153c:	d100      	bne.n	8001540 <__aeabi_dadd+0x2ac>
 800153e:	e0d1      	b.n	80016e4 <__aeabi_dadd+0x450>
 8001540:	18ba      	adds	r2, r7, r2
 8001542:	42ba      	cmp	r2, r7
 8001544:	41bf      	sbcs	r7, r7
 8001546:	1864      	adds	r4, r4, r1
 8001548:	427f      	negs	r7, r7
 800154a:	19e4      	adds	r4, r4, r7
 800154c:	07e7      	lsls	r7, r4, #31
 800154e:	0852      	lsrs	r2, r2, #1
 8001550:	4317      	orrs	r7, r2
 8001552:	0864      	lsrs	r4, r4, #1
 8001554:	0006      	movs	r6, r0
 8001556:	e721      	b.n	800139c <__aeabi_dadd+0x108>
 8001558:	482e      	ldr	r0, [pc, #184]	; (8001614 <__aeabi_dadd+0x380>)
 800155a:	4285      	cmp	r5, r0
 800155c:	d100      	bne.n	8001560 <__aeabi_dadd+0x2cc>
 800155e:	e093      	b.n	8001688 <__aeabi_dadd+0x3f4>
 8001560:	001d      	movs	r5, r3
 8001562:	e6d0      	b.n	8001306 <__aeabi_dadd+0x72>
 8001564:	0029      	movs	r1, r5
 8001566:	3e1f      	subs	r6, #31
 8001568:	40f1      	lsrs	r1, r6
 800156a:	2b20      	cmp	r3, #32
 800156c:	d100      	bne.n	8001570 <__aeabi_dadd+0x2dc>
 800156e:	e08d      	b.n	800168c <__aeabi_dadd+0x3f8>
 8001570:	2240      	movs	r2, #64	; 0x40
 8001572:	1ad3      	subs	r3, r2, r3
 8001574:	409d      	lsls	r5, r3
 8001576:	432f      	orrs	r7, r5
 8001578:	1e7d      	subs	r5, r7, #1
 800157a:	41af      	sbcs	r7, r5
 800157c:	2400      	movs	r4, #0
 800157e:	430f      	orrs	r7, r1
 8001580:	2600      	movs	r6, #0
 8001582:	e744      	b.n	800140e <__aeabi_dadd+0x17a>
 8001584:	002b      	movs	r3, r5
 8001586:	0008      	movs	r0, r1
 8001588:	3b20      	subs	r3, #32
 800158a:	40d8      	lsrs	r0, r3
 800158c:	0003      	movs	r3, r0
 800158e:	2d20      	cmp	r5, #32
 8001590:	d100      	bne.n	8001594 <__aeabi_dadd+0x300>
 8001592:	e07d      	b.n	8001690 <__aeabi_dadd+0x3fc>
 8001594:	2040      	movs	r0, #64	; 0x40
 8001596:	1b45      	subs	r5, r0, r5
 8001598:	40a9      	lsls	r1, r5
 800159a:	430a      	orrs	r2, r1
 800159c:	1e51      	subs	r1, r2, #1
 800159e:	418a      	sbcs	r2, r1
 80015a0:	2100      	movs	r1, #0
 80015a2:	431a      	orrs	r2, r3
 80015a4:	e6c7      	b.n	8001336 <__aeabi_dadd+0xa2>
 80015a6:	2e00      	cmp	r6, #0
 80015a8:	d050      	beq.n	800164c <__aeabi_dadd+0x3b8>
 80015aa:	4e1a      	ldr	r6, [pc, #104]	; (8001614 <__aeabi_dadd+0x380>)
 80015ac:	42b0      	cmp	r0, r6
 80015ae:	d057      	beq.n	8001660 <__aeabi_dadd+0x3cc>
 80015b0:	2680      	movs	r6, #128	; 0x80
 80015b2:	426b      	negs	r3, r5
 80015b4:	4699      	mov	r9, r3
 80015b6:	0436      	lsls	r6, r6, #16
 80015b8:	4334      	orrs	r4, r6
 80015ba:	464b      	mov	r3, r9
 80015bc:	2b38      	cmp	r3, #56	; 0x38
 80015be:	dd00      	ble.n	80015c2 <__aeabi_dadd+0x32e>
 80015c0:	e0d6      	b.n	8001770 <__aeabi_dadd+0x4dc>
 80015c2:	2b1f      	cmp	r3, #31
 80015c4:	dd00      	ble.n	80015c8 <__aeabi_dadd+0x334>
 80015c6:	e135      	b.n	8001834 <__aeabi_dadd+0x5a0>
 80015c8:	2620      	movs	r6, #32
 80015ca:	1af5      	subs	r5, r6, r3
 80015cc:	0026      	movs	r6, r4
 80015ce:	40ae      	lsls	r6, r5
 80015d0:	46b2      	mov	sl, r6
 80015d2:	003e      	movs	r6, r7
 80015d4:	40de      	lsrs	r6, r3
 80015d6:	46ac      	mov	ip, r5
 80015d8:	0035      	movs	r5, r6
 80015da:	4656      	mov	r6, sl
 80015dc:	432e      	orrs	r6, r5
 80015de:	4665      	mov	r5, ip
 80015e0:	40af      	lsls	r7, r5
 80015e2:	1e7d      	subs	r5, r7, #1
 80015e4:	41af      	sbcs	r7, r5
 80015e6:	40dc      	lsrs	r4, r3
 80015e8:	4337      	orrs	r7, r6
 80015ea:	1bd7      	subs	r7, r2, r7
 80015ec:	42ba      	cmp	r2, r7
 80015ee:	4192      	sbcs	r2, r2
 80015f0:	1b0c      	subs	r4, r1, r4
 80015f2:	4252      	negs	r2, r2
 80015f4:	1aa4      	subs	r4, r4, r2
 80015f6:	0006      	movs	r6, r0
 80015f8:	46d8      	mov	r8, fp
 80015fa:	e6a3      	b.n	8001344 <__aeabi_dadd+0xb0>
 80015fc:	4664      	mov	r4, ip
 80015fe:	4667      	mov	r7, ip
 8001600:	432c      	orrs	r4, r5
 8001602:	d000      	beq.n	8001606 <__aeabi_dadd+0x372>
 8001604:	e6a2      	b.n	800134c <__aeabi_dadd+0xb8>
 8001606:	2500      	movs	r5, #0
 8001608:	2600      	movs	r6, #0
 800160a:	2700      	movs	r7, #0
 800160c:	e706      	b.n	800141c <__aeabi_dadd+0x188>
 800160e:	001e      	movs	r6, r3
 8001610:	e6c4      	b.n	800139c <__aeabi_dadd+0x108>
 8001612:	46c0      	nop			; (mov r8, r8)
 8001614:	000007ff 	.word	0x000007ff
 8001618:	ff7fffff 	.word	0xff7fffff
 800161c:	800fffff 	.word	0x800fffff
 8001620:	2b1f      	cmp	r3, #31
 8001622:	dc63      	bgt.n	80016ec <__aeabi_dadd+0x458>
 8001624:	2020      	movs	r0, #32
 8001626:	1ac3      	subs	r3, r0, r3
 8001628:	0008      	movs	r0, r1
 800162a:	4098      	lsls	r0, r3
 800162c:	469c      	mov	ip, r3
 800162e:	4683      	mov	fp, r0
 8001630:	4653      	mov	r3, sl
 8001632:	0010      	movs	r0, r2
 8001634:	40d8      	lsrs	r0, r3
 8001636:	0003      	movs	r3, r0
 8001638:	4658      	mov	r0, fp
 800163a:	4318      	orrs	r0, r3
 800163c:	4663      	mov	r3, ip
 800163e:	409a      	lsls	r2, r3
 8001640:	1e53      	subs	r3, r2, #1
 8001642:	419a      	sbcs	r2, r3
 8001644:	4653      	mov	r3, sl
 8001646:	4302      	orrs	r2, r0
 8001648:	40d9      	lsrs	r1, r3
 800164a:	e703      	b.n	8001454 <__aeabi_dadd+0x1c0>
 800164c:	0026      	movs	r6, r4
 800164e:	433e      	orrs	r6, r7
 8001650:	d006      	beq.n	8001660 <__aeabi_dadd+0x3cc>
 8001652:	43eb      	mvns	r3, r5
 8001654:	4699      	mov	r9, r3
 8001656:	2b00      	cmp	r3, #0
 8001658:	d0c7      	beq.n	80015ea <__aeabi_dadd+0x356>
 800165a:	4e94      	ldr	r6, [pc, #592]	; (80018ac <__aeabi_dadd+0x618>)
 800165c:	42b0      	cmp	r0, r6
 800165e:	d1ac      	bne.n	80015ba <__aeabi_dadd+0x326>
 8001660:	000c      	movs	r4, r1
 8001662:	0017      	movs	r7, r2
 8001664:	0006      	movs	r6, r0
 8001666:	46d8      	mov	r8, fp
 8001668:	e698      	b.n	800139c <__aeabi_dadd+0x108>
 800166a:	4b90      	ldr	r3, [pc, #576]	; (80018ac <__aeabi_dadd+0x618>)
 800166c:	459a      	cmp	sl, r3
 800166e:	d00b      	beq.n	8001688 <__aeabi_dadd+0x3f4>
 8001670:	4682      	mov	sl, r0
 8001672:	e6e7      	b.n	8001444 <__aeabi_dadd+0x1b0>
 8001674:	2800      	cmp	r0, #0
 8001676:	d000      	beq.n	800167a <__aeabi_dadd+0x3e6>
 8001678:	e09e      	b.n	80017b8 <__aeabi_dadd+0x524>
 800167a:	0018      	movs	r0, r3
 800167c:	4310      	orrs	r0, r2
 800167e:	d100      	bne.n	8001682 <__aeabi_dadd+0x3ee>
 8001680:	e0e9      	b.n	8001856 <__aeabi_dadd+0x5c2>
 8001682:	001c      	movs	r4, r3
 8001684:	0017      	movs	r7, r2
 8001686:	46d8      	mov	r8, fp
 8001688:	4e88      	ldr	r6, [pc, #544]	; (80018ac <__aeabi_dadd+0x618>)
 800168a:	e687      	b.n	800139c <__aeabi_dadd+0x108>
 800168c:	2500      	movs	r5, #0
 800168e:	e772      	b.n	8001576 <__aeabi_dadd+0x2e2>
 8001690:	2100      	movs	r1, #0
 8001692:	e782      	b.n	800159a <__aeabi_dadd+0x306>
 8001694:	0023      	movs	r3, r4
 8001696:	433b      	orrs	r3, r7
 8001698:	2e00      	cmp	r6, #0
 800169a:	d000      	beq.n	800169e <__aeabi_dadd+0x40a>
 800169c:	e0ab      	b.n	80017f6 <__aeabi_dadd+0x562>
 800169e:	2b00      	cmp	r3, #0
 80016a0:	d100      	bne.n	80016a4 <__aeabi_dadd+0x410>
 80016a2:	e0e7      	b.n	8001874 <__aeabi_dadd+0x5e0>
 80016a4:	000b      	movs	r3, r1
 80016a6:	4313      	orrs	r3, r2
 80016a8:	d100      	bne.n	80016ac <__aeabi_dadd+0x418>
 80016aa:	e677      	b.n	800139c <__aeabi_dadd+0x108>
 80016ac:	18ba      	adds	r2, r7, r2
 80016ae:	42ba      	cmp	r2, r7
 80016b0:	41bf      	sbcs	r7, r7
 80016b2:	1864      	adds	r4, r4, r1
 80016b4:	427f      	negs	r7, r7
 80016b6:	19e4      	adds	r4, r4, r7
 80016b8:	0223      	lsls	r3, r4, #8
 80016ba:	d400      	bmi.n	80016be <__aeabi_dadd+0x42a>
 80016bc:	e0f2      	b.n	80018a4 <__aeabi_dadd+0x610>
 80016be:	4b7c      	ldr	r3, [pc, #496]	; (80018b0 <__aeabi_dadd+0x61c>)
 80016c0:	0017      	movs	r7, r2
 80016c2:	401c      	ands	r4, r3
 80016c4:	0006      	movs	r6, r0
 80016c6:	e669      	b.n	800139c <__aeabi_dadd+0x108>
 80016c8:	0020      	movs	r0, r4
 80016ca:	4338      	orrs	r0, r7
 80016cc:	2e00      	cmp	r6, #0
 80016ce:	d1d1      	bne.n	8001674 <__aeabi_dadd+0x3e0>
 80016d0:	2800      	cmp	r0, #0
 80016d2:	d15b      	bne.n	800178c <__aeabi_dadd+0x4f8>
 80016d4:	001c      	movs	r4, r3
 80016d6:	4314      	orrs	r4, r2
 80016d8:	d100      	bne.n	80016dc <__aeabi_dadd+0x448>
 80016da:	e0a8      	b.n	800182e <__aeabi_dadd+0x59a>
 80016dc:	001c      	movs	r4, r3
 80016de:	0017      	movs	r7, r2
 80016e0:	46d8      	mov	r8, fp
 80016e2:	e65b      	b.n	800139c <__aeabi_dadd+0x108>
 80016e4:	0006      	movs	r6, r0
 80016e6:	2400      	movs	r4, #0
 80016e8:	2700      	movs	r7, #0
 80016ea:	e697      	b.n	800141c <__aeabi_dadd+0x188>
 80016ec:	4650      	mov	r0, sl
 80016ee:	000b      	movs	r3, r1
 80016f0:	3820      	subs	r0, #32
 80016f2:	40c3      	lsrs	r3, r0
 80016f4:	4699      	mov	r9, r3
 80016f6:	4653      	mov	r3, sl
 80016f8:	2b20      	cmp	r3, #32
 80016fa:	d100      	bne.n	80016fe <__aeabi_dadd+0x46a>
 80016fc:	e095      	b.n	800182a <__aeabi_dadd+0x596>
 80016fe:	2340      	movs	r3, #64	; 0x40
 8001700:	4650      	mov	r0, sl
 8001702:	1a1b      	subs	r3, r3, r0
 8001704:	4099      	lsls	r1, r3
 8001706:	430a      	orrs	r2, r1
 8001708:	1e51      	subs	r1, r2, #1
 800170a:	418a      	sbcs	r2, r1
 800170c:	464b      	mov	r3, r9
 800170e:	2100      	movs	r1, #0
 8001710:	431a      	orrs	r2, r3
 8001712:	e69f      	b.n	8001454 <__aeabi_dadd+0x1c0>
 8001714:	2e00      	cmp	r6, #0
 8001716:	d130      	bne.n	800177a <__aeabi_dadd+0x4e6>
 8001718:	0026      	movs	r6, r4
 800171a:	433e      	orrs	r6, r7
 800171c:	d067      	beq.n	80017ee <__aeabi_dadd+0x55a>
 800171e:	43db      	mvns	r3, r3
 8001720:	469a      	mov	sl, r3
 8001722:	2b00      	cmp	r3, #0
 8001724:	d01c      	beq.n	8001760 <__aeabi_dadd+0x4cc>
 8001726:	4e61      	ldr	r6, [pc, #388]	; (80018ac <__aeabi_dadd+0x618>)
 8001728:	42b0      	cmp	r0, r6
 800172a:	d060      	beq.n	80017ee <__aeabi_dadd+0x55a>
 800172c:	4653      	mov	r3, sl
 800172e:	2b38      	cmp	r3, #56	; 0x38
 8001730:	dd00      	ble.n	8001734 <__aeabi_dadd+0x4a0>
 8001732:	e096      	b.n	8001862 <__aeabi_dadd+0x5ce>
 8001734:	2b1f      	cmp	r3, #31
 8001736:	dd00      	ble.n	800173a <__aeabi_dadd+0x4a6>
 8001738:	e09f      	b.n	800187a <__aeabi_dadd+0x5e6>
 800173a:	2620      	movs	r6, #32
 800173c:	1af3      	subs	r3, r6, r3
 800173e:	0026      	movs	r6, r4
 8001740:	409e      	lsls	r6, r3
 8001742:	469c      	mov	ip, r3
 8001744:	46b3      	mov	fp, r6
 8001746:	4653      	mov	r3, sl
 8001748:	003e      	movs	r6, r7
 800174a:	40de      	lsrs	r6, r3
 800174c:	0033      	movs	r3, r6
 800174e:	465e      	mov	r6, fp
 8001750:	431e      	orrs	r6, r3
 8001752:	4663      	mov	r3, ip
 8001754:	409f      	lsls	r7, r3
 8001756:	1e7b      	subs	r3, r7, #1
 8001758:	419f      	sbcs	r7, r3
 800175a:	4653      	mov	r3, sl
 800175c:	40dc      	lsrs	r4, r3
 800175e:	4337      	orrs	r7, r6
 8001760:	18bf      	adds	r7, r7, r2
 8001762:	4297      	cmp	r7, r2
 8001764:	4192      	sbcs	r2, r2
 8001766:	1864      	adds	r4, r4, r1
 8001768:	4252      	negs	r2, r2
 800176a:	18a4      	adds	r4, r4, r2
 800176c:	0006      	movs	r6, r0
 800176e:	e678      	b.n	8001462 <__aeabi_dadd+0x1ce>
 8001770:	4327      	orrs	r7, r4
 8001772:	1e7c      	subs	r4, r7, #1
 8001774:	41a7      	sbcs	r7, r4
 8001776:	2400      	movs	r4, #0
 8001778:	e737      	b.n	80015ea <__aeabi_dadd+0x356>
 800177a:	4e4c      	ldr	r6, [pc, #304]	; (80018ac <__aeabi_dadd+0x618>)
 800177c:	42b0      	cmp	r0, r6
 800177e:	d036      	beq.n	80017ee <__aeabi_dadd+0x55a>
 8001780:	2680      	movs	r6, #128	; 0x80
 8001782:	425b      	negs	r3, r3
 8001784:	0436      	lsls	r6, r6, #16
 8001786:	469a      	mov	sl, r3
 8001788:	4334      	orrs	r4, r6
 800178a:	e7cf      	b.n	800172c <__aeabi_dadd+0x498>
 800178c:	0018      	movs	r0, r3
 800178e:	4310      	orrs	r0, r2
 8001790:	d100      	bne.n	8001794 <__aeabi_dadd+0x500>
 8001792:	e603      	b.n	800139c <__aeabi_dadd+0x108>
 8001794:	1ab8      	subs	r0, r7, r2
 8001796:	4684      	mov	ip, r0
 8001798:	4567      	cmp	r7, ip
 800179a:	41ad      	sbcs	r5, r5
 800179c:	1ae0      	subs	r0, r4, r3
 800179e:	426d      	negs	r5, r5
 80017a0:	1b40      	subs	r0, r0, r5
 80017a2:	0205      	lsls	r5, r0, #8
 80017a4:	d400      	bmi.n	80017a8 <__aeabi_dadd+0x514>
 80017a6:	e62c      	b.n	8001402 <__aeabi_dadd+0x16e>
 80017a8:	1bd7      	subs	r7, r2, r7
 80017aa:	42ba      	cmp	r2, r7
 80017ac:	4192      	sbcs	r2, r2
 80017ae:	1b1c      	subs	r4, r3, r4
 80017b0:	4252      	negs	r2, r2
 80017b2:	1aa4      	subs	r4, r4, r2
 80017b4:	46d8      	mov	r8, fp
 80017b6:	e5f1      	b.n	800139c <__aeabi_dadd+0x108>
 80017b8:	0018      	movs	r0, r3
 80017ba:	4310      	orrs	r0, r2
 80017bc:	d100      	bne.n	80017c0 <__aeabi_dadd+0x52c>
 80017be:	e763      	b.n	8001688 <__aeabi_dadd+0x3f4>
 80017c0:	08f8      	lsrs	r0, r7, #3
 80017c2:	0767      	lsls	r7, r4, #29
 80017c4:	4307      	orrs	r7, r0
 80017c6:	2080      	movs	r0, #128	; 0x80
 80017c8:	08e4      	lsrs	r4, r4, #3
 80017ca:	0300      	lsls	r0, r0, #12
 80017cc:	4204      	tst	r4, r0
 80017ce:	d008      	beq.n	80017e2 <__aeabi_dadd+0x54e>
 80017d0:	08dd      	lsrs	r5, r3, #3
 80017d2:	4205      	tst	r5, r0
 80017d4:	d105      	bne.n	80017e2 <__aeabi_dadd+0x54e>
 80017d6:	08d2      	lsrs	r2, r2, #3
 80017d8:	0759      	lsls	r1, r3, #29
 80017da:	4311      	orrs	r1, r2
 80017dc:	000f      	movs	r7, r1
 80017de:	002c      	movs	r4, r5
 80017e0:	46d8      	mov	r8, fp
 80017e2:	0f7b      	lsrs	r3, r7, #29
 80017e4:	00e4      	lsls	r4, r4, #3
 80017e6:	431c      	orrs	r4, r3
 80017e8:	00ff      	lsls	r7, r7, #3
 80017ea:	4e30      	ldr	r6, [pc, #192]	; (80018ac <__aeabi_dadd+0x618>)
 80017ec:	e5d6      	b.n	800139c <__aeabi_dadd+0x108>
 80017ee:	000c      	movs	r4, r1
 80017f0:	0017      	movs	r7, r2
 80017f2:	0006      	movs	r6, r0
 80017f4:	e5d2      	b.n	800139c <__aeabi_dadd+0x108>
 80017f6:	2b00      	cmp	r3, #0
 80017f8:	d038      	beq.n	800186c <__aeabi_dadd+0x5d8>
 80017fa:	000b      	movs	r3, r1
 80017fc:	4313      	orrs	r3, r2
 80017fe:	d100      	bne.n	8001802 <__aeabi_dadd+0x56e>
 8001800:	e742      	b.n	8001688 <__aeabi_dadd+0x3f4>
 8001802:	08f8      	lsrs	r0, r7, #3
 8001804:	0767      	lsls	r7, r4, #29
 8001806:	4307      	orrs	r7, r0
 8001808:	2080      	movs	r0, #128	; 0x80
 800180a:	08e4      	lsrs	r4, r4, #3
 800180c:	0300      	lsls	r0, r0, #12
 800180e:	4204      	tst	r4, r0
 8001810:	d0e7      	beq.n	80017e2 <__aeabi_dadd+0x54e>
 8001812:	08cb      	lsrs	r3, r1, #3
 8001814:	4203      	tst	r3, r0
 8001816:	d1e4      	bne.n	80017e2 <__aeabi_dadd+0x54e>
 8001818:	08d2      	lsrs	r2, r2, #3
 800181a:	0749      	lsls	r1, r1, #29
 800181c:	4311      	orrs	r1, r2
 800181e:	000f      	movs	r7, r1
 8001820:	001c      	movs	r4, r3
 8001822:	e7de      	b.n	80017e2 <__aeabi_dadd+0x54e>
 8001824:	2700      	movs	r7, #0
 8001826:	2400      	movs	r4, #0
 8001828:	e5d5      	b.n	80013d6 <__aeabi_dadd+0x142>
 800182a:	2100      	movs	r1, #0
 800182c:	e76b      	b.n	8001706 <__aeabi_dadd+0x472>
 800182e:	2500      	movs	r5, #0
 8001830:	2700      	movs	r7, #0
 8001832:	e5f3      	b.n	800141c <__aeabi_dadd+0x188>
 8001834:	464e      	mov	r6, r9
 8001836:	0025      	movs	r5, r4
 8001838:	3e20      	subs	r6, #32
 800183a:	40f5      	lsrs	r5, r6
 800183c:	464b      	mov	r3, r9
 800183e:	002e      	movs	r6, r5
 8001840:	2b20      	cmp	r3, #32
 8001842:	d02d      	beq.n	80018a0 <__aeabi_dadd+0x60c>
 8001844:	2540      	movs	r5, #64	; 0x40
 8001846:	1aed      	subs	r5, r5, r3
 8001848:	40ac      	lsls	r4, r5
 800184a:	4327      	orrs	r7, r4
 800184c:	1e7c      	subs	r4, r7, #1
 800184e:	41a7      	sbcs	r7, r4
 8001850:	2400      	movs	r4, #0
 8001852:	4337      	orrs	r7, r6
 8001854:	e6c9      	b.n	80015ea <__aeabi_dadd+0x356>
 8001856:	2480      	movs	r4, #128	; 0x80
 8001858:	2500      	movs	r5, #0
 800185a:	0324      	lsls	r4, r4, #12
 800185c:	4e13      	ldr	r6, [pc, #76]	; (80018ac <__aeabi_dadd+0x618>)
 800185e:	2700      	movs	r7, #0
 8001860:	e5dc      	b.n	800141c <__aeabi_dadd+0x188>
 8001862:	4327      	orrs	r7, r4
 8001864:	1e7c      	subs	r4, r7, #1
 8001866:	41a7      	sbcs	r7, r4
 8001868:	2400      	movs	r4, #0
 800186a:	e779      	b.n	8001760 <__aeabi_dadd+0x4cc>
 800186c:	000c      	movs	r4, r1
 800186e:	0017      	movs	r7, r2
 8001870:	4e0e      	ldr	r6, [pc, #56]	; (80018ac <__aeabi_dadd+0x618>)
 8001872:	e593      	b.n	800139c <__aeabi_dadd+0x108>
 8001874:	000c      	movs	r4, r1
 8001876:	0017      	movs	r7, r2
 8001878:	e590      	b.n	800139c <__aeabi_dadd+0x108>
 800187a:	4656      	mov	r6, sl
 800187c:	0023      	movs	r3, r4
 800187e:	3e20      	subs	r6, #32
 8001880:	40f3      	lsrs	r3, r6
 8001882:	4699      	mov	r9, r3
 8001884:	4653      	mov	r3, sl
 8001886:	2b20      	cmp	r3, #32
 8001888:	d00e      	beq.n	80018a8 <__aeabi_dadd+0x614>
 800188a:	2340      	movs	r3, #64	; 0x40
 800188c:	4656      	mov	r6, sl
 800188e:	1b9b      	subs	r3, r3, r6
 8001890:	409c      	lsls	r4, r3
 8001892:	4327      	orrs	r7, r4
 8001894:	1e7c      	subs	r4, r7, #1
 8001896:	41a7      	sbcs	r7, r4
 8001898:	464b      	mov	r3, r9
 800189a:	2400      	movs	r4, #0
 800189c:	431f      	orrs	r7, r3
 800189e:	e75f      	b.n	8001760 <__aeabi_dadd+0x4cc>
 80018a0:	2400      	movs	r4, #0
 80018a2:	e7d2      	b.n	800184a <__aeabi_dadd+0x5b6>
 80018a4:	0017      	movs	r7, r2
 80018a6:	e5b2      	b.n	800140e <__aeabi_dadd+0x17a>
 80018a8:	2400      	movs	r4, #0
 80018aa:	e7f2      	b.n	8001892 <__aeabi_dadd+0x5fe>
 80018ac:	000007ff 	.word	0x000007ff
 80018b0:	ff7fffff 	.word	0xff7fffff

080018b4 <__aeabi_ddiv>:
 80018b4:	b5f0      	push	{r4, r5, r6, r7, lr}
 80018b6:	4657      	mov	r7, sl
 80018b8:	4645      	mov	r5, r8
 80018ba:	46de      	mov	lr, fp
 80018bc:	464e      	mov	r6, r9
 80018be:	b5e0      	push	{r5, r6, r7, lr}
 80018c0:	004c      	lsls	r4, r1, #1
 80018c2:	030e      	lsls	r6, r1, #12
 80018c4:	b087      	sub	sp, #28
 80018c6:	4683      	mov	fp, r0
 80018c8:	4692      	mov	sl, r2
 80018ca:	001d      	movs	r5, r3
 80018cc:	4680      	mov	r8, r0
 80018ce:	0b36      	lsrs	r6, r6, #12
 80018d0:	0d64      	lsrs	r4, r4, #21
 80018d2:	0fcf      	lsrs	r7, r1, #31
 80018d4:	2c00      	cmp	r4, #0
 80018d6:	d04f      	beq.n	8001978 <__aeabi_ddiv+0xc4>
 80018d8:	4b6f      	ldr	r3, [pc, #444]	; (8001a98 <__aeabi_ddiv+0x1e4>)
 80018da:	429c      	cmp	r4, r3
 80018dc:	d035      	beq.n	800194a <__aeabi_ddiv+0x96>
 80018de:	2380      	movs	r3, #128	; 0x80
 80018e0:	0f42      	lsrs	r2, r0, #29
 80018e2:	041b      	lsls	r3, r3, #16
 80018e4:	00f6      	lsls	r6, r6, #3
 80018e6:	4313      	orrs	r3, r2
 80018e8:	4333      	orrs	r3, r6
 80018ea:	4699      	mov	r9, r3
 80018ec:	00c3      	lsls	r3, r0, #3
 80018ee:	4698      	mov	r8, r3
 80018f0:	4b6a      	ldr	r3, [pc, #424]	; (8001a9c <__aeabi_ddiv+0x1e8>)
 80018f2:	2600      	movs	r6, #0
 80018f4:	469c      	mov	ip, r3
 80018f6:	2300      	movs	r3, #0
 80018f8:	4464      	add	r4, ip
 80018fa:	9303      	str	r3, [sp, #12]
 80018fc:	032b      	lsls	r3, r5, #12
 80018fe:	0b1b      	lsrs	r3, r3, #12
 8001900:	469b      	mov	fp, r3
 8001902:	006b      	lsls	r3, r5, #1
 8001904:	0fed      	lsrs	r5, r5, #31
 8001906:	4650      	mov	r0, sl
 8001908:	0d5b      	lsrs	r3, r3, #21
 800190a:	9501      	str	r5, [sp, #4]
 800190c:	d05e      	beq.n	80019cc <__aeabi_ddiv+0x118>
 800190e:	4a62      	ldr	r2, [pc, #392]	; (8001a98 <__aeabi_ddiv+0x1e4>)
 8001910:	4293      	cmp	r3, r2
 8001912:	d053      	beq.n	80019bc <__aeabi_ddiv+0x108>
 8001914:	465a      	mov	r2, fp
 8001916:	00d1      	lsls	r1, r2, #3
 8001918:	2280      	movs	r2, #128	; 0x80
 800191a:	0f40      	lsrs	r0, r0, #29
 800191c:	0412      	lsls	r2, r2, #16
 800191e:	4302      	orrs	r2, r0
 8001920:	430a      	orrs	r2, r1
 8001922:	4693      	mov	fp, r2
 8001924:	4652      	mov	r2, sl
 8001926:	00d1      	lsls	r1, r2, #3
 8001928:	4a5c      	ldr	r2, [pc, #368]	; (8001a9c <__aeabi_ddiv+0x1e8>)
 800192a:	4694      	mov	ip, r2
 800192c:	2200      	movs	r2, #0
 800192e:	4463      	add	r3, ip
 8001930:	0038      	movs	r0, r7
 8001932:	4068      	eors	r0, r5
 8001934:	4684      	mov	ip, r0
 8001936:	9002      	str	r0, [sp, #8]
 8001938:	1ae4      	subs	r4, r4, r3
 800193a:	4316      	orrs	r6, r2
 800193c:	2e0f      	cmp	r6, #15
 800193e:	d900      	bls.n	8001942 <__aeabi_ddiv+0x8e>
 8001940:	e0b4      	b.n	8001aac <__aeabi_ddiv+0x1f8>
 8001942:	4b57      	ldr	r3, [pc, #348]	; (8001aa0 <__aeabi_ddiv+0x1ec>)
 8001944:	00b6      	lsls	r6, r6, #2
 8001946:	599b      	ldr	r3, [r3, r6]
 8001948:	469f      	mov	pc, r3
 800194a:	0003      	movs	r3, r0
 800194c:	4333      	orrs	r3, r6
 800194e:	4699      	mov	r9, r3
 8001950:	d16c      	bne.n	8001a2c <__aeabi_ddiv+0x178>
 8001952:	2300      	movs	r3, #0
 8001954:	4698      	mov	r8, r3
 8001956:	3302      	adds	r3, #2
 8001958:	2608      	movs	r6, #8
 800195a:	9303      	str	r3, [sp, #12]
 800195c:	e7ce      	b.n	80018fc <__aeabi_ddiv+0x48>
 800195e:	46cb      	mov	fp, r9
 8001960:	4641      	mov	r1, r8
 8001962:	9a03      	ldr	r2, [sp, #12]
 8001964:	9701      	str	r7, [sp, #4]
 8001966:	2a02      	cmp	r2, #2
 8001968:	d165      	bne.n	8001a36 <__aeabi_ddiv+0x182>
 800196a:	9b01      	ldr	r3, [sp, #4]
 800196c:	4c4a      	ldr	r4, [pc, #296]	; (8001a98 <__aeabi_ddiv+0x1e4>)
 800196e:	469c      	mov	ip, r3
 8001970:	2300      	movs	r3, #0
 8001972:	2200      	movs	r2, #0
 8001974:	4698      	mov	r8, r3
 8001976:	e06b      	b.n	8001a50 <__aeabi_ddiv+0x19c>
 8001978:	0003      	movs	r3, r0
 800197a:	4333      	orrs	r3, r6
 800197c:	4699      	mov	r9, r3
 800197e:	d04e      	beq.n	8001a1e <__aeabi_ddiv+0x16a>
 8001980:	2e00      	cmp	r6, #0
 8001982:	d100      	bne.n	8001986 <__aeabi_ddiv+0xd2>
 8001984:	e1bc      	b.n	8001d00 <__aeabi_ddiv+0x44c>
 8001986:	0030      	movs	r0, r6
 8001988:	f001 fb08 	bl	8002f9c <__clzsi2>
 800198c:	0003      	movs	r3, r0
 800198e:	3b0b      	subs	r3, #11
 8001990:	2b1c      	cmp	r3, #28
 8001992:	dd00      	ble.n	8001996 <__aeabi_ddiv+0xe2>
 8001994:	e1ac      	b.n	8001cf0 <__aeabi_ddiv+0x43c>
 8001996:	221d      	movs	r2, #29
 8001998:	1ad3      	subs	r3, r2, r3
 800199a:	465a      	mov	r2, fp
 800199c:	0001      	movs	r1, r0
 800199e:	40da      	lsrs	r2, r3
 80019a0:	3908      	subs	r1, #8
 80019a2:	408e      	lsls	r6, r1
 80019a4:	0013      	movs	r3, r2
 80019a6:	4333      	orrs	r3, r6
 80019a8:	4699      	mov	r9, r3
 80019aa:	465b      	mov	r3, fp
 80019ac:	408b      	lsls	r3, r1
 80019ae:	4698      	mov	r8, r3
 80019b0:	2300      	movs	r3, #0
 80019b2:	4c3c      	ldr	r4, [pc, #240]	; (8001aa4 <__aeabi_ddiv+0x1f0>)
 80019b4:	2600      	movs	r6, #0
 80019b6:	1a24      	subs	r4, r4, r0
 80019b8:	9303      	str	r3, [sp, #12]
 80019ba:	e79f      	b.n	80018fc <__aeabi_ddiv+0x48>
 80019bc:	4651      	mov	r1, sl
 80019be:	465a      	mov	r2, fp
 80019c0:	4311      	orrs	r1, r2
 80019c2:	d129      	bne.n	8001a18 <__aeabi_ddiv+0x164>
 80019c4:	2200      	movs	r2, #0
 80019c6:	4693      	mov	fp, r2
 80019c8:	3202      	adds	r2, #2
 80019ca:	e7b1      	b.n	8001930 <__aeabi_ddiv+0x7c>
 80019cc:	4659      	mov	r1, fp
 80019ce:	4301      	orrs	r1, r0
 80019d0:	d01e      	beq.n	8001a10 <__aeabi_ddiv+0x15c>
 80019d2:	465b      	mov	r3, fp
 80019d4:	2b00      	cmp	r3, #0
 80019d6:	d100      	bne.n	80019da <__aeabi_ddiv+0x126>
 80019d8:	e19e      	b.n	8001d18 <__aeabi_ddiv+0x464>
 80019da:	4658      	mov	r0, fp
 80019dc:	f001 fade 	bl	8002f9c <__clzsi2>
 80019e0:	0003      	movs	r3, r0
 80019e2:	3b0b      	subs	r3, #11
 80019e4:	2b1c      	cmp	r3, #28
 80019e6:	dd00      	ble.n	80019ea <__aeabi_ddiv+0x136>
 80019e8:	e18f      	b.n	8001d0a <__aeabi_ddiv+0x456>
 80019ea:	0002      	movs	r2, r0
 80019ec:	4659      	mov	r1, fp
 80019ee:	3a08      	subs	r2, #8
 80019f0:	4091      	lsls	r1, r2
 80019f2:	468b      	mov	fp, r1
 80019f4:	211d      	movs	r1, #29
 80019f6:	1acb      	subs	r3, r1, r3
 80019f8:	4651      	mov	r1, sl
 80019fa:	40d9      	lsrs	r1, r3
 80019fc:	000b      	movs	r3, r1
 80019fe:	4659      	mov	r1, fp
 8001a00:	430b      	orrs	r3, r1
 8001a02:	4651      	mov	r1, sl
 8001a04:	469b      	mov	fp, r3
 8001a06:	4091      	lsls	r1, r2
 8001a08:	4b26      	ldr	r3, [pc, #152]	; (8001aa4 <__aeabi_ddiv+0x1f0>)
 8001a0a:	2200      	movs	r2, #0
 8001a0c:	1a1b      	subs	r3, r3, r0
 8001a0e:	e78f      	b.n	8001930 <__aeabi_ddiv+0x7c>
 8001a10:	2300      	movs	r3, #0
 8001a12:	2201      	movs	r2, #1
 8001a14:	469b      	mov	fp, r3
 8001a16:	e78b      	b.n	8001930 <__aeabi_ddiv+0x7c>
 8001a18:	4651      	mov	r1, sl
 8001a1a:	2203      	movs	r2, #3
 8001a1c:	e788      	b.n	8001930 <__aeabi_ddiv+0x7c>
 8001a1e:	2300      	movs	r3, #0
 8001a20:	4698      	mov	r8, r3
 8001a22:	3301      	adds	r3, #1
 8001a24:	2604      	movs	r6, #4
 8001a26:	2400      	movs	r4, #0
 8001a28:	9303      	str	r3, [sp, #12]
 8001a2a:	e767      	b.n	80018fc <__aeabi_ddiv+0x48>
 8001a2c:	2303      	movs	r3, #3
 8001a2e:	46b1      	mov	r9, r6
 8001a30:	9303      	str	r3, [sp, #12]
 8001a32:	260c      	movs	r6, #12
 8001a34:	e762      	b.n	80018fc <__aeabi_ddiv+0x48>
 8001a36:	2a03      	cmp	r2, #3
 8001a38:	d100      	bne.n	8001a3c <__aeabi_ddiv+0x188>
 8001a3a:	e25c      	b.n	8001ef6 <__aeabi_ddiv+0x642>
 8001a3c:	9b01      	ldr	r3, [sp, #4]
 8001a3e:	2a01      	cmp	r2, #1
 8001a40:	d000      	beq.n	8001a44 <__aeabi_ddiv+0x190>
 8001a42:	e1e4      	b.n	8001e0e <__aeabi_ddiv+0x55a>
 8001a44:	4013      	ands	r3, r2
 8001a46:	469c      	mov	ip, r3
 8001a48:	2300      	movs	r3, #0
 8001a4a:	2400      	movs	r4, #0
 8001a4c:	2200      	movs	r2, #0
 8001a4e:	4698      	mov	r8, r3
 8001a50:	2100      	movs	r1, #0
 8001a52:	0312      	lsls	r2, r2, #12
 8001a54:	0b13      	lsrs	r3, r2, #12
 8001a56:	0d0a      	lsrs	r2, r1, #20
 8001a58:	0512      	lsls	r2, r2, #20
 8001a5a:	431a      	orrs	r2, r3
 8001a5c:	0523      	lsls	r3, r4, #20
 8001a5e:	4c12      	ldr	r4, [pc, #72]	; (8001aa8 <__aeabi_ddiv+0x1f4>)
 8001a60:	4640      	mov	r0, r8
 8001a62:	4022      	ands	r2, r4
 8001a64:	4313      	orrs	r3, r2
 8001a66:	4662      	mov	r2, ip
 8001a68:	005b      	lsls	r3, r3, #1
 8001a6a:	07d2      	lsls	r2, r2, #31
 8001a6c:	085b      	lsrs	r3, r3, #1
 8001a6e:	4313      	orrs	r3, r2
 8001a70:	0019      	movs	r1, r3
 8001a72:	b007      	add	sp, #28
 8001a74:	bc3c      	pop	{r2, r3, r4, r5}
 8001a76:	4690      	mov	r8, r2
 8001a78:	4699      	mov	r9, r3
 8001a7a:	46a2      	mov	sl, r4
 8001a7c:	46ab      	mov	fp, r5
 8001a7e:	bdf0      	pop	{r4, r5, r6, r7, pc}
 8001a80:	2300      	movs	r3, #0
 8001a82:	2280      	movs	r2, #128	; 0x80
 8001a84:	469c      	mov	ip, r3
 8001a86:	0312      	lsls	r2, r2, #12
 8001a88:	4698      	mov	r8, r3
 8001a8a:	4c03      	ldr	r4, [pc, #12]	; (8001a98 <__aeabi_ddiv+0x1e4>)
 8001a8c:	e7e0      	b.n	8001a50 <__aeabi_ddiv+0x19c>
 8001a8e:	2300      	movs	r3, #0
 8001a90:	4c01      	ldr	r4, [pc, #4]	; (8001a98 <__aeabi_ddiv+0x1e4>)
 8001a92:	2200      	movs	r2, #0
 8001a94:	4698      	mov	r8, r3
 8001a96:	e7db      	b.n	8001a50 <__aeabi_ddiv+0x19c>
 8001a98:	000007ff 	.word	0x000007ff
 8001a9c:	fffffc01 	.word	0xfffffc01
 8001aa0:	080150d4 	.word	0x080150d4
 8001aa4:	fffffc0d 	.word	0xfffffc0d
 8001aa8:	800fffff 	.word	0x800fffff
 8001aac:	45d9      	cmp	r9, fp
 8001aae:	d900      	bls.n	8001ab2 <__aeabi_ddiv+0x1fe>
 8001ab0:	e139      	b.n	8001d26 <__aeabi_ddiv+0x472>
 8001ab2:	d100      	bne.n	8001ab6 <__aeabi_ddiv+0x202>
 8001ab4:	e134      	b.n	8001d20 <__aeabi_ddiv+0x46c>
 8001ab6:	2300      	movs	r3, #0
 8001ab8:	4646      	mov	r6, r8
 8001aba:	464d      	mov	r5, r9
 8001abc:	469a      	mov	sl, r3
 8001abe:	3c01      	subs	r4, #1
 8001ac0:	465b      	mov	r3, fp
 8001ac2:	0e0a      	lsrs	r2, r1, #24
 8001ac4:	021b      	lsls	r3, r3, #8
 8001ac6:	431a      	orrs	r2, r3
 8001ac8:	020b      	lsls	r3, r1, #8
 8001aca:	0c17      	lsrs	r7, r2, #16
 8001acc:	9303      	str	r3, [sp, #12]
 8001ace:	0413      	lsls	r3, r2, #16
 8001ad0:	0c1b      	lsrs	r3, r3, #16
 8001ad2:	0039      	movs	r1, r7
 8001ad4:	0028      	movs	r0, r5
 8001ad6:	4690      	mov	r8, r2
 8001ad8:	9301      	str	r3, [sp, #4]
 8001ada:	f7fe fb27 	bl	800012c <__udivsi3>
 8001ade:	0002      	movs	r2, r0
 8001ae0:	9b01      	ldr	r3, [sp, #4]
 8001ae2:	4683      	mov	fp, r0
 8001ae4:	435a      	muls	r2, r3
 8001ae6:	0028      	movs	r0, r5
 8001ae8:	0039      	movs	r1, r7
 8001aea:	4691      	mov	r9, r2
 8001aec:	f7fe fba4 	bl	8000238 <__aeabi_uidivmod>
 8001af0:	0c35      	lsrs	r5, r6, #16
 8001af2:	0409      	lsls	r1, r1, #16
 8001af4:	430d      	orrs	r5, r1
 8001af6:	45a9      	cmp	r9, r5
 8001af8:	d90d      	bls.n	8001b16 <__aeabi_ddiv+0x262>
 8001afa:	465b      	mov	r3, fp
 8001afc:	4445      	add	r5, r8
 8001afe:	3b01      	subs	r3, #1
 8001b00:	45a8      	cmp	r8, r5
 8001b02:	d900      	bls.n	8001b06 <__aeabi_ddiv+0x252>
 8001b04:	e13a      	b.n	8001d7c <__aeabi_ddiv+0x4c8>
 8001b06:	45a9      	cmp	r9, r5
 8001b08:	d800      	bhi.n	8001b0c <__aeabi_ddiv+0x258>
 8001b0a:	e137      	b.n	8001d7c <__aeabi_ddiv+0x4c8>
 8001b0c:	2302      	movs	r3, #2
 8001b0e:	425b      	negs	r3, r3
 8001b10:	469c      	mov	ip, r3
 8001b12:	4445      	add	r5, r8
 8001b14:	44e3      	add	fp, ip
 8001b16:	464b      	mov	r3, r9
 8001b18:	1aeb      	subs	r3, r5, r3
 8001b1a:	0039      	movs	r1, r7
 8001b1c:	0018      	movs	r0, r3
 8001b1e:	9304      	str	r3, [sp, #16]
 8001b20:	f7fe fb04 	bl	800012c <__udivsi3>
 8001b24:	9b01      	ldr	r3, [sp, #4]
 8001b26:	0005      	movs	r5, r0
 8001b28:	4343      	muls	r3, r0
 8001b2a:	0039      	movs	r1, r7
 8001b2c:	9804      	ldr	r0, [sp, #16]
 8001b2e:	4699      	mov	r9, r3
 8001b30:	f7fe fb82 	bl	8000238 <__aeabi_uidivmod>
 8001b34:	0433      	lsls	r3, r6, #16
 8001b36:	0409      	lsls	r1, r1, #16
 8001b38:	0c1b      	lsrs	r3, r3, #16
 8001b3a:	430b      	orrs	r3, r1
 8001b3c:	4599      	cmp	r9, r3
 8001b3e:	d909      	bls.n	8001b54 <__aeabi_ddiv+0x2a0>
 8001b40:	4443      	add	r3, r8
 8001b42:	1e6a      	subs	r2, r5, #1
 8001b44:	4598      	cmp	r8, r3
 8001b46:	d900      	bls.n	8001b4a <__aeabi_ddiv+0x296>
 8001b48:	e11a      	b.n	8001d80 <__aeabi_ddiv+0x4cc>
 8001b4a:	4599      	cmp	r9, r3
 8001b4c:	d800      	bhi.n	8001b50 <__aeabi_ddiv+0x29c>
 8001b4e:	e117      	b.n	8001d80 <__aeabi_ddiv+0x4cc>
 8001b50:	3d02      	subs	r5, #2
 8001b52:	4443      	add	r3, r8
 8001b54:	464a      	mov	r2, r9
 8001b56:	1a9b      	subs	r3, r3, r2
 8001b58:	465a      	mov	r2, fp
 8001b5a:	0412      	lsls	r2, r2, #16
 8001b5c:	432a      	orrs	r2, r5
 8001b5e:	9903      	ldr	r1, [sp, #12]
 8001b60:	4693      	mov	fp, r2
 8001b62:	0c10      	lsrs	r0, r2, #16
 8001b64:	0c0a      	lsrs	r2, r1, #16
 8001b66:	4691      	mov	r9, r2
 8001b68:	0409      	lsls	r1, r1, #16
 8001b6a:	465a      	mov	r2, fp
 8001b6c:	0c09      	lsrs	r1, r1, #16
 8001b6e:	464e      	mov	r6, r9
 8001b70:	000d      	movs	r5, r1
 8001b72:	0412      	lsls	r2, r2, #16
 8001b74:	0c12      	lsrs	r2, r2, #16
 8001b76:	4345      	muls	r5, r0
 8001b78:	9105      	str	r1, [sp, #20]
 8001b7a:	4351      	muls	r1, r2
 8001b7c:	4372      	muls	r2, r6
 8001b7e:	4370      	muls	r0, r6
 8001b80:	1952      	adds	r2, r2, r5
 8001b82:	0c0e      	lsrs	r6, r1, #16
 8001b84:	18b2      	adds	r2, r6, r2
 8001b86:	4295      	cmp	r5, r2
 8001b88:	d903      	bls.n	8001b92 <__aeabi_ddiv+0x2de>
 8001b8a:	2580      	movs	r5, #128	; 0x80
 8001b8c:	026d      	lsls	r5, r5, #9
 8001b8e:	46ac      	mov	ip, r5
 8001b90:	4460      	add	r0, ip
 8001b92:	0c15      	lsrs	r5, r2, #16
 8001b94:	0409      	lsls	r1, r1, #16
 8001b96:	0412      	lsls	r2, r2, #16
 8001b98:	0c09      	lsrs	r1, r1, #16
 8001b9a:	1828      	adds	r0, r5, r0
 8001b9c:	1852      	adds	r2, r2, r1
 8001b9e:	4283      	cmp	r3, r0
 8001ba0:	d200      	bcs.n	8001ba4 <__aeabi_ddiv+0x2f0>
 8001ba2:	e0ce      	b.n	8001d42 <__aeabi_ddiv+0x48e>
 8001ba4:	d100      	bne.n	8001ba8 <__aeabi_ddiv+0x2f4>
 8001ba6:	e0c8      	b.n	8001d3a <__aeabi_ddiv+0x486>
 8001ba8:	1a1d      	subs	r5, r3, r0
 8001baa:	4653      	mov	r3, sl
 8001bac:	1a9e      	subs	r6, r3, r2
 8001bae:	45b2      	cmp	sl, r6
 8001bb0:	4192      	sbcs	r2, r2
 8001bb2:	4252      	negs	r2, r2
 8001bb4:	1aab      	subs	r3, r5, r2
 8001bb6:	469a      	mov	sl, r3
 8001bb8:	4598      	cmp	r8, r3
 8001bba:	d100      	bne.n	8001bbe <__aeabi_ddiv+0x30a>
 8001bbc:	e117      	b.n	8001dee <__aeabi_ddiv+0x53a>
 8001bbe:	0039      	movs	r1, r7
 8001bc0:	0018      	movs	r0, r3
 8001bc2:	f7fe fab3 	bl	800012c <__udivsi3>
 8001bc6:	9b01      	ldr	r3, [sp, #4]
 8001bc8:	0005      	movs	r5, r0
 8001bca:	4343      	muls	r3, r0
 8001bcc:	0039      	movs	r1, r7
 8001bce:	4650      	mov	r0, sl
 8001bd0:	9304      	str	r3, [sp, #16]
 8001bd2:	f7fe fb31 	bl	8000238 <__aeabi_uidivmod>
 8001bd6:	9804      	ldr	r0, [sp, #16]
 8001bd8:	040b      	lsls	r3, r1, #16
 8001bda:	0c31      	lsrs	r1, r6, #16
 8001bdc:	4319      	orrs	r1, r3
 8001bde:	4288      	cmp	r0, r1
 8001be0:	d909      	bls.n	8001bf6 <__aeabi_ddiv+0x342>
 8001be2:	4441      	add	r1, r8
 8001be4:	1e6b      	subs	r3, r5, #1
 8001be6:	4588      	cmp	r8, r1
 8001be8:	d900      	bls.n	8001bec <__aeabi_ddiv+0x338>
 8001bea:	e107      	b.n	8001dfc <__aeabi_ddiv+0x548>
 8001bec:	4288      	cmp	r0, r1
 8001bee:	d800      	bhi.n	8001bf2 <__aeabi_ddiv+0x33e>
 8001bf0:	e104      	b.n	8001dfc <__aeabi_ddiv+0x548>
 8001bf2:	3d02      	subs	r5, #2
 8001bf4:	4441      	add	r1, r8
 8001bf6:	9b04      	ldr	r3, [sp, #16]
 8001bf8:	1acb      	subs	r3, r1, r3
 8001bfa:	0018      	movs	r0, r3
 8001bfc:	0039      	movs	r1, r7
 8001bfe:	9304      	str	r3, [sp, #16]
 8001c00:	f7fe fa94 	bl	800012c <__udivsi3>
 8001c04:	9b01      	ldr	r3, [sp, #4]
 8001c06:	4682      	mov	sl, r0
 8001c08:	4343      	muls	r3, r0
 8001c0a:	0039      	movs	r1, r7
 8001c0c:	9804      	ldr	r0, [sp, #16]
 8001c0e:	9301      	str	r3, [sp, #4]
 8001c10:	f7fe fb12 	bl	8000238 <__aeabi_uidivmod>
 8001c14:	9801      	ldr	r0, [sp, #4]
 8001c16:	040b      	lsls	r3, r1, #16
 8001c18:	0431      	lsls	r1, r6, #16
 8001c1a:	0c09      	lsrs	r1, r1, #16
 8001c1c:	4319      	orrs	r1, r3
 8001c1e:	4288      	cmp	r0, r1
 8001c20:	d90d      	bls.n	8001c3e <__aeabi_ddiv+0x38a>
 8001c22:	4653      	mov	r3, sl
 8001c24:	4441      	add	r1, r8
 8001c26:	3b01      	subs	r3, #1
 8001c28:	4588      	cmp	r8, r1
 8001c2a:	d900      	bls.n	8001c2e <__aeabi_ddiv+0x37a>
 8001c2c:	e0e8      	b.n	8001e00 <__aeabi_ddiv+0x54c>
 8001c2e:	4288      	cmp	r0, r1
 8001c30:	d800      	bhi.n	8001c34 <__aeabi_ddiv+0x380>
 8001c32:	e0e5      	b.n	8001e00 <__aeabi_ddiv+0x54c>
 8001c34:	2302      	movs	r3, #2
 8001c36:	425b      	negs	r3, r3
 8001c38:	469c      	mov	ip, r3
 8001c3a:	4441      	add	r1, r8
 8001c3c:	44e2      	add	sl, ip
 8001c3e:	9b01      	ldr	r3, [sp, #4]
 8001c40:	042d      	lsls	r5, r5, #16
 8001c42:	1ace      	subs	r6, r1, r3
 8001c44:	4651      	mov	r1, sl
 8001c46:	4329      	orrs	r1, r5
 8001c48:	9d05      	ldr	r5, [sp, #20]
 8001c4a:	464f      	mov	r7, r9
 8001c4c:	002a      	movs	r2, r5
 8001c4e:	040b      	lsls	r3, r1, #16
 8001c50:	0c08      	lsrs	r0, r1, #16
 8001c52:	0c1b      	lsrs	r3, r3, #16
 8001c54:	435a      	muls	r2, r3
 8001c56:	4345      	muls	r5, r0
 8001c58:	437b      	muls	r3, r7
 8001c5a:	4378      	muls	r0, r7
 8001c5c:	195b      	adds	r3, r3, r5
 8001c5e:	0c17      	lsrs	r7, r2, #16
 8001c60:	18fb      	adds	r3, r7, r3
 8001c62:	429d      	cmp	r5, r3
 8001c64:	d903      	bls.n	8001c6e <__aeabi_ddiv+0x3ba>
 8001c66:	2580      	movs	r5, #128	; 0x80
 8001c68:	026d      	lsls	r5, r5, #9
 8001c6a:	46ac      	mov	ip, r5
 8001c6c:	4460      	add	r0, ip
 8001c6e:	0c1d      	lsrs	r5, r3, #16
 8001c70:	0412      	lsls	r2, r2, #16
 8001c72:	041b      	lsls	r3, r3, #16
 8001c74:	0c12      	lsrs	r2, r2, #16
 8001c76:	1828      	adds	r0, r5, r0
 8001c78:	189b      	adds	r3, r3, r2
 8001c7a:	4286      	cmp	r6, r0
 8001c7c:	d200      	bcs.n	8001c80 <__aeabi_ddiv+0x3cc>
 8001c7e:	e093      	b.n	8001da8 <__aeabi_ddiv+0x4f4>
 8001c80:	d100      	bne.n	8001c84 <__aeabi_ddiv+0x3d0>
 8001c82:	e08e      	b.n	8001da2 <__aeabi_ddiv+0x4ee>
 8001c84:	2301      	movs	r3, #1
 8001c86:	4319      	orrs	r1, r3
 8001c88:	4ba0      	ldr	r3, [pc, #640]	; (8001f0c <__aeabi_ddiv+0x658>)
 8001c8a:	18e3      	adds	r3, r4, r3
 8001c8c:	2b00      	cmp	r3, #0
 8001c8e:	dc00      	bgt.n	8001c92 <__aeabi_ddiv+0x3de>
 8001c90:	e099      	b.n	8001dc6 <__aeabi_ddiv+0x512>
 8001c92:	074a      	lsls	r2, r1, #29
 8001c94:	d000      	beq.n	8001c98 <__aeabi_ddiv+0x3e4>
 8001c96:	e09e      	b.n	8001dd6 <__aeabi_ddiv+0x522>
 8001c98:	465a      	mov	r2, fp
 8001c9a:	01d2      	lsls	r2, r2, #7
 8001c9c:	d506      	bpl.n	8001cac <__aeabi_ddiv+0x3f8>
 8001c9e:	465a      	mov	r2, fp
 8001ca0:	4b9b      	ldr	r3, [pc, #620]	; (8001f10 <__aeabi_ddiv+0x65c>)
 8001ca2:	401a      	ands	r2, r3
 8001ca4:	2380      	movs	r3, #128	; 0x80
 8001ca6:	4693      	mov	fp, r2
 8001ca8:	00db      	lsls	r3, r3, #3
 8001caa:	18e3      	adds	r3, r4, r3
 8001cac:	4a99      	ldr	r2, [pc, #612]	; (8001f14 <__aeabi_ddiv+0x660>)
 8001cae:	4293      	cmp	r3, r2
 8001cb0:	dd68      	ble.n	8001d84 <__aeabi_ddiv+0x4d0>
 8001cb2:	2301      	movs	r3, #1
 8001cb4:	9a02      	ldr	r2, [sp, #8]
 8001cb6:	4c98      	ldr	r4, [pc, #608]	; (8001f18 <__aeabi_ddiv+0x664>)
 8001cb8:	401a      	ands	r2, r3
 8001cba:	2300      	movs	r3, #0
 8001cbc:	4694      	mov	ip, r2
 8001cbe:	4698      	mov	r8, r3
 8001cc0:	2200      	movs	r2, #0
 8001cc2:	e6c5      	b.n	8001a50 <__aeabi_ddiv+0x19c>
 8001cc4:	2280      	movs	r2, #128	; 0x80
 8001cc6:	464b      	mov	r3, r9
 8001cc8:	0312      	lsls	r2, r2, #12
 8001cca:	4213      	tst	r3, r2
 8001ccc:	d00a      	beq.n	8001ce4 <__aeabi_ddiv+0x430>
 8001cce:	465b      	mov	r3, fp
 8001cd0:	4213      	tst	r3, r2
 8001cd2:	d106      	bne.n	8001ce2 <__aeabi_ddiv+0x42e>
 8001cd4:	431a      	orrs	r2, r3
 8001cd6:	0312      	lsls	r2, r2, #12
 8001cd8:	0b12      	lsrs	r2, r2, #12
 8001cda:	46ac      	mov	ip, r5
 8001cdc:	4688      	mov	r8, r1
 8001cde:	4c8e      	ldr	r4, [pc, #568]	; (8001f18 <__aeabi_ddiv+0x664>)
 8001ce0:	e6b6      	b.n	8001a50 <__aeabi_ddiv+0x19c>
 8001ce2:	464b      	mov	r3, r9
 8001ce4:	431a      	orrs	r2, r3
 8001ce6:	0312      	lsls	r2, r2, #12
 8001ce8:	0b12      	lsrs	r2, r2, #12
 8001cea:	46bc      	mov	ip, r7
 8001cec:	4c8a      	ldr	r4, [pc, #552]	; (8001f18 <__aeabi_ddiv+0x664>)
 8001cee:	e6af      	b.n	8001a50 <__aeabi_ddiv+0x19c>
 8001cf0:	0003      	movs	r3, r0
 8001cf2:	465a      	mov	r2, fp
 8001cf4:	3b28      	subs	r3, #40	; 0x28
 8001cf6:	409a      	lsls	r2, r3
 8001cf8:	2300      	movs	r3, #0
 8001cfa:	4691      	mov	r9, r2
 8001cfc:	4698      	mov	r8, r3
 8001cfe:	e657      	b.n	80019b0 <__aeabi_ddiv+0xfc>
 8001d00:	4658      	mov	r0, fp
 8001d02:	f001 f94b 	bl	8002f9c <__clzsi2>
 8001d06:	3020      	adds	r0, #32
 8001d08:	e640      	b.n	800198c <__aeabi_ddiv+0xd8>
 8001d0a:	0003      	movs	r3, r0
 8001d0c:	4652      	mov	r2, sl
 8001d0e:	3b28      	subs	r3, #40	; 0x28
 8001d10:	409a      	lsls	r2, r3
 8001d12:	2100      	movs	r1, #0
 8001d14:	4693      	mov	fp, r2
 8001d16:	e677      	b.n	8001a08 <__aeabi_ddiv+0x154>
 8001d18:	f001 f940 	bl	8002f9c <__clzsi2>
 8001d1c:	3020      	adds	r0, #32
 8001d1e:	e65f      	b.n	80019e0 <__aeabi_ddiv+0x12c>
 8001d20:	4588      	cmp	r8, r1
 8001d22:	d200      	bcs.n	8001d26 <__aeabi_ddiv+0x472>
 8001d24:	e6c7      	b.n	8001ab6 <__aeabi_ddiv+0x202>
 8001d26:	464b      	mov	r3, r9
 8001d28:	07de      	lsls	r6, r3, #31
 8001d2a:	085d      	lsrs	r5, r3, #1
 8001d2c:	4643      	mov	r3, r8
 8001d2e:	085b      	lsrs	r3, r3, #1
 8001d30:	431e      	orrs	r6, r3
 8001d32:	4643      	mov	r3, r8
 8001d34:	07db      	lsls	r3, r3, #31
 8001d36:	469a      	mov	sl, r3
 8001d38:	e6c2      	b.n	8001ac0 <__aeabi_ddiv+0x20c>
 8001d3a:	2500      	movs	r5, #0
 8001d3c:	4592      	cmp	sl, r2
 8001d3e:	d300      	bcc.n	8001d42 <__aeabi_ddiv+0x48e>
 8001d40:	e733      	b.n	8001baa <__aeabi_ddiv+0x2f6>
 8001d42:	9e03      	ldr	r6, [sp, #12]
 8001d44:	4659      	mov	r1, fp
 8001d46:	46b4      	mov	ip, r6
 8001d48:	44e2      	add	sl, ip
 8001d4a:	45b2      	cmp	sl, r6
 8001d4c:	41ad      	sbcs	r5, r5
 8001d4e:	426d      	negs	r5, r5
 8001d50:	4445      	add	r5, r8
 8001d52:	18eb      	adds	r3, r5, r3
 8001d54:	3901      	subs	r1, #1
 8001d56:	4598      	cmp	r8, r3
 8001d58:	d207      	bcs.n	8001d6a <__aeabi_ddiv+0x4b6>
 8001d5a:	4298      	cmp	r0, r3
 8001d5c:	d900      	bls.n	8001d60 <__aeabi_ddiv+0x4ac>
 8001d5e:	e07f      	b.n	8001e60 <__aeabi_ddiv+0x5ac>
 8001d60:	d100      	bne.n	8001d64 <__aeabi_ddiv+0x4b0>
 8001d62:	e0bc      	b.n	8001ede <__aeabi_ddiv+0x62a>
 8001d64:	1a1d      	subs	r5, r3, r0
 8001d66:	468b      	mov	fp, r1
 8001d68:	e71f      	b.n	8001baa <__aeabi_ddiv+0x2f6>
 8001d6a:	4598      	cmp	r8, r3
 8001d6c:	d1fa      	bne.n	8001d64 <__aeabi_ddiv+0x4b0>
 8001d6e:	9d03      	ldr	r5, [sp, #12]
 8001d70:	4555      	cmp	r5, sl
 8001d72:	d9f2      	bls.n	8001d5a <__aeabi_ddiv+0x4a6>
 8001d74:	4643      	mov	r3, r8
 8001d76:	468b      	mov	fp, r1
 8001d78:	1a1d      	subs	r5, r3, r0
 8001d7a:	e716      	b.n	8001baa <__aeabi_ddiv+0x2f6>
 8001d7c:	469b      	mov	fp, r3
 8001d7e:	e6ca      	b.n	8001b16 <__aeabi_ddiv+0x262>
 8001d80:	0015      	movs	r5, r2
 8001d82:	e6e7      	b.n	8001b54 <__aeabi_ddiv+0x2a0>
 8001d84:	465a      	mov	r2, fp
 8001d86:	08c9      	lsrs	r1, r1, #3
 8001d88:	0752      	lsls	r2, r2, #29
 8001d8a:	430a      	orrs	r2, r1
 8001d8c:	055b      	lsls	r3, r3, #21
 8001d8e:	4690      	mov	r8, r2
 8001d90:	0d5c      	lsrs	r4, r3, #21
 8001d92:	465a      	mov	r2, fp
 8001d94:	2301      	movs	r3, #1
 8001d96:	9902      	ldr	r1, [sp, #8]
 8001d98:	0252      	lsls	r2, r2, #9
 8001d9a:	4019      	ands	r1, r3
 8001d9c:	0b12      	lsrs	r2, r2, #12
 8001d9e:	468c      	mov	ip, r1
 8001da0:	e656      	b.n	8001a50 <__aeabi_ddiv+0x19c>
 8001da2:	2b00      	cmp	r3, #0
 8001da4:	d100      	bne.n	8001da8 <__aeabi_ddiv+0x4f4>
 8001da6:	e76f      	b.n	8001c88 <__aeabi_ddiv+0x3d4>
 8001da8:	4446      	add	r6, r8
 8001daa:	1e4a      	subs	r2, r1, #1
 8001dac:	45b0      	cmp	r8, r6
 8001dae:	d929      	bls.n	8001e04 <__aeabi_ddiv+0x550>
 8001db0:	0011      	movs	r1, r2
 8001db2:	4286      	cmp	r6, r0
 8001db4:	d000      	beq.n	8001db8 <__aeabi_ddiv+0x504>
 8001db6:	e765      	b.n	8001c84 <__aeabi_ddiv+0x3d0>
 8001db8:	9a03      	ldr	r2, [sp, #12]
 8001dba:	4293      	cmp	r3, r2
 8001dbc:	d000      	beq.n	8001dc0 <__aeabi_ddiv+0x50c>
 8001dbe:	e761      	b.n	8001c84 <__aeabi_ddiv+0x3d0>
 8001dc0:	e762      	b.n	8001c88 <__aeabi_ddiv+0x3d4>
 8001dc2:	2101      	movs	r1, #1
 8001dc4:	4249      	negs	r1, r1
 8001dc6:	2001      	movs	r0, #1
 8001dc8:	1ac2      	subs	r2, r0, r3
 8001dca:	2a38      	cmp	r2, #56	; 0x38
 8001dcc:	dd21      	ble.n	8001e12 <__aeabi_ddiv+0x55e>
 8001dce:	9b02      	ldr	r3, [sp, #8]
 8001dd0:	4003      	ands	r3, r0
 8001dd2:	469c      	mov	ip, r3
 8001dd4:	e638      	b.n	8001a48 <__aeabi_ddiv+0x194>
 8001dd6:	220f      	movs	r2, #15
 8001dd8:	400a      	ands	r2, r1
 8001dda:	2a04      	cmp	r2, #4
 8001ddc:	d100      	bne.n	8001de0 <__aeabi_ddiv+0x52c>
 8001dde:	e75b      	b.n	8001c98 <__aeabi_ddiv+0x3e4>
 8001de0:	000a      	movs	r2, r1
 8001de2:	1d11      	adds	r1, r2, #4
 8001de4:	4291      	cmp	r1, r2
 8001de6:	4192      	sbcs	r2, r2
 8001de8:	4252      	negs	r2, r2
 8001dea:	4493      	add	fp, r2
 8001dec:	e754      	b.n	8001c98 <__aeabi_ddiv+0x3e4>
 8001dee:	4b47      	ldr	r3, [pc, #284]	; (8001f0c <__aeabi_ddiv+0x658>)
 8001df0:	18e3      	adds	r3, r4, r3
 8001df2:	2b00      	cmp	r3, #0
 8001df4:	dde5      	ble.n	8001dc2 <__aeabi_ddiv+0x50e>
 8001df6:	2201      	movs	r2, #1
 8001df8:	4252      	negs	r2, r2
 8001dfa:	e7f2      	b.n	8001de2 <__aeabi_ddiv+0x52e>
 8001dfc:	001d      	movs	r5, r3
 8001dfe:	e6fa      	b.n	8001bf6 <__aeabi_ddiv+0x342>
 8001e00:	469a      	mov	sl, r3
 8001e02:	e71c      	b.n	8001c3e <__aeabi_ddiv+0x38a>
 8001e04:	42b0      	cmp	r0, r6
 8001e06:	d839      	bhi.n	8001e7c <__aeabi_ddiv+0x5c8>
 8001e08:	d06e      	beq.n	8001ee8 <__aeabi_ddiv+0x634>
 8001e0a:	0011      	movs	r1, r2
 8001e0c:	e73a      	b.n	8001c84 <__aeabi_ddiv+0x3d0>
 8001e0e:	9302      	str	r3, [sp, #8]
 8001e10:	e73a      	b.n	8001c88 <__aeabi_ddiv+0x3d4>
 8001e12:	2a1f      	cmp	r2, #31
 8001e14:	dc3c      	bgt.n	8001e90 <__aeabi_ddiv+0x5dc>
 8001e16:	2320      	movs	r3, #32
 8001e18:	1a9b      	subs	r3, r3, r2
 8001e1a:	000c      	movs	r4, r1
 8001e1c:	4658      	mov	r0, fp
 8001e1e:	4099      	lsls	r1, r3
 8001e20:	4098      	lsls	r0, r3
 8001e22:	1e4b      	subs	r3, r1, #1
 8001e24:	4199      	sbcs	r1, r3
 8001e26:	465b      	mov	r3, fp
 8001e28:	40d4      	lsrs	r4, r2
 8001e2a:	40d3      	lsrs	r3, r2
 8001e2c:	4320      	orrs	r0, r4
 8001e2e:	4308      	orrs	r0, r1
 8001e30:	001a      	movs	r2, r3
 8001e32:	0743      	lsls	r3, r0, #29
 8001e34:	d009      	beq.n	8001e4a <__aeabi_ddiv+0x596>
 8001e36:	230f      	movs	r3, #15
 8001e38:	4003      	ands	r3, r0
 8001e3a:	2b04      	cmp	r3, #4
 8001e3c:	d005      	beq.n	8001e4a <__aeabi_ddiv+0x596>
 8001e3e:	0001      	movs	r1, r0
 8001e40:	1d08      	adds	r0, r1, #4
 8001e42:	4288      	cmp	r0, r1
 8001e44:	419b      	sbcs	r3, r3
 8001e46:	425b      	negs	r3, r3
 8001e48:	18d2      	adds	r2, r2, r3
 8001e4a:	0213      	lsls	r3, r2, #8
 8001e4c:	d53a      	bpl.n	8001ec4 <__aeabi_ddiv+0x610>
 8001e4e:	2301      	movs	r3, #1
 8001e50:	9a02      	ldr	r2, [sp, #8]
 8001e52:	2401      	movs	r4, #1
 8001e54:	401a      	ands	r2, r3
 8001e56:	2300      	movs	r3, #0
 8001e58:	4694      	mov	ip, r2
 8001e5a:	4698      	mov	r8, r3
 8001e5c:	2200      	movs	r2, #0
 8001e5e:	e5f7      	b.n	8001a50 <__aeabi_ddiv+0x19c>
 8001e60:	2102      	movs	r1, #2
 8001e62:	4249      	negs	r1, r1
 8001e64:	468c      	mov	ip, r1
 8001e66:	9d03      	ldr	r5, [sp, #12]
 8001e68:	44e3      	add	fp, ip
 8001e6a:	46ac      	mov	ip, r5
 8001e6c:	44e2      	add	sl, ip
 8001e6e:	45aa      	cmp	sl, r5
 8001e70:	41ad      	sbcs	r5, r5
 8001e72:	426d      	negs	r5, r5
 8001e74:	4445      	add	r5, r8
 8001e76:	18ed      	adds	r5, r5, r3
 8001e78:	1a2d      	subs	r5, r5, r0
 8001e7a:	e696      	b.n	8001baa <__aeabi_ddiv+0x2f6>
 8001e7c:	1e8a      	subs	r2, r1, #2
 8001e7e:	9903      	ldr	r1, [sp, #12]
 8001e80:	004d      	lsls	r5, r1, #1
 8001e82:	428d      	cmp	r5, r1
 8001e84:	4189      	sbcs	r1, r1
 8001e86:	4249      	negs	r1, r1
 8001e88:	4441      	add	r1, r8
 8001e8a:	1876      	adds	r6, r6, r1
 8001e8c:	9503      	str	r5, [sp, #12]
 8001e8e:	e78f      	b.n	8001db0 <__aeabi_ddiv+0x4fc>
 8001e90:	201f      	movs	r0, #31
 8001e92:	4240      	negs	r0, r0
 8001e94:	1ac3      	subs	r3, r0, r3
 8001e96:	4658      	mov	r0, fp
 8001e98:	40d8      	lsrs	r0, r3
 8001e9a:	0003      	movs	r3, r0
 8001e9c:	2a20      	cmp	r2, #32
 8001e9e:	d028      	beq.n	8001ef2 <__aeabi_ddiv+0x63e>
 8001ea0:	2040      	movs	r0, #64	; 0x40
 8001ea2:	465d      	mov	r5, fp
 8001ea4:	1a82      	subs	r2, r0, r2
 8001ea6:	4095      	lsls	r5, r2
 8001ea8:	4329      	orrs	r1, r5
 8001eaa:	1e4a      	subs	r2, r1, #1
 8001eac:	4191      	sbcs	r1, r2
 8001eae:	4319      	orrs	r1, r3
 8001eb0:	2307      	movs	r3, #7
 8001eb2:	2200      	movs	r2, #0
 8001eb4:	400b      	ands	r3, r1
 8001eb6:	d009      	beq.n	8001ecc <__aeabi_ddiv+0x618>
 8001eb8:	230f      	movs	r3, #15
 8001eba:	2200      	movs	r2, #0
 8001ebc:	400b      	ands	r3, r1
 8001ebe:	0008      	movs	r0, r1
 8001ec0:	2b04      	cmp	r3, #4
 8001ec2:	d1bd      	bne.n	8001e40 <__aeabi_ddiv+0x58c>
 8001ec4:	0001      	movs	r1, r0
 8001ec6:	0753      	lsls	r3, r2, #29
 8001ec8:	0252      	lsls	r2, r2, #9
 8001eca:	0b12      	lsrs	r2, r2, #12
 8001ecc:	08c9      	lsrs	r1, r1, #3
 8001ece:	4319      	orrs	r1, r3
 8001ed0:	2301      	movs	r3, #1
 8001ed2:	4688      	mov	r8, r1
 8001ed4:	9902      	ldr	r1, [sp, #8]
 8001ed6:	2400      	movs	r4, #0
 8001ed8:	4019      	ands	r1, r3
 8001eda:	468c      	mov	ip, r1
 8001edc:	e5b8      	b.n	8001a50 <__aeabi_ddiv+0x19c>
 8001ede:	4552      	cmp	r2, sl
 8001ee0:	d8be      	bhi.n	8001e60 <__aeabi_ddiv+0x5ac>
 8001ee2:	468b      	mov	fp, r1
 8001ee4:	2500      	movs	r5, #0
 8001ee6:	e660      	b.n	8001baa <__aeabi_ddiv+0x2f6>
 8001ee8:	9d03      	ldr	r5, [sp, #12]
 8001eea:	429d      	cmp	r5, r3
 8001eec:	d3c6      	bcc.n	8001e7c <__aeabi_ddiv+0x5c8>
 8001eee:	0011      	movs	r1, r2
 8001ef0:	e762      	b.n	8001db8 <__aeabi_ddiv+0x504>
 8001ef2:	2500      	movs	r5, #0
 8001ef4:	e7d8      	b.n	8001ea8 <__aeabi_ddiv+0x5f4>
 8001ef6:	2280      	movs	r2, #128	; 0x80
 8001ef8:	465b      	mov	r3, fp
 8001efa:	0312      	lsls	r2, r2, #12
 8001efc:	431a      	orrs	r2, r3
 8001efe:	9b01      	ldr	r3, [sp, #4]
 8001f00:	0312      	lsls	r2, r2, #12
 8001f02:	0b12      	lsrs	r2, r2, #12
 8001f04:	469c      	mov	ip, r3
 8001f06:	4688      	mov	r8, r1
 8001f08:	4c03      	ldr	r4, [pc, #12]	; (8001f18 <__aeabi_ddiv+0x664>)
 8001f0a:	e5a1      	b.n	8001a50 <__aeabi_ddiv+0x19c>
 8001f0c:	000003ff 	.word	0x000003ff
 8001f10:	feffffff 	.word	0xfeffffff
 8001f14:	000007fe 	.word	0x000007fe
 8001f18:	000007ff 	.word	0x000007ff

08001f1c <__eqdf2>:
 8001f1c:	b5f0      	push	{r4, r5, r6, r7, lr}
 8001f1e:	464f      	mov	r7, r9
 8001f20:	4646      	mov	r6, r8
 8001f22:	46d6      	mov	lr, sl
 8001f24:	005c      	lsls	r4, r3, #1
 8001f26:	b5c0      	push	{r6, r7, lr}
 8001f28:	031f      	lsls	r7, r3, #12
 8001f2a:	0fdb      	lsrs	r3, r3, #31
 8001f2c:	469a      	mov	sl, r3
 8001f2e:	4b17      	ldr	r3, [pc, #92]	; (8001f8c <__eqdf2+0x70>)
 8001f30:	030e      	lsls	r6, r1, #12
 8001f32:	004d      	lsls	r5, r1, #1
 8001f34:	4684      	mov	ip, r0
 8001f36:	4680      	mov	r8, r0
 8001f38:	0b36      	lsrs	r6, r6, #12
 8001f3a:	0d6d      	lsrs	r5, r5, #21
 8001f3c:	0fc9      	lsrs	r1, r1, #31
 8001f3e:	4691      	mov	r9, r2
 8001f40:	0b3f      	lsrs	r7, r7, #12
 8001f42:	0d64      	lsrs	r4, r4, #21
 8001f44:	2001      	movs	r0, #1
 8001f46:	429d      	cmp	r5, r3
 8001f48:	d008      	beq.n	8001f5c <__eqdf2+0x40>
 8001f4a:	429c      	cmp	r4, r3
 8001f4c:	d001      	beq.n	8001f52 <__eqdf2+0x36>
 8001f4e:	42a5      	cmp	r5, r4
 8001f50:	d00b      	beq.n	8001f6a <__eqdf2+0x4e>
 8001f52:	bc1c      	pop	{r2, r3, r4}
 8001f54:	4690      	mov	r8, r2
 8001f56:	4699      	mov	r9, r3
 8001f58:	46a2      	mov	sl, r4
 8001f5a:	bdf0      	pop	{r4, r5, r6, r7, pc}
 8001f5c:	4663      	mov	r3, ip
 8001f5e:	4333      	orrs	r3, r6
 8001f60:	d1f7      	bne.n	8001f52 <__eqdf2+0x36>
 8001f62:	42ac      	cmp	r4, r5
 8001f64:	d1f5      	bne.n	8001f52 <__eqdf2+0x36>
 8001f66:	433a      	orrs	r2, r7
 8001f68:	d1f3      	bne.n	8001f52 <__eqdf2+0x36>
 8001f6a:	2001      	movs	r0, #1
 8001f6c:	42be      	cmp	r6, r7
 8001f6e:	d1f0      	bne.n	8001f52 <__eqdf2+0x36>
 8001f70:	45c8      	cmp	r8, r9
 8001f72:	d1ee      	bne.n	8001f52 <__eqdf2+0x36>
 8001f74:	4551      	cmp	r1, sl
 8001f76:	d007      	beq.n	8001f88 <__eqdf2+0x6c>
 8001f78:	2d00      	cmp	r5, #0
 8001f7a:	d1ea      	bne.n	8001f52 <__eqdf2+0x36>
 8001f7c:	4663      	mov	r3, ip
 8001f7e:	431e      	orrs	r6, r3
 8001f80:	0030      	movs	r0, r6
 8001f82:	1e46      	subs	r6, r0, #1
 8001f84:	41b0      	sbcs	r0, r6
 8001f86:	e7e4      	b.n	8001f52 <__eqdf2+0x36>
 8001f88:	2000      	movs	r0, #0
 8001f8a:	e7e2      	b.n	8001f52 <__eqdf2+0x36>
 8001f8c:	000007ff 	.word	0x000007ff

08001f90 <__gedf2>:
 8001f90:	b5f0      	push	{r4, r5, r6, r7, lr}
 8001f92:	4645      	mov	r5, r8
 8001f94:	46de      	mov	lr, fp
 8001f96:	4657      	mov	r7, sl
 8001f98:	464e      	mov	r6, r9
 8001f9a:	b5e0      	push	{r5, r6, r7, lr}
 8001f9c:	031f      	lsls	r7, r3, #12
 8001f9e:	0b3d      	lsrs	r5, r7, #12
 8001fa0:	4f2c      	ldr	r7, [pc, #176]	; (8002054 <__gedf2+0xc4>)
 8001fa2:	030e      	lsls	r6, r1, #12
 8001fa4:	004c      	lsls	r4, r1, #1
 8001fa6:	46ab      	mov	fp, r5
 8001fa8:	005d      	lsls	r5, r3, #1
 8001faa:	4684      	mov	ip, r0
 8001fac:	0b36      	lsrs	r6, r6, #12
 8001fae:	0d64      	lsrs	r4, r4, #21
 8001fb0:	0fc9      	lsrs	r1, r1, #31
 8001fb2:	4690      	mov	r8, r2
 8001fb4:	0d6d      	lsrs	r5, r5, #21
 8001fb6:	0fdb      	lsrs	r3, r3, #31
 8001fb8:	42bc      	cmp	r4, r7
 8001fba:	d02a      	beq.n	8002012 <__gedf2+0x82>
 8001fbc:	4f25      	ldr	r7, [pc, #148]	; (8002054 <__gedf2+0xc4>)
 8001fbe:	42bd      	cmp	r5, r7
 8001fc0:	d02d      	beq.n	800201e <__gedf2+0x8e>
 8001fc2:	2c00      	cmp	r4, #0
 8001fc4:	d10f      	bne.n	8001fe6 <__gedf2+0x56>
 8001fc6:	4330      	orrs	r0, r6
 8001fc8:	0007      	movs	r7, r0
 8001fca:	4681      	mov	r9, r0
 8001fcc:	4278      	negs	r0, r7
 8001fce:	4178      	adcs	r0, r7
 8001fd0:	b2c0      	uxtb	r0, r0
 8001fd2:	2d00      	cmp	r5, #0
 8001fd4:	d117      	bne.n	8002006 <__gedf2+0x76>
 8001fd6:	465f      	mov	r7, fp
 8001fd8:	433a      	orrs	r2, r7
 8001fda:	d114      	bne.n	8002006 <__gedf2+0x76>
 8001fdc:	464b      	mov	r3, r9
 8001fde:	2000      	movs	r0, #0
 8001fe0:	2b00      	cmp	r3, #0
 8001fe2:	d00a      	beq.n	8001ffa <__gedf2+0x6a>
 8001fe4:	e006      	b.n	8001ff4 <__gedf2+0x64>
 8001fe6:	2d00      	cmp	r5, #0
 8001fe8:	d102      	bne.n	8001ff0 <__gedf2+0x60>
 8001fea:	4658      	mov	r0, fp
 8001fec:	4302      	orrs	r2, r0
 8001fee:	d001      	beq.n	8001ff4 <__gedf2+0x64>
 8001ff0:	4299      	cmp	r1, r3
 8001ff2:	d018      	beq.n	8002026 <__gedf2+0x96>
 8001ff4:	4248      	negs	r0, r1
 8001ff6:	2101      	movs	r1, #1
 8001ff8:	4308      	orrs	r0, r1
 8001ffa:	bc3c      	pop	{r2, r3, r4, r5}
 8001ffc:	4690      	mov	r8, r2
 8001ffe:	4699      	mov	r9, r3
 8002000:	46a2      	mov	sl, r4
 8002002:	46ab      	mov	fp, r5
 8002004:	bdf0      	pop	{r4, r5, r6, r7, pc}
 8002006:	2800      	cmp	r0, #0
 8002008:	d0f2      	beq.n	8001ff0 <__gedf2+0x60>
 800200a:	2001      	movs	r0, #1
 800200c:	3b01      	subs	r3, #1
 800200e:	4318      	orrs	r0, r3
 8002010:	e7f3      	b.n	8001ffa <__gedf2+0x6a>
 8002012:	0037      	movs	r7, r6
 8002014:	4307      	orrs	r7, r0
 8002016:	d0d1      	beq.n	8001fbc <__gedf2+0x2c>
 8002018:	2002      	movs	r0, #2
 800201a:	4240      	negs	r0, r0
 800201c:	e7ed      	b.n	8001ffa <__gedf2+0x6a>
 800201e:	465f      	mov	r7, fp
 8002020:	4317      	orrs	r7, r2
 8002022:	d0ce      	beq.n	8001fc2 <__gedf2+0x32>
 8002024:	e7f8      	b.n	8002018 <__gedf2+0x88>
 8002026:	42ac      	cmp	r4, r5
 8002028:	dce4      	bgt.n	8001ff4 <__gedf2+0x64>
 800202a:	da03      	bge.n	8002034 <__gedf2+0xa4>
 800202c:	1e48      	subs	r0, r1, #1
 800202e:	2101      	movs	r1, #1
 8002030:	4308      	orrs	r0, r1
 8002032:	e7e2      	b.n	8001ffa <__gedf2+0x6a>
 8002034:	455e      	cmp	r6, fp
 8002036:	d8dd      	bhi.n	8001ff4 <__gedf2+0x64>
 8002038:	d006      	beq.n	8002048 <__gedf2+0xb8>
 800203a:	2000      	movs	r0, #0
 800203c:	455e      	cmp	r6, fp
 800203e:	d2dc      	bcs.n	8001ffa <__gedf2+0x6a>
 8002040:	2301      	movs	r3, #1
 8002042:	1e48      	subs	r0, r1, #1
 8002044:	4318      	orrs	r0, r3
 8002046:	e7d8      	b.n	8001ffa <__gedf2+0x6a>
 8002048:	45c4      	cmp	ip, r8
 800204a:	d8d3      	bhi.n	8001ff4 <__gedf2+0x64>
 800204c:	2000      	movs	r0, #0
 800204e:	45c4      	cmp	ip, r8
 8002050:	d3f6      	bcc.n	8002040 <__gedf2+0xb0>
 8002052:	e7d2      	b.n	8001ffa <__gedf2+0x6a>
 8002054:	000007ff 	.word	0x000007ff

08002058 <__ledf2>:
 8002058:	b5f0      	push	{r4, r5, r6, r7, lr}
 800205a:	464e      	mov	r6, r9
 800205c:	4645      	mov	r5, r8
 800205e:	46de      	mov	lr, fp
 8002060:	4657      	mov	r7, sl
 8002062:	005c      	lsls	r4, r3, #1
 8002064:	b5e0      	push	{r5, r6, r7, lr}
 8002066:	031f      	lsls	r7, r3, #12
 8002068:	0fdb      	lsrs	r3, r3, #31
 800206a:	4699      	mov	r9, r3
 800206c:	4b2a      	ldr	r3, [pc, #168]	; (8002118 <__ledf2+0xc0>)
 800206e:	030e      	lsls	r6, r1, #12
 8002070:	004d      	lsls	r5, r1, #1
 8002072:	0fc9      	lsrs	r1, r1, #31
 8002074:	4684      	mov	ip, r0
 8002076:	0b36      	lsrs	r6, r6, #12
 8002078:	0d6d      	lsrs	r5, r5, #21
 800207a:	468b      	mov	fp, r1
 800207c:	4690      	mov	r8, r2
 800207e:	0b3f      	lsrs	r7, r7, #12
 8002080:	0d64      	lsrs	r4, r4, #21
 8002082:	429d      	cmp	r5, r3
 8002084:	d020      	beq.n	80020c8 <__ledf2+0x70>
 8002086:	4b24      	ldr	r3, [pc, #144]	; (8002118 <__ledf2+0xc0>)
 8002088:	429c      	cmp	r4, r3
 800208a:	d022      	beq.n	80020d2 <__ledf2+0x7a>
 800208c:	2d00      	cmp	r5, #0
 800208e:	d112      	bne.n	80020b6 <__ledf2+0x5e>
 8002090:	4330      	orrs	r0, r6
 8002092:	4243      	negs	r3, r0
 8002094:	4143      	adcs	r3, r0
 8002096:	b2db      	uxtb	r3, r3
 8002098:	2c00      	cmp	r4, #0
 800209a:	d01f      	beq.n	80020dc <__ledf2+0x84>
 800209c:	2b00      	cmp	r3, #0
 800209e:	d00c      	beq.n	80020ba <__ledf2+0x62>
 80020a0:	464b      	mov	r3, r9
 80020a2:	2001      	movs	r0, #1
 80020a4:	3b01      	subs	r3, #1
 80020a6:	4303      	orrs	r3, r0
 80020a8:	0018      	movs	r0, r3
 80020aa:	bc3c      	pop	{r2, r3, r4, r5}
 80020ac:	4690      	mov	r8, r2
 80020ae:	4699      	mov	r9, r3
 80020b0:	46a2      	mov	sl, r4
 80020b2:	46ab      	mov	fp, r5
 80020b4:	bdf0      	pop	{r4, r5, r6, r7, pc}
 80020b6:	2c00      	cmp	r4, #0
 80020b8:	d016      	beq.n	80020e8 <__ledf2+0x90>
 80020ba:	45cb      	cmp	fp, r9
 80020bc:	d017      	beq.n	80020ee <__ledf2+0x96>
 80020be:	465b      	mov	r3, fp
 80020c0:	4259      	negs	r1, r3
 80020c2:	2301      	movs	r3, #1
 80020c4:	430b      	orrs	r3, r1
 80020c6:	e7ef      	b.n	80020a8 <__ledf2+0x50>
 80020c8:	0031      	movs	r1, r6
 80020ca:	2302      	movs	r3, #2
 80020cc:	4301      	orrs	r1, r0
 80020ce:	d1eb      	bne.n	80020a8 <__ledf2+0x50>
 80020d0:	e7d9      	b.n	8002086 <__ledf2+0x2e>
 80020d2:	0039      	movs	r1, r7
 80020d4:	2302      	movs	r3, #2
 80020d6:	4311      	orrs	r1, r2
 80020d8:	d1e6      	bne.n	80020a8 <__ledf2+0x50>
 80020da:	e7d7      	b.n	800208c <__ledf2+0x34>
 80020dc:	433a      	orrs	r2, r7
 80020de:	d1dd      	bne.n	800209c <__ledf2+0x44>
 80020e0:	2300      	movs	r3, #0
 80020e2:	2800      	cmp	r0, #0
 80020e4:	d0e0      	beq.n	80020a8 <__ledf2+0x50>
 80020e6:	e7ea      	b.n	80020be <__ledf2+0x66>
 80020e8:	433a      	orrs	r2, r7
 80020ea:	d1e6      	bne.n	80020ba <__ledf2+0x62>
 80020ec:	e7e7      	b.n	80020be <__ledf2+0x66>
 80020ee:	42a5      	cmp	r5, r4
 80020f0:	dce5      	bgt.n	80020be <__ledf2+0x66>
 80020f2:	db05      	blt.n	8002100 <__ledf2+0xa8>
 80020f4:	42be      	cmp	r6, r7
 80020f6:	d8e2      	bhi.n	80020be <__ledf2+0x66>
 80020f8:	d007      	beq.n	800210a <__ledf2+0xb2>
 80020fa:	2300      	movs	r3, #0
 80020fc:	42be      	cmp	r6, r7
 80020fe:	d2d3      	bcs.n	80020a8 <__ledf2+0x50>
 8002100:	4659      	mov	r1, fp
 8002102:	2301      	movs	r3, #1
 8002104:	3901      	subs	r1, #1
 8002106:	430b      	orrs	r3, r1
 8002108:	e7ce      	b.n	80020a8 <__ledf2+0x50>
 800210a:	45c4      	cmp	ip, r8
 800210c:	d8d7      	bhi.n	80020be <__ledf2+0x66>
 800210e:	2300      	movs	r3, #0
 8002110:	45c4      	cmp	ip, r8
 8002112:	d3f5      	bcc.n	8002100 <__ledf2+0xa8>
 8002114:	e7c8      	b.n	80020a8 <__ledf2+0x50>
 8002116:	46c0      	nop			; (mov r8, r8)
 8002118:	000007ff 	.word	0x000007ff

0800211c <__aeabi_dmul>:
 800211c:	b5f0      	push	{r4, r5, r6, r7, lr}
 800211e:	4657      	mov	r7, sl
 8002120:	4645      	mov	r5, r8
 8002122:	46de      	mov	lr, fp
 8002124:	464e      	mov	r6, r9
 8002126:	b5e0      	push	{r5, r6, r7, lr}
 8002128:	030c      	lsls	r4, r1, #12
 800212a:	4698      	mov	r8, r3
 800212c:	004e      	lsls	r6, r1, #1
 800212e:	0b23      	lsrs	r3, r4, #12
 8002130:	b087      	sub	sp, #28
 8002132:	0007      	movs	r7, r0
 8002134:	4692      	mov	sl, r2
 8002136:	469b      	mov	fp, r3
 8002138:	0d76      	lsrs	r6, r6, #21
 800213a:	0fcd      	lsrs	r5, r1, #31
 800213c:	2e00      	cmp	r6, #0
 800213e:	d06b      	beq.n	8002218 <__aeabi_dmul+0xfc>
 8002140:	4b6d      	ldr	r3, [pc, #436]	; (80022f8 <__aeabi_dmul+0x1dc>)
 8002142:	429e      	cmp	r6, r3
 8002144:	d035      	beq.n	80021b2 <__aeabi_dmul+0x96>
 8002146:	2480      	movs	r4, #128	; 0x80
 8002148:	465b      	mov	r3, fp
 800214a:	0f42      	lsrs	r2, r0, #29
 800214c:	0424      	lsls	r4, r4, #16
 800214e:	00db      	lsls	r3, r3, #3
 8002150:	4314      	orrs	r4, r2
 8002152:	431c      	orrs	r4, r3
 8002154:	00c3      	lsls	r3, r0, #3
 8002156:	4699      	mov	r9, r3
 8002158:	4b68      	ldr	r3, [pc, #416]	; (80022fc <__aeabi_dmul+0x1e0>)
 800215a:	46a3      	mov	fp, r4
 800215c:	469c      	mov	ip, r3
 800215e:	2300      	movs	r3, #0
 8002160:	2700      	movs	r7, #0
 8002162:	4466      	add	r6, ip
 8002164:	9302      	str	r3, [sp, #8]
 8002166:	4643      	mov	r3, r8
 8002168:	031c      	lsls	r4, r3, #12
 800216a:	005a      	lsls	r2, r3, #1
 800216c:	0fdb      	lsrs	r3, r3, #31
 800216e:	4650      	mov	r0, sl
 8002170:	0b24      	lsrs	r4, r4, #12
 8002172:	0d52      	lsrs	r2, r2, #21
 8002174:	4698      	mov	r8, r3
 8002176:	d100      	bne.n	800217a <__aeabi_dmul+0x5e>
 8002178:	e076      	b.n	8002268 <__aeabi_dmul+0x14c>
 800217a:	4b5f      	ldr	r3, [pc, #380]	; (80022f8 <__aeabi_dmul+0x1dc>)
 800217c:	429a      	cmp	r2, r3
 800217e:	d06d      	beq.n	800225c <__aeabi_dmul+0x140>
 8002180:	2380      	movs	r3, #128	; 0x80
 8002182:	0f41      	lsrs	r1, r0, #29
 8002184:	041b      	lsls	r3, r3, #16
 8002186:	430b      	orrs	r3, r1
 8002188:	495c      	ldr	r1, [pc, #368]	; (80022fc <__aeabi_dmul+0x1e0>)
 800218a:	00e4      	lsls	r4, r4, #3
 800218c:	468c      	mov	ip, r1
 800218e:	431c      	orrs	r4, r3
 8002190:	00c3      	lsls	r3, r0, #3
 8002192:	2000      	movs	r0, #0
 8002194:	4462      	add	r2, ip
 8002196:	4641      	mov	r1, r8
 8002198:	18b6      	adds	r6, r6, r2
 800219a:	4069      	eors	r1, r5
 800219c:	1c72      	adds	r2, r6, #1
 800219e:	9101      	str	r1, [sp, #4]
 80021a0:	4694      	mov	ip, r2
 80021a2:	4307      	orrs	r7, r0
 80021a4:	2f0f      	cmp	r7, #15
 80021a6:	d900      	bls.n	80021aa <__aeabi_dmul+0x8e>
 80021a8:	e0b0      	b.n	800230c <__aeabi_dmul+0x1f0>
 80021aa:	4a55      	ldr	r2, [pc, #340]	; (8002300 <__aeabi_dmul+0x1e4>)
 80021ac:	00bf      	lsls	r7, r7, #2
 80021ae:	59d2      	ldr	r2, [r2, r7]
 80021b0:	4697      	mov	pc, r2
 80021b2:	465b      	mov	r3, fp
 80021b4:	4303      	orrs	r3, r0
 80021b6:	4699      	mov	r9, r3
 80021b8:	d000      	beq.n	80021bc <__aeabi_dmul+0xa0>
 80021ba:	e087      	b.n	80022cc <__aeabi_dmul+0x1b0>
 80021bc:	2300      	movs	r3, #0
 80021be:	469b      	mov	fp, r3
 80021c0:	3302      	adds	r3, #2
 80021c2:	2708      	movs	r7, #8
 80021c4:	9302      	str	r3, [sp, #8]
 80021c6:	e7ce      	b.n	8002166 <__aeabi_dmul+0x4a>
 80021c8:	4642      	mov	r2, r8
 80021ca:	9201      	str	r2, [sp, #4]
 80021cc:	2802      	cmp	r0, #2
 80021ce:	d067      	beq.n	80022a0 <__aeabi_dmul+0x184>
 80021d0:	2803      	cmp	r0, #3
 80021d2:	d100      	bne.n	80021d6 <__aeabi_dmul+0xba>
 80021d4:	e20e      	b.n	80025f4 <__aeabi_dmul+0x4d8>
 80021d6:	2801      	cmp	r0, #1
 80021d8:	d000      	beq.n	80021dc <__aeabi_dmul+0xc0>
 80021da:	e162      	b.n	80024a2 <__aeabi_dmul+0x386>
 80021dc:	2300      	movs	r3, #0
 80021de:	2400      	movs	r4, #0
 80021e0:	2200      	movs	r2, #0
 80021e2:	4699      	mov	r9, r3
 80021e4:	9901      	ldr	r1, [sp, #4]
 80021e6:	4001      	ands	r1, r0
 80021e8:	b2cd      	uxtb	r5, r1
 80021ea:	2100      	movs	r1, #0
 80021ec:	0312      	lsls	r2, r2, #12
 80021ee:	0d0b      	lsrs	r3, r1, #20
 80021f0:	0b12      	lsrs	r2, r2, #12
 80021f2:	051b      	lsls	r3, r3, #20
 80021f4:	4313      	orrs	r3, r2
 80021f6:	4a43      	ldr	r2, [pc, #268]	; (8002304 <__aeabi_dmul+0x1e8>)
 80021f8:	0524      	lsls	r4, r4, #20
 80021fa:	4013      	ands	r3, r2
 80021fc:	431c      	orrs	r4, r3
 80021fe:	0064      	lsls	r4, r4, #1
 8002200:	07ed      	lsls	r5, r5, #31
 8002202:	0864      	lsrs	r4, r4, #1
 8002204:	432c      	orrs	r4, r5
 8002206:	4648      	mov	r0, r9
 8002208:	0021      	movs	r1, r4
 800220a:	b007      	add	sp, #28
 800220c:	bc3c      	pop	{r2, r3, r4, r5}
 800220e:	4690      	mov	r8, r2
 8002210:	4699      	mov	r9, r3
 8002212:	46a2      	mov	sl, r4
 8002214:	46ab      	mov	fp, r5
 8002216:	bdf0      	pop	{r4, r5, r6, r7, pc}
 8002218:	4303      	orrs	r3, r0
 800221a:	4699      	mov	r9, r3
 800221c:	d04f      	beq.n	80022be <__aeabi_dmul+0x1a2>
 800221e:	465b      	mov	r3, fp
 8002220:	2b00      	cmp	r3, #0
 8002222:	d100      	bne.n	8002226 <__aeabi_dmul+0x10a>
 8002224:	e189      	b.n	800253a <__aeabi_dmul+0x41e>
 8002226:	4658      	mov	r0, fp
 8002228:	f000 feb8 	bl	8002f9c <__clzsi2>
 800222c:	0003      	movs	r3, r0
 800222e:	3b0b      	subs	r3, #11
 8002230:	2b1c      	cmp	r3, #28
 8002232:	dd00      	ble.n	8002236 <__aeabi_dmul+0x11a>
 8002234:	e17a      	b.n	800252c <__aeabi_dmul+0x410>
 8002236:	221d      	movs	r2, #29
 8002238:	1ad3      	subs	r3, r2, r3
 800223a:	003a      	movs	r2, r7
 800223c:	0001      	movs	r1, r0
 800223e:	465c      	mov	r4, fp
 8002240:	40da      	lsrs	r2, r3
 8002242:	3908      	subs	r1, #8
 8002244:	408c      	lsls	r4, r1
 8002246:	0013      	movs	r3, r2
 8002248:	408f      	lsls	r7, r1
 800224a:	4323      	orrs	r3, r4
 800224c:	469b      	mov	fp, r3
 800224e:	46b9      	mov	r9, r7
 8002250:	2300      	movs	r3, #0
 8002252:	4e2d      	ldr	r6, [pc, #180]	; (8002308 <__aeabi_dmul+0x1ec>)
 8002254:	2700      	movs	r7, #0
 8002256:	1a36      	subs	r6, r6, r0
 8002258:	9302      	str	r3, [sp, #8]
 800225a:	e784      	b.n	8002166 <__aeabi_dmul+0x4a>
 800225c:	4653      	mov	r3, sl
 800225e:	4323      	orrs	r3, r4
 8002260:	d12a      	bne.n	80022b8 <__aeabi_dmul+0x19c>
 8002262:	2400      	movs	r4, #0
 8002264:	2002      	movs	r0, #2
 8002266:	e796      	b.n	8002196 <__aeabi_dmul+0x7a>
 8002268:	4653      	mov	r3, sl
 800226a:	4323      	orrs	r3, r4
 800226c:	d020      	beq.n	80022b0 <__aeabi_dmul+0x194>
 800226e:	2c00      	cmp	r4, #0
 8002270:	d100      	bne.n	8002274 <__aeabi_dmul+0x158>
 8002272:	e157      	b.n	8002524 <__aeabi_dmul+0x408>
 8002274:	0020      	movs	r0, r4
 8002276:	f000 fe91 	bl	8002f9c <__clzsi2>
 800227a:	0003      	movs	r3, r0
 800227c:	3b0b      	subs	r3, #11
 800227e:	2b1c      	cmp	r3, #28
 8002280:	dd00      	ble.n	8002284 <__aeabi_dmul+0x168>
 8002282:	e149      	b.n	8002518 <__aeabi_dmul+0x3fc>
 8002284:	211d      	movs	r1, #29
 8002286:	1acb      	subs	r3, r1, r3
 8002288:	4651      	mov	r1, sl
 800228a:	0002      	movs	r2, r0
 800228c:	40d9      	lsrs	r1, r3
 800228e:	4653      	mov	r3, sl
 8002290:	3a08      	subs	r2, #8
 8002292:	4094      	lsls	r4, r2
 8002294:	4093      	lsls	r3, r2
 8002296:	430c      	orrs	r4, r1
 8002298:	4a1b      	ldr	r2, [pc, #108]	; (8002308 <__aeabi_dmul+0x1ec>)
 800229a:	1a12      	subs	r2, r2, r0
 800229c:	2000      	movs	r0, #0
 800229e:	e77a      	b.n	8002196 <__aeabi_dmul+0x7a>
 80022a0:	2501      	movs	r5, #1
 80022a2:	9b01      	ldr	r3, [sp, #4]
 80022a4:	4c14      	ldr	r4, [pc, #80]	; (80022f8 <__aeabi_dmul+0x1dc>)
 80022a6:	401d      	ands	r5, r3
 80022a8:	2300      	movs	r3, #0
 80022aa:	2200      	movs	r2, #0
 80022ac:	4699      	mov	r9, r3
 80022ae:	e79c      	b.n	80021ea <__aeabi_dmul+0xce>
 80022b0:	2400      	movs	r4, #0
 80022b2:	2200      	movs	r2, #0
 80022b4:	2001      	movs	r0, #1
 80022b6:	e76e      	b.n	8002196 <__aeabi_dmul+0x7a>
 80022b8:	4653      	mov	r3, sl
 80022ba:	2003      	movs	r0, #3
 80022bc:	e76b      	b.n	8002196 <__aeabi_dmul+0x7a>
 80022be:	2300      	movs	r3, #0
 80022c0:	469b      	mov	fp, r3
 80022c2:	3301      	adds	r3, #1
 80022c4:	2704      	movs	r7, #4
 80022c6:	2600      	movs	r6, #0
 80022c8:	9302      	str	r3, [sp, #8]
 80022ca:	e74c      	b.n	8002166 <__aeabi_dmul+0x4a>
 80022cc:	2303      	movs	r3, #3
 80022ce:	4681      	mov	r9, r0
 80022d0:	270c      	movs	r7, #12
 80022d2:	9302      	str	r3, [sp, #8]
 80022d4:	e747      	b.n	8002166 <__aeabi_dmul+0x4a>
 80022d6:	2280      	movs	r2, #128	; 0x80
 80022d8:	2300      	movs	r3, #0
 80022da:	2500      	movs	r5, #0
 80022dc:	0312      	lsls	r2, r2, #12
 80022de:	4699      	mov	r9, r3
 80022e0:	4c05      	ldr	r4, [pc, #20]	; (80022f8 <__aeabi_dmul+0x1dc>)
 80022e2:	e782      	b.n	80021ea <__aeabi_dmul+0xce>
 80022e4:	465c      	mov	r4, fp
 80022e6:	464b      	mov	r3, r9
 80022e8:	9802      	ldr	r0, [sp, #8]
 80022ea:	e76f      	b.n	80021cc <__aeabi_dmul+0xb0>
 80022ec:	465c      	mov	r4, fp
 80022ee:	464b      	mov	r3, r9
 80022f0:	9501      	str	r5, [sp, #4]
 80022f2:	9802      	ldr	r0, [sp, #8]
 80022f4:	e76a      	b.n	80021cc <__aeabi_dmul+0xb0>
 80022f6:	46c0      	nop			; (mov r8, r8)
 80022f8:	000007ff 	.word	0x000007ff
 80022fc:	fffffc01 	.word	0xfffffc01
 8002300:	08015114 	.word	0x08015114
 8002304:	800fffff 	.word	0x800fffff
 8002308:	fffffc0d 	.word	0xfffffc0d
 800230c:	464a      	mov	r2, r9
 800230e:	4649      	mov	r1, r9
 8002310:	0c17      	lsrs	r7, r2, #16
 8002312:	0c1a      	lsrs	r2, r3, #16
 8002314:	041b      	lsls	r3, r3, #16
 8002316:	0c1b      	lsrs	r3, r3, #16
 8002318:	0408      	lsls	r0, r1, #16
 800231a:	0019      	movs	r1, r3
 800231c:	0c00      	lsrs	r0, r0, #16
 800231e:	4341      	muls	r1, r0
 8002320:	0015      	movs	r5, r2
 8002322:	4688      	mov	r8, r1
 8002324:	0019      	movs	r1, r3
 8002326:	437d      	muls	r5, r7
 8002328:	4379      	muls	r1, r7
 800232a:	9503      	str	r5, [sp, #12]
 800232c:	4689      	mov	r9, r1
 800232e:	0029      	movs	r1, r5
 8002330:	0015      	movs	r5, r2
 8002332:	4345      	muls	r5, r0
 8002334:	444d      	add	r5, r9
 8002336:	9502      	str	r5, [sp, #8]
 8002338:	4645      	mov	r5, r8
 800233a:	0c2d      	lsrs	r5, r5, #16
 800233c:	46aa      	mov	sl, r5
 800233e:	9d02      	ldr	r5, [sp, #8]
 8002340:	4455      	add	r5, sl
 8002342:	45a9      	cmp	r9, r5
 8002344:	d906      	bls.n	8002354 <__aeabi_dmul+0x238>
 8002346:	468a      	mov	sl, r1
 8002348:	2180      	movs	r1, #128	; 0x80
 800234a:	0249      	lsls	r1, r1, #9
 800234c:	4689      	mov	r9, r1
 800234e:	44ca      	add	sl, r9
 8002350:	4651      	mov	r1, sl
 8002352:	9103      	str	r1, [sp, #12]
 8002354:	0c29      	lsrs	r1, r5, #16
 8002356:	9104      	str	r1, [sp, #16]
 8002358:	4641      	mov	r1, r8
 800235a:	0409      	lsls	r1, r1, #16
 800235c:	042d      	lsls	r5, r5, #16
 800235e:	0c09      	lsrs	r1, r1, #16
 8002360:	4688      	mov	r8, r1
 8002362:	0029      	movs	r1, r5
 8002364:	0c25      	lsrs	r5, r4, #16
 8002366:	0424      	lsls	r4, r4, #16
 8002368:	4441      	add	r1, r8
 800236a:	0c24      	lsrs	r4, r4, #16
 800236c:	9105      	str	r1, [sp, #20]
 800236e:	0021      	movs	r1, r4
 8002370:	4341      	muls	r1, r0
 8002372:	4688      	mov	r8, r1
 8002374:	0021      	movs	r1, r4
 8002376:	4379      	muls	r1, r7
 8002378:	468a      	mov	sl, r1
 800237a:	4368      	muls	r0, r5
 800237c:	4641      	mov	r1, r8
 800237e:	4450      	add	r0, sl
 8002380:	4681      	mov	r9, r0
 8002382:	0c08      	lsrs	r0, r1, #16
 8002384:	4448      	add	r0, r9
 8002386:	436f      	muls	r7, r5
 8002388:	4582      	cmp	sl, r0
 800238a:	d903      	bls.n	8002394 <__aeabi_dmul+0x278>
 800238c:	2180      	movs	r1, #128	; 0x80
 800238e:	0249      	lsls	r1, r1, #9
 8002390:	4689      	mov	r9, r1
 8002392:	444f      	add	r7, r9
 8002394:	0c01      	lsrs	r1, r0, #16
 8002396:	4689      	mov	r9, r1
 8002398:	0039      	movs	r1, r7
 800239a:	4449      	add	r1, r9
 800239c:	9102      	str	r1, [sp, #8]
 800239e:	4641      	mov	r1, r8
 80023a0:	040f      	lsls	r7, r1, #16
 80023a2:	9904      	ldr	r1, [sp, #16]
 80023a4:	0c3f      	lsrs	r7, r7, #16
 80023a6:	4688      	mov	r8, r1
 80023a8:	0400      	lsls	r0, r0, #16
 80023aa:	19c0      	adds	r0, r0, r7
 80023ac:	4480      	add	r8, r0
 80023ae:	4641      	mov	r1, r8
 80023b0:	9104      	str	r1, [sp, #16]
 80023b2:	4659      	mov	r1, fp
 80023b4:	0c0f      	lsrs	r7, r1, #16
 80023b6:	0409      	lsls	r1, r1, #16
 80023b8:	0c09      	lsrs	r1, r1, #16
 80023ba:	4688      	mov	r8, r1
 80023bc:	4359      	muls	r1, r3
 80023be:	468a      	mov	sl, r1
 80023c0:	0039      	movs	r1, r7
 80023c2:	4351      	muls	r1, r2
 80023c4:	4689      	mov	r9, r1
 80023c6:	4641      	mov	r1, r8
 80023c8:	434a      	muls	r2, r1
 80023ca:	4651      	mov	r1, sl
 80023cc:	0c09      	lsrs	r1, r1, #16
 80023ce:	468b      	mov	fp, r1
 80023d0:	437b      	muls	r3, r7
 80023d2:	18d2      	adds	r2, r2, r3
 80023d4:	445a      	add	r2, fp
 80023d6:	4293      	cmp	r3, r2
 80023d8:	d903      	bls.n	80023e2 <__aeabi_dmul+0x2c6>
 80023da:	2380      	movs	r3, #128	; 0x80
 80023dc:	025b      	lsls	r3, r3, #9
 80023de:	469b      	mov	fp, r3
 80023e0:	44d9      	add	r9, fp
 80023e2:	4651      	mov	r1, sl
 80023e4:	0409      	lsls	r1, r1, #16
 80023e6:	0c09      	lsrs	r1, r1, #16
 80023e8:	468a      	mov	sl, r1
 80023ea:	4641      	mov	r1, r8
 80023ec:	4361      	muls	r1, r4
 80023ee:	437c      	muls	r4, r7
 80023f0:	0c13      	lsrs	r3, r2, #16
 80023f2:	0412      	lsls	r2, r2, #16
 80023f4:	444b      	add	r3, r9
 80023f6:	4452      	add	r2, sl
 80023f8:	46a1      	mov	r9, r4
 80023fa:	468a      	mov	sl, r1
 80023fc:	003c      	movs	r4, r7
 80023fe:	4641      	mov	r1, r8
 8002400:	436c      	muls	r4, r5
 8002402:	434d      	muls	r5, r1
 8002404:	4651      	mov	r1, sl
 8002406:	444d      	add	r5, r9
 8002408:	0c0f      	lsrs	r7, r1, #16
 800240a:	197d      	adds	r5, r7, r5
 800240c:	45a9      	cmp	r9, r5
 800240e:	d903      	bls.n	8002418 <__aeabi_dmul+0x2fc>
 8002410:	2180      	movs	r1, #128	; 0x80
 8002412:	0249      	lsls	r1, r1, #9
 8002414:	4688      	mov	r8, r1
 8002416:	4444      	add	r4, r8
 8002418:	9f04      	ldr	r7, [sp, #16]
 800241a:	9903      	ldr	r1, [sp, #12]
 800241c:	46b8      	mov	r8, r7
 800241e:	4441      	add	r1, r8
 8002420:	468b      	mov	fp, r1
 8002422:	4583      	cmp	fp, r0
 8002424:	4180      	sbcs	r0, r0
 8002426:	4241      	negs	r1, r0
 8002428:	4688      	mov	r8, r1
 800242a:	4651      	mov	r1, sl
 800242c:	0408      	lsls	r0, r1, #16
 800242e:	042f      	lsls	r7, r5, #16
 8002430:	0c00      	lsrs	r0, r0, #16
 8002432:	183f      	adds	r7, r7, r0
 8002434:	4658      	mov	r0, fp
 8002436:	9902      	ldr	r1, [sp, #8]
 8002438:	1810      	adds	r0, r2, r0
 800243a:	4689      	mov	r9, r1
 800243c:	4290      	cmp	r0, r2
 800243e:	4192      	sbcs	r2, r2
 8002440:	444f      	add	r7, r9
 8002442:	46ba      	mov	sl, r7
 8002444:	4252      	negs	r2, r2
 8002446:	4699      	mov	r9, r3
 8002448:	4693      	mov	fp, r2
 800244a:	44c2      	add	sl, r8
 800244c:	44d1      	add	r9, sl
 800244e:	44cb      	add	fp, r9
 8002450:	428f      	cmp	r7, r1
 8002452:	41bf      	sbcs	r7, r7
 8002454:	45c2      	cmp	sl, r8
 8002456:	4189      	sbcs	r1, r1
 8002458:	4599      	cmp	r9, r3
 800245a:	419b      	sbcs	r3, r3
 800245c:	4593      	cmp	fp, r2
 800245e:	4192      	sbcs	r2, r2
 8002460:	427f      	negs	r7, r7
 8002462:	4249      	negs	r1, r1
 8002464:	0c2d      	lsrs	r5, r5, #16
 8002466:	4252      	negs	r2, r2
 8002468:	430f      	orrs	r7, r1
 800246a:	425b      	negs	r3, r3
 800246c:	4313      	orrs	r3, r2
 800246e:	197f      	adds	r7, r7, r5
 8002470:	18ff      	adds	r7, r7, r3
 8002472:	465b      	mov	r3, fp
 8002474:	193c      	adds	r4, r7, r4
 8002476:	0ddb      	lsrs	r3, r3, #23
 8002478:	9a05      	ldr	r2, [sp, #20]
 800247a:	0264      	lsls	r4, r4, #9
 800247c:	431c      	orrs	r4, r3
 800247e:	0243      	lsls	r3, r0, #9
 8002480:	4313      	orrs	r3, r2
 8002482:	1e5d      	subs	r5, r3, #1
 8002484:	41ab      	sbcs	r3, r5
 8002486:	465a      	mov	r2, fp
 8002488:	0dc0      	lsrs	r0, r0, #23
 800248a:	4303      	orrs	r3, r0
 800248c:	0252      	lsls	r2, r2, #9
 800248e:	4313      	orrs	r3, r2
 8002490:	01e2      	lsls	r2, r4, #7
 8002492:	d556      	bpl.n	8002542 <__aeabi_dmul+0x426>
 8002494:	2001      	movs	r0, #1
 8002496:	085a      	lsrs	r2, r3, #1
 8002498:	4003      	ands	r3, r0
 800249a:	4313      	orrs	r3, r2
 800249c:	07e2      	lsls	r2, r4, #31
 800249e:	4313      	orrs	r3, r2
 80024a0:	0864      	lsrs	r4, r4, #1
 80024a2:	485a      	ldr	r0, [pc, #360]	; (800260c <__aeabi_dmul+0x4f0>)
 80024a4:	4460      	add	r0, ip
 80024a6:	2800      	cmp	r0, #0
 80024a8:	dd4d      	ble.n	8002546 <__aeabi_dmul+0x42a>
 80024aa:	075a      	lsls	r2, r3, #29
 80024ac:	d009      	beq.n	80024c2 <__aeabi_dmul+0x3a6>
 80024ae:	220f      	movs	r2, #15
 80024b0:	401a      	ands	r2, r3
 80024b2:	2a04      	cmp	r2, #4
 80024b4:	d005      	beq.n	80024c2 <__aeabi_dmul+0x3a6>
 80024b6:	1d1a      	adds	r2, r3, #4
 80024b8:	429a      	cmp	r2, r3
 80024ba:	419b      	sbcs	r3, r3
 80024bc:	425b      	negs	r3, r3
 80024be:	18e4      	adds	r4, r4, r3
 80024c0:	0013      	movs	r3, r2
 80024c2:	01e2      	lsls	r2, r4, #7
 80024c4:	d504      	bpl.n	80024d0 <__aeabi_dmul+0x3b4>
 80024c6:	2080      	movs	r0, #128	; 0x80
 80024c8:	4a51      	ldr	r2, [pc, #324]	; (8002610 <__aeabi_dmul+0x4f4>)
 80024ca:	00c0      	lsls	r0, r0, #3
 80024cc:	4014      	ands	r4, r2
 80024ce:	4460      	add	r0, ip
 80024d0:	4a50      	ldr	r2, [pc, #320]	; (8002614 <__aeabi_dmul+0x4f8>)
 80024d2:	4290      	cmp	r0, r2
 80024d4:	dd00      	ble.n	80024d8 <__aeabi_dmul+0x3bc>
 80024d6:	e6e3      	b.n	80022a0 <__aeabi_dmul+0x184>
 80024d8:	2501      	movs	r5, #1
 80024da:	08db      	lsrs	r3, r3, #3
 80024dc:	0762      	lsls	r2, r4, #29
 80024de:	431a      	orrs	r2, r3
 80024e0:	0264      	lsls	r4, r4, #9
 80024e2:	9b01      	ldr	r3, [sp, #4]
 80024e4:	4691      	mov	r9, r2
 80024e6:	0b22      	lsrs	r2, r4, #12
 80024e8:	0544      	lsls	r4, r0, #21
 80024ea:	0d64      	lsrs	r4, r4, #21
 80024ec:	401d      	ands	r5, r3
 80024ee:	e67c      	b.n	80021ea <__aeabi_dmul+0xce>
 80024f0:	2280      	movs	r2, #128	; 0x80
 80024f2:	4659      	mov	r1, fp
 80024f4:	0312      	lsls	r2, r2, #12
 80024f6:	4211      	tst	r1, r2
 80024f8:	d008      	beq.n	800250c <__aeabi_dmul+0x3f0>
 80024fa:	4214      	tst	r4, r2
 80024fc:	d106      	bne.n	800250c <__aeabi_dmul+0x3f0>
 80024fe:	4322      	orrs	r2, r4
 8002500:	0312      	lsls	r2, r2, #12
 8002502:	0b12      	lsrs	r2, r2, #12
 8002504:	4645      	mov	r5, r8
 8002506:	4699      	mov	r9, r3
 8002508:	4c43      	ldr	r4, [pc, #268]	; (8002618 <__aeabi_dmul+0x4fc>)
 800250a:	e66e      	b.n	80021ea <__aeabi_dmul+0xce>
 800250c:	465b      	mov	r3, fp
 800250e:	431a      	orrs	r2, r3
 8002510:	0312      	lsls	r2, r2, #12
 8002512:	0b12      	lsrs	r2, r2, #12
 8002514:	4c40      	ldr	r4, [pc, #256]	; (8002618 <__aeabi_dmul+0x4fc>)
 8002516:	e668      	b.n	80021ea <__aeabi_dmul+0xce>
 8002518:	0003      	movs	r3, r0
 800251a:	4654      	mov	r4, sl
 800251c:	3b28      	subs	r3, #40	; 0x28
 800251e:	409c      	lsls	r4, r3
 8002520:	2300      	movs	r3, #0
 8002522:	e6b9      	b.n	8002298 <__aeabi_dmul+0x17c>
 8002524:	f000 fd3a 	bl	8002f9c <__clzsi2>
 8002528:	3020      	adds	r0, #32
 800252a:	e6a6      	b.n	800227a <__aeabi_dmul+0x15e>
 800252c:	0003      	movs	r3, r0
 800252e:	3b28      	subs	r3, #40	; 0x28
 8002530:	409f      	lsls	r7, r3
 8002532:	2300      	movs	r3, #0
 8002534:	46bb      	mov	fp, r7
 8002536:	4699      	mov	r9, r3
 8002538:	e68a      	b.n	8002250 <__aeabi_dmul+0x134>
 800253a:	f000 fd2f 	bl	8002f9c <__clzsi2>
 800253e:	3020      	adds	r0, #32
 8002540:	e674      	b.n	800222c <__aeabi_dmul+0x110>
 8002542:	46b4      	mov	ip, r6
 8002544:	e7ad      	b.n	80024a2 <__aeabi_dmul+0x386>
 8002546:	2501      	movs	r5, #1
 8002548:	1a2a      	subs	r2, r5, r0
 800254a:	2a38      	cmp	r2, #56	; 0x38
 800254c:	dd06      	ble.n	800255c <__aeabi_dmul+0x440>
 800254e:	9b01      	ldr	r3, [sp, #4]
 8002550:	2400      	movs	r4, #0
 8002552:	401d      	ands	r5, r3
 8002554:	2300      	movs	r3, #0
 8002556:	2200      	movs	r2, #0
 8002558:	4699      	mov	r9, r3
 800255a:	e646      	b.n	80021ea <__aeabi_dmul+0xce>
 800255c:	2a1f      	cmp	r2, #31
 800255e:	dc21      	bgt.n	80025a4 <__aeabi_dmul+0x488>
 8002560:	2520      	movs	r5, #32
 8002562:	0020      	movs	r0, r4
 8002564:	1aad      	subs	r5, r5, r2
 8002566:	001e      	movs	r6, r3
 8002568:	40ab      	lsls	r3, r5
 800256a:	40a8      	lsls	r0, r5
 800256c:	40d6      	lsrs	r6, r2
 800256e:	1e5d      	subs	r5, r3, #1
 8002570:	41ab      	sbcs	r3, r5
 8002572:	4330      	orrs	r0, r6
 8002574:	4318      	orrs	r0, r3
 8002576:	40d4      	lsrs	r4, r2
 8002578:	0743      	lsls	r3, r0, #29
 800257a:	d009      	beq.n	8002590 <__aeabi_dmul+0x474>
 800257c:	230f      	movs	r3, #15
 800257e:	4003      	ands	r3, r0
 8002580:	2b04      	cmp	r3, #4
 8002582:	d005      	beq.n	8002590 <__aeabi_dmul+0x474>
 8002584:	0003      	movs	r3, r0
 8002586:	1d18      	adds	r0, r3, #4
 8002588:	4298      	cmp	r0, r3
 800258a:	419b      	sbcs	r3, r3
 800258c:	425b      	negs	r3, r3
 800258e:	18e4      	adds	r4, r4, r3
 8002590:	0223      	lsls	r3, r4, #8
 8002592:	d521      	bpl.n	80025d8 <__aeabi_dmul+0x4bc>
 8002594:	2501      	movs	r5, #1
 8002596:	9b01      	ldr	r3, [sp, #4]
 8002598:	2401      	movs	r4, #1
 800259a:	401d      	ands	r5, r3
 800259c:	2300      	movs	r3, #0
 800259e:	2200      	movs	r2, #0
 80025a0:	4699      	mov	r9, r3
 80025a2:	e622      	b.n	80021ea <__aeabi_dmul+0xce>
 80025a4:	251f      	movs	r5, #31
 80025a6:	0021      	movs	r1, r4
 80025a8:	426d      	negs	r5, r5
 80025aa:	1a28      	subs	r0, r5, r0
 80025ac:	40c1      	lsrs	r1, r0
 80025ae:	0008      	movs	r0, r1
 80025b0:	2a20      	cmp	r2, #32
 80025b2:	d01d      	beq.n	80025f0 <__aeabi_dmul+0x4d4>
 80025b4:	355f      	adds	r5, #95	; 0x5f
 80025b6:	1aaa      	subs	r2, r5, r2
 80025b8:	4094      	lsls	r4, r2
 80025ba:	4323      	orrs	r3, r4
 80025bc:	1e5c      	subs	r4, r3, #1
 80025be:	41a3      	sbcs	r3, r4
 80025c0:	2507      	movs	r5, #7
 80025c2:	4303      	orrs	r3, r0
 80025c4:	401d      	ands	r5, r3
 80025c6:	2200      	movs	r2, #0
 80025c8:	2d00      	cmp	r5, #0
 80025ca:	d009      	beq.n	80025e0 <__aeabi_dmul+0x4c4>
 80025cc:	220f      	movs	r2, #15
 80025ce:	2400      	movs	r4, #0
 80025d0:	401a      	ands	r2, r3
 80025d2:	0018      	movs	r0, r3
 80025d4:	2a04      	cmp	r2, #4
 80025d6:	d1d6      	bne.n	8002586 <__aeabi_dmul+0x46a>
 80025d8:	0003      	movs	r3, r0
 80025da:	0765      	lsls	r5, r4, #29
 80025dc:	0264      	lsls	r4, r4, #9
 80025de:	0b22      	lsrs	r2, r4, #12
 80025e0:	08db      	lsrs	r3, r3, #3
 80025e2:	432b      	orrs	r3, r5
 80025e4:	2501      	movs	r5, #1
 80025e6:	4699      	mov	r9, r3
 80025e8:	9b01      	ldr	r3, [sp, #4]
 80025ea:	2400      	movs	r4, #0
 80025ec:	401d      	ands	r5, r3
 80025ee:	e5fc      	b.n	80021ea <__aeabi_dmul+0xce>
 80025f0:	2400      	movs	r4, #0
 80025f2:	e7e2      	b.n	80025ba <__aeabi_dmul+0x49e>
 80025f4:	2280      	movs	r2, #128	; 0x80
 80025f6:	2501      	movs	r5, #1
 80025f8:	0312      	lsls	r2, r2, #12
 80025fa:	4322      	orrs	r2, r4
 80025fc:	9901      	ldr	r1, [sp, #4]
 80025fe:	0312      	lsls	r2, r2, #12
 8002600:	0b12      	lsrs	r2, r2, #12
 8002602:	400d      	ands	r5, r1
 8002604:	4699      	mov	r9, r3
 8002606:	4c04      	ldr	r4, [pc, #16]	; (8002618 <__aeabi_dmul+0x4fc>)
 8002608:	e5ef      	b.n	80021ea <__aeabi_dmul+0xce>
 800260a:	46c0      	nop			; (mov r8, r8)
 800260c:	000003ff 	.word	0x000003ff
 8002610:	feffffff 	.word	0xfeffffff
 8002614:	000007fe 	.word	0x000007fe
 8002618:	000007ff 	.word	0x000007ff

0800261c <__aeabi_dsub>:
 800261c:	b5f0      	push	{r4, r5, r6, r7, lr}
 800261e:	4646      	mov	r6, r8
 8002620:	46d6      	mov	lr, sl
 8002622:	464f      	mov	r7, r9
 8002624:	030c      	lsls	r4, r1, #12
 8002626:	b5c0      	push	{r6, r7, lr}
 8002628:	0fcd      	lsrs	r5, r1, #31
 800262a:	004e      	lsls	r6, r1, #1
 800262c:	0a61      	lsrs	r1, r4, #9
 800262e:	0f44      	lsrs	r4, r0, #29
 8002630:	430c      	orrs	r4, r1
 8002632:	00c1      	lsls	r1, r0, #3
 8002634:	0058      	lsls	r0, r3, #1
 8002636:	0d40      	lsrs	r0, r0, #21
 8002638:	4684      	mov	ip, r0
 800263a:	468a      	mov	sl, r1
 800263c:	000f      	movs	r7, r1
 800263e:	0319      	lsls	r1, r3, #12
 8002640:	0f50      	lsrs	r0, r2, #29
 8002642:	0a49      	lsrs	r1, r1, #9
 8002644:	4301      	orrs	r1, r0
 8002646:	48c6      	ldr	r0, [pc, #792]	; (8002960 <__aeabi_dsub+0x344>)
 8002648:	0d76      	lsrs	r6, r6, #21
 800264a:	46a8      	mov	r8, r5
 800264c:	0fdb      	lsrs	r3, r3, #31
 800264e:	00d2      	lsls	r2, r2, #3
 8002650:	4584      	cmp	ip, r0
 8002652:	d100      	bne.n	8002656 <__aeabi_dsub+0x3a>
 8002654:	e0d8      	b.n	8002808 <__aeabi_dsub+0x1ec>
 8002656:	2001      	movs	r0, #1
 8002658:	4043      	eors	r3, r0
 800265a:	42ab      	cmp	r3, r5
 800265c:	d100      	bne.n	8002660 <__aeabi_dsub+0x44>
 800265e:	e0a6      	b.n	80027ae <__aeabi_dsub+0x192>
 8002660:	4660      	mov	r0, ip
 8002662:	1a35      	subs	r5, r6, r0
 8002664:	2d00      	cmp	r5, #0
 8002666:	dc00      	bgt.n	800266a <__aeabi_dsub+0x4e>
 8002668:	e105      	b.n	8002876 <__aeabi_dsub+0x25a>
 800266a:	2800      	cmp	r0, #0
 800266c:	d110      	bne.n	8002690 <__aeabi_dsub+0x74>
 800266e:	000b      	movs	r3, r1
 8002670:	4313      	orrs	r3, r2
 8002672:	d100      	bne.n	8002676 <__aeabi_dsub+0x5a>
 8002674:	e0d7      	b.n	8002826 <__aeabi_dsub+0x20a>
 8002676:	1e6b      	subs	r3, r5, #1
 8002678:	2b00      	cmp	r3, #0
 800267a:	d000      	beq.n	800267e <__aeabi_dsub+0x62>
 800267c:	e14b      	b.n	8002916 <__aeabi_dsub+0x2fa>
 800267e:	4653      	mov	r3, sl
 8002680:	1a9f      	subs	r7, r3, r2
 8002682:	45ba      	cmp	sl, r7
 8002684:	4180      	sbcs	r0, r0
 8002686:	1a64      	subs	r4, r4, r1
 8002688:	4240      	negs	r0, r0
 800268a:	1a24      	subs	r4, r4, r0
 800268c:	2601      	movs	r6, #1
 800268e:	e01e      	b.n	80026ce <__aeabi_dsub+0xb2>
 8002690:	4bb3      	ldr	r3, [pc, #716]	; (8002960 <__aeabi_dsub+0x344>)
 8002692:	429e      	cmp	r6, r3
 8002694:	d048      	beq.n	8002728 <__aeabi_dsub+0x10c>
 8002696:	2380      	movs	r3, #128	; 0x80
 8002698:	041b      	lsls	r3, r3, #16
 800269a:	4319      	orrs	r1, r3
 800269c:	2d38      	cmp	r5, #56	; 0x38
 800269e:	dd00      	ble.n	80026a2 <__aeabi_dsub+0x86>
 80026a0:	e119      	b.n	80028d6 <__aeabi_dsub+0x2ba>
 80026a2:	2d1f      	cmp	r5, #31
 80026a4:	dd00      	ble.n	80026a8 <__aeabi_dsub+0x8c>
 80026a6:	e14c      	b.n	8002942 <__aeabi_dsub+0x326>
 80026a8:	2320      	movs	r3, #32
 80026aa:	000f      	movs	r7, r1
 80026ac:	1b5b      	subs	r3, r3, r5
 80026ae:	0010      	movs	r0, r2
 80026b0:	409a      	lsls	r2, r3
 80026b2:	409f      	lsls	r7, r3
 80026b4:	40e8      	lsrs	r0, r5
 80026b6:	1e53      	subs	r3, r2, #1
 80026b8:	419a      	sbcs	r2, r3
 80026ba:	40e9      	lsrs	r1, r5
 80026bc:	4307      	orrs	r7, r0
 80026be:	4317      	orrs	r7, r2
 80026c0:	4653      	mov	r3, sl
 80026c2:	1bdf      	subs	r7, r3, r7
 80026c4:	1a61      	subs	r1, r4, r1
 80026c6:	45ba      	cmp	sl, r7
 80026c8:	41a4      	sbcs	r4, r4
 80026ca:	4264      	negs	r4, r4
 80026cc:	1b0c      	subs	r4, r1, r4
 80026ce:	0223      	lsls	r3, r4, #8
 80026d0:	d400      	bmi.n	80026d4 <__aeabi_dsub+0xb8>
 80026d2:	e0c5      	b.n	8002860 <__aeabi_dsub+0x244>
 80026d4:	0264      	lsls	r4, r4, #9
 80026d6:	0a65      	lsrs	r5, r4, #9
 80026d8:	2d00      	cmp	r5, #0
 80026da:	d100      	bne.n	80026de <__aeabi_dsub+0xc2>
 80026dc:	e0f6      	b.n	80028cc <__aeabi_dsub+0x2b0>
 80026de:	0028      	movs	r0, r5
 80026e0:	f000 fc5c 	bl	8002f9c <__clzsi2>
 80026e4:	0003      	movs	r3, r0
 80026e6:	3b08      	subs	r3, #8
 80026e8:	2b1f      	cmp	r3, #31
 80026ea:	dd00      	ble.n	80026ee <__aeabi_dsub+0xd2>
 80026ec:	e0e9      	b.n	80028c2 <__aeabi_dsub+0x2a6>
 80026ee:	2220      	movs	r2, #32
 80026f0:	003c      	movs	r4, r7
 80026f2:	1ad2      	subs	r2, r2, r3
 80026f4:	409d      	lsls	r5, r3
 80026f6:	40d4      	lsrs	r4, r2
 80026f8:	409f      	lsls	r7, r3
 80026fa:	4325      	orrs	r5, r4
 80026fc:	429e      	cmp	r6, r3
 80026fe:	dd00      	ble.n	8002702 <__aeabi_dsub+0xe6>
 8002700:	e0db      	b.n	80028ba <__aeabi_dsub+0x29e>
 8002702:	1b9e      	subs	r6, r3, r6
 8002704:	1c73      	adds	r3, r6, #1
 8002706:	2b1f      	cmp	r3, #31
 8002708:	dd00      	ble.n	800270c <__aeabi_dsub+0xf0>
 800270a:	e10a      	b.n	8002922 <__aeabi_dsub+0x306>
 800270c:	2220      	movs	r2, #32
 800270e:	0038      	movs	r0, r7
 8002710:	1ad2      	subs	r2, r2, r3
 8002712:	0029      	movs	r1, r5
 8002714:	4097      	lsls	r7, r2
 8002716:	002c      	movs	r4, r5
 8002718:	4091      	lsls	r1, r2
 800271a:	40d8      	lsrs	r0, r3
 800271c:	1e7a      	subs	r2, r7, #1
 800271e:	4197      	sbcs	r7, r2
 8002720:	40dc      	lsrs	r4, r3
 8002722:	2600      	movs	r6, #0
 8002724:	4301      	orrs	r1, r0
 8002726:	430f      	orrs	r7, r1
 8002728:	077b      	lsls	r3, r7, #29
 800272a:	d009      	beq.n	8002740 <__aeabi_dsub+0x124>
 800272c:	230f      	movs	r3, #15
 800272e:	403b      	ands	r3, r7
 8002730:	2b04      	cmp	r3, #4
 8002732:	d005      	beq.n	8002740 <__aeabi_dsub+0x124>
 8002734:	1d3b      	adds	r3, r7, #4
 8002736:	42bb      	cmp	r3, r7
 8002738:	41bf      	sbcs	r7, r7
 800273a:	427f      	negs	r7, r7
 800273c:	19e4      	adds	r4, r4, r7
 800273e:	001f      	movs	r7, r3
 8002740:	0223      	lsls	r3, r4, #8
 8002742:	d525      	bpl.n	8002790 <__aeabi_dsub+0x174>
 8002744:	4b86      	ldr	r3, [pc, #536]	; (8002960 <__aeabi_dsub+0x344>)
 8002746:	3601      	adds	r6, #1
 8002748:	429e      	cmp	r6, r3
 800274a:	d100      	bne.n	800274e <__aeabi_dsub+0x132>
 800274c:	e0af      	b.n	80028ae <__aeabi_dsub+0x292>
 800274e:	4b85      	ldr	r3, [pc, #532]	; (8002964 <__aeabi_dsub+0x348>)
 8002750:	2501      	movs	r5, #1
 8002752:	401c      	ands	r4, r3
 8002754:	4643      	mov	r3, r8
 8002756:	0762      	lsls	r2, r4, #29
 8002758:	08ff      	lsrs	r7, r7, #3
 800275a:	0264      	lsls	r4, r4, #9
 800275c:	0576      	lsls	r6, r6, #21
 800275e:	4317      	orrs	r7, r2
 8002760:	0b24      	lsrs	r4, r4, #12
 8002762:	0d76      	lsrs	r6, r6, #21
 8002764:	401d      	ands	r5, r3
 8002766:	2100      	movs	r1, #0
 8002768:	0324      	lsls	r4, r4, #12
 800276a:	0b23      	lsrs	r3, r4, #12
 800276c:	0d0c      	lsrs	r4, r1, #20
 800276e:	4a7e      	ldr	r2, [pc, #504]	; (8002968 <__aeabi_dsub+0x34c>)
 8002770:	0524      	lsls	r4, r4, #20
 8002772:	431c      	orrs	r4, r3
 8002774:	4014      	ands	r4, r2
 8002776:	0533      	lsls	r3, r6, #20
 8002778:	4323      	orrs	r3, r4
 800277a:	005b      	lsls	r3, r3, #1
 800277c:	07ed      	lsls	r5, r5, #31
 800277e:	085b      	lsrs	r3, r3, #1
 8002780:	432b      	orrs	r3, r5
 8002782:	0038      	movs	r0, r7
 8002784:	0019      	movs	r1, r3
 8002786:	bc1c      	pop	{r2, r3, r4}
 8002788:	4690      	mov	r8, r2
 800278a:	4699      	mov	r9, r3
 800278c:	46a2      	mov	sl, r4
 800278e:	bdf0      	pop	{r4, r5, r6, r7, pc}
 8002790:	2501      	movs	r5, #1
 8002792:	4643      	mov	r3, r8
 8002794:	0762      	lsls	r2, r4, #29
 8002796:	08ff      	lsrs	r7, r7, #3
 8002798:	4317      	orrs	r7, r2
 800279a:	08e4      	lsrs	r4, r4, #3
 800279c:	401d      	ands	r5, r3
 800279e:	4b70      	ldr	r3, [pc, #448]	; (8002960 <__aeabi_dsub+0x344>)
 80027a0:	429e      	cmp	r6, r3
 80027a2:	d036      	beq.n	8002812 <__aeabi_dsub+0x1f6>
 80027a4:	0324      	lsls	r4, r4, #12
 80027a6:	0576      	lsls	r6, r6, #21
 80027a8:	0b24      	lsrs	r4, r4, #12
 80027aa:	0d76      	lsrs	r6, r6, #21
 80027ac:	e7db      	b.n	8002766 <__aeabi_dsub+0x14a>
 80027ae:	4663      	mov	r3, ip
 80027b0:	1af3      	subs	r3, r6, r3
 80027b2:	2b00      	cmp	r3, #0
 80027b4:	dc00      	bgt.n	80027b8 <__aeabi_dsub+0x19c>
 80027b6:	e094      	b.n	80028e2 <__aeabi_dsub+0x2c6>
 80027b8:	4660      	mov	r0, ip
 80027ba:	2800      	cmp	r0, #0
 80027bc:	d035      	beq.n	800282a <__aeabi_dsub+0x20e>
 80027be:	4868      	ldr	r0, [pc, #416]	; (8002960 <__aeabi_dsub+0x344>)
 80027c0:	4286      	cmp	r6, r0
 80027c2:	d0b1      	beq.n	8002728 <__aeabi_dsub+0x10c>
 80027c4:	2780      	movs	r7, #128	; 0x80
 80027c6:	043f      	lsls	r7, r7, #16
 80027c8:	4339      	orrs	r1, r7
 80027ca:	2b38      	cmp	r3, #56	; 0x38
 80027cc:	dc00      	bgt.n	80027d0 <__aeabi_dsub+0x1b4>
 80027ce:	e0fd      	b.n	80029cc <__aeabi_dsub+0x3b0>
 80027d0:	430a      	orrs	r2, r1
 80027d2:	0017      	movs	r7, r2
 80027d4:	2100      	movs	r1, #0
 80027d6:	1e7a      	subs	r2, r7, #1
 80027d8:	4197      	sbcs	r7, r2
 80027da:	4457      	add	r7, sl
 80027dc:	4557      	cmp	r7, sl
 80027de:	4180      	sbcs	r0, r0
 80027e0:	1909      	adds	r1, r1, r4
 80027e2:	4244      	negs	r4, r0
 80027e4:	190c      	adds	r4, r1, r4
 80027e6:	0223      	lsls	r3, r4, #8
 80027e8:	d53a      	bpl.n	8002860 <__aeabi_dsub+0x244>
 80027ea:	4b5d      	ldr	r3, [pc, #372]	; (8002960 <__aeabi_dsub+0x344>)
 80027ec:	3601      	adds	r6, #1
 80027ee:	429e      	cmp	r6, r3
 80027f0:	d100      	bne.n	80027f4 <__aeabi_dsub+0x1d8>
 80027f2:	e14b      	b.n	8002a8c <__aeabi_dsub+0x470>
 80027f4:	2201      	movs	r2, #1
 80027f6:	4b5b      	ldr	r3, [pc, #364]	; (8002964 <__aeabi_dsub+0x348>)
 80027f8:	401c      	ands	r4, r3
 80027fa:	087b      	lsrs	r3, r7, #1
 80027fc:	4017      	ands	r7, r2
 80027fe:	431f      	orrs	r7, r3
 8002800:	07e2      	lsls	r2, r4, #31
 8002802:	4317      	orrs	r7, r2
 8002804:	0864      	lsrs	r4, r4, #1
 8002806:	e78f      	b.n	8002728 <__aeabi_dsub+0x10c>
 8002808:	0008      	movs	r0, r1
 800280a:	4310      	orrs	r0, r2
 800280c:	d000      	beq.n	8002810 <__aeabi_dsub+0x1f4>
 800280e:	e724      	b.n	800265a <__aeabi_dsub+0x3e>
 8002810:	e721      	b.n	8002656 <__aeabi_dsub+0x3a>
 8002812:	0023      	movs	r3, r4
 8002814:	433b      	orrs	r3, r7
 8002816:	d100      	bne.n	800281a <__aeabi_dsub+0x1fe>
 8002818:	e1b9      	b.n	8002b8e <__aeabi_dsub+0x572>
 800281a:	2280      	movs	r2, #128	; 0x80
 800281c:	0312      	lsls	r2, r2, #12
 800281e:	4314      	orrs	r4, r2
 8002820:	0324      	lsls	r4, r4, #12
 8002822:	0b24      	lsrs	r4, r4, #12
 8002824:	e79f      	b.n	8002766 <__aeabi_dsub+0x14a>
 8002826:	002e      	movs	r6, r5
 8002828:	e77e      	b.n	8002728 <__aeabi_dsub+0x10c>
 800282a:	0008      	movs	r0, r1
 800282c:	4310      	orrs	r0, r2
 800282e:	d100      	bne.n	8002832 <__aeabi_dsub+0x216>
 8002830:	e0ca      	b.n	80029c8 <__aeabi_dsub+0x3ac>
 8002832:	1e58      	subs	r0, r3, #1
 8002834:	4684      	mov	ip, r0
 8002836:	2800      	cmp	r0, #0
 8002838:	d000      	beq.n	800283c <__aeabi_dsub+0x220>
 800283a:	e0e7      	b.n	8002a0c <__aeabi_dsub+0x3f0>
 800283c:	4452      	add	r2, sl
 800283e:	4552      	cmp	r2, sl
 8002840:	4180      	sbcs	r0, r0
 8002842:	1864      	adds	r4, r4, r1
 8002844:	4240      	negs	r0, r0
 8002846:	1824      	adds	r4, r4, r0
 8002848:	0017      	movs	r7, r2
 800284a:	2601      	movs	r6, #1
 800284c:	0223      	lsls	r3, r4, #8
 800284e:	d507      	bpl.n	8002860 <__aeabi_dsub+0x244>
 8002850:	2602      	movs	r6, #2
 8002852:	e7cf      	b.n	80027f4 <__aeabi_dsub+0x1d8>
 8002854:	4664      	mov	r4, ip
 8002856:	432c      	orrs	r4, r5
 8002858:	d100      	bne.n	800285c <__aeabi_dsub+0x240>
 800285a:	e1b3      	b.n	8002bc4 <__aeabi_dsub+0x5a8>
 800285c:	002c      	movs	r4, r5
 800285e:	4667      	mov	r7, ip
 8002860:	077b      	lsls	r3, r7, #29
 8002862:	d000      	beq.n	8002866 <__aeabi_dsub+0x24a>
 8002864:	e762      	b.n	800272c <__aeabi_dsub+0x110>
 8002866:	0763      	lsls	r3, r4, #29
 8002868:	08ff      	lsrs	r7, r7, #3
 800286a:	431f      	orrs	r7, r3
 800286c:	2501      	movs	r5, #1
 800286e:	4643      	mov	r3, r8
 8002870:	08e4      	lsrs	r4, r4, #3
 8002872:	401d      	ands	r5, r3
 8002874:	e793      	b.n	800279e <__aeabi_dsub+0x182>
 8002876:	2d00      	cmp	r5, #0
 8002878:	d178      	bne.n	800296c <__aeabi_dsub+0x350>
 800287a:	1c75      	adds	r5, r6, #1
 800287c:	056d      	lsls	r5, r5, #21
 800287e:	0d6d      	lsrs	r5, r5, #21
 8002880:	2d01      	cmp	r5, #1
