Archive member included to satisfy reference by file (symbol)

c:/program files (x86)/atollic/truestudio for stm32 9.3.0/armtools/bin/../lib/gcc/arm-atollic-eabi/6.3.1/../../../../arm-atollic-eabi/lib/armv6-m\libc_nano.a(lib_a-errno.o)
                              Core\Src\syscalls.o (__errno)
c:/program files (x86)/atollic/truestudio for stm32 9.3.0/armtools/bin/../lib/gcc/arm-atollic-eabi/6.3.1/../../../../arm-atollic-eabi/lib/armv6-m\libc_nano.a(lib_a-impure.o)
                              c:/program files (x86)/atollic/truestudio for stm32 9.3.0/armtools/bin/../lib/gcc/arm-atollic-eabi/6.3.1/../../../../arm-atollic-eabi/lib/armv6-m\libc_nano.a(lib_a-errno.o) (_impure_ptr)
c:/program files (x86)/atollic/truestudio for stm32 9.3.0/armtools/bin/../lib/gcc/arm-atollic-eabi/6.3.1/../../../../arm-atollic-eabi/lib/armv6-m\libc_nano.a(lib_a-init.o)
                              startup\startup_stm32f072xb.o (__libc_init_array)
c:/program files (x86)/atollic/truestudio for stm32 9.3.0/armtools/bin/../lib/gcc/arm-atollic-eabi/6.3.1/../../../../arm-atollic-eabi/lib/armv6-m\libc_nano.a(lib_a-memcpy-stub.o)
                              Core\Src\ADXL345.o (memcpy)
c:/program files (x86)/atollic/truestudio for stm32 9.3.0/armtools/bin/../lib/gcc/arm-atollic-eabi/6.3.1/../../../../arm-atollic-eabi/lib/armv6-m\libc_nano.a(lib_a-memset.o)
                              Core\Src\adc.o (memset)
c:/program files (x86)/atollic/truestudio for stm32 9.3.0/armtools/bin/../lib/gcc/arm-atollic-eabi/6.3.1/../../../../arm-atollic-eabi/lib/armv6-m\libc_nano.a(lib_a-nano-vfprintf_float.o)
                              (_printf_float)
c:/program files (x86)/atollic/truestudio for stm32 9.3.0/armtools/bin/../lib/gcc/arm-atollic-eabi/6.3.1/../../../../arm-atollic-eabi/lib/armv6-m\libc_nano.a(lib_a-nano-vfprintf_i.o)
                              c:/program files (x86)/atollic/truestudio for stm32 9.3.0/armtools/bin/../lib/gcc/arm-atollic-eabi/6.3.1/../../../../arm-atollic-eabi/lib/armv6-m\libc_nano.a(lib_a-nano-vfprintf_float.o) (_printf_common)
c:/program files (x86)/atollic/truestudio for stm32 9.3.0/armtools/bin/../lib/gcc/arm-atollic-eabi/6.3.1/../../../../arm-atollic-eabi/lib/armv6-m\libc_nano.a(lib_a-printf.o)
                              Core\Src\ADXL345.o (printf)
c:/program files (x86)/atollic/truestudio for stm32 9.3.0/armtools/bin/../lib/gcc/arm-atollic-eabi/6.3.1/../../../../arm-atollic-eabi/lib/armv6-m\libc_nano.a(lib_a-putchar.o)
                              Core\Src\pat9125.o (putchar)
c:/program files (x86)/atollic/truestudio for stm32 9.3.0/armtools/bin/../lib/gcc/arm-atollic-eabi/6.3.1/../../../../arm-atollic-eabi/lib/armv6-m\libc_nano.a(lib_a-strlen.o)
                              c:/program files (x86)/atollic/truestudio for stm32 9.3.0/armtools/bin/../lib/gcc/arm-atollic-eabi/6.3.1/../../../../arm-atollic-eabi/lib/armv6-m\libc_nano.a(lib_a-nano-vfprintf_float.o) (strlen)
c:/program files (x86)/atollic/truestudio for stm32 9.3.0/armtools/bin/../lib/gcc/arm-atollic-eabi/6.3.1/../../../../arm-atollic-eabi/lib/armv6-m\libc_nano.a(lib_a-strncpy.o)
                              Core\Src\ADXL345.o (strncpy)
c:/program files (x86)/atollic/truestudio for stm32 9.3.0/armtools/bin/../lib/gcc/arm-atollic-eabi/6.3.1/../../../../arm-atollic-eabi/lib/armv6-m\libc_nano.a(lib_a-dtoa.o)
                              c:/program files (x86)/atollic/truestudio for stm32 9.3.0/armtools/bin/../lib/gcc/arm-atollic-eabi/6.3.1/../../../../arm-atollic-eabi/lib/armv6-m\libc_nano.a(lib_a-nano-vfprintf_float.o) (_dtoa_r)
c:/program files (x86)/atollic/truestudio for stm32 9.3.0/armtools/bin/../lib/gcc/arm-atollic-eabi/6.3.1/../../../../arm-atollic-eabi/lib/armv6-m\libc_nano.a(lib_a-findfp.o)
                              c:/program files (x86)/atollic/truestudio for stm32 9.3.0/armtools/bin/../lib/gcc/arm-atollic-eabi/6.3.1/../../../../arm-atollic-eabi/lib/armv6-m\libc_nano.a(lib_a-printf.o) (__sinit)
c:/program files (x86)/atollic/truestudio for stm32 9.3.0/armtools/bin/../lib/gcc/arm-atollic-eabi/6.3.1/../../../../arm-atollic-eabi/lib/armv6-m\libc_nano.a(lib_a-fwalk.o)
                              c:/program files (x86)/atollic/truestudio for stm32 9.3.0/armtools/bin/../lib/gcc/arm-atollic-eabi/6.3.1/../../../../arm-atollic-eabi/lib/armv6-m\libc_nano.a(lib_a-findfp.o) (_fwalk)
c:/program files (x86)/atollic/truestudio for stm32 9.3.0/armtools/bin/../lib/gcc/arm-atollic-eabi/6.3.1/../../../../arm-atollic-eabi/lib/armv6-m\libc_nano.a(lib_a-localeconv.o)
                              c:/program files (x86)/atollic/truestudio for stm32 9.3.0/armtools/bin/../lib/gcc/arm-atollic-eabi/6.3.1/../../../../arm-atollic-eabi/lib/armv6-m\libc_nano.a(lib_a-nano-vfprintf_float.o) (_localeconv_r)
c:/program files (x86)/atollic/truestudio for stm32 9.3.0/armtools/bin/../lib/gcc/arm-atollic-eabi/6.3.1/../../../../arm-atollic-eabi/lib/armv6-m\libc_nano.a(lib_a-malloc.o)
                              c:/program files (x86)/atollic/truestudio for stm32 9.3.0/armtools/bin/../lib/gcc/arm-atollic-eabi/6.3.1/../../../../arm-atollic-eabi/lib/armv6-m\libc_nano.a(lib_a-dtoa.o) (malloc)
c:/program files (x86)/atollic/truestudio for stm32 9.3.0/armtools/bin/../lib/gcc/arm-atollic-eabi/6.3.1/../../../../arm-atollic-eabi/lib/armv6-m\libc_nano.a(lib_a-memchr-stub.o)
                              c:/program files (x86)/atollic/truestudio for stm32 9.3.0/armtools/bin/../lib/gcc/arm-atollic-eabi/6.3.1/../../../../arm-atollic-eabi/lib/armv6-m\libc_nano.a(lib_a-nano-vfprintf_i.o) (memchr)
c:/program files (x86)/atollic/truestudio for stm32 9.3.0/armtools/bin/../lib/gcc/arm-atollic-eabi/6.3.1/../../../../arm-atollic-eabi/lib/armv6-m\libc_nano.a(lib_a-mprec.o)
                              c:/program files (x86)/atollic/truestudio for stm32 9.3.0/armtools/bin/../lib/gcc/arm-atollic-eabi/6.3.1/../../../../arm-atollic-eabi/lib/armv6-m\libc_nano.a(lib_a-dtoa.o) (_Balloc)
c:/program files (x86)/atollic/truestudio for stm32 9.3.0/armtools/bin/../lib/gcc/arm-atollic-eabi/6.3.1/../../../../arm-atollic-eabi/lib/armv6-m\libc_nano.a(lib_a-nano-callocr.o)
                              c:/program files (x86)/atollic/truestudio for stm32 9.3.0/armtools/bin/../lib/gcc/arm-atollic-eabi/6.3.1/../../../../arm-atollic-eabi/lib/armv6-m\libc_nano.a(lib_a-mprec.o) (_calloc_r)
c:/program files (x86)/atollic/truestudio for stm32 9.3.0/armtools/bin/../lib/gcc/arm-atollic-eabi/6.3.1/../../../../arm-atollic-eabi/lib/armv6-m\libc_nano.a(lib_a-nano-freer.o)
                              c:/program files (x86)/atollic/truestudio for stm32 9.3.0/armtools/bin/../lib/gcc/arm-atollic-eabi/6.3.1/../../../../arm-atollic-eabi/lib/armv6-m\libc_nano.a(lib_a-malloc.o) (_free_r)
c:/program files (x86)/atollic/truestudio for stm32 9.3.0/armtools/bin/../lib/gcc/arm-atollic-eabi/6.3.1/../../../../arm-atollic-eabi/lib/armv6-m\libc_nano.a(lib_a-nano-mallocr.o)
                              c:/program files (x86)/atollic/truestudio for stm32 9.3.0/armtools/bin/../lib/gcc/arm-atollic-eabi/6.3.1/../../../../arm-atollic-eabi/lib/armv6-m\libc_nano.a(lib_a-findfp.o) (_malloc_r)
c:/program files (x86)/atollic/truestudio for stm32 9.3.0/armtools/bin/../lib/gcc/arm-atollic-eabi/6.3.1/../../../../arm-atollic-eabi/lib/armv6-m\libc_nano.a(lib_a-nano-vfprintf.o)
                              c:/program files (x86)/atollic/truestudio for stm32 9.3.0/armtools/bin/../lib/gcc/arm-atollic-eabi/6.3.1/../../../../arm-atollic-eabi/lib/armv6-m\libc_nano.a(lib_a-printf.o) (_vfprintf_r)
c:/program files (x86)/atollic/truestudio for stm32 9.3.0/armtools/bin/../lib/gcc/arm-atollic-eabi/6.3.1/../../../../arm-atollic-eabi/lib/armv6-m\libc_nano.a(lib_a-putc.o)
                              c:/program files (x86)/atollic/truestudio for stm32 9.3.0/armtools/bin/../lib/gcc/arm-atollic-eabi/6.3.1/../../../../arm-atollic-eabi/lib/armv6-m\libc_nano.a(lib_a-putchar.o) (_putc_r)
c:/program files (x86)/atollic/truestudio for stm32 9.3.0/armtools/bin/../lib/gcc/arm-atollic-eabi/6.3.1/../../../../arm-atollic-eabi/lib/armv6-m\libc_nano.a(lib_a-sbrkr.o)
                              c:/program files (x86)/atollic/truestudio for stm32 9.3.0/armtools/bin/../lib/gcc/arm-atollic-eabi/6.3.1/../../../../arm-atollic-eabi/lib/armv6-m\libc_nano.a(lib_a-nano-mallocr.o) (_sbrk_r)
c:/program files (x86)/atollic/truestudio for stm32 9.3.0/armtools/bin/../lib/gcc/arm-atollic-eabi/6.3.1/../../../../arm-atollic-eabi/lib/armv6-m\libc_nano.a(lib_a-stdio.o)
                              c:/program files (x86)/atollic/truestudio for stm32 9.3.0/armtools/bin/../lib/gcc/arm-atollic-eabi/6.3.1/../../../../arm-atollic-eabi/lib/armv6-m\libc_nano.a(lib_a-findfp.o) (__sread)
c:/program files (x86)/atollic/truestudio for stm32 9.3.0/armtools/bin/../lib/gcc/arm-atollic-eabi/6.3.1/../../../../arm-atollic-eabi/lib/armv6-m\libc_nano.a(lib_a-wbuf.o)
                              c:/program files (x86)/atollic/truestudio for stm32 9.3.0/armtools/bin/../lib/gcc/arm-atollic-eabi/6.3.1/../../../../arm-atollic-eabi/lib/armv6-m\libc_nano.a(lib_a-nano-vfprintf.o) (__swbuf_r)
c:/program files (x86)/atollic/truestudio for stm32 9.3.0/armtools/bin/../lib/gcc/arm-atollic-eabi/6.3.1/../../../../arm-atollic-eabi/lib/armv6-m\libc_nano.a(lib_a-writer.o)
                              c:/program files (x86)/atollic/truestudio for stm32 9.3.0/armtools/bin/../lib/gcc/arm-atollic-eabi/6.3.1/../../../../arm-atollic-eabi/lib/armv6-m\libc_nano.a(lib_a-stdio.o) (_write_r)
c:/program files (x86)/atollic/truestudio for stm32 9.3.0/armtools/bin/../lib/gcc/arm-atollic-eabi/6.3.1/../../../../arm-atollic-eabi/lib/armv6-m\libc_nano.a(lib_a-wsetup.o)
                              c:/program files (x86)/atollic/truestudio for stm32 9.3.0/armtools/bin/../lib/gcc/arm-atollic-eabi/6.3.1/../../../../arm-atollic-eabi/lib/armv6-m\libc_nano.a(lib_a-nano-vfprintf.o) (__swsetup_r)
c:/program files (x86)/atollic/truestudio for stm32 9.3.0/armtools/bin/../lib/gcc/arm-atollic-eabi/6.3.1/../../../../arm-atollic-eabi/lib/armv6-m\libc_nano.a(lib_a-closer.o)
                              c:/program files (x86)/atollic/truestudio for stm32 9.3.0/armtools/bin/../lib/gcc/arm-atollic-eabi/6.3.1/../../../../arm-atollic-eabi/lib/armv6-m\libc_nano.a(lib_a-stdio.o) (_close_r)
c:/program files (x86)/atollic/truestudio for stm32 9.3.0/armtools/bin/../lib/gcc/arm-atollic-eabi/6.3.1/../../../../arm-atollic-eabi/lib/armv6-m\libc_nano.a(lib_a-fflush.o)
                              c:/program files (x86)/atollic/truestudio for stm32 9.3.0/armtools/bin/../lib/gcc/arm-atollic-eabi/6.3.1/../../../../arm-atollic-eabi/lib/armv6-m\libc_nano.a(lib_a-findfp.o) (_fflush_r)
c:/program files (x86)/atollic/truestudio for stm32 9.3.0/armtools/bin/../lib/gcc/arm-atollic-eabi/6.3.1/../../../../arm-atollic-eabi/lib/armv6-m\libc_nano.a(lib_a-fvwrite.o)
                              c:/program files (x86)/atollic/truestudio for stm32 9.3.0/armtools/bin/../lib/gcc/arm-atollic-eabi/6.3.1/../../../../arm-atollic-eabi/lib/armv6-m\libc_nano.a(lib_a-nano-vfprintf.o) (__sfvwrite_r)
c:/program files (x86)/atollic/truestudio for stm32 9.3.0/armtools/bin/../lib/gcc/arm-atollic-eabi/6.3.1/../../../../arm-atollic-eabi/lib/armv6-m\libc_nano.a(lib_a-locale.o)
                              c:/program files (x86)/atollic/truestudio for stm32 9.3.0/armtools/bin/../lib/gcc/arm-atollic-eabi/6.3.1/../../../../arm-atollic-eabi/lib/armv6-m\libc_nano.a(lib_a-localeconv.o) (__global_locale)
c:/program files (x86)/atollic/truestudio for stm32 9.3.0/armtools/bin/../lib/gcc/arm-atollic-eabi/6.3.1/../../../../arm-atollic-eabi/lib/armv6-m\libc_nano.a(lib_a-lseekr.o)
                              c:/program files (x86)/atollic/truestudio for stm32 9.3.0/armtools/bin/../lib/gcc/arm-atollic-eabi/6.3.1/../../../../arm-atollic-eabi/lib/armv6-m\libc_nano.a(lib_a-stdio.o) (_lseek_r)
c:/program files (x86)/atollic/truestudio for stm32 9.3.0/armtools/bin/../lib/gcc/arm-atollic-eabi/6.3.1/../../../../arm-atollic-eabi/lib/armv6-m\libc_nano.a(lib_a-makebuf.o)
                              c:/program files (x86)/atollic/truestudio for stm32 9.3.0/armtools/bin/../lib/gcc/arm-atollic-eabi/6.3.1/../../../../arm-atollic-eabi/lib/armv6-m\libc_nano.a(lib_a-wsetup.o) (__smakebuf_r)
c:/program files (x86)/atollic/truestudio for stm32 9.3.0/armtools/bin/../lib/gcc/arm-atollic-eabi/6.3.1/../../../../arm-atollic-eabi/lib/armv6-m\libc_nano.a(lib_a-mbtowc_r.o)
                              c:/program files (x86)/atollic/truestudio for stm32 9.3.0/armtools/bin/../lib/gcc/arm-atollic-eabi/6.3.1/../../../../arm-atollic-eabi/lib/armv6-m\libc_nano.a(lib_a-locale.o) (__ascii_mbtowc)
c:/program files (x86)/atollic/truestudio for stm32 9.3.0/armtools/bin/../lib/gcc/arm-atollic-eabi/6.3.1/../../../../arm-atollic-eabi/lib/armv6-m\libc_nano.a(lib_a-memmove.o)
                              c:/program files (x86)/atollic/truestudio for stm32 9.3.0/armtools/bin/../lib/gcc/arm-atollic-eabi/6.3.1/../../../../arm-atollic-eabi/lib/armv6-m\libc_nano.a(lib_a-fvwrite.o) (memmove)
c:/program files (x86)/atollic/truestudio for stm32 9.3.0/armtools/bin/../lib/gcc/arm-atollic-eabi/6.3.1/../../../../arm-atollic-eabi/lib/armv6-m\libc_nano.a(lib_a-mlock.o)
                              c:/program files (x86)/atollic/truestudio for stm32 9.3.0/armtools/bin/../lib/gcc/arm-atollic-eabi/6.3.1/../../../../arm-atollic-eabi/lib/armv6-m\libc_nano.a(lib_a-nano-freer.o) (__malloc_lock)
c:/program files (x86)/atollic/truestudio for stm32 9.3.0/armtools/bin/../lib/gcc/arm-atollic-eabi/6.3.1/../../../../arm-atollic-eabi/lib/armv6-m\libc_nano.a(lib_a-nano-reallocr.o)
                              c:/program files (x86)/atollic/truestudio for stm32 9.3.0/armtools/bin/../lib/gcc/arm-atollic-eabi/6.3.1/../../../../arm-atollic-eabi/lib/armv6-m\libc_nano.a(lib_a-fvwrite.o) (_realloc_r)
c:/program files (x86)/atollic/truestudio for stm32 9.3.0/armtools/bin/../lib/gcc/arm-atollic-eabi/6.3.1/../../../../arm-atollic-eabi/lib/armv6-m\libc_nano.a(lib_a-readr.o)
                              c:/program files (x86)/atollic/truestudio for stm32 9.3.0/armtools/bin/../lib/gcc/arm-atollic-eabi/6.3.1/../../../../arm-atollic-eabi/lib/armv6-m\libc_nano.a(lib_a-stdio.o) (_read_r)
c:/program files (x86)/atollic/truestudio for stm32 9.3.0/armtools/bin/../lib/gcc/arm-atollic-eabi/6.3.1/../../../../arm-atollic-eabi/lib/armv6-m\libc_nano.a(lib_a-reent.o)
                              c:/program files (x86)/atollic/truestudio for stm32 9.3.0/armtools/bin/../lib/gcc/arm-atollic-eabi/6.3.1/../../../../arm-atollic-eabi/lib/armv6-m\libc_nano.a(lib_a-sbrkr.o) (errno)
c:/program files (x86)/atollic/truestudio for stm32 9.3.0/armtools/bin/../lib/gcc/arm-atollic-eabi/6.3.1/../../../../arm-atollic-eabi/lib/armv6-m\libc_nano.a(lib_a-strcmp.o)
                              c:/program files (x86)/atollic/truestudio for stm32 9.3.0/armtools/bin/../lib/gcc/arm-atollic-eabi/6.3.1/../../../../arm-atollic-eabi/lib/armv6-m\libc_nano.a(lib_a-locale.o) (strcmp)
c:/program files (x86)/atollic/truestudio for stm32 9.3.0/armtools/bin/../lib/gcc/arm-atollic-eabi/6.3.1/../../../../arm-atollic-eabi/lib/armv6-m\libc_nano.a(lib_a-wctomb_r.o)
                              c:/program files (x86)/atollic/truestudio for stm32 9.3.0/armtools/bin/../lib/gcc/arm-atollic-eabi/6.3.1/../../../../arm-atollic-eabi/lib/armv6-m\libc_nano.a(lib_a-locale.o) (__ascii_wctomb)
c:/program files (x86)/atollic/truestudio for stm32 9.3.0/armtools/bin/../lib/gcc/arm-atollic-eabi/6.3.1/../../../../arm-atollic-eabi/lib/armv6-m\libc_nano.a(lib_a-ctype_.o)
                              c:/program files (x86)/atollic/truestudio for stm32 9.3.0/armtools/bin/../lib/gcc/arm-atollic-eabi/6.3.1/../../../../arm-atollic-eabi/lib/armv6-m\libc_nano.a(lib_a-locale.o) (_ctype_)
c:/program files (x86)/atollic/truestudio for stm32 9.3.0/armtools/bin/../lib/gcc/arm-atollic-eabi/6.3.1/../../../../arm-atollic-eabi/lib/armv6-m\libc_nano.a(lib_a-fstatr.o)
                              c:/program files (x86)/atollic/truestudio for stm32 9.3.0/armtools/bin/../lib/gcc/arm-atollic-eabi/6.3.1/../../../../arm-atollic-eabi/lib/armv6-m\libc_nano.a(lib_a-makebuf.o) (_fstat_r)
c:/program files (x86)/atollic/truestudio for stm32 9.3.0/armtools/bin/../lib/gcc/arm-atollic-eabi/6.3.1/../../../../arm-atollic-eabi/lib/armv6-m\libc_nano.a(lib_a-isattyr.o)
                              c:/program files (x86)/atollic/truestudio for stm32 9.3.0/armtools/bin/../lib/gcc/arm-atollic-eabi/6.3.1/../../../../arm-atollic-eabi/lib/armv6-m\libc_nano.a(lib_a-makebuf.o) (_isatty_r)
c:/program files (x86)/atollic/truestudio for stm32 9.3.0/armtools/bin/../lib/gcc/arm-atollic-eabi/6.3.1/../../../../arm-atollic-eabi/lib/armv6-m\libc_nano.a(lib_a-nano-msizer.o)
                              c:/program files (x86)/atollic/truestudio for stm32 9.3.0/armtools/bin/../lib/gcc/arm-atollic-eabi/6.3.1/../../../../arm-atollic-eabi/lib/armv6-m\libc_nano.a(lib_a-nano-reallocr.o) (_malloc_usable_size_r)
c:/program files (x86)/atollic/truestudio for stm32 9.3.0/armtools/bin/../lib/gcc/arm-atollic-eabi/6.3.1/../../../../arm-atollic-eabi/lib/armv6-m\libm.a(lib_a-w_atan2.o)
                              Core\Src\ADXL345.o (atan2)
c:/program files (x86)/atollic/truestudio for stm32 9.3.0/armtools/bin/../lib/gcc/arm-atollic-eabi/6.3.1/../../../../arm-atollic-eabi/lib/armv6-m\libm.a(lib_a-w_sqrt.o)
                              Core\Src\ADXL345.o (sqrt)
c:/program files (x86)/atollic/truestudio for stm32 9.3.0/armtools/bin/../lib/gcc/arm-atollic-eabi/6.3.1/../../../../arm-atollic-eabi/lib/armv6-m\libm.a(lib_a-e_atan2.o)
                              c:/program files (x86)/atollic/truestudio for stm32 9.3.0/armtools/bin/../lib/gcc/arm-atollic-eabi/6.3.1/../../../../arm-atollic-eabi/lib/armv6-m\libm.a(lib_a-w_atan2.o) (__ieee754_atan2)
c:/program files (x86)/atollic/truestudio for stm32 9.3.0/armtools/bin/../lib/gcc/arm-atollic-eabi/6.3.1/../../../../arm-atollic-eabi/lib/armv6-m\libm.a(lib_a-e_sqrt.o)
                              c:/program files (x86)/atollic/truestudio for stm32 9.3.0/armtools/bin/../lib/gcc/arm-atollic-eabi/6.3.1/../../../../arm-atollic-eabi/lib/armv6-m\libm.a(lib_a-w_sqrt.o) (__ieee754_sqrt)
c:/program files (x86)/atollic/truestudio for stm32 9.3.0/armtools/bin/../lib/gcc/arm-atollic-eabi/6.3.1/../../../../arm-atollic-eabi/lib/armv6-m\libm.a(lib_a-s_atan.o)
                              c:/program files (x86)/atollic/truestudio for stm32 9.3.0/armtools/bin/../lib/gcc/arm-atollic-eabi/6.3.1/../../../../arm-atollic-eabi/lib/armv6-m\libm.a(lib_a-e_atan2.o) (atan)
c:/program files (x86)/atollic/truestudio for stm32 9.3.0/armtools/bin/../lib/gcc/arm-atollic-eabi/6.3.1/../../../../arm-atollic-eabi/lib/armv6-m\libm.a(lib_a-s_fabs.o)
                              c:/program files (x86)/atollic/truestudio for stm32 9.3.0/armtools/bin/../lib/gcc/arm-atollic-eabi/6.3.1/../../../../arm-atollic-eabi/lib/armv6-m\libm.a(lib_a-e_atan2.o) (fabs)
c:/program files (x86)/atollic/truestudio for stm32 9.3.0/armtools/bin/../lib/gcc/arm-atollic-eabi/6.3.1/../../../../arm-atollic-eabi/lib/armv6-m\libm.a(lib_a-s_lib_ver.o)
                              c:/program files (x86)/atollic/truestudio for stm32 9.3.0/armtools/bin/../lib/gcc/arm-atollic-eabi/6.3.1/../../../../arm-atollic-eabi/lib/armv6-m\libm.a(lib_a-w_sqrt.o) (__fdlib_version)
c:/program files (x86)/atollic/truestudio for stm32 9.3.0/armtools/bin/../lib/gcc/arm-atollic-eabi/6.3.1/../../../../arm-atollic-eabi/lib/armv6-m\libm.a(lib_a-s_matherr.o)
                              c:/program files (x86)/atollic/truestudio for stm32 9.3.0/armtools/bin/../lib/gcc/arm-atollic-eabi/6.3.1/../../../../arm-atollic-eabi/lib/armv6-m\libm.a(lib_a-w_sqrt.o) (matherr)
c:/program files (x86)/atollic/truestudio for stm32 9.3.0/armtools/bin/../lib/gcc/arm-atollic-eabi/6.3.1/armv6-m\libgcc.a(_thumb1_case_uqi.o)
                              c:/program files (x86)/atollic/truestudio for stm32 9.3.0/armtools/bin/../lib/gcc/arm-atollic-eabi/6.3.1/../../../../arm-atollic-eabi/lib/armv6-m\libc_nano.a(lib_a-dtoa.o) (__gnu_thumb1_case_uqi)
c:/program files (x86)/atollic/truestudio for stm32 9.3.0/armtools/bin/../lib/gcc/arm-atollic-eabi/6.3.1/armv6-m\libgcc.a(_udivsi3.o)
                              Core\Src\adc.o (__aeabi_uidiv)
c:/program files (x86)/atollic/truestudio for stm32 9.3.0/armtools/bin/../lib/gcc/arm-atollic-eabi/6.3.1/armv6-m\libgcc.a(_divsi3.o)
                              Core\Src\adc.o (__aeabi_idiv)
c:/program files (x86)/atollic/truestudio for stm32 9.3.0/armtools/bin/../lib/gcc/arm-atollic-eabi/6.3.1/armv6-m\libgcc.a(_dvmd_tls.o)
                              c:/program files (x86)/atollic/truestudio for stm32 9.3.0/armtools/bin/../lib/gcc/arm-atollic-eabi/6.3.1/armv6-m\libgcc.a(_udivsi3.o) (__aeabi_idiv0)
c:/program files (x86)/atollic/truestudio for stm32 9.3.0/armtools/bin/../lib/gcc/arm-atollic-eabi/6.3.1/armv6-m\libgcc.a(_arm_cmpdf2.o)
                              c:/program files (x86)/atollic/truestudio for stm32 9.3.0/armtools/bin/../lib/gcc/arm-atollic-eabi/6.3.1/../../../../arm-atollic-eabi/lib/armv6-m\libc_nano.a(lib_a-nano-vfprintf_float.o) (__aeabi_dcmpeq)
c:/program files (x86)/atollic/truestudio for stm32 9.3.0/armtools/bin/../lib/gcc/arm-atollic-eabi/6.3.1/armv6-m\libgcc.a(_arm_cmpsf2.o)
                              Core\Src\ADXL345.o (__aeabi_fcmpgt)
c:/program files (x86)/atollic/truestudio for stm32 9.3.0/armtools/bin/../lib/gcc/arm-atollic-eabi/6.3.1/armv6-m\libgcc.a(_fixunssfsi.o)
                              Core\Src\ADXL345.o (__aeabi_f2uiz)
c:/program files (x86)/atollic/truestudio for stm32 9.3.0/armtools/bin/../lib/gcc/arm-atollic-eabi/6.3.1/armv6-m\libgcc.a(addsf3.o)
                              Core\Src\ADXL345.o (__aeabi_fadd)
c:/program files (x86)/atollic/truestudio for stm32 9.3.0/armtools/bin/../lib/gcc/arm-atollic-eabi/6.3.1/armv6-m\libgcc.a(divsf3.o)
                              Core\Src\ADXL345.o (__aeabi_fdiv)
c:/program files (x86)/atollic/truestudio for stm32 9.3.0/armtools/bin/../lib/gcc/arm-atollic-eabi/6.3.1/armv6-m\libgcc.a(eqsf2.o)
                              c:/program files (x86)/atollic/truestudio for stm32 9.3.0/armtools/bin/../lib/gcc/arm-atollic-eabi/6.3.1/armv6-m\libgcc.a(_arm_cmpsf2.o) (__eqsf2)
c:/program files (x86)/atollic/truestudio for stm32 9.3.0/armtools/bin/../lib/gcc/arm-atollic-eabi/6.3.1/armv6-m\libgcc.a(gesf2.o)
                              c:/program files (x86)/atollic/truestudio for stm32 9.3.0/armtools/bin/../lib/gcc/arm-atollic-eabi/6.3.1/armv6-m\libgcc.a(_arm_cmpsf2.o) (__gesf2)
c:/program files (x86)/atollic/truestudio for stm32 9.3.0/armtools/bin/../lib/gcc/arm-atollic-eabi/6.3.1/armv6-m\libgcc.a(lesf2.o)
                              c:/program files (x86)/atollic/truestudio for stm32 9.3.0/armtools/bin/../lib/gcc/arm-atollic-eabi/6.3.1/armv6-m\libgcc.a(_arm_cmpsf2.o) (__lesf2)
c:/program files (x86)/atollic/truestudio for stm32 9.3.0/armtools/bin/../lib/gcc/arm-atollic-eabi/6.3.1/armv6-m\libgcc.a(mulsf3.o)
                              Core\Src\ADXL345.o (__aeabi_fmul)
c:/program files (x86)/atollic/truestudio for stm32 9.3.0/armtools/bin/../lib/gcc/arm-atollic-eabi/6.3.1/armv6-m\libgcc.a(subsf3.o)
                              Core\Src\ADXL345.o (__aeabi_fsub)
c:/program files (x86)/atollic/truestudio for stm32 9.3.0/armtools/bin/../lib/gcc/arm-atollic-eabi/6.3.1/armv6-m\libgcc.a(fixsfsi.o)
                              Core\Src\ADXL345.o (__aeabi_f2iz)
c:/program files (x86)/atollic/truestudio for stm32 9.3.0/armtools/bin/../lib/gcc/arm-atollic-eabi/6.3.1/armv6-m\libgcc.a(floatsisf.o)
                              Core\Src\ADXL345.o (__aeabi_i2f)
c:/program files (x86)/atollic/truestudio for stm32 9.3.0/armtools/bin/../lib/gcc/arm-atollic-eabi/6.3.1/armv6-m\libgcc.a(adddf3.o)
                              Core\Src\ADXL345.o (__aeabi_dadd)
c:/program files (x86)/atollic/truestudio for stm32 9.3.0/armtools/bin/../lib/gcc/arm-atollic-eabi/6.3.1/armv6-m\libgcc.a(divdf3.o)
                              Core\Src\ADXL345.o (__aeabi_ddiv)
c:/program files (x86)/atollic/truestudio for stm32 9.3.0/armtools/bin/../lib/gcc/arm-atollic-eabi/6.3.1/armv6-m\libgcc.a(eqdf2.o)
                              c:/program files (x86)/atollic/truestudio for stm32 9.3.0/armtools/bin/../lib/gcc/arm-atollic-eabi/6.3.1/armv6-m\libgcc.a(_arm_cmpdf2.o) (__eqdf2)
c:/program files (x86)/atollic/truestudio for stm32 9.3.0/armtools/bin/../lib/gcc/arm-atollic-eabi/6.3.1/armv6-m\libgcc.a(gedf2.o)
                              c:/program files (x86)/atollic/truestudio for stm32 9.3.0/armtools/bin/../lib/gcc/arm-atollic-eabi/6.3.1/armv6-m\libgcc.a(_arm_cmpdf2.o) (__gedf2)
c:/program files (x86)/atollic/truestudio for stm32 9.3.0/armtools/bin/../lib/gcc/arm-atollic-eabi/6.3.1/armv6-m\libgcc.a(ledf2.o)
                              c:/program files (x86)/atollic/truestudio for stm32 9.3.0/armtools/bin/../lib/gcc/arm-atollic-eabi/6.3.1/armv6-m\libgcc.a(_arm_cmpdf2.o) (__ledf2)
c:/program files (x86)/atollic/truestudio for stm32 9.3.0/armtools/bin/../lib/gcc/arm-atollic-eabi/6.3.1/armv6-m\libgcc.a(muldf3.o)
                              Core\Src\ADXL345.o (__aeabi_dmul)
c:/program files (x86)/atollic/truestudio for stm32 9.3.0/armtools/bin/../lib/gcc/arm-atollic-eabi/6.3.1/armv6-m\libgcc.a(subdf3.o)
                              Core\Src\ADXL345.o (__aeabi_dsub)
c:/program files (x86)/atollic/truestudio for stm32 9.3.0/armtools/bin/../lib/gcc/arm-atollic-eabi/6.3.1/armv6-m\libgcc.a(unorddf2.o)
                              c:/program files (x86)/atollic/truestudio for stm32 9.3.0/armtools/bin/../lib/gcc/arm-atollic-eabi/6.3.1/../../../../arm-atollic-eabi/lib/armv6-m\libc_nano.a(lib_a-nano-vfprintf_float.o) (__aeabi_dcmpun)
c:/program files (x86)/atollic/truestudio for stm32 9.3.0/armtools/bin/../lib/gcc/arm-atollic-eabi/6.3.1/armv6-m\libgcc.a(fixdfsi.o)
                              c:/program files (x86)/atollic/truestudio for stm32 9.3.0/armtools/bin/../lib/gcc/arm-atollic-eabi/6.3.1/../../../../arm-atollic-eabi/lib/armv6-m\libc_nano.a(lib_a-dtoa.o) (__aeabi_d2iz)
c:/program files (x86)/atollic/truestudio for stm32 9.3.0/armtools/bin/../lib/gcc/arm-atollic-eabi/6.3.1/armv6-m\libgcc.a(floatsidf.o)
                              Core\Src\ADXL345.o (__aeabi_i2d)
c:/program files (x86)/atollic/truestudio for stm32 9.3.0/armtools/bin/../lib/gcc/arm-atollic-eabi/6.3.1/armv6-m\libgcc.a(floatunsidf.o)
                              c:/program files (x86)/atollic/truestudio for stm32 9.3.0/armtools/bin/../lib/gcc/arm-atollic-eabi/6.3.1/../../../../arm-atollic-eabi/lib/armv6-m\libc_nano.a(lib_a-dtoa.o) (__aeabi_ui2d)
c:/program files (x86)/atollic/truestudio for stm32 9.3.0/armtools/bin/../lib/gcc/arm-atollic-eabi/6.3.1/armv6-m\libgcc.a(extendsfdf2.o)
                              Core\Src\ADXL345.o (__aeabi_f2d)
c:/program files (x86)/atollic/truestudio for stm32 9.3.0/armtools/bin/../lib/gcc/arm-atollic-eabi/6.3.1/armv6-m\libgcc.a(truncdfsf2.o)
                              Core\Src\ADXL345.o (__aeabi_d2f)
c:/program files (x86)/atollic/truestudio for stm32 9.3.0/armtools/bin/../lib/gcc/arm-atollic-eabi/6.3.1/armv6-m\libgcc.a(_clzsi2.o)
                              c:/program files (x86)/atollic/truestudio for stm32 9.3.0/armtools/bin/../lib/gcc/arm-atollic-eabi/6.3.1/armv6-m\libgcc.a(addsf3.o) (__clzsi2)

Allocating common symbols
Common symbol       size              file

end_process         0x1               Core\Src\ADXL345.o
led_to_change       0x1               Core\Src\ADXL345.o
hUsbDeviceFS        0x2c4             USB_DEVICE\App\usb_device.o
keys_old            0x2               Core\Src\ADXL345.o
duty_blue           0x1               Core\Src\ADXL345.o
pat9130             0x3c              Core\Src\ADXL345.o
hspi2               0x64              Core\Src\spi.o
display_refresh_event
                    0x1               Core\Src\ADXL345.o
ADCxConvertedData   0x8               Core\Src\ADXL345.o
errno               0x4               c:/program files (x86)/atollic/truestudio for stm32 9.3.0/armtools/bin/../lib/gcc/arm-atollic-eabi/6.3.1/../../../../arm-atollic-eabi/lib/armv6-m\libc_nano.a(lib_a-reent.o)
huart3              0x80              Core\Src\usart.o
hi2c1               0x4c              Core\Src\i2c.o
hiwdg               0x10              Core\Src\iwdg.o
stepper1            0x34              Core\Src\ADXL345.o
display_refresh_start_event
                    0x1               Core\Src\ADXL345.o
main_clock          0x38              Core\Src\ADXL345.o
hcan                0x28              Core\Src\can.o
uwTick              0x4               Drivers\STM32F0xx_HAL_Driver\Src\stm32f0xx_hal.o
rgb                 0x42              Core\Src\ADXL345.o
led_RGB             0x30              Core\Src\ADXL345.o
keyboard_1click     0x2               Core\Src\ADXL345.o
click_double_press_time
                    0x4               Core\Src\ADXL345.o
pFlash              0x20              Drivers\STM32F0xx_HAL_Driver\Src\stm32f0xx_hal_flash.o
sensor_hall         0x2               Core\Src\ADXL345.o
htim3               0x40              Core\Src\tim.o
adc_conversion_status
                    0x1               Core\Src\ADXL345.o
duty_red            0x1               Core\Src\ADXL345.o
long_press_time     0x4               Core\Src\ADXL345.o
opt_sens            0x1               Core\Src\ADXL345.o
ADCx_Temperature_DegreeCelsius
                    0x2               Core\Src\ADXL345.o
L3G42xx_sens        0x7c              Core\Src\ADXL345.o
ADXL345_sens        0x98              Core\Src\ADXL345.o
mouse_report        0x5               Core\Src\ADXL345.o
pat9125             0x3c              Core\Src\ADXL345.o
htim1               0x40              Core\Src\tim.o
ionizer1            0x28              Core\Src\ADXL345.o
keyboard_2click     0x2               Core\Src\ADXL345.o
stepper_micros      0x4               Core\Src\ADXL345.o
duty_green          0x1               Core\Src\ADXL345.o
mouse               0x5               Core\Src\ADXL345.o
htim2               0x40              Core\Src\tim.o
TOGGLE_PIN_LED      0x1               Core\Src\ADXL345.o
huart2              0x80              Core\Src\usart.o
char_disp_17seg     0x1               Core\Src\ADXL345.o
ADCx_mVolt          0x8               Core\Src\ADXL345.o
hpcd_USB_FS         0x2f4             USB_DEVICE\Target\usbd_conf.o
keys                0x2               Core\Src\ADXL345.o
short_press_time    0x4               Core\Src\ADXL345.o
version_fw          0x2               Core\Src\ADXL345.o
hadc                0x40              Core\Src\adc.o
USBD_StrDesc        0x200             USB_DEVICE\App\usbd_desc.o
htim7               0x40              Core\Src\tim.o
refresh_power_batt_timeout
                    0x2               Core\Src\ADXL345.o
RGB_color_start     0xc               Core\Src\ADXL345.o
read_keyboard_event
                    0x1               Core\Src\ADXL345.o
char_rx_to_display  0x1               Core\Src\ADXL345.o
RGB_Transition      0x1               Core\Src\ADXL345.o
PCA9685_delay_event
                    0x4               Core\Src\ADXL345.o

Discarded input sections

 .text          0x00000000        0x0 c:/program files (x86)/atollic/truestudio for stm32 9.3.0/armtools/bin/../lib/gcc/arm-atollic-eabi/6.3.1/armv6-m/crti.o
 .data          0x00000000        0x0 c:/program files (x86)/atollic/truestudio for stm32 9.3.0/armtools/bin/../lib/gcc/arm-atollic-eabi/6.3.1/armv6-m/crti.o
 .bss           0x00000000        0x0 c:/program files (x86)/atollic/truestudio for stm32 9.3.0/armtools/bin/../lib/gcc/arm-atollic-eabi/6.3.1/armv6-m/crti.o
 .data          0x00000000        0x4 c:/program files (x86)/atollic/truestudio for stm32 9.3.0/armtools/bin/../lib/gcc/arm-atollic-eabi/6.3.1/armv6-m/crtbegin.o
 .text          0x00000000        0x0 Core\Src\ADXL345.o
 .data          0x00000000        0x0 Core\Src\ADXL345.o
 .bss           0x00000000        0x0 Core\Src\ADXL345.o
 .text.ADXL345_writeRegister
                0x00000000       0x54 Core\Src\ADXL345.o
 .text.ADXL345_readRegister
                0x00000000       0x84 Core\Src\ADXL345.o
 .text.ADXL345_read16
                0x00000000       0xa0 Core\Src\ADXL345.o
 .text.ADXL345_getDeviceID
                0x00000000       0x12 Core\Src\ADXL345.o
 .text.ADXL345_getX
                0x00000000       0x12 Core\Src\ADXL345.o
 .text.ADXL345_getY
Memory Configuration

Name             Origin             Length             Attributes
RAM              0x20000000         0x00004000         xrw
FLASH            0x08000000         0x00020000         xr
*default*        0x00000000         0xffffffff

Linker script and memory map

LOAD c:/program files (x86)/atollic/truestudio for stm32 9.3.0/armtools/bin/../lib/gcc/arm-atollic-eabi/6.3.1/armv6-m/crti.o
LOAD c:/program files (x86)/atollic/truestudio for stm32 9.3.0/armtools/bin/../lib/gcc/arm-atollic-eabi/6.3.1/armv6-m/crtbegin.o
LOAD Core\Src\ADXL345.o
LOAD Core\Src\Stepper.o
LOAD Core\Src\adc.o
LOAD Core\Src\can.o
LOAD Core\Src\gpio.o
LOAD Core\Src\i2c.o
LOAD Core\Src\iwdg.o
LOAD Core\Src\main.o
LOAD Core\Src\pat9125.o
LOAD Core\Src\pat9130.o
LOAD Core\Src\spi.o
LOAD Core\Src\stm32f0xx_hal_msp.o
LOAD Core\Src\stm32f0xx_it.o
LOAD Core\Src\syscalls.o
LOAD Core\Src\system_stm32f0xx.o
LOAD Core\Src\tim.o
LOAD Core\Src\usart.o
LOAD Drivers\STM32F0xx_HAL_Driver\Src\stm32f0xx_hal.o
LOAD Drivers\STM32F0xx_HAL_Driver\Src\stm32f0xx_hal_adc.o
LOAD Drivers\STM32F0xx_HAL_Driver\Src\stm32f0xx_hal_adc_ex.o
LOAD Drivers\STM32F0xx_HAL_Driver\Src\stm32f0xx_hal_can.o
LOAD Drivers\STM32F0xx_HAL_Driver\Src\stm32f0xx_hal_cortex.o
LOAD Drivers\STM32F0xx_HAL_Driver\Src\stm32f0xx_hal_dma.o
LOAD Drivers\STM32F0xx_HAL_Driver\Src\stm32f0xx_hal_exti.o
LOAD Drivers\STM32F0xx_HAL_Driver\Src\stm32f0xx_hal_flash.o
LOAD Drivers\STM32F0xx_HAL_Driver\Src\stm32f0xx_hal_flash_ex.o
LOAD Drivers\STM32F0xx_HAL_Driver\Src\stm32f0xx_hal_gpio.o
LOAD Drivers\STM32F0xx_HAL_Driver\Src\stm32f0xx_hal_i2c.o
LOAD Drivers\STM32F0xx_HAL_Driver\Src\stm32f0xx_hal_i2c_ex.o
LOAD Drivers\STM32F0xx_HAL_Driver\Src\stm32f0xx_hal_iwdg.o
LOAD Drivers\STM32F0xx_HAL_Driver\Src\stm32f0xx_hal_pcd.o
LOAD Drivers\STM32F0xx_HAL_Driver\Src\stm32f0xx_hal_pcd_ex.o
LOAD Drivers\STM32F0xx_HAL_Driver\Src\stm32f0xx_hal_pwr.o
LOAD Drivers\STM32F0xx_HAL_Driver\Src\stm32f0xx_hal_pwr_ex.o
LOAD Drivers\STM32F0xx_HAL_Driver\Src\stm32f0xx_hal_rcc.o
LOAD Drivers\STM32F0xx_HAL_Driver\Src\stm32f0xx_hal_rcc_ex.o
LOAD Drivers\STM32F0xx_HAL_Driver\Src\stm32f0xx_hal_spi.o
LOAD Drivers\STM32F0xx_HAL_Driver\Src\stm32f0xx_hal_spi_ex.o
LOAD Drivers\STM32F0xx_HAL_Driver\Src\stm32f0xx_hal_tim.o
LOAD Drivers\STM32F0xx_HAL_Driver\Src\stm32f0xx_hal_tim_ex.o
LOAD Drivers\STM32F0xx_HAL_Driver\Src\stm32f0xx_hal_uart.o
LOAD Drivers\STM32F0xx_HAL_Driver\Src\stm32f0xx_hal_uart_ex.o
LOAD Drivers\STM32F0xx_HAL_Driver\Src\stm32f0xx_ll_usb.o
LOAD Middlewares\ST\STM32_USB_Device_Library\Class\HID\Src\usbd_hid.o
LOAD Middlewares\ST\STM32_USB_Device_Library\Core\Src\usbd_core.o
LOAD Middlewares\ST\STM32_USB_Device_Library\Core\Src\usbd_ctlreq.o
LOAD Middlewares\ST\STM32_USB_Device_Library\Core\Src\usbd_ioreq.o
LOAD USB_DEVICE\App\usb_device.o
LOAD USB_DEVICE\App\usbd_desc.o
LOAD USB_DEVICE\Target\usbd_conf.o
LOAD startup\startup_stm32f072xb.o
                0x00000080                malloc_getpagesize_P = 0x80
START GROUP
LOAD c:/program files (x86)/atollic/truestudio for stm32 9.3.0/armtools/bin/../lib/gcc/arm-atollic-eabi/6.3.1/../../../../arm-atollic-eabi/lib/armv6-m\libc_nano.a
LOAD c:/program files (x86)/atollic/truestudio for stm32 9.3.0/armtools/bin/../lib/gcc/arm-atollic-eabi/6.3.1/../../../../arm-atollic-eabi/lib/armv6-m\libm.a
END GROUP
START GROUP
LOAD c:/program files (x86)/atollic/truestudio for stm32 9.3.0/armtools/bin/../lib/gcc/arm-atollic-eabi/6.3.1/armv6-m\libgcc.a
LOAD c:/program files (x86)/atollic/truestudio for stm32 9.3.0/armtools/bin/../lib/gcc/arm-atollic-eabi/6.3.1/../../../../arm-atollic-eabi/lib/armv6-m\libc_nano.a
END GROUP
START GROUP
LOAD c:/program files (x86)/atollic/truestudio for stm32 9.3.0/armtools/bin/../lib/gcc/arm-atollic-eabi/6.3.1/armv6-m\libgcc.a
LOAD c:/program files (x86)/atollic/truestudio for stm32 9.3.0/armtools/bin/../lib/gcc/arm-atollic-eabi/6.3.1/../../../../arm-atollic-eabi/lib/armv6-m\libc_nano.a
LOAD c:/program files (x86)/atollic/truestudio for stm32 9.3.0/armtools/bin/../lib/gcc/arm-atollic-eabi/6.3.1/../../../../arm-atollic-eabi/lib/armv6-m\libnosys.a
END GROUP
START GROUP
LOAD c:/program files (x86)/atollic/truestudio for stm32 9.3.0/armtools/bin/../lib/gcc/arm-atollic-eabi/6.3.1/armv6-m\libgcc.a
LOAD c:/program files (x86)/atollic/truestudio for stm32 9.3.0/armtools/bin/../lib/gcc/arm-atollic-eabi/6.3.1/../../../../arm-atollic-eabi/lib/armv6-m\libc_nano.a
LOAD c:/program files (x86)/atollic/truestudio for stm32 9.3.0/armtools/bin/../lib/gcc/arm-atollic-eabi/6.3.1/../../../../arm-atollic-eabi/lib/armv6-m\libnosys.a
END GROUP
LOAD c:/program files (x86)/atollic/truestudio for stm32 9.3.0/armtools/bin/../lib/gcc/arm-atollic-eabi/6.3.1/armv6-m/crtend.o
LOAD c:/program files (x86)/atollic/truestudio for stm32 9.3.0/armtools/bin/../lib/gcc/arm-atollic-eabi/6.3.1/armv6-m/crtn.o
                0x20004000                _estack = 0x20004000
                0x00000200                _Min_Heap_Size = 0x200
                0x00000400                _Min_Stack_Size = 0x400

.isr_vector     0x08000000       0xc0
                0x08000000                . = ALIGN (0x4)
 *(.isr_vector)
 .isr_vector    0x08000000       0xc0 startup\startup_stm32f072xb.o
                0x08000000                g_pfnVectors
                0x080000c0                . = ALIGN (0x4)

.text           0x080000c0    0x1403c
                0x080000c0                . = ALIGN (0x4)
 *(.text)
 .text          0x080000c0       0x48 c:/program files (x86)/atollic/truestudio for stm32 9.3.0/armtools/bin/../lib/gcc/arm-atollic-eabi/6.3.1/armv6-m/crtbegin.o
 .text          0x08000108        0xe c:/program files (x86)/atollic/truestudio for stm32 9.3.0/armtools/bin/../lib/gcc/arm-atollic-eabi/6.3.1/../../../../arm-atollic-eabi/lib/armv6-m\libc_nano.a(lib_a-strlen.o)
                0x08000108                strlen
 *fill*         0x08000116        0x2 
 .text          0x08000118       0x14 c:/program files (x86)/atollic/truestudio for stm32 9.3.0/armtools/bin/../lib/gcc/arm-atollic-eabi/6.3.1/armv6-m\libgcc.a(_thumb1_case_uqi.o)
                0x08000118                __gnu_thumb1_case_uqi
 .text          0x0800012c      0x114 c:/program files (x86)/atollic/truestudio for stm32 9.3.0/armtools/bin/../lib/gcc/arm-atollic-eabi/6.3.1/armv6-m\libgcc.a(_udivsi3.o)
                0x0800012c                __aeabi_uidiv
                0x0800012c                __udivsi3
                0x08000238                __aeabi_uidivmod
 .text          0x08000240      0x1d4 c:/program files (x86)/atollic/truestudio for stm32 9.3.0/armtools/bin/../lib/gcc/arm-atollic-eabi/6.3.1/armv6-m\libgcc.a(_divsi3.o)
                0x08000240                __divsi3
                0x08000240                __aeabi_idiv
                0x0800040c                __aeabi_idivmod
 .text          0x08000414        0x4 c:/program files (x86)/atollic/truestudio for stm32 9.3.0/armtools/bin/../lib/gcc/arm-atollic-eabi/6.3.1/armv6-m\libgcc.a(_dvmd_tls.o)
                0x08000414                __aeabi_idiv0
                0x08000414                __aeabi_ldiv0
 .text          0x08000418       0x7c c:/program files (x86)/atollic/truestudio for stm32 9.3.0/armtools/bin/../lib/gcc/arm-atollic-eabi/6.3.1/armv6-m\libgcc.a(_arm_cmpdf2.o)
                0x08000418                __aeabi_cdrcmple
                0x08000428                __aeabi_cdcmple
                0x08000428                __aeabi_cdcmpeq
                0x08000438                __aeabi_dcmpeq
                0x08000444                __aeabi_dcmplt
                0x08000458                __aeabi_dcmple
                0x0800046c                __aeabi_dcmpgt
                0x08000480                __aeabi_dcmpge
 .text          0x08000494      0x620 c:/program files (x86)/atollic/truestudio for stm32 9.3.0/armtools/bin/../lib/gcc/arm-atollic-eabi/6.3.1/armv6-m\libgcc.a(adddf3.o)
                0x08000494                __aeabi_dadd
 .text          0x08000ab4      0x668 c:/program files (x86)/atollic/truestudio for stm32 9.3.0/armtools/bin/../lib/gcc/arm-atollic-eabi/6.3.1/armv6-m\libgcc.a(divdf3.o)
                0x08000ab4                __aeabi_ddiv
 .text          0x0800111c       0x74 c:/program files (x86)/atollic/truestudio for stm32 9.3.0/armtools/bin/../lib/gcc/arm-atollic-eabi/6.3.1/armv6-m\libgcc.a(eqdf2.o)
                0x0800111c                __nedf2
                0x0800111c                __eqdf2
 .text          0x08001190       0xc8 c:/program files (x86)/atollic/truestudio for stm32 9.3.0/armtools/bin/../lib/gcc/arm-atollic-eabi/6.3.1/armv6-m\libgcc.a(gedf2.o)
                0x08001190                __gedf2
                0x08001190                __gtdf2
 .text          0x08001258       0xc4 c:/program files (x86)/atollic/truestudio for stm32 9.3.0/armtools/bin/../lib/gcc/arm-atollic-eabi/6.3.1/armv6-m\libgcc.a(ledf2.o)
                0x08001258                __ledf2
                0x08001258                __ltdf2
 .text          0x0800131c      0x500 c:/program files (x86)/atollic/truestudio for stm32 9.3.0/armtools/bin/../lib/gcc/arm-atollic-eabi/6.3.1/armv6-m\libgcc.a(muldf3.o)
                0x0800131c                __aeabi_dmul
 .text          0x0800181c      0x62c c:/program files (x86)/atollic/truestudio for stm32 9.3.0/armtools/bin/../lib/gcc/arm-atollic-eabi/6.3.1/armv6-m\libgcc.a(subdf3.o)
                0x0800181c                __aeabi_dsub
 .text          0x08001e48       0x40 c:/program files (x86)/atollic/truestudio for stm32 9.3.0/armtools/bin/../lib/gcc/arm-atollic-eabi/6.3.1/armv6-m\libgcc.a(unorddf2.o)
                0x08001e48                __aeabi_dcmpun
 .text          0x08001e88       0x68 c:/program files (x86)/atollic/truestudio for stm32 9.3.0/armtools/bin/../lib/gcc/arm-atollic-eabi/6.3.1/armv6-m\libgcc.a(fixdfsi.o)
                0x08001e88                __aeabi_d2iz
 .text          0x08001ef0       0x84 c:/program files (x86)/atollic/truestudio for stm32 9.3.0/armtools/bin/../lib/gcc/arm-atollic-eabi/6.3.1/armv6-m\libgcc.a(floatsidf.o)
                0x08001ef0                __aeabi_i2d
 .text          0x08001f74       0x70 c:/program files (x86)/atollic/truestudio for stm32 9.3.0/armtools/bin/../lib/gcc/arm-atollic-eabi/6.3.1/armv6-m\libgcc.a(floatunsidf.o)
                0x08001f74                __aeabi_ui2d
 .text          0x08001fe4       0x3c c:/program files (x86)/atollic/truestudio for stm32 9.3.0/armtools/bin/../lib/gcc/arm-atollic-eabi/6.3.1/armv6-m\libgcc.a(_clzsi2.o)
                0x08001fe4                __clzsi2
 *(.text*)
 .text.Stepper4Coil
                0x08002020       0x58 Core\Src\Stepper.o
                0x08002020                Stepper4Coil
 .text.MX_ADC_Init
                0x08002078      0x12c Core\Src\adc.o
                0x08002078                MX_ADC_Init
 .text.HAL_ADC_MspInit
                0x080021a4       0xe8 Core\Src\adc.o
                0x080021a4                HAL_ADC_MspInit
 .text.Init_ADC
                0x0800228c       0x78 Core\Src\adc.o
                0x0800228c                Init_ADC
 .text.MX_GPIO_Init
                0x08002304      0x274 Core\Src\gpio.o
                0x08002304                MX_GPIO_Init
 .text.set_led  0x08002578       0xd8 Core\Src\gpio.o
                0x08002578                set_led
 .text.set_led_rgb
                0x08002650      0x160 Core\Src\gpio.o
                0x08002650                set_led_rgb
 .text.kick_power_switch
                0x080027b0       0x60 Core\Src\gpio.o
                0x080027b0                kick_power_switch
 .text.read_sensor
                0x08002810      0x328 Core\Src\gpio.o
                0x08002810                read_sensor
 .text.MX_I2C1_Init
                0x08002b38       0x80 Core\Src\i2c.o
                0x08002b38                MX_I2C1_Init
 .text.HAL_I2C_MspInit
                0x08002bb8       0xb4 Core\Src\i2c.o
                0x08002bb8                HAL_I2C_MspInit
 .text.MX_IWDG_Init
                0x08002c6c       0x40 Core\Src\iwdg.o
                0x08002c6c                MX_IWDG_Init
 .text.main     0x08002cac      0x2a8 Core\Src\main.o
                0x08002cac                main
 .text.SystemClock_Config
                0x08002f54       0xf0 Core\Src\main.o
                0x08002f54                SystemClock_Config
 .text.__io_putchar
                0x08003044       0x28 Core\Src\main.o
                0x08003044                __io_putchar
 .text.Error_Handler
                0x0800306c        0xa Core\Src\main.o
                0x0800306c                Error_Handler
 .text.assert_failed
                0x08003076       0x12 Core\Src\main.o
                0x08003076                assert_failed
 .text.pat9125_init
                0x08003088       0x88 Core\Src\pat9125.o
                0x08003088                pat9125_init
 .text.pat9125_reset
                0x08003110       0xac Core\Src\pat9125.o
                0x08003110                pat9125_reset
 .text.pat9125_read_pid
                0x080031bc       0x40 Core\Src\pat9125.o
                0x080031bc                pat9125_read_pid
 .text.pat9125_set_res
                0x080031fc       0xe0 Core\Src\pat9125.o
                0x080031fc                pat9125_set_res
 .text.pat9125_update
                0x080032dc      0x268 Core\Src\pat9125.o
                0x080032dc                pat9125_update
 .text.pat9125_grabData
                0x08003544        0xe Core\Src\pat9125.o
                0x08003544                pat9125_grabData
 *fill*         0x08003552        0x2 
 .text.pat9125_printData
                0x08003554       0x88 Core\Src\pat9125.o
                0x08003554                pat9125_printData
 .text.write_reg
                0x080035dc       0x74 Core\Src\pat9125.o
 .text.write_ver_reg
                0x08003650       0xd0 Core\Src\pat9125.o
 .text.read_reg
                0x08003720      0x114 Core\Src\pat9125.o
 .text.pat9130_init
                0x08003834       0x90 Core\Src\pat9130.o
                0x08003834                pat9130_init
 .text.pat9130_reset
                0x080038c4       0xd4 Core\Src\pat9130.o
                0x080038c4                pat9130_reset
 .text.pat9130_read_pid
                0x08003998       0x40 Core\Src\pat9130.o
                0x08003998                pat9130_read_pid
 .text.pat9130_set_res
                0x080039d8       0xf0 Core\Src\pat9130.o
                0x080039d8                pat9130_set_res
 .text.pat9130_update
                0x08003ac8      0x21c Core\Src\pat9130.o
                0x08003ac8                pat9130_update
 .text.pat9130_grabData
                0x08003ce4        0xe Core\Src\pat9130.o
                0x08003ce4                pat9130_grabData
 *fill*         0x08003cf2        0x2 
 .text.pat9130_printData
                0x08003cf4       0x88 Core\Src\pat9130.o
                0x08003cf4                pat9130_printData
 .text.write_reg
                0x08003d7c       0x74 Core\Src\pat9130.o
 .text.write_ver_reg
                0x08003df0       0xd0 Core\Src\pat9130.o
 .text.read_reg
                0x08003ec0      0x114 Core\Src\pat9130.o
 .text.MX_SPI2_Init
                0x08003fd4       0x80 Core\Src\spi.o
                0x08003fd4                MX_SPI2_Init
 .text.HAL_SPI_MspInit
                0x08004054       0xd8 Core\Src\spi.o
                0x08004054                HAL_SPI_MspInit
 .text.HAL_MspInit
                0x0800412c       0x48 Core\Src\stm32f0xx_hal_msp.o
                0x0800412c                HAL_MspInit
 .text.NMI_Handler
                0x08004174        0xa Core\Src\stm32f0xx_it.o
                0x08004174                NMI_Handler
 .text.HardFault_Handler
                0x0800417e        0x6 Core\Src\stm32f0xx_it.o
                0x0800417e                HardFault_Handler
 .text.SVC_Handler
                0x08004184        0xa Core\Src\stm32f0xx_it.o
                0x08004184                SVC_Handler
 .text.PendSV_Handler
                0x0800418e        0xa Core\Src\stm32f0xx_it.o
                0x0800418e                PendSV_Handler
 .text.SysTick_Handler
                0x08004198        0xe Core\Src\stm32f0xx_it.o
                0x08004198                SysTick_Handler
 *fill*         0x080041a6        0x2 
 .text.ADC1_COMP_IRQHandler
                0x080041a8       0x18 Core\Src\stm32f0xx_it.o
                0x080041a8                ADC1_COMP_IRQHandler
 .text.TIM7_IRQHandler
                0x080041c0       0x1c Core\Src\stm32f0xx_it.o
                0x080041c0                TIM7_IRQHandler
 .text.USART3_4_IRQHandler
                0x080041dc       0x18 Core\Src\stm32f0xx_it.o
                0x080041dc                USART3_4_IRQHandler
 .text.USB_IRQHandler
                0x080041f4       0x18 Core\Src\stm32f0xx_it.o
                0x080041f4                USB_IRQHandler
 .text.EXTI4_15_IRQHandler
                0x0800420c       0x14 Core\Src\stm32f0xx_it.o
                0x0800420c                EXTI4_15_IRQHandler
 .text.change_program
                0x08004220      0x1e4 Core\Src\stm32f0xx_it.o
                0x08004220                change_program
 .text.HAL_GPIO_EXTI_Callback
                0x08004404       0x24 Core\Src\stm32f0xx_it.o
                0x08004404                HAL_GPIO_EXTI_Callback
 .text.HAL_ADC_ConvCpltCallback
                0x08004428       0x1c Core\Src\stm32f0xx_it.o
                0x08004428                HAL_ADC_ConvCpltCallback
 .text._read    0x08004444       0x3a Core\Src\syscalls.o
                0x08004444                _read
 .text._write   0x0800447e       0x38 Core\Src\syscalls.o
                0x0800447e                _write
 *fill*         0x080044b6        0x2 
 .text._sbrk    0x080044b8       0x58 Core\Src\syscalls.o
                0x080044b8                _sbrk
 .text._close   0x08004510       0x14 Core\Src\syscalls.o
                0x08004510                _close
 .text._fstat   0x08004524       0x1c Core\Src\syscalls.o
                0x08004524                _fstat
 .text._isatty  0x08004540       0x12 Core\Src\syscalls.o
                0x08004540                _isatty
 .text._lseek   0x08004552       0x16 Core\Src\syscalls.o
                0x08004552                _lseek
 .text.SystemInit
                0x08004568        0xa Core\Src\system_stm32f0xx.o
                0x08004568                SystemInit
 *fill*         0x08004572        0x2 
 .text.MX_TIM1_Init
                0x08004574      0x1ac Core\Src\tim.o
                0x08004574                MX_TIM1_Init
 .text.MX_TIM2_Init
                0x08004720      0x140 Core\Src\tim.o
                0x08004720                MX_TIM2_Init
 .text.MX_TIM3_Init
                0x08004860      0x144 Core\Src\tim.o
                0x08004860                MX_TIM3_Init
 .text.MX_TIM7_Init
                0x080049a4       0x74 Core\Src\tim.o
                0x080049a4                MX_TIM7_Init
 .text.HAL_TIM_Base_MspInit
                0x08004a18       0xcc Core\Src\tim.o
                0x08004a18                HAL_TIM_Base_MspInit
 .text.HAL_TIM_MspPostInit
                0x08004ae4      0x254 Core\Src\tim.o
                0x08004ae4                HAL_TIM_MspPostInit
 .text.Main_Clock_Init
                0x08004d38       0xb8 Core\Src\tim.o
                0x08004d38                Main_Clock_Init
 .text.System_Clock_Timer_TickTIM7
                0x08004df0      0x224 Core\Src\tim.o
                0x08004df0                System_Clock_Timer_TickTIM7
 .text.MX_USART3_UART_Init
                0x08005014       0x60 Core\Src\usart.o
                0x08005014                MX_USART3_UART_Init
 .text.HAL_UART_MspInit
                0x08005074      0x134 Core\Src\usart.o
                0x08005074                HAL_UART_MspInit
 .text.HAL_Init
                0x080051a8       0x28 Drivers\STM32F0xx_HAL_Driver\Src\stm32f0xx_hal.o
                0x080051a8                HAL_Init
 .text.HAL_InitTick
                0x080051d0       0x68 Drivers\STM32F0xx_HAL_Driver\Src\stm32f0xx_hal.o
                0x080051d0                HAL_InitTick
 .text.HAL_IncTick
                0x08005238       0x24 Drivers\STM32F0xx_HAL_Driver\Src\stm32f0xx_hal.o
                0x08005238                HAL_IncTick
 .text.HAL_GetTick
                0x0800525c       0x14 Drivers\STM32F0xx_HAL_Driver\Src\stm32f0xx_hal.o
                0x0800525c                HAL_GetTick
 .text.HAL_Delay
                0x08005270       0x44 Drivers\STM32F0xx_HAL_Driver\Src\stm32f0xx_hal.o
                0x08005270                HAL_Delay
 .text.HAL_ADC_Init
                0x080052b4      0x49c Drivers\STM32F0xx_HAL_Driver\Src\stm32f0xx_hal_adc.o
                0x080052b4                HAL_ADC_Init
 .text.HAL_ADC_IRQHandler
                0x08005750      0x1d0 Drivers\STM32F0xx_HAL_Driver\Src\stm32f0xx_hal_adc.o
                0x08005750                HAL_ADC_IRQHandler
 .text.HAL_ADC_LevelOutOfWindowCallback
                0x08005920       0x10 Drivers\STM32F0xx_HAL_Driver\Src\stm32f0xx_hal_adc.o
                0x08005920                HAL_ADC_LevelOutOfWindowCallback
 .text.HAL_ADC_ErrorCallback
                0x08005930       0x10 Drivers\STM32F0xx_HAL_Driver\Src\stm32f0xx_hal_adc.o
                0x08005930                HAL_ADC_ErrorCallback
 .text.HAL_ADC_ConfigChannel
                0x08005940      0x378 Drivers\STM32F0xx_HAL_Driver\Src\stm32f0xx_hal_adc.o
                0x08005940                HAL_ADC_ConfigChannel
 .text.HAL_ADCEx_Calibration_Start
                0x08005cb8      0x158 Drivers\STM32F0xx_HAL_Driver\Src\stm32f0xx_hal_adc_ex.o
                0x08005cb8                HAL_ADCEx_Calibration_Start
 .text.__NVIC_EnableIRQ
                0x08005e10       0x34 Drivers\STM32F0xx_HAL_Driver\Src\stm32f0xx_hal_cortex.o
 .text.__NVIC_SetPriority
                0x08005e44       0xdc Drivers\STM32F0xx_HAL_Driver\Src\stm32f0xx_hal_cortex.o
 .text.SysTick_Config
                0x08005f20       0x48 Drivers\STM32F0xx_HAL_Driver\Src\stm32f0xx_hal_cortex.o
 .text.HAL_NVIC_SetPriority
                0x08005f68       0x40 Drivers\STM32F0xx_HAL_Driver\Src\stm32f0xx_hal_cortex.o
                0x08005f68                HAL_NVIC_SetPriority
 .text.HAL_NVIC_EnableIRQ
                0x08005fa8       0x38 Drivers\STM32F0xx_HAL_Driver\Src\stm32f0xx_hal_cortex.o
                0x08005fa8                HAL_NVIC_EnableIRQ
 .text.HAL_SYSTICK_Config
                0x08005fe0       0x1a Drivers\STM32F0xx_HAL_Driver\Src\stm32f0xx_hal_cortex.o
                0x08005fe0                HAL_SYSTICK_Config
 .text.HAL_DMA_Abort_IT
                0x08005ffa       0x8c Drivers\STM32F0xx_HAL_Driver\Src\stm32f0xx_hal_dma.o
                0x08005ffa                HAL_DMA_Abort_IT
 *fill*         0x08006086        0x2 
 .text.HAL_GPIO_Init
                0x08006088      0x474 Drivers\STM32F0xx_HAL_Driver\Src\stm32f0xx_hal_gpio.o
                0x08006088                HAL_GPIO_Init
 .text.HAL_GPIO_ReadPin
                0x080064fc       0x60 Drivers\STM32F0xx_HAL_Driver\Src\stm32f0xx_hal_gpio.o
                0x080064fc                HAL_GPIO_ReadPin
 .text.HAL_GPIO_WritePin
                0x0800655c       0x80 Drivers\STM32F0xx_HAL_Driver\Src\stm32f0xx_hal_gpio.o
                0x0800655c                HAL_GPIO_WritePin
 .text.HAL_GPIO_EXTI_IRQHandler
                0x080065dc       0x38 Drivers\STM32F0xx_HAL_Driver\Src\stm32f0xx_hal_gpio.o
                0x080065dc                HAL_GPIO_EXTI_IRQHandler
 .text.HAL_I2C_Init
                0x08006614      0x264 Drivers\STM32F0xx_HAL_Driver\Src\stm32f0xx_hal_i2c.o
                0x08006614                HAL_I2C_Init
 .text.HAL_I2CEx_ConfigAnalogFilter
                0x08006878       0xdc Drivers\STM32F0xx_HAL_Driver\Src\stm32f0xx_hal_i2c_ex.o
                0x08006878                HAL_I2CEx_ConfigAnalogFilter
 .text.HAL_I2CEx_ConfigDigitalFilter
                0x08006954       0xd4 Drivers\STM32F0xx_HAL_Driver\Src\stm32f0xx_hal_i2c_ex.o
                0x08006954                HAL_I2CEx_ConfigDigitalFilter
 .text.HAL_IWDG_Init
                0x08006a28      0x120 Drivers\STM32F0xx_HAL_Driver\Src\stm32f0xx_hal_iwdg.o
                0x08006a28                HAL_IWDG_Init
 .text.HAL_IWDG_Refresh
                0x08006b48       0x20 Drivers\STM32F0xx_HAL_Driver\Src\stm32f0xx_hal_iwdg.o
                0x08006b48                HAL_IWDG_Refresh
 .text.HAL_PCD_Init
                0x08006b68      0x260 Drivers\STM32F0xx_HAL_Driver\Src\stm32f0xx_hal_pcd.o
                0x08006b68                HAL_PCD_Init
 .text.HAL_PCD_Start
                0x08006dc8       0x4a Drivers\STM32F0xx_HAL_Driver\Src\stm32f0xx_hal_pcd.o
                0x08006dc8                HAL_PCD_Start
 *fill*         0x08006e12        0x2 
 .text.HAL_PCD_IRQHandler
                0x08006e14      0x2f8 Drivers\STM32F0xx_HAL_Driver\Src\stm32f0xx_hal_pcd.o
                0x08006e14                HAL_PCD_IRQHandler
 .text.HAL_PCD_SetAddress
                0x0800710c       0x56 Drivers\STM32F0xx_HAL_Driver\Src\stm32f0xx_hal_pcd.o
                0x0800710c                HAL_PCD_SetAddress
 .text.HAL_PCD_EP_Open
                0x08007162       0xf0 Drivers\STM32F0xx_HAL_Driver\Src\stm32f0xx_hal_pcd.o
                0x08007162                HAL_PCD_EP_Open
 .text.HAL_PCD_EP_Close
                0x08007252       0xa2 Drivers\STM32F0xx_HAL_Driver\Src\stm32f0xx_hal_pcd.o
                0x08007252                HAL_PCD_EP_Close
 .text.HAL_PCD_EP_Receive
                0x080072f4       0x8c Drivers\STM32F0xx_HAL_Driver\Src\stm32f0xx_hal_pcd.o
                0x080072f4                HAL_PCD_EP_Receive
 .text.HAL_PCD_EP_Transmit
                0x08007380       0x98 Drivers\STM32F0xx_HAL_Driver\Src\stm32f0xx_hal_pcd.o
                0x08007380                HAL_PCD_EP_Transmit
 .text.HAL_PCD_EP_SetStall
                0x08007418       0xb8 Drivers\STM32F0xx_HAL_Driver\Src\stm32f0xx_hal_pcd.o
                0x08007418                HAL_PCD_EP_SetStall
 .text.HAL_PCD_EP_ClrStall
                0x080074d0       0xbc Drivers\STM32F0xx_HAL_Driver\Src\stm32f0xx_hal_pcd.o
                0x080074d0                HAL_PCD_EP_ClrStall
 .text.PCD_EP_ISR_Handler
                0x0800758c      0x6c0 Drivers\STM32F0xx_HAL_Driver\Src\stm32f0xx_hal_pcd.o
 .text.HAL_PCD_EP_DB_Receive
                0x08007c4c      0x254 Drivers\STM32F0xx_HAL_Driver\Src\stm32f0xx_hal_pcd.o
 .text.HAL_PCD_EP_DB_Transmit
                0x08007ea0      0x580 Drivers\STM32F0xx_HAL_Driver\Src\stm32f0xx_hal_pcd.o
 .text.HAL_PCDEx_PMAConfig
                0x08008420       0x9e Drivers\STM32F0xx_HAL_Driver\Src\stm32f0xx_hal_pcd_ex.o
                0x08008420                HAL_PCDEx_PMAConfig
 .text.HAL_PCDEx_ActivateLPM
                0x080084be       0x54 Drivers\STM32F0xx_HAL_Driver\Src\stm32f0xx_hal_pcd_ex.o
                0x080084be                HAL_PCDEx_ActivateLPM
 .text.HAL_PCDEx_LPM_Callback
                0x08008512       0x16 Drivers\STM32F0xx_HAL_Driver\Src\stm32f0xx_hal_pcd_ex.o
                0x08008512                HAL_PCDEx_LPM_Callback
 .text.HAL_RCC_OscConfig
                0x08008528      0xa2c Drivers\STM32F0xx_HAL_Driver\Src\stm32f0xx_hal_rcc.o
                0x08008528                HAL_RCC_OscConfig
 .text.HAL_RCC_ClockConfig
                0x08008f54      0x2d0 Drivers\STM32F0xx_HAL_Driver\Src\stm32f0xx_hal_rcc.o
                0x08008f54                HAL_RCC_ClockConfig
 .text.HAL_RCC_GetSysClockFreq
                0x08009224       0xfc Drivers\STM32F0xx_HAL_Driver\Src\stm32f0xx_hal_rcc.o
                0x08009224                HAL_RCC_GetSysClockFreq
 .text.HAL_RCC_GetHCLKFreq
                0x08009320       0x14 Drivers\STM32F0xx_HAL_Driver\Src\stm32f0xx_hal_rcc.o
                0x08009320                HAL_RCC_GetHCLKFreq
 .text.HAL_RCC_GetPCLK1Freq
                0x08009334       0x2c Drivers\STM32F0xx_HAL_Driver\Src\stm32f0xx_hal_rcc.o
                0x08009334                HAL_RCC_GetPCLK1Freq
 .text.HAL_RCCEx_PeriphCLKConfig
                0x08009360      0x2fc Drivers\STM32F0xx_HAL_Driver\Src\stm32f0xx_hal_rcc_ex.o
                0x08009360                HAL_RCCEx_PeriphCLKConfig
 .text.HAL_SPI_Init
                0x0800965c      0x380 Drivers\STM32F0xx_HAL_Driver\Src\stm32f0xx_hal_spi.o
                0x0800965c                HAL_SPI_Init
 .text.HAL_SPI_Transmit
                0x080099dc      0x360 Drivers\STM32F0xx_HAL_Driver\Src\stm32f0xx_hal_spi.o
                0x080099dc                HAL_SPI_Transmit
 .text.HAL_SPI_Receive
                0x08009d3c      0x2bc Drivers\STM32F0xx_HAL_Driver\Src\stm32f0xx_hal_spi.o
                0x08009d3c                HAL_SPI_Receive
 .text.HAL_SPI_TransmitReceive
                0x08009ff8      0x4e4 Drivers\STM32F0xx_HAL_Driver\Src\stm32f0xx_hal_spi.o
                0x08009ff8                HAL_SPI_TransmitReceive
 .text.SPI_WaitFlagStateUntilTimeout
                0x0800a4dc       0xe0 Drivers\STM32F0xx_HAL_Driver\Src\stm32f0xx_hal_spi.o
 .text.SPI_WaitFifoStateUntilTimeout
                0x0800a5bc       0xe8 Drivers\STM32F0xx_HAL_Driver\Src\stm32f0xx_hal_spi.o
 .text.SPI_EndRxTransaction
                0x0800a6a4       0xbc Drivers\STM32F0xx_HAL_Driver\Src\stm32f0xx_hal_spi.o
 .text.SPI_EndRxTxTransaction
                0x0800a760       0x8c Drivers\STM32F0xx_HAL_Driver\Src\stm32f0xx_hal_spi.o
 .text.HAL_TIM_Base_Init
                0x0800a7ec      0x16c Drivers\STM32F0xx_HAL_Driver\Src\stm32f0xx_hal_tim.o
                0x0800a7ec                HAL_TIM_Base_Init
 .text.HAL_TIM_Base_Start_IT
                0x0800a958       0xd4 Drivers\STM32F0xx_HAL_Driver\Src\stm32f0xx_hal_tim.o
                0x0800a958                HAL_TIM_Base_Start_IT
 .text.HAL_TIM_PWM_Init
                0x0800aa2c      0x170 Drivers\STM32F0xx_HAL_Driver\Src\stm32f0xx_hal_tim.o
                0x0800aa2c                HAL_TIM_PWM_Init
 .text.HAL_TIM_PWM_MspInit
                0x0800ab9c       0x10 Drivers\STM32F0xx_HAL_Driver\Src\stm32f0xx_hal_tim.o
                0x0800ab9c                HAL_TIM_PWM_MspInit
 .text.HAL_TIM_PWM_Start
                0x0800abac      0x164 Drivers\STM32F0xx_HAL_Driver\Src\stm32f0xx_hal_tim.o
                0x0800abac                HAL_TIM_PWM_Start
 .text.HAL_TIM_IRQHandler
                0x0800ad10      0x22c Drivers\STM32F0xx_HAL_Driver\Src\stm32f0xx_hal_tim.o
                0x0800ad10                HAL_TIM_IRQHandler
 .text.HAL_TIM_PWM_ConfigChannel
                0x0800af3c      0x310 Drivers\STM32F0xx_HAL_Driver\Src\stm32f0xx_hal_tim.o
                0x0800af3c                HAL_TIM_PWM_ConfigChannel
 .text.HAL_TIM_ConfigClockSource
                0x0800b24c      0x604 Drivers\STM32F0xx_HAL_Driver\Src\stm32f0xx_hal_tim.o
                0x0800b24c                HAL_TIM_ConfigClockSource
 .text.HAL_TIM_PeriodElapsedCallback
                0x0800b850       0x10 Drivers\STM32F0xx_HAL_Driver\Src\stm32f0xx_hal_tim.o
                0x0800b850                HAL_TIM_PeriodElapsedCallback
 .text.HAL_TIM_OC_DelayElapsedCallback
                0x0800b860       0x10 Drivers\STM32F0xx_HAL_Driver\Src\stm32f0xx_hal_tim.o
                0x0800b860                HAL_TIM_OC_DelayElapsedCallback
 .text.HAL_TIM_IC_CaptureCallback
                0x0800b870       0x10 Drivers\STM32F0xx_HAL_Driver\Src\stm32f0xx_hal_tim.o
                0x0800b870                HAL_TIM_IC_CaptureCallback
 .text.HAL_TIM_PWM_PulseFinishedCallback
                0x0800b880       0x10 Drivers\STM32F0xx_HAL_Driver\Src\stm32f0xx_hal_tim.o
                0x0800b880                HAL_TIM_PWM_PulseFinishedCallback
 .text.HAL_TIM_TriggerCallback
                0x0800b890       0x10 Drivers\STM32F0xx_HAL_Driver\Src\stm32f0xx_hal_tim.o
                0x0800b890                HAL_TIM_TriggerCallback
 .text.TIM_Base_SetConfig
                0x0800b8a0      0x100 Drivers\STM32F0xx_HAL_Driver\Src\stm32f0xx_hal_tim.o
                0x0800b8a0                TIM_Base_SetConfig
 .text.TIM_OC1_SetConfig
                0x0800b9a0      0x178 Drivers\STM32F0xx_HAL_Driver\Src\stm32f0xx_hal_tim.o
 .text.TIM_OC2_SetConfig
                0x0800bb18      0x174 Drivers\STM32F0xx_HAL_Driver\Src\stm32f0xx_hal_tim.o
                0x0800bb18                TIM_OC2_SetConfig
 .text.TIM_OC3_SetConfig
                0x0800bc8c      0x178 Drivers\STM32F0xx_HAL_Driver\Src\stm32f0xx_hal_tim.o
 .text.TIM_OC4_SetConfig
                0x0800be04       0xfc Drivers\STM32F0xx_HAL_Driver\Src\stm32f0xx_hal_tim.o
 .text.TIM_TI1_ConfigInputStage
                0x0800bf00       0x5c Drivers\STM32F0xx_HAL_Driver\Src\stm32f0xx_hal_tim.o
 .text.TIM_TI2_ConfigInputStage
                0x0800bf5c       0x64 Drivers\STM32F0xx_HAL_Driver\Src\stm32f0xx_hal_tim.o
 .text.TIM_ITRx_SetConfig
                0x0800bfc0       0x32 Drivers\STM32F0xx_HAL_Driver\Src\stm32f0xx_hal_tim.o
 *fill*         0x0800bff2        0x2 
 .text.TIM_ETR_SetConfig
                0x0800bff4       0x40 Drivers\STM32F0xx_HAL_Driver\Src\stm32f0xx_hal_tim.o
                0x0800bff4                TIM_ETR_SetConfig
 .text.TIM_CCxChannelCmd
                0x0800c034       0xdc Drivers\STM32F0xx_HAL_Driver\Src\stm32f0xx_hal_tim.o
                0x0800c034                TIM_CCxChannelCmd
 .text.HAL_TIMEx_MasterConfigSynchronization
                0x0800c110      0x188 Drivers\STM32F0xx_HAL_Driver\Src\stm32f0xx_hal_tim_ex.o
                0x0800c110                HAL_TIMEx_MasterConfigSynchronization
 .text.HAL_TIMEx_ConfigBreakDeadTime
                0x0800c298      0x20c Drivers\STM32F0xx_HAL_Driver\Src\stm32f0xx_hal_tim_ex.o
                0x0800c298                HAL_TIMEx_ConfigBreakDeadTime
 .text.HAL_TIMEx_CommutCallback
                0x0800c4a4       0x10 Drivers\STM32F0xx_HAL_Driver\Src\stm32f0xx_hal_tim_ex.o
                0x0800c4a4                HAL_TIMEx_CommutCallback
 .text.HAL_TIMEx_BreakCallback
                0x0800c4b4       0x10 Drivers\STM32F0xx_HAL_Driver\Src\stm32f0xx_hal_tim_ex.o
                0x0800c4b4                HAL_TIMEx_BreakCallback
 .text.HAL_UART_Init
                0x0800c4c4      0x134 Drivers\STM32F0xx_HAL_Driver\Src\stm32f0xx_hal_uart.o
                0x0800c4c4                HAL_UART_Init
 .text.HAL_UART_Transmit
                0x0800c5f8      0x150 Drivers\STM32F0xx_HAL_Driver\Src\stm32f0xx_hal_uart.o
                0x0800c5f8                HAL_UART_Transmit
 .text.HAL_UART_IRQHandler
                0x0800c748      0x278 Drivers\STM32F0xx_HAL_Driver\Src\stm32f0xx_hal_uart.o
                0x0800c748                HAL_UART_IRQHandler
 .text.HAL_UART_TxCpltCallback
                0x0800c9c0       0x10 Drivers\STM32F0xx_HAL_Driver\Src\stm32f0xx_hal_uart.o
                0x0800c9c0                HAL_UART_TxCpltCallback
 .text.HAL_UART_ErrorCallback
                0x0800c9d0       0x10 Drivers\STM32F0xx_HAL_Driver\Src\stm32f0xx_hal_uart.o
                0x0800c9d0                HAL_UART_ErrorCallback
 .text.UART_SetConfig
                0x0800c9e0      0x4fc Drivers\STM32F0xx_HAL_Driver\Src\stm32f0xx_hal_uart.o
                0x0800c9e0                UART_SetConfig
 .text.UART_AdvFeatureConfig
                0x0800cedc      0x2f8 Drivers\STM32F0xx_HAL_Driver\Src\stm32f0xx_hal_uart.o
                0x0800cedc                UART_AdvFeatureConfig
 .text.UART_CheckIdleState
                0x0800d1d4       0x8c Drivers\STM32F0xx_HAL_Driver\Src\stm32f0xx_hal_uart.o
                0x0800d1d4                UART_CheckIdleState
 .text.UART_WaitOnFlagUntilTimeout
                0x0800d260       0xfc Drivers\STM32F0xx_HAL_Driver\Src\stm32f0xx_hal_uart.o
                0x0800d260                UART_WaitOnFlagUntilTimeout
 .text.UART_EndRxTransfer
                0x0800d35c       0x40 Drivers\STM32F0xx_HAL_Driver\Src\stm32f0xx_hal_uart.o
 .text.UART_DMAAbortOnError
                0x0800d39c       0x2e Drivers\STM32F0xx_HAL_Driver\Src\stm32f0xx_hal_uart.o
 .text.UART_EndTransmit_IT
                0x0800d3ca       0x34 Drivers\STM32F0xx_HAL_Driver\Src\stm32f0xx_hal_uart.o
 .text.HAL_UARTEx_WakeupCallback
                0x0800d3fe       0x10 Drivers\STM32F0xx_HAL_Driver\Src\stm32f0xx_hal_uart_ex.o
                0x0800d3fe                HAL_UARTEx_WakeupCallback
 *fill*         0x0800d40e        0x2 
 .text.USB_EnableGlobalInt
                0x0800d410       0x2c Drivers\STM32F0xx_HAL_Driver\Src\stm32f0xx_ll_usb.o
                0x0800d410                USB_EnableGlobalInt
 .text.USB_DisableGlobalInt
                0x0800d43c       0x34 Drivers\STM32F0xx_HAL_Driver\Src\stm32f0xx_ll_usb.o
                0x0800d43c                USB_DisableGlobalInt
 .text.USB_DevInit
                0x0800d470       0x58 Drivers\STM32F0xx_HAL_Driver\Src\stm32f0xx_ll_usb.o
                0x0800d470                USB_DevInit
 .text.USB_ActivateEndpoint
                0x0800d4c8      0x6f8 Drivers\STM32F0xx_HAL_Driver\Src\stm32f0xx_ll_usb.o
                0x0800d4c8                USB_ActivateEndpoint
 .text.USB_DeactivateEndpoint
                0x0800dbc0      0x3a8 Drivers\STM32F0xx_HAL_Driver\Src\stm32f0xx_ll_usb.o
                0x0800dbc0                USB_DeactivateEndpoint
 .text.USB_EPStartXfer
                0x0800df68     0x13d8 Drivers\STM32F0xx_HAL_Driver\Src\stm32f0xx_ll_usb.o
                0x0800df68                USB_EPStartXfer
 .text.USB_EPSetStall
                0x0800f340       0xac Drivers\STM32F0xx_HAL_Driver\Src\stm32f0xx_ll_usb.o
                0x0800f340                USB_EPSetStall
 .text.USB_EPClearStall
                0x0800f3ec      0x17c Drivers\STM32F0xx_HAL_Driver\Src\stm32f0xx_ll_usb.o
                0x0800f3ec                USB_EPClearStall
 .text.USB_SetDevAddress
                0x0800f568       0x28 Drivers\STM32F0xx_HAL_Driver\Src\stm32f0xx_ll_usb.o
                0x0800f568                USB_SetDevAddress
 .text.USB_DevConnect
                0x0800f590       0x2c Drivers\STM32F0xx_HAL_Driver\Src\stm32f0xx_ll_usb.o
                0x0800f590                USB_DevConnect
 .text.USB_ReadInterrupts
                0x0800f5bc       0x1c Drivers\STM32F0xx_HAL_Driver\Src\stm32f0xx_ll_usb.o
                0x0800f5bc                USB_ReadInterrupts
 .text.USB_WritePMA
                0x0800f5d8       0x86 Drivers\STM32F0xx_HAL_Driver\Src\stm32f0xx_ll_usb.o
                0x0800f5d8                USB_WritePMA
 .text.USB_ReadPMA
                0x0800f65e       0x9e Drivers\STM32F0xx_HAL_Driver\Src\stm32f0xx_ll_usb.o
                0x0800f65e                USB_ReadPMA
 .text.USBD_HID_Init
                0x0800f6fc       0x56 Middlewares\ST\STM32_USB_Device_Library\Class\HID\Src\usbd_hid.o
 .text.USBD_HID_DeInit
                0x0800f752       0x4c Middlewares\ST\STM32_USB_Device_Library\Class\HID\Src\usbd_hid.o
 *fill*         0x0800f79e        0x2 
 .text.USBD_HID_Setup
                0x0800f7a0      0x218 Middlewares\ST\STM32_USB_Device_Library\Class\HID\Src\usbd_hid.o
 .text.USBD_HID_SendReport
                0x0800f9b8       0x4a Middlewares\ST\STM32_USB_Device_Library\Class\HID\Src\usbd_hid.o
                0x0800f9b8                USBD_HID_SendReport
 *fill*         0x0800fa02        0x2 
 .text.USBD_HID_GetFSCfgDesc
                0x0800fa04       0x1c Middlewares\ST\STM32_USB_Device_Library\Class\HID\Src\usbd_hid.o
 .text.USBD_HID_GetHSCfgDesc
                0x0800fa20       0x1c Middlewares\ST\STM32_USB_Device_Library\Class\HID\Src\usbd_hid.o
 .text.USBD_HID_GetOtherSpeedCfgDesc
                0x0800fa3c       0x1c Middlewares\ST\STM32_USB_Device_Library\Class\HID\Src\usbd_hid.o
 .text.USBD_HID_DataIn
                0x0800fa58       0x24 Middlewares\ST\STM32_USB_Device_Library\Class\HID\Src\usbd_hid.o
 .text.USBD_HID_GetDeviceQualifierDesc
                0x0800fa7c       0x1c Middlewares\ST\STM32_USB_Device_Library\Class\HID\Src\usbd_hid.o
 .text.USBD_Init
                0x0800fa98       0x80 Middlewares\ST\STM32_USB_Device_Library\Core\Src\usbd_core.o
                0x0800fa98                USBD_Init
 .text.USBD_RegisterClass
                0x0800fb18       0x60 Middlewares\ST\STM32_USB_Device_Library\Core\Src\usbd_core.o
                0x0800fb18                USBD_RegisterClass
 .text.USBD_Start
                0x0800fb78       0x1a Middlewares\ST\STM32_USB_Device_Library\Core\Src\usbd_core.o
                0x0800fb78                USBD_Start
 .text.USBD_RunTestMode
                0x0800fb92       0x12 Middlewares\ST\STM32_USB_Device_Library\Core\Src\usbd_core.o
                0x0800fb92                USBD_RunTestMode
 .text.USBD_SetClassConfig
                0x0800fba4       0x50 Middlewares\ST\STM32_USB_Device_Library\Core\Src\usbd_core.o
                0x0800fba4                USBD_SetClassConfig
 .text.USBD_ClrClassConfig
                0x0800fbf4       0x2c Middlewares\ST\STM32_USB_Device_Library\Core\Src\usbd_core.o
                0x0800fbf4                USBD_ClrClassConfig
 .text.USBD_LL_SetupStage
                0x0800fc20       0xb8 Middlewares\ST\STM32_USB_Device_Library\Core\Src\usbd_core.o
                0x0800fc20                USBD_LL_SetupStage
 .text.USBD_LL_DataOutStage
                0x0800fcd8      0x106 Middlewares\ST\STM32_USB_Device_Library\Core\Src\usbd_core.o
                0x0800fcd8                USBD_LL_DataOutStage
 .text.USBD_LL_DataInStage
                0x0800fdde      0x17c Middlewares\ST\STM32_USB_Device_Library\Core\Src\usbd_core.o
                0x0800fdde                USBD_LL_DataInStage
 .text.USBD_LL_Reset
                0x0800ff5a       0x90 Middlewares\ST\STM32_USB_Device_Library\Core\Src\usbd_core.o
                0x0800ff5a                USBD_LL_Reset
 .text.USBD_LL_SetSpeed
                0x0800ffea       0x20 Middlewares\ST\STM32_USB_Device_Library\Core\Src\usbd_core.o
                0x0800ffea                USBD_LL_SetSpeed
 *fill*         0x0801000a        0x2 
 .text.USBD_LL_Suspend
                0x0801000c       0x30 Middlewares\ST\STM32_USB_Device_Library\Core\Src\usbd_core.o
                0x0801000c                USBD_LL_Suspend
 .text.USBD_LL_Resume
                0x0801003c       0x30 Middlewares\ST\STM32_USB_Device_Library\Core\Src\usbd_core.o
                0x0801003c                USBD_LL_Resume
 .text.USBD_LL_SOF
                0x0801006c       0x3c Middlewares\ST\STM32_USB_Device_Library\Core\Src\usbd_core.o
                0x0801006c                USBD_LL_SOF
 .text.USBD_StdDevReq
                0x080100a8       0xe4 Middlewares\ST\STM32_USB_Device_Library\Core\Src\usbd_ctlreq.o
                0x080100a8                USBD_StdDevReq
 .text.USBD_StdItfReq
                0x0801018c       0xae Middlewares\ST\STM32_USB_Device_Library\Core\Src\usbd_ctlreq.o
                0x0801018c                USBD_StdItfReq
 .text.USBD_StdEPReq
                0x0801023a      0x37e Middlewares\ST\STM32_USB_Device_Library\Core\Src\usbd_ctlreq.o
                0x0801023a                USBD_StdEPReq
 .text.USBD_GetDescriptor
                0x080105b8      0x37c Middlewares\ST\STM32_USB_Device_Library\Core\Src\usbd_ctlreq.o
 .text.USBD_SetAddress
                0x08010934       0xac Middlewares\ST\STM32_USB_Device_Library\Core\Src\usbd_ctlreq.o
 .text.USBD_SetConfig
                0x080109e0      0x148 Middlewares\ST\STM32_USB_Device_Library\Core\Src\usbd_ctlreq.o
 .text.USBD_GetConfig
                0x08010b28       0x74 Middlewares\ST\STM32_USB_Device_Library\Core\Src\usbd_ctlreq.o
 .text.USBD_GetStatus
                0x08010b9c       0x74 Middlewares\ST\STM32_USB_Device_Library\Core\Src\usbd_ctlreq.o
 .text.USBD_SetFeature
                0x08010c10       0x2c Middlewares\ST\STM32_USB_Device_Library\Core\Src\usbd_ctlreq.o
 .text.USBD_ClrFeature
                0x08010c3c       0x4c Middlewares\ST\STM32_USB_Device_Library\Core\Src\usbd_ctlreq.o
 .text.USBD_ParseSetupRequest
                0x08010c88       0x76 Middlewares\ST\STM32_USB_Device_Library\Core\Src\usbd_ctlreq.o
                0x08010c88                USBD_ParseSetupRequest
 .text.USBD_CtlError
                0x08010cfe       0x26 Middlewares\ST\STM32_USB_Device_Library\Core\Src\usbd_ctlreq.o
                0x08010cfe                USBD_CtlError
 .text.USBD_GetString
                0x08010d24       0xaa Middlewares\ST\STM32_USB_Device_Library\Core\Src\usbd_ctlreq.o
                0x08010d24                USBD_GetString
 .text.USBD_GetLen
                0x08010dce       0x3c Middlewares\ST\STM32_USB_Device_Library\Core\Src\usbd_ctlreq.o
 .text.USBD_CtlSendData
                0x08010e0a       0x40 Middlewares\ST\STM32_USB_Device_Library\Core\Src\usbd_ioreq.o
                0x08010e0a                USBD_CtlSendData
 .text.USBD_CtlContinueSendData
                0x08010e4a       0x26 Middlewares\ST\STM32_USB_Device_Library\Core\Src\usbd_ioreq.o
                0x08010e4a                USBD_CtlContinueSendData
 .text.USBD_CtlContinueRx
                0x08010e70       0x26 Middlewares\ST\STM32_USB_Device_Library\Core\Src\usbd_ioreq.o
                0x08010e70                USBD_CtlContinueRx
 .text.USBD_CtlSendStatus
                0x08010e96       0x28 Middlewares\ST\STM32_USB_Device_Library\Core\Src\usbd_ioreq.o
                0x08010e96                USBD_CtlSendStatus
 .text.USBD_CtlReceiveStatus
                0x08010ebe       0x28 Middlewares\ST\STM32_USB_Device_Library\Core\Src\usbd_ioreq.o
                0x08010ebe                USBD_CtlReceiveStatus
 *fill*         0x08010ee6        0x2 
 .text.MX_USB_DEVICE_Init
                0x08010ee8       0x50 USB_DEVICE\App\usb_device.o
                0x08010ee8                MX_USB_DEVICE_Init
 .text.USBD_FS_DeviceDescriptor
                0x08010f38       0x24 USB_DEVICE\App\usbd_desc.o
                0x08010f38                USBD_FS_DeviceDescriptor
 .text.USBD_FS_LangIDStrDescriptor
                0x08010f5c       0x24 USB_DEVICE\App\usbd_desc.o
                0x08010f5c                USBD_FS_LangIDStrDescriptor
 .text.USBD_FS_ProductStrDescriptor
                0x08010f80       0x44 USB_DEVICE\App\usbd_desc.o
                0x08010f80                USBD_FS_ProductStrDescriptor
 .text.USBD_FS_ManufacturerStrDescriptor
                0x08010fc4       0x2c USB_DEVICE\App\usbd_desc.o
                0x08010fc4                USBD_FS_ManufacturerStrDescriptor
 .text.USBD_FS_SerialStrDescriptor
                0x08010ff0       0x28 USB_DEVICE\App\usbd_desc.o
                0x08010ff0                USBD_FS_SerialStrDescriptor
 .text.USBD_FS_ConfigStrDescriptor
                0x08011018       0x44 USB_DEVICE\App\usbd_desc.o
                0x08011018                USBD_FS_ConfigStrDescriptor
 .text.USBD_FS_InterfaceStrDescriptor
                0x0801105c       0x44 USB_DEVICE\App\usbd_desc.o
                0x0801105c                USBD_FS_InterfaceStrDescriptor
 .text.Get_SerialNum
                0x080110a0       0x5c USB_DEVICE\App\usbd_desc.o
 .text.IntToUnicode
                0x080110fc       0x9a USB_DEVICE\App\usbd_desc.o
 *fill*         0x08011196        0x2 
 .text.HAL_PCD_MspInit
                0x08011198       0x50 USB_DEVICE\Target\usbd_conf.o
                0x08011198                HAL_PCD_MspInit
 .text.HAL_PCD_SetupStageCallback
                0x080111e8       0x2a USB_DEVICE\Target\usbd_conf.o
                0x080111e8                HAL_PCD_SetupStageCallback
 .text.HAL_PCD_DataOutStageCallback
                0x08011212       0x42 USB_DEVICE\Target\usbd_conf.o
                0x08011212                HAL_PCD_DataOutStageCallback
 .text.HAL_PCD_DataInStageCallback
                0x08011254       0x3c USB_DEVICE\Target\usbd_conf.o
                0x08011254                HAL_PCD_DataInStageCallback
 .text.HAL_PCD_SOFCallback
                0x08011290       0x1e USB_DEVICE\Target\usbd_conf.o
                0x08011290                HAL_PCD_SOFCallback
 .text.HAL_PCD_ResetCallback
                0x080112ae       0x48 USB_DEVICE\Target\usbd_conf.o
                0x080112ae                HAL_PCD_ResetCallback
 *fill*         0x080112f6        0x2 
 .text.HAL_PCD_SuspendCallback
                0x080112f8       0x38 USB_DEVICE\Target\usbd_conf.o
                0x080112f8                HAL_PCD_SuspendCallback
 .text.HAL_PCD_ResumeCallback
                0x08011330       0x3c USB_DEVICE\Target\usbd_conf.o
                0x08011330                HAL_PCD_ResumeCallback
 .text.USBD_LL_Init
                0x0801136c       0xa0 USB_DEVICE\Target\usbd_conf.o
                0x0801136c                USBD_LL_Init
 .text.USBD_LL_Start
                0x0801140c       0x50 USB_DEVICE\Target\usbd_conf.o
                0x0801140c                USBD_LL_Start
 .text.USBD_LL_OpenEP
                0x0801145c       0x74 USB_DEVICE\Target\usbd_conf.o
                0x0801145c                USBD_LL_OpenEP
 .text.USBD_LL_CloseEP
                0x080114d0       0x5c USB_DEVICE\Target\usbd_conf.o
                0x080114d0                USBD_LL_CloseEP
 .text.USBD_LL_StallEP
                0x0801152c       0x5c USB_DEVICE\Target\usbd_conf.o
                0x0801152c                USBD_LL_StallEP
 .text.USBD_LL_ClearStallEP
                0x08011588       0x5c USB_DEVICE\Target\usbd_conf.o
                0x08011588                USBD_LL_ClearStallEP
 .text.USBD_LL_IsStallEP
                0x080115e4       0x62 USB_DEVICE\Target\usbd_conf.o
                0x080115e4                USBD_LL_IsStallEP
 .text.USBD_LL_SetUSBAddress
                0x08011646       0x5c USB_DEVICE\Target\usbd_conf.o
                0x08011646                USBD_LL_SetUSBAddress
 .text.USBD_LL_Transmit
                0x080116a2       0x74 USB_DEVICE\Target\usbd_conf.o
                0x080116a2                USBD_LL_Transmit
 .text.USBD_LL_PrepareReceive
                0x08011716       0x74 USB_DEVICE\Target\usbd_conf.o
                0x08011716                USBD_LL_PrepareReceive
 *fill*         0x0801178a        0x2 
 .text.USBD_static_malloc
                0x0801178c       0x18 USB_DEVICE\Target\usbd_conf.o
                0x0801178c                USBD_static_malloc
 .text.USBD_static_free
                0x080117a4       0x10 USB_DEVICE\Target\usbd_conf.o
                0x080117a4                USBD_static_free
 .text.SystemClockConfig_Resume
                0x080117b4        0xe USB_DEVICE\Target\usbd_conf.o
 .text.USBD_Get_USB_Status
                0x080117c2       0x6e USB_DEVICE\Target\usbd_conf.o
 .text.Reset_Handler
                0x08011830       0x50 startup\startup_stm32f072xb.o
                0x08011830                Reset_Handler
 .text.Default_Handler
                0x08011880        0x2 startup\startup_stm32f072xb.o
                0x08011880                TIM1_CC_IRQHandler
                0x08011880                TSC_IRQHandler
                0x08011880                I2C1_IRQHandler
                0x08011880                RCC_CRS_IRQHandler
                0x08011880                SPI1_IRQHandler
                0x08011880                TIM6_DAC_IRQHandler
                0x08011880                EXTI2_3_IRQHandler
                0x08011880                I2C2_IRQHandler
                0x08011880                TIM17_IRQHandler
                0x08011880                CEC_CAN_IRQHandler
                0x08011880                RTC_IRQHandler
                0x08011880                PVD_VDDIO2_IRQHandler
                0x08011880                DMA1_Channel4_5_6_7_IRQHandler
                0x08011880                TIM16_IRQHandler
                0x08011880                TIM3_IRQHandler
                0x08011880                DMA1_Channel1_IRQHandler
                0x08011880                Default_Handler
                0x08011880                TIM14_IRQHandler
                0x08011880                TIM15_IRQHandler
                0x08011880                EXTI0_1_IRQHandler
                0x08011880                SPI2_IRQHandler
                0x08011880                WWDG_IRQHandler
                0x08011880                TIM2_IRQHandler
                0x08011880                DMA1_Channel2_3_IRQHandler
                0x08011880                USART2_IRQHandler
                0x08011880                FLASH_IRQHandler
                0x08011880                USART1_IRQHandler
                0x08011880                TIM1_BRK_UP_TRG_COM_IRQHandler
 *fill*         0x08011882        0x2 
 .text.__errno  0x08011884        0xc c:/program files (x86)/atollic/truestudio for stm32 9.3.0/armtools/bin/../lib/gcc/arm-atollic-eabi/6.3.1/../../../../arm-atollic-eabi/lib/armv6-m\libc_nano.a(lib_a-errno.o)
                0x08011884                __errno
 .text.__libc_init_array
                0x08011890       0x48 c:/program files (x86)/atollic/truestudio for stm32 9.3.0/armtools/bin/../lib/gcc/arm-atollic-eabi/6.3.1/../../../../arm-atollic-eabi/lib/armv6-m\libc_nano.a(lib_a-init.o)
                0x08011890                __libc_init_array
 .text.memcpy   0x080118d8       0x12 c:/program files (x86)/atollic/truestudio for stm32 9.3.0/armtools/bin/../lib/gcc/arm-atollic-eabi/6.3.1/../../../../arm-atollic-eabi/lib/armv6-m\libc_nano.a(lib_a-memcpy-stub.o)
                0x080118d8                memcpy
 .text.memset   0x080118ea       0x10 c:/program files (x86)/atollic/truestudio for stm32 9.3.0/armtools/bin/../lib/gcc/arm-atollic-eabi/6.3.1/../../../../arm-atollic-eabi/lib/armv6-m\libc_nano.a(lib_a-memset.o)
                0x080118ea                memset
 .text.__cvt    0x080118fa       0xc8 c:/program files (x86)/atollic/truestudio for stm32 9.3.0/armtools/bin/../lib/gcc/arm-atollic-eabi/6.3.1/../../../../arm-atollic-eabi/lib/armv6-m\libc_nano.a(lib_a-nano-vfprintf_float.o)
                0x080118fa                __cvt
 .text.__exponent
                0x080119c2       0x70 c:/program files (x86)/atollic/truestudio for stm32 9.3.0/armtools/bin/../lib/gcc/arm-atollic-eabi/6.3.1/../../../../arm-atollic-eabi/lib/armv6-m\libc_nano.a(lib_a-nano-vfprintf_float.o)
                0x080119c2                __exponent
 *fill*         0x08011a32        0x2 
 .text._printf_float
                0x08011a34      0x498 c:/program files (x86)/atollic/truestudio for stm32 9.3.0/armtools/bin/../lib/gcc/arm-atollic-eabi/6.3.1/../../../../arm-atollic-eabi/lib/armv6-m\libc_nano.a(lib_a-nano-vfprintf_float.o)
                0x08011a34                _printf_float
 .text._printf_common
                0x08011ecc       0xda c:/program files (x86)/atollic/truestudio for stm32 9.3.0/armtools/bin/../lib/gcc/arm-atollic-eabi/6.3.1/../../../../arm-atollic-eabi/lib/armv6-m\libc_nano.a(lib_a-nano-vfprintf_i.o)
                0x08011ecc                _printf_common
 *fill*         0x08011fa6        0x2 
 .text._printf_i
                0x08011fa8      0x234 c:/program files (x86)/atollic/truestudio for stm32 9.3.0/armtools/bin/../lib/gcc/arm-atollic-eabi/6.3.1/../../../../arm-atollic-eabi/lib/armv6-m\libc_nano.a(lib_a-nano-vfprintf_i.o)
                0x08011fa8                _printf_i
 .text.printf   0x080121dc       0x34 c:/program files (x86)/atollic/truestudio for stm32 9.3.0/armtools/bin/../lib/gcc/arm-atollic-eabi/6.3.1/../../../../arm-atollic-eabi/lib/armv6-m\libc_nano.a(lib_a-printf.o)
                0x080121dc                iprintf
                0x080121dc                printf
 .text.putchar  0x08012210       0x28 c:/program files (x86)/atollic/truestudio for stm32 9.3.0/armtools/bin/../lib/gcc/arm-atollic-eabi/6.3.1/../../../../arm-atollic-eabi/lib/armv6-m\libc_nano.a(lib_a-putchar.o)
                0x08012210                putchar
 .text.quorem   0x08012238      0x108 c:/program files (x86)/atollic/truestudio for stm32 9.3.0/armtools/bin/../lib/gcc/arm-atollic-eabi/6.3.1/../../../../arm-atollic-eabi/lib/armv6-m\libc_nano.a(lib_a-dtoa.o)
 .text._dtoa_r  0x08012340      0xbd0 c:/program files (x86)/atollic/truestudio for stm32 9.3.0/armtools/bin/../lib/gcc/arm-atollic-eabi/6.3.1/../../../../arm-atollic-eabi/lib/armv6-m\libc_nano.a(lib_a-dtoa.o)
                0x08012340                _dtoa_r
 .text._cleanup_r
                0x08012f10       0x10 c:/program files (x86)/atollic/truestudio for stm32 9.3.0/armtools/bin/../lib/gcc/arm-atollic-eabi/6.3.1/../../../../arm-atollic-eabi/lib/armv6-m\libc_nano.a(lib_a-findfp.o)
                0x08012f10                _cleanup_r
 .text.std.isra.0
                0x08012f20       0x48 c:/program files (x86)/atollic/truestudio for stm32 9.3.0/armtools/bin/../lib/gcc/arm-atollic-eabi/6.3.1/../../../../arm-atollic-eabi/lib/armv6-m\libc_nano.a(lib_a-findfp.o)
 .text.__sfmoreglue
                0x08012f68       0x2c c:/program files (x86)/atollic/truestudio for stm32 9.3.0/armtools/bin/../lib/gcc/arm-atollic-eabi/6.3.1/../../../../arm-atollic-eabi/lib/armv6-m\libc_nano.a(lib_a-findfp.o)
                0x08012f68                __sfmoreglue
 .text.__sinit  0x08012f94       0x68 c:/program files (x86)/atollic/truestudio for stm32 9.3.0/armtools/bin/../lib/gcc/arm-atollic-eabi/6.3.1/../../../../arm-atollic-eabi/lib/armv6-m\libc_nano.a(lib_a-findfp.o)
                0x08012f94                __sinit
 .text.__sfp    0x08012ffc       0x80 c:/program files (x86)/atollic/truestudio for stm32 9.3.0/armtools/bin/../lib/gcc/arm-atollic-eabi/6.3.1/../../../../arm-atollic-eabi/lib/armv6-m\libc_nano.a(lib_a-findfp.o)
                0x08012ffc                __sfp
 .text._fwalk_reent
                0x0801307c       0x42 c:/program files (x86)/atollic/truestudio for stm32 9.3.0/armtools/bin/../lib/gcc/arm-atollic-eabi/6.3.1/../../../../arm-atollic-eabi/lib/armv6-m\libc_nano.a(lib_a-fwalk.o)
                0x0801307c                _fwalk_reent
 *fill*         0x080130be        0x2 
 .text._localeconv_r
                0x080130c0       0x18 c:/program files (x86)/atollic/truestudio for stm32 9.3.0/armtools/bin/../lib/gcc/arm-atollic-eabi/6.3.1/../../../../arm-atollic-eabi/lib/armv6-m\libc_nano.a(lib_a-localeconv.o)
                0x080130c0                _localeconv_r
 .text.malloc   0x080130d8       0x14 c:/program files (x86)/atollic/truestudio for stm32 9.3.0/armtools/bin/../lib/gcc/arm-atollic-eabi/6.3.1/../../../../arm-atollic-eabi/lib/armv6-m\libc_nano.a(lib_a-malloc.o)
                0x080130d8                malloc
 .text.memchr   0x080130ec       0x16 c:/program files (x86)/atollic/truestudio for stm32 9.3.0/armtools/bin/../lib/gcc/arm-atollic-eabi/6.3.1/../../../../arm-atollic-eabi/lib/armv6-m\libc_nano.a(lib_a-memchr-stub.o)
                0x080130ec                memchr
 .text._Balloc  0x08013102       0x70 c:/program files (x86)/atollic/truestudio for stm32 9.3.0/armtools/bin/../lib/gcc/arm-atollic-eabi/6.3.1/../../../../arm-atollic-eabi/lib/armv6-m\libc_nano.a(lib_a-mprec.o)
                0x08013102                _Balloc
 .text._Bfree   0x08013172       0x32 c:/program files (x86)/atollic/truestudio for stm32 9.3.0/armtools/bin/../lib/gcc/arm-atollic-eabi/6.3.1/../../../../arm-atollic-eabi/lib/armv6-m\libc_nano.a(lib_a-mprec.o)
                0x08013172                _Bfree
 .text.__multadd
                0x080131a4       0x78 c:/program files (x86)/atollic/truestudio for stm32 9.3.0/armtools/bin/../lib/gcc/arm-atollic-eabi/6.3.1/../../../../arm-atollic-eabi/lib/armv6-m\libc_nano.a(lib_a-mprec.o)
                0x080131a4                __multadd
 .text.__hi0bits
                0x0801321c       0x34 c:/program files (x86)/atollic/truestudio for stm32 9.3.0/armtools/bin/../lib/gcc/arm-atollic-eabi/6.3.1/../../../../arm-atollic-eabi/lib/armv6-m\libc_nano.a(lib_a-mprec.o)
                0x0801321c                __hi0bits
 .text.__lo0bits
                0x08013250       0x5e c:/program files (x86)/atollic/truestudio for stm32 9.3.0/armtools/bin/../lib/gcc/arm-atollic-eabi/6.3.1/../../../../arm-atollic-eabi/lib/armv6-m\libc_nano.a(lib_a-mprec.o)
                0x08013250                __lo0bits
 .text.__i2b    0x080132ae       0x12 c:/program files (x86)/atollic/truestudio for stm32 9.3.0/armtools/bin/../lib/gcc/arm-atollic-eabi/6.3.1/../../../../arm-atollic-eabi/lib/armv6-m\libc_nano.a(lib_a-mprec.o)
                0x080132ae                __i2b
 .text.__multiply
                0x080132c0      0x11e c:/program files (x86)/atollic/truestudio for stm32 9.3.0/armtools/bin/../lib/gcc/arm-atollic-eabi/6.3.1/../../../../arm-atollic-eabi/lib/armv6-m\libc_nano.a(lib_a-mprec.o)
                0x080132c0                __multiply
 *fill*         0x080133de        0x2 
 .text.__pow5mult
                0x080133e0       0xa4 c:/program files (x86)/atollic/truestudio for stm32 9.3.0/armtools/bin/../lib/gcc/arm-atollic-eabi/6.3.1/../../../../arm-atollic-eabi/lib/armv6-m\libc_nano.a(lib_a-mprec.o)
                0x080133e0                __pow5mult
 .text.__lshift
                0x08013484       0xa2 c:/program files (x86)/atollic/truestudio for stm32 9.3.0/armtools/bin/../lib/gcc/arm-atollic-eabi/6.3.1/../../../../arm-atollic-eabi/lib/armv6-m\libc_nano.a(lib_a-mprec.o)
                0x08013484                __lshift
 .text.__mcmp   0x08013526       0x32 c:/program files (x86)/atollic/truestudio for stm32 9.3.0/armtools/bin/../lib/gcc/arm-atollic-eabi/6.3.1/../../../../arm-atollic-eabi/lib/armv6-m\libc_nano.a(lib_a-mprec.o)
                0x08013526                __mcmp
 .text.__mdiff  0x08013558       0xc8 c:/program files (x86)/atollic/truestudio for stm32 9.3.0/armtools/bin/../lib/gcc/arm-atollic-eabi/6.3.1/../../../../arm-atollic-eabi/lib/armv6-m\libc_nano.a(lib_a-mprec.o)
                0x08013558                __mdiff
 .text.__d2b    0x08013620       0xa8 c:/program files (x86)/atollic/truestudio for stm32 9.3.0/armtools/bin/../lib/gcc/arm-atollic-eabi/6.3.1/../../../../arm-atollic-eabi/lib/armv6-m\libc_nano.a(lib_a-mprec.o)
                0x08013620                __d2b
 .text._calloc_r
                0x080136c8       0x1c c:/program files (x86)/atollic/truestudio for stm32 9.3.0/armtools/bin/../lib/gcc/arm-atollic-eabi/6.3.1/../../../../arm-atollic-eabi/lib/armv6-m\libc_nano.a(lib_a-nano-callocr.o)
                0x080136c8                _calloc_r
 .text._free_r  0x080136e4       0x94 c:/program files (x86)/atollic/truestudio for stm32 9.3.0/armtools/bin/../lib/gcc/arm-atollic-eabi/6.3.1/../../../../arm-atollic-eabi/lib/armv6-m\libc_nano.a(lib_a-nano-freer.o)
                0x080136e4                _free_r
 .text._malloc_r
                0x08013778       0xbc c:/program files (x86)/atollic/truestudio for stm32 9.3.0/armtools/bin/../lib/gcc/arm-atollic-eabi/6.3.1/../../../../arm-atollic-eabi/lib/armv6-m\libc_nano.a(lib_a-nano-mallocr.o)
                0x08013778                _malloc_r
 .text.__sfputc_r
                0x08013834       0x2a c:/program files (x86)/atollic/truestudio for stm32 9.3.0/armtools/bin/../lib/gcc/arm-atollic-eabi/6.3.1/../../../../arm-atollic-eabi/lib/armv6-m\libc_nano.a(lib_a-nano-vfprintf.o)
 .text.__sfputs_r
                0x0801385e       0x24 c:/program files (x86)/atollic/truestudio for stm32 9.3.0/armtools/bin/../lib/gcc/arm-atollic-eabi/6.3.1/../../../../arm-atollic-eabi/lib/armv6-m\libc_nano.a(lib_a-nano-vfprintf.o)
                0x0801385e                __sfputs_r
 *fill*         0x08013882        0x2 
 .text._vfprintf_r
                0x08013884      0x238 c:/program files (x86)/atollic/truestudio for stm32 9.3.0/armtools/bin/../lib/gcc/arm-atollic-eabi/6.3.1/../../../../arm-atollic-eabi/lib/armv6-m\libc_nano.a(lib_a-nano-vfprintf.o)
                0x08013884                _vfprintf_r
                0x08013884                _vfiprintf_r
 .text._putc_r  0x08013abc       0x6c c:/program files (x86)/atollic/truestudio for stm32 9.3.0/armtools/bin/../lib/gcc/arm-atollic-eabi/6.3.1/../../../../arm-atollic-eabi/lib/armv6-m\libc_nano.a(lib_a-putc.o)
                0x08013abc                _putc_r
 .text._sbrk_r  0x08013b28       0x24 c:/program files (x86)/atollic/truestudio for stm32 9.3.0/armtools/bin/../lib/gcc/arm-atollic-eabi/6.3.1/../../../../arm-atollic-eabi/lib/armv6-m\libc_nano.a(lib_a-sbrkr.o)
                0x08013b28                _sbrk_r
 .text.__sread  0x08013b4c       0x28 c:/program files (x86)/atollic/truestudio for stm32 9.3.0/armtools/bin/../lib/gcc/arm-atollic-eabi/6.3.1/../../../../arm-atollic-eabi/lib/armv6-m\libc_nano.a(lib_a-stdio.o)
                0x08013b4c                __sread
 .text.__swrite
                0x08013b74       0x38 c:/program files (x86)/atollic/truestudio for stm32 9.3.0/armtools/bin/../lib/gcc/arm-atollic-eabi/6.3.1/../../../../arm-atollic-eabi/lib/armv6-m\libc_nano.a(lib_a-stdio.o)
                0x08013b74                __swrite
 .text.__sseek  0x08013bac       0x2c c:/program files (x86)/atollic/truestudio for stm32 9.3.0/armtools/bin/../lib/gcc/arm-atollic-eabi/6.3.1/../../../../arm-atollic-eabi/lib/armv6-m\libc_nano.a(lib_a-stdio.o)
                0x08013bac                __sseek
 .text.__sclose
                0x08013bd8        0xc c:/program files (x86)/atollic/truestudio for stm32 9.3.0/armtools/bin/../lib/gcc/arm-atollic-eabi/6.3.1/../../../../arm-atollic-eabi/lib/armv6-m\libc_nano.a(lib_a-stdio.o)
                0x08013bd8                __sclose
 .text.__swbuf_r
                0x08013be4       0xac c:/program files (x86)/atollic/truestudio for stm32 9.3.0/armtools/bin/../lib/gcc/arm-atollic-eabi/6.3.1/../../../../arm-atollic-eabi/lib/armv6-m\libc_nano.a(lib_a-wbuf.o)
                0x08013be4                __swbuf_r
 .text._write_r
                0x08013c90       0x28 c:/program files (x86)/atollic/truestudio for stm32 9.3.0/armtools/bin/../lib/gcc/arm-atollic-eabi/6.3.1/../../../../arm-atollic-eabi/lib/armv6-m\libc_nano.a(lib_a-writer.o)
                0x08013c90                _write_r
 .text.__swsetup_r
                0x08013cb8       0xec c:/program files (x86)/atollic/truestudio for stm32 9.3.0/armtools/bin/../lib/gcc/arm-atollic-eabi/6.3.1/../../../../arm-atollic-eabi/lib/armv6-m\libc_nano.a(lib_a-wsetup.o)
                0x08013cb8                __swsetup_r
 .text._close_r
                0x08013da4       0x24 c:/program files (x86)/atollic/truestudio for stm32 9.3.0/armtools/bin/../lib/gcc/arm-atollic-eabi/6.3.1/../../../../arm-atollic-eabi/lib/armv6-m\libc_nano.a(lib_a-closer.o)
                0x08013da4                _close_r
 .text.__sflush_r
                0x08013dc8      0x114 c:/program files (x86)/atollic/truestudio for stm32 9.3.0/armtools/bin/../lib/gcc/arm-atollic-eabi/6.3.1/../../../../arm-atollic-eabi/lib/armv6-m\libc_nano.a(lib_a-fflush.o)
                0x08013dc8                __sflush_r
 .text._fflush_r
                0x08013edc       0x58 c:/program files (x86)/atollic/truestudio for stm32 9.3.0/armtools/bin/../lib/gcc/arm-atollic-eabi/6.3.1/../../../../arm-atollic-eabi/lib/armv6-m\libc_nano.a(lib_a-fflush.o)
                0x08013edc                _fflush_r
 .text._lseek_r
                0x08013f34       0x28 c:/program files (x86)/atollic/truestudio for stm32 9.3.0/armtools/bin/../lib/gcc/arm-atollic-eabi/6.3.1/../../../../arm-atollic-eabi/lib/armv6-m\libc_nano.a(lib_a-lseekr.o)
                0x08013f34                _lseek_r
 .text.__swhatbuf_r
                0x08013f5c       0x50 c:/program files (x86)/atollic/truestudio for stm32 9.3.0/armtools/bin/../lib/gcc/arm-atollic-eabi/6.3.1/../../../../arm-atollic-eabi/lib/armv6-m\libc_nano.a(lib_a-makebuf.o)
                0x08013f5c                __swhatbuf_r
 .text.__smakebuf_r
                0x08013fac       0x88 c:/program files (x86)/atollic/truestudio for stm32 9.3.0/armtools/bin/../lib/gcc/arm-atollic-eabi/6.3.1/../../../../arm-atollic-eabi/lib/armv6-m\libc_nano.a(lib_a-makebuf.o)
                0x08013fac                __smakebuf_r
 .text.__ascii_mbtowc
                0x08014034       0x24 c:/program files (x86)/atollic/truestudio for stm32 9.3.0/armtools/bin/../lib/gcc/arm-atollic-eabi/6.3.1/../../../../arm-atollic-eabi/lib/armv6-m\libc_nano.a(lib_a-mbtowc_r.o)
                0x08014034                __ascii_mbtowc
 .text.__malloc_lock
                0x08014058        0x2 c:/program files (x86)/atollic/truestudio for stm32 9.3.0/armtools/bin/../lib/gcc/arm-atollic-eabi/6.3.1/../../../../arm-atollic-eabi/lib/armv6-m\libc_nano.a(lib_a-mlock.o)
                0x08014058                __malloc_lock
 .text.__malloc_unlock
                0x0801405a        0x2 c:/program files (x86)/atollic/truestudio for stm32 9.3.0/armtools/bin/../lib/gcc/arm-atollic-eabi/6.3.1/../../../../arm-atollic-eabi/lib/armv6-m\libc_nano.a(lib_a-mlock.o)
                0x0801405a                __malloc_unlock
 .text._read_r  0x0801405c       0x28 c:/program files (x86)/atollic/truestudio for stm32 9.3.0/armtools/bin/../lib/gcc/arm-atollic-eabi/6.3.1/../../../../arm-atollic-eabi/lib/armv6-m\libc_nano.a(lib_a-readr.o)
                0x0801405c                _read_r
 .text.__ascii_wctomb
                0x08014084       0x18 c:/program files (x86)/atollic/truestudio for stm32 9.3.0/armtools/bin/../lib/gcc/arm-atollic-eabi/6.3.1/../../../../arm-atollic-eabi/lib/armv6-m\libc_nano.a(lib_a-wctomb_r.o)
                0x08014084                __ascii_wctomb
 .text._fstat_r
                0x0801409c       0x24 c:/program files (x86)/atollic/truestudio for stm32 9.3.0/armtools/bin/../lib/gcc/arm-atollic-eabi/6.3.1/../../../../arm-atollic-eabi/lib/armv6-m\libc_nano.a(lib_a-fstatr.o)
                0x0801409c                _fstat_r
 .text._isatty_r
                0x080140c0       0x24 c:/program files (x86)/atollic/truestudio for stm32 9.3.0/armtools/bin/../lib/gcc/arm-atollic-eabi/6.3.1/../../../../arm-atollic-eabi/lib/armv6-m\libc_nano.a(lib_a-isattyr.o)
                0x080140c0                _isatty_r
 *(.glue_7)
 .glue_7        0x080140e4        0x0 linker stubs
 *(.glue_7t)
 .glue_7t       0x080140e4        0x0 linker stubs
 *(.eh_frame)
 .eh_frame      0x080140e4        0x0 c:/program files (x86)/atollic/truestudio for stm32 9.3.0/armtools/bin/../lib/gcc/arm-atollic-eabi/6.3.1/armv6-m/crtbegin.o
 *(.init)
 .init          0x080140e4        0x4 c:/program files (x86)/atollic/truestudio for stm32 9.3.0/armtools/bin/../lib/gcc/arm-atollic-eabi/6.3.1/armv6-m/crti.o
                0x080140e4                _init
 .init          0x080140e8        0x8 c:/program files (x86)/atollic/truestudio for stm32 9.3.0/armtools/bin/../lib/gcc/arm-atollic-eabi/6.3.1/armv6-m/crtn.o
 *(.fini)
 .fini          0x080140f0        0x4 c:/program files (x86)/atollic/truestudio for stm32 9.3.0/armtools/bin/../lib/gcc/arm-atollic-eabi/6.3.1/armv6-m/crti.o
                0x080140f0                _fini
 .fini          0x080140f4        0x8 c:/program files (x86)/atollic/truestudio for stm32 9.3.0/armtools/bin/../lib/gcc/arm-atollic-eabi/6.3.1/armv6-m/crtn.o
                0x080140fc                . = ALIGN (0x4)
                0x080140fc                _etext = .

.vfp11_veneer   0x080140fc        0x0
 .vfp11_veneer  0x080140fc        0x0 linker stubs

.v4_bx          0x080140fc        0x0
 .v4_bx         0x080140fc        0x0 linker stubs

.iplt           0x080140fc        0x0
 .iplt          0x080140fc        0x0 c:/program files (x86)/atollic/truestudio for stm32 9.3.0/armtools/bin/../lib/gcc/arm-atollic-eabi/6.3.1/armv6-m/crtbegin.o

.rodata         0x08014100      0xa00
                0x08014100                . = ALIGN (0x4)
 *(.rodata)
 .rodata        0x08014100       0x79 Core\Src\main.o
 *fill*         0x08014179        0x3 
 .rodata        0x0801417c       0xe6 Core\Src\pat9125.o
 *fill*         0x08014262        0x2 
 .rodata        0x08014264       0xfa Core\Src\pat9130.o
 *fill*         0x0801435e        0x2 
 .rodata        0x08014360       0x38 Drivers\STM32F0xx_HAL_Driver\Src\stm32f0xx_hal_adc.o
 .rodata        0x08014398       0x3b Drivers\STM32F0xx_HAL_Driver\Src\stm32f0xx_hal_adc_ex.o
 *fill*         0x080143d3        0x1 
 .rodata        0x080143d4       0x3b Drivers\STM32F0xx_HAL_Driver\Src\stm32f0xx_hal_cortex.o
 *fill*         0x0801440f        0x1 
 .rodata        0x08014410       0x39 Drivers\STM32F0xx_HAL_Driver\Src\stm32f0xx_hal_gpio.o
 *fill*         0x08014449        0x3 
 .rodata        0x0801444c       0x38 Drivers\STM32F0xx_HAL_Driver\Src\stm32f0xx_hal_i2c.o
 .rodata        0x08014484       0x3b Drivers\STM32F0xx_HAL_Driver\Src\stm32f0xx_hal_i2c_ex.o
 *fill*         0x080144bf        0x1 
 .rodata        0x080144c0       0x39 Drivers\STM32F0xx_HAL_Driver\Src\stm32f0xx_hal_iwdg.o
 *fill*         0x080144f9        0x3 
 .rodata        0x080144fc       0x38 Drivers\STM32F0xx_HAL_Driver\Src\stm32f0xx_hal_pcd.o
 .rodata        0x08014534       0x58 Drivers\STM32F0xx_HAL_Driver\Src\stm32f0xx_hal_rcc.o
 .rodata        0x0801458c       0x3b Drivers\STM32F0xx_HAL_Driver\Src\stm32f0xx_hal_rcc_ex.o
 *fill*         0x080145c7        0x1 
 .rodata        0x080145c8       0x38 Drivers\STM32F0xx_HAL_Driver\Src\stm32f0xx_hal_spi.o
 .rodata        0x08014600       0x38 Drivers\STM32F0xx_HAL_Driver\Src\stm32f0xx_hal_tim.o
 .rodata        0x08014638       0x3b Drivers\STM32F0xx_HAL_Driver\Src\stm32f0xx_hal_tim_ex.o
 *fill*         0x08014673        0x1 
 .rodata        0x08014674       0x39 Drivers\STM32F0xx_HAL_Driver\Src\stm32f0xx_hal_uart.o
 *fill*         0x080146ad        0x3 
 .rodata        0x080146b0       0x35 Middlewares\ST\STM32_USB_Device_Library\Core\Src\usbd_core.o
 *fill*         0x080146e5        0x3 
 .rodata        0x080146e8       0x46 USB_DEVICE\App\usbd_desc.o
 *fill*         0x0801472e        0x2 
 .rodata        0x08014730       0x40 c:/program files (x86)/atollic/truestudio for stm32 9.3.0/armtools/bin/../lib/gcc/arm-atollic-eabi/6.3.1/armv6-m\libgcc.a(divdf3.o)
 .rodata        0x08014770       0x40 c:/program files (x86)/atollic/truestudio for stm32 9.3.0/armtools/bin/../lib/gcc/arm-atollic-eabi/6.3.1/armv6-m\libgcc.a(muldf3.o)
 *(.rodata*)
 .rodata.set_led
                0x080147b0       0x18 Core\Src\gpio.o
 .rodata.AHBPrescTable
                0x080147c8       0x10 Core\Src\system_stm32f0xx.o
                0x080147c8                AHBPrescTable
 .rodata.APBPrescTable
                0x080147d8        0x8 Core\Src\system_stm32f0xx.o
                0x080147d8                APBPrescTable
 .rodata.USBD_StdDevReq
                0x080147e0       0x28 Middlewares\ST\STM32_USB_Device_Library\Core\Src\usbd_ctlreq.o
 .rodata.USBD_GetDescriptor
                0x08014808       0x38 Middlewares\ST\STM32_USB_Device_Library\Core\Src\usbd_ctlreq.o
 .rodata._global_impure_ptr
                0x08014840        0x4 c:/program files (x86)/atollic/truestudio for stm32 9.3.0/armtools/bin/../lib/gcc/arm-atollic-eabi/6.3.1/../../../../arm-atollic-eabi/lib/armv6-m\libc_nano.a(lib_a-impure.o)
                0x08014840                _global_impure_ptr
 .rodata._printf_float.str1.1
                0x08014844       0x12 c:/program files (x86)/atollic/truestudio for stm32 9.3.0/armtools/bin/../lib/gcc/arm-atollic-eabi/6.3.1/../../../../arm-atollic-eabi/lib/armv6-m\libc_nano.a(lib_a-nano-vfprintf_float.o)
 .rodata._printf_i.str1.1
                0x08014856       0x22 c:/program files (x86)/atollic/truestudio for stm32 9.3.0/armtools/bin/../lib/gcc/arm-atollic-eabi/6.3.1/../../../../arm-atollic-eabi/lib/armv6-m\libc_nano.a(lib_a-nano-vfprintf_i.o)
 .rodata._dtoa_r.str1.1
                0x08014878        0xd c:/program files (x86)/atollic/truestudio for stm32 9.3.0/armtools/bin/../lib/gcc/arm-atollic-eabi/6.3.1/../../../../arm-atollic-eabi/lib/armv6-m\libc_nano.a(lib_a-dtoa.o)
                                  0xf (size before relaxing)
 *fill*         0x08014885        0x3 
 .rodata.__sf_fake_stderr
                0x08014888       0x20 c:/program files (x86)/atollic/truestudio for stm32 9.3.0/armtools/bin/../lib/gcc/arm-atollic-eabi/6.3.1/../../../../arm-atollic-eabi/lib/armv6-m\libc_nano.a(lib_a-findfp.o)
                0x08014888                __sf_fake_stderr
 .rodata.__sf_fake_stdin
                0x080148a8       0x20 c:/program files (x86)/atollic/truestudio for stm32 9.3.0/armtools/bin/../lib/gcc/arm-atollic-eabi/6.3.1/../../../../arm-atollic-eabi/lib/armv6-m\libc_nano.a(lib_a-findfp.o)
                0x080148a8                __sf_fake_stdin
 .rodata.__sf_fake_stdout
                0x080148c8       0x20 c:/program files (x86)/atollic/truestudio for stm32 9.3.0/armtools/bin/../lib/gcc/arm-atollic-eabi/6.3.1/../../../../arm-atollic-eabi/lib/armv6-m\libc_nano.a(lib_a-findfp.o)
                0x080148c8                __sf_fake_stdout
 .rodata.__mprec_bigtens
                0x080148e8       0x28 c:/program files (x86)/atollic/truestudio for stm32 9.3.0/armtools/bin/../lib/gcc/arm-atollic-eabi/6.3.1/../../../../arm-atollic-eabi/lib/armv6-m\libc_nano.a(lib_a-mprec.o)
                0x080148e8                __mprec_bigtens
 .rodata.__mprec_tens
                0x08014910       0xc8 c:/program files (x86)/atollic/truestudio for stm32 9.3.0/armtools/bin/../lib/gcc/arm-atollic-eabi/6.3.1/../../../../arm-atollic-eabi/lib/armv6-m\libc_nano.a(lib_a-mprec.o)
                0x08014910                __mprec_tens
 .rodata.p05.6052
                0x080149d8        0xc c:/program files (x86)/atollic/truestudio for stm32 9.3.0/armtools/bin/../lib/gcc/arm-atollic-eabi/6.3.1/../../../../arm-atollic-eabi/lib/armv6-m\libc_nano.a(lib_a-mprec.o)
 .rodata._vfprintf_r.str1.1
                0x080149e4       0x11 c:/program files (x86)/atollic/truestudio for stm32 9.3.0/armtools/bin/../lib/gcc/arm-atollic-eabi/6.3.1/../../../../arm-atollic-eabi/lib/armv6-m\libc_nano.a(lib_a-nano-vfprintf.o)
 .rodata._setlocale_r.str1.1
                0x080149f5        0x8 c:/program files (x86)/atollic/truestudio for stm32 9.3.0/armtools/bin/../lib/gcc/arm-atollic-eabi/6.3.1/../../../../arm-atollic-eabi/lib/armv6-m\libc_nano.a(lib_a-locale.o)
                                  0x9 (size before relaxing)
 .rodata.str1.1
                0x080149fd        0x2 c:/program files (x86)/atollic/truestudio for stm32 9.3.0/armtools/bin/../lib/gcc/arm-atollic-eabi/6.3.1/../../../../arm-atollic-eabi/lib/armv6-m\libc_nano.a(lib_a-locale.o)
 .rodata._ctype_
                0x080149ff      0x101 c:/program files (x86)/atollic/truestudio for stm32 9.3.0/armtools/bin/../lib/gcc/arm-atollic-eabi/6.3.1/../../../../arm-atollic-eabi/lib/armv6-m\libc_nano.a(lib_a-ctype_.o)
                0x080149ff                _ctype_
                0x08014b00                . = ALIGN (0x4)

.rel.dyn        0x08014b00        0x0
 .rel.iplt      0x08014b00        0x0 c:/program files (x86)/atollic/truestudio for stm32 9.3.0/armtools/bin/../lib/gcc/arm-atollic-eabi/6.3.1/armv6-m/crtbegin.o

.ARM.extab
 *(.ARM.extab* .gnu.linkonce.armextab.*)

.ARM            0x08014b00        0x0
                0x08014b00                __exidx_start = .
 *(.ARM.exidx*)
                0x08014b00                __exidx_end = .

.preinit_array  0x08014b00        0x0
                0x08014b00                PROVIDE (__preinit_array_start, .)
 *(.preinit_array*)
                0x08014b00                PROVIDE (__preinit_array_end, .)

.init_array     0x08014b00        0x4
                0x08014b00                PROVIDE (__init_array_start, .)
 *(SORT(.init_array.*))
 *(.init_array*)
 .init_array    0x08014b00        0x4 c:/program files (x86)/atollic/truestudio for stm32 9.3.0/armtools/bin/../lib/gcc/arm-atollic-eabi/6.3.1/armv6-m/crtbegin.o
                0x08014b04                PROVIDE (__init_array_end, .)

.fini_array     0x08014b04        0x4
                [!provide]                PROVIDE (__fini_array_start, .)
 *(SORT(.fini_array.*))
 *(.fini_array*)
 .fini_array    0x08014b04        0x4 c:/program files (x86)/atollic/truestudio for stm32 9.3.0/armtools/bin/../lib/gcc/arm-atollic-eabi/6.3.1/armv6-m/crtbegin.o
                [!provide]                PROVIDE (__fini_array_end, .)
                0x08014b08                _sidata = LOADADDR (.data)

.data           0x20000000      0x334 load address 0x08014b08
                0x20000000                . = ALIGN (0x4)
                0x20000000                _sdata = .
 *(.data)
 *(.data*)
 .data.SystemCoreClock
                0x20000000        0x4 Core\Src\system_stm32f0xx.o
                0x20000000                SystemCoreClock
 .data.uwTickPrio
                0x20000004        0x4 Drivers\STM32F0xx_HAL_Driver\Src\stm32f0xx_hal.o
                0x20000004                uwTickPrio
 .data.uwTickFreq
                0x20000008        0x1 Drivers\STM32F0xx_HAL_Driver\Src\stm32f0xx_hal.o
                0x20000008                uwTickFreq
 *fill*         0x20000009        0x3 
 .data.USBD_HID
                0x2000000c       0x38 Middlewares\ST\STM32_USB_Device_Library\Class\HID\Src\usbd_hid.o
                0x2000000c                USBD_HID
 .data.USBD_HID_CfgFSDesc
                0x20000044       0x22 Middlewares\ST\STM32_USB_Device_Library\Class\HID\Src\usbd_hid.o
 *fill*         0x20000066        0x2 
 .data.USBD_HID_CfgHSDesc
                0x20000068       0x22 Middlewares\ST\STM32_USB_Device_Library\Class\HID\Src\usbd_hid.o
 *fill*         0x2000008a        0x2 
 .data.USBD_HID_OtherSpeedCfgDesc
                0x2000008c       0x22 Middlewares\ST\STM32_USB_Device_Library\Class\HID\Src\usbd_hid.o
 *fill*         0x200000ae        0x2 
 .data.USBD_HID_Desc
                0x200000b0        0x9 Middlewares\ST\STM32_USB_Device_Library\Class\HID\Src\usbd_hid.o
 *fill*         0x200000b9        0x3 
 .data.USBD_HID_DeviceQualifierDesc
                0x200000bc        0xa Middlewares\ST\STM32_USB_Device_Library\Class\HID\Src\usbd_hid.o
 *fill*         0x200000c6        0x2 
 .data.HID_MOUSE_ReportDesc
                0x200000c8       0x4a Middlewares\ST\STM32_USB_Device_Library\Class\HID\Src\usbd_hid.o
 *fill*         0x20000112        0x2 
 .data.FS_Desc  0x20000114       0x1c USB_DEVICE\App\usbd_desc.o
                0x20000114                FS_Desc
 .data.USBD_FS_DeviceDesc
                0x20000130       0x12 USB_DEVICE\App\usbd_desc.o
                0x20000130                USBD_FS_DeviceDesc
 *fill*         0x20000142        0x2 
 .data.USBD_LangIDDesc
                0x20000144        0x4 USB_DEVICE\App\usbd_desc.o
                0x20000144                USBD_LangIDDesc
 .data.USBD_StringSerial
                0x20000148       0x1a USB_DEVICE\App\usbd_desc.o
                0x20000148                USBD_StringSerial
 *fill*         0x20000162        0x2 
 .data._impure_ptr
                0x20000164        0x4 c:/program files (x86)/atollic/truestudio for stm32 9.3.0/armtools/bin/../lib/gcc/arm-atollic-eabi/6.3.1/../../../../arm-atollic-eabi/lib/armv6-m\libc_nano.a(lib_a-impure.o)
                0x20000164                _impure_ptr
 .data.impure_data
                0x20000168       0x60 c:/program files (x86)/atollic/truestudio for stm32 9.3.0/armtools/bin/../lib/gcc/arm-atollic-eabi/6.3.1/../../../../arm-atollic-eabi/lib/armv6-m\libc_nano.a(lib_a-impure.o)
 .data.__global_locale
                0x200001c8      0x16c c:/program files (x86)/atollic/truestudio for stm32 9.3.0/armtools/bin/../lib/gcc/arm-atollic-eabi/6.3.1/../../../../arm-atollic-eabi/lib/armv6-m\libc_nano.a(lib_a-locale.o)
                0x200001c8                __global_locale
                0x20000334                . = ALIGN (0x4)
                0x20000334                _edata = .

.igot.plt       0x20000334        0x0 load address 0x08014e3c
 .igot.plt      0x20000334        0x0 c:/program files (x86)/atollic/truestudio for stm32 9.3.0/armtools/bin/../lib/gcc/arm-atollic-eabi/6.3.1/armv6-m/crtbegin.o
                0x20000334                . = ALIGN (0x4)

.bss            0x20000338      0xe04 load address 0x08014e3c
                0x20000338                _sbss = .
                0x20000338                __bss_start__ = _sbss
 *(.bss)
 .bss           0x20000338       0x1c c:/program files (x86)/atollic/truestudio for stm32 9.3.0/armtools/bin/../lib/gcc/arm-atollic-eabi/6.3.1/armv6-m/crtbegin.o
 *(.bss*)
 .bss.heap_end.5887
                0x20000354        0x4 Core\Src\syscalls.o
 .bss.cfgidx.8755
                0x20000358        0x1 Middlewares\ST\STM32_USB_Device_Library\Core\Src\usbd_ctlreq.o
 *fill*         0x20000359        0x3 
 .bss.mem.8796  0x2000035c       0x14 USB_DEVICE\Target\usbd_conf.o
 .bss.__malloc_free_list
                0x20000370        0x4 c:/program files (x86)/atollic/truestudio for stm32 9.3.0/armtools/bin/../lib/gcc/arm-atollic-eabi/6.3.1/../../../../arm-atollic-eabi/lib/armv6-m\libc_nano.a(lib_a-nano-mallocr.o)
                0x20000370                __malloc_free_list
 .bss.__malloc_sbrk_start
                0x20000374        0x4 c:/program files (x86)/atollic/truestudio for stm32 9.3.0/armtools/bin/../lib/gcc/arm-atollic-eabi/6.3.1/../../../../arm-atollic-eabi/lib/armv6-m\libc_nano.a(lib_a-nano-mallocr.o)
                0x20000374                __malloc_sbrk_start
 *(COMMON)
 COMMON         0x20000378      0x304 Core\Src\ADXL345.o
                0x20000378                end_process
                0x20000379                led_to_change
                0x2000037c                keys_old
                0x2000037e                duty_blue
                0x20000380                pat9130
                0x200003bc                display_refresh_event
                0x200003c0                ADCxConvertedData
                0x200003c8                stepper1
                0x200003fc                display_refresh_start_event
                0x20000400                main_clock
                0x20000438                rgb
                0x2000047c                led_RGB
                0x200004ac                keyboard_1click
                0x200004b0                click_double_press_time
                0x200004b4                sensor_hall
                0x200004b6                adc_conversion_status
                0x200004b7                duty_red
                0x200004b8                long_press_time
                0x200004bc                opt_sens
                0x200004be                ADCx_Temperature_DegreeCelsius
                0x200004c0                L3G42xx_sens
                0x2000053c                ADXL345_sens
                0x200005d4                mouse_report
                0x200005dc                pat9125
                0x20000618                ionizer1
                0x20000640                keyboard_2click
                0x20000644                stepper_micros
                0x20000648                duty_green
                0x2000064c                mouse
                0x20000651                TOGGLE_PIN_LED
                0x20000652                char_disp_17seg
                0x20000654                ADCx_mVolt
                0x2000065c                keys
                0x20000660                short_press_time
                0x20000664                version_fw
                0x20000666                refresh_power_batt_timeout
                0x20000668                RGB_color_start
                0x20000674                read_keyboard_event
                0x20000675                char_rx_to_display
                0x20000676                RGB_Transition
                0x20000678                PCA9685_delay_event
 COMMON         0x2000067c       0x40 Core\Src\adc.o
                0x2000067c                hadc
 COMMON         0x200006bc       0x4c Core\Src\i2c.o
                0x200006bc                hi2c1
 COMMON         0x20000708       0x10 Core\Src\iwdg.o
                0x20000708                hiwdg
 COMMON         0x20000718       0x64 Core\Src\spi.o
                0x20000718                hspi2
 COMMON         0x2000077c      0x100 Core\Src\tim.o
                0x2000077c                htim3
                0x200007bc                htim1
                0x200007fc                htim2
                0x2000083c                htim7
 COMMON         0x2000087c      0x100 Core\Src\usart.o
                0x2000087c                huart3
                0x200008fc                huart2
 COMMON         0x2000097c        0x4 Drivers\STM32F0xx_HAL_Driver\Src\stm32f0xx_hal.o
                0x2000097c                uwTick
 COMMON         0x20000980      0x2c4 USB_DEVICE\App\usb_device.o
                0x20000980                hUsbDeviceFS
 COMMON         0x20000c44      0x200 USB_DEVICE\App\usbd_desc.o
                0x20000c44                USBD_StrDesc
 COMMON         0x20000e44      0x2f4 USB_DEVICE\Target\usbd_conf.o
                0x20000e44                hpcd_USB_FS
 COMMON         0x20001138        0x4 c:/program files (x86)/atollic/truestudio for stm32 9.3.0/armtools/bin/../lib/gcc/arm-atollic-eabi/6.3.1/../../../../arm-atollic-eabi/lib/armv6-m\libc_nano.a(lib_a-reent.o)
                0x20001138                errno
                0x2000113c                . = ALIGN (0x4)
                0x2000113c                _ebss = .
                0x2000113c                __bss_end__ = _ebss

._user_heap_stack
                0x2000113c      0x600 load address 0x08014e3c
                0x2000113c                . = ALIGN (0x4)
                0x2000113c                PROVIDE (end, .)
                [!provide]                PROVIDE (_end, .)
                0x2000133c                . = (. + _Min_Heap_Size)
 *fill*         0x2000113c      0x200 
                0x2000173c                . = (. + _Min_Stack_Size)
 *fill*         0x2000133c      0x400 
                0x2000173c                . = ALIGN (0x4)

/DISCARD/
 libc.a(*)
 libm.a(*)
 libgcc.a(*)

.ARM.attributes
                0x00000000       0x28
 *(.ARM.attributes)
 .ARM.attributes
                0x00000000       0x1e c:/program files (x86)/atollic/truestudio for stm32 9.3.0/armtools/bin/../lib/gcc/arm-atollic-eabi/6.3.1/armv6-m/crti.o
 .ARM.attributes
                0x0000001e       0x2c c:/program files (x86)/atollic/truestudio for stm32 9.3.0/armtools/bin/../lib/gcc/arm-atollic-eabi/6.3.1/armv6-m/crtbegin.o
 .ARM.attributes
                0x0000004a       0x31 Core\Src\ADXL345.o
 .ARM.attributes
                0x0000007b       0x31 Core\Src\Stepper.o
 .ARM.attributes
                0x000000ac       0x31 Core\Src\adc.o
 .ARM.attributes
                0x000000dd       0x31 Core\Src\gpio.o
 .ARM.attributes
                0x0000010e       0x31 Core\Src\i2c.o
 .ARM.attributes
                0x0000013f       0x31 Core\Src\iwdg.o
 .ARM.attributes
                0x00000170       0x31 Core\Src\main.o
 .ARM.attributes
                0x000001a1       0x31 Core\Src\pat9125.o
 .ARM.attributes
                0x000001d2       0x31 Core\Src\pat9130.o
 .ARM.attributes
                0x00000203       0x31 Core\Src\spi.o
 .ARM.attributes
                0x00000234       0x31 Core\Src\stm32f0xx_hal_msp.o
 .ARM.attributes
                0x00000265       0x31 Core\Src\stm32f0xx_it.o
 .ARM.attributes
                0x00000296       0x31 Core\Src\syscalls.o
 .ARM.attributes
                0x000002c7       0x31 Core\Src\system_stm32f0xx.o
 .ARM.attributes
                0x000002f8       0x31 Core\Src\tim.o
 .ARM.attributes
                0x00000329       0x31 Core\Src\usart.o
 .ARM.attributes
                0x0000035a       0x31 Drivers\STM32F0xx_HAL_Driver\Src\stm32f0xx_hal.o
 .ARM.attributes
                0x0000038b       0x31 Drivers\STM32F0xx_HAL_Driver\Src\stm32f0xx_hal_adc.o
 .ARM.attributes
                0x000003bc       0x31 Drivers\STM32F0xx_HAL_Driver\Src\stm32f0xx_hal_adc_ex.o
 .ARM.attributes
                0x000003ed       0x31 Drivers\STM32F0xx_HAL_Driver\Src\stm32f0xx_hal_cortex.o
 .ARM.attributes
                0x0000041e       0x31 Drivers\STM32F0xx_HAL_Driver\Src\stm32f0xx_hal_dma.o
 .ARM.attributes
                0x0000044f       0x31 Drivers\STM32F0xx_HAL_Driver\Src\stm32f0xx_hal_gpio.o
 .ARM.attributes
                0x00000480       0x31 Drivers\STM32F0xx_HAL_Driver\Src\stm32f0xx_hal_i2c.o
 .ARM.attributes
                0x000004b1       0x31 Drivers\STM32F0xx_HAL_Driver\Src\stm32f0xx_hal_i2c_ex.o
 .ARM.attributes
                0x000004e2       0x31 Drivers\STM32F0xx_HAL_Driver\Src\stm32f0xx_hal_iwdg.o
 .ARM.attributes
                0x00000513       0x31 Drivers\STM32F0xx_HAL_Driver\Src\stm32f0xx_hal_pcd.o
 .ARM.attributes
                0x00000544       0x31 Drivers\STM32F0xx_HAL_Driver\Src\stm32f0xx_hal_pcd_ex.o
 .ARM.attributes
                0x00000575       0x31 Drivers\STM32F0xx_HAL_Driver\Src\stm32f0xx_hal_rcc.o
 .ARM.attributes
                0x000005a6       0x31 Drivers\STM32F0xx_HAL_Driver\Src\stm32f0xx_hal_rcc_ex.o
 .ARM.attributes
                0x000005d7       0x31 Drivers\STM32F0xx_HAL_Driver\Src\stm32f0xx_hal_spi.o
 .ARM.attributes
                0x00000608       0x31 Drivers\STM32F0xx_HAL_Driver\Src\stm32f0xx_hal_tim.o
 .ARM.attributes
                0x00000639       0x31 Drivers\STM32F0xx_HAL_Driver\Src\stm32f0xx_hal_tim_ex.o
 .ARM.attributes
                0x0000066a       0x31 Drivers\STM32F0xx_HAL_Driver\Src\stm32f0xx_hal_uart.o
 .ARM.attributes
                0x0000069b       0x31 Drivers\STM32F0xx_HAL_Driver\Src\stm32f0xx_hal_uart_ex.o
 .ARM.attributes
                0x000006cc       0x31 Drivers\STM32F0xx_HAL_Driver\Src\stm32f0xx_ll_usb.o
 .ARM.attributes
                0x000006fd       0x31 Middlewares\ST\STM32_USB_Device_Library\Class\HID\Src\usbd_hid.o
 .ARM.attributes
                0x0000072e       0x31 Middlewares\ST\STM32_USB_Device_Library\Core\Src\usbd_core.o
 .ARM.attributes
                0x0000075f       0x31 Middlewares\ST\STM32_USB_Device_Library\Core\Src\usbd_ctlreq.o
 .ARM.attributes
                0x00000790       0x31 Middlewares\ST\STM32_USB_Device_Library\Core\Src\usbd_ioreq.o
 .ARM.attributes
                0x000007c1       0x31 USB_DEVICE\App\usb_device.o
 .ARM.attributes
                0x000007f2       0x31 USB_DEVICE\App\usbd_desc.o
 .ARM.attributes
                0x00000823       0x31 USB_DEVICE\Target\usbd_conf.o
 .ARM.attributes
                0x00000854       0x21 startup\startup_stm32f072xb.o
 .ARM.attributes
                0x00000875       0x2c c:/program files (x86)/atollic/truestudio for stm32 9.3.0/armtools/bin/../lib/gcc/arm-atollic-eabi/6.3.1/../../../../arm-atollic-eabi/lib/armv6-m\libc_nano.a(lib_a-errno.o)
 .ARM.attributes
                0x000008a1       0x2c c:/program files (x86)/atollic/truestudio for stm32 9.3.0/armtools/bin/../lib/gcc/arm-atollic-eabi/6.3.1/../../../../arm-atollic-eabi/lib/armv6-m\libc_nano.a(lib_a-impure.o)
 .ARM.attributes
                0x000008cd       0x2c c:/program files (x86)/atollic/truestudio for stm32 9.3.0/armtools/bin/../lib/gcc/arm-atollic-eabi/6.3.1/../../../../arm-atollic-eabi/lib/armv6-m\libc_nano.a(lib_a-init.o)
 .ARM.attributes
                0x000008f9       0x2c c:/program files (x86)/atollic/truestudio for stm32 9.3.0/armtools/bin/../lib/gcc/arm-atollic-eabi/6.3.1/../../../../arm-atollic-eabi/lib/armv6-m\libc_nano.a(lib_a-memcpy-stub.o)
 .ARM.attributes
                0x00000925       0x2c c:/program files (x86)/atollic/truestudio for stm32 9.3.0/armtools/bin/../lib/gcc/arm-atollic-eabi/6.3.1/../../../../arm-atollic-eabi/lib/armv6-m\libc_nano.a(lib_a-memset.o)
 .ARM.attributes
                0x00000951       0x2c c:/program files (x86)/atollic/truestudio for stm32 9.3.0/armtools/bin/../lib/gcc/arm-atollic-eabi/6.3.1/../../../../arm-atollic-eabi/lib/armv6-m\libc_nano.a(lib_a-nano-vfprintf_float.o)
 .ARM.attributes
                0x0000097d       0x2c c:/program files (x86)/atollic/truestudio for stm32 9.3.0/armtools/bin/../lib/gcc/arm-atollic-eabi/6.3.1/../../../../arm-atollic-eabi/lib/armv6-m\libc_nano.a(lib_a-nano-vfprintf_i.o)
 .ARM.attributes
                0x000009a9       0x2c c:/program files (x86)/atollic/truestudio for stm32 9.3.0/armtools/bin/../lib/gcc/arm-atollic-eabi/6.3.1/../../../../arm-atollic-eabi/lib/armv6-m\libc_nano.a(lib_a-printf.o)
 .ARM.attributes
                0x000009d5       0x2c c:/program files (x86)/atollic/truestudio for stm32 9.3.0/armtools/bin/../lib/gcc/arm-atollic-eabi/6.3.1/../../../../arm-atollic-eabi/lib/armv6-m\libc_nano.a(lib_a-putchar.o)
 .ARM.attributes
                0x00000a01       0x1c c:/program files (x86)/atollic/truestudio for stm32 9.3.0/armtools/bin/../lib/gcc/arm-atollic-eabi/6.3.1/../../../../arm-atollic-eabi/lib/armv6-m\libc_nano.a(lib_a-strlen.o)
 .ARM.attributes
                0x00000a1d       0x2c c:/program files (x86)/atollic/truestudio for stm32 9.3.0/armtools/bin/../lib/gcc/arm-atollic-eabi/6.3.1/../../../../arm-atollic-eabi/lib/armv6-m\libc_nano.a(lib_a-dtoa.o)
 .ARM.attributes
                0x00000a49       0x2c c:/program files (x86)/atollic/truestudio for stm32 9.3.0/armtools/bin/../lib/gcc/arm-atollic-eabi/6.3.1/../../../../arm-atollic-eabi/lib/armv6-m\libc_nano.a(lib_a-findfp.o)
 .ARM.attributes
                0x00000a75       0x2c c:/program files (x86)/atollic/truestudio for stm32 9.3.0/armtools/bin/../lib/gcc/arm-atollic-eabi/6.3.1/../../../../arm-atollic-eabi/lib/armv6-m\libc_nano.a(lib_a-fwalk.o)
 .ARM.attributes
                0x00000aa1       0x2c c:/program files (x86)/atollic/truestudio for stm32 9.3.0/armtools/bin/../lib/gcc/arm-atollic-eabi/6.3.1/../../../../arm-atollic-eabi/lib/armv6-m\libc_nano.a(lib_a-localeconv.o)
 .ARM.attributes
                0x00000acd       0x2c c:/program files (x86)/atollic/truestudio for stm32 9.3.0/armtools/bin/../lib/gcc/arm-atollic-eabi/6.3.1/../../../../arm-atollic-eabi/lib/armv6-m\libc_nano.a(lib_a-malloc.o)
 .ARM.attributes
                0x00000af9       0x2c c:/program files (x86)/atollic/truestudio for stm32 9.3.0/armtools/bin/../lib/gcc/arm-atollic-eabi/6.3.1/../../../../arm-atollic-eabi/lib/armv6-m\libc_nano.a(lib_a-memchr-stub.o)
 .ARM.attributes
                0x00000b25       0x2c c:/program files (x86)/atollic/truestudio for stm32 9.3.0/armtools/bin/../lib/gcc/arm-atollic-eabi/6.3.1/../../../../arm-atollic-eabi/lib/armv6-m\libc_nano.a(lib_a-mprec.o)
 .ARM.attributes
                0x00000b51       0x2c c:/program files (x86)/atollic/truestudio for stm32 9.3.0/armtools/bin/../lib/gcc/arm-atollic-eabi/6.3.1/../../../../arm-atollic-eabi/lib/armv6-m\libc_nano.a(lib_a-nano-callocr.o)
 .ARM.attributes
                0x00000b7d       0x2c c:/program files (x86)/atollic/truestudio for stm32 9.3.0/armtools/bin/../lib/gcc/arm-atollic-eabi/6.3.1/../../../../arm-atollic-eabi/lib/armv6-m\libc_nano.a(lib_a-nano-freer.o)
 .ARM.attributes
                0x00000ba9       0x2c c:/program files (x86)/atollic/truestudio for stm32 9.3.0/armtools/bin/../lib/gcc/arm-atollic-eabi/6.3.1/../../../../arm-atollic-eabi/lib/armv6-m\libc_nano.a(lib_a-nano-mallocr.o)
 .ARM.attributes
                0x00000bd5       0x2c c:/program files (x86)/atollic/truestudio for stm32 9.3.0/armtools/bin/../lib/gcc/arm-atollic-eabi/6.3.1/../../../../arm-atollic-eabi/lib/armv6-m\libc_nano.a(lib_a-nano-vfprintf.o)
 .ARM.attributes
                0x00000c01       0x2c c:/program files (x86)/atollic/truestudio for stm32 9.3.0/armtools/bin/../lib/gcc/arm-atollic-eabi/6.3.1/../../../../arm-atollic-eabi/lib/armv6-m\libc_nano.a(lib_a-putc.o)
 .ARM.attributes
                0x00000c2d       0x2c c:/program files (x86)/atollic/truestudio for stm32 9.3.0/armtools/bin/../lib/gcc/arm-atollic-eabi/6.3.1/../../../../arm-atollic-eabi/lib/armv6-m\libc_nano.a(lib_a-sbrkr.o)
 .ARM.attributes
                0x00000c59       0x2c c:/program files (x86)/atollic/truestudio for stm32 9.3.0/armtools/bin/../lib/gcc/arm-atollic-eabi/6.3.1/../../../../arm-atollic-eabi/lib/armv6-m\libc_nano.a(lib_a-stdio.o)
 .ARM.attributes
                0x00000c85       0x2c c:/program files (x86)/atollic/truestudio for stm32 9.3.0/armtools/bin/../lib/gcc/arm-atollic-eabi/6.3.1/../../../../arm-atollic-eabi/lib/armv6-m\libc_nano.a(lib_a-wbuf.o)
 .ARM.attributes
                0x00000cb1       0x2c c:/program files (x86)/atollic/truestudio for stm32 9.3.0/armtools/bin/../lib/gcc/arm-atollic-eabi/6.3.1/../../../../arm-atollic-eabi/lib/armv6-m\libc_nano.a(lib_a-writer.o)
 .ARM.attributes
                0x00000cdd       0x2c c:/program files (x86)/atollic/truestudio for stm32 9.3.0/armtools/bin/../lib/gcc/arm-atollic-eabi/6.3.1/../../../../arm-atollic-eabi/lib/armv6-m\libc_nano.a(lib_a-wsetup.o)
 .ARM.attributes
                0x00000d09       0x2c c:/program files (x86)/atollic/truestudio for stm32 9.3.0/armtools/bin/../lib/gcc/arm-atollic-eabi/6.3.1/../../../../arm-atollic-eabi/lib/armv6-m\libc_nano.a(lib_a-closer.o)
 .ARM.attributes
                0x00000d35       0x2c c:/program files (x86)/atollic/truestudio for stm32 9.3.0/armtools/bin/../lib/gcc/arm-atollic-eabi/6.3.1/../../../../arm-atollic-eabi/lib/armv6-m\libc_nano.a(lib_a-fflush.o)
 .ARM.attributes
                0x00000d61       0x2c c:/program files (x86)/atollic/truestudio for stm32 9.3.0/armtools/bin/../lib/gcc/arm-atollic-eabi/6.3.1/../../../../arm-atollic-eabi/lib/armv6-m\libc_nano.a(lib_a-locale.o)
 .ARM.attributes
                0x00000d8d       0x2c c:/program files (x86)/atollic/truestudio for stm32 9.3.0/armtools/bin/../lib/gcc/arm-atollic-eabi/6.3.1/../../../../arm-atollic-eabi/lib/armv6-m\libc_nano.a(lib_a-lseekr.o)
 .ARM.attributes
                0x00000db9       0x2c c:/program files (x86)/atollic/truestudio for stm32 9.3.0/armtools/bin/../lib/gcc/arm-atollic-eabi/6.3.1/../../../../arm-atollic-eabi/lib/armv6-m\libc_nano.a(lib_a-makebuf.o)
 .ARM.attributes
                0x00000de5       0x2c c:/program files (x86)/atollic/truestudio for stm32 9.3.0/armtools/bin/../lib/gcc/arm-atollic-eabi/6.3.1/../../../../arm-atollic-eabi/lib/armv6-m\libc_nano.a(lib_a-mbtowc_r.o)
 .ARM.attributes
                0x00000e11       0x2c c:/program files (x86)/atollic/truestudio for stm32 9.3.0/armtools/bin/../lib/gcc/arm-atollic-eabi/6.3.1/../../../../arm-atollic-eabi/lib/armv6-m\libc_nano.a(lib_a-mlock.o)
 .ARM.attributes
                0x00000e3d       0x2c c:/program files (x86)/atollic/truestudio for stm32 9.3.0/armtools/bin/../lib/gcc/arm-atollic-eabi/6.3.1/../../../../arm-atollic-eabi/lib/armv6-m\libc_nano.a(lib_a-readr.o)
 .ARM.attributes
                0x00000e69       0x2c c:/program files (x86)/atollic/truestudio for stm32 9.3.0/armtools/bin/../lib/gcc/arm-atollic-eabi/6.3.1/../../../../arm-atollic-eabi/lib/armv6-m\libc_nano.a(lib_a-reent.o)
 .ARM.attributes
                0x00000e95       0x2c c:/program files (x86)/atollic/truestudio for stm32 9.3.0/armtools/bin/../lib/gcc/arm-atollic-eabi/6.3.1/../../../../arm-atollic-eabi/lib/armv6-m\libc_nano.a(lib_a-wctomb_r.o)
 .ARM.attributes
                0x00000ec1       0x2c c:/program files (x86)/atollic/truestudio for stm32 9.3.0/armtools/bin/../lib/gcc/arm-atollic-eabi/6.3.1/../../../../arm-atollic-eabi/lib/armv6-m\libc_nano.a(lib_a-ctype_.o)
 .ARM.attributes
                0x00000eed       0x2c c:/program files (x86)/atollic/truestudio for stm32 9.3.0/armtools/bin/../lib/gcc/arm-atollic-eabi/6.3.1/../../../../arm-atollic-eabi/lib/armv6-m\libc_nano.a(lib_a-fstatr.o)
 .ARM.attributes
                0x00000f19       0x2c c:/program files (x86)/atollic/truestudio for stm32 9.3.0/armtools/bin/../lib/gcc/arm-atollic-eabi/6.3.1/../../../../arm-atollic-eabi/lib/armv6-m\libc_nano.a(lib_a-isattyr.o)
 .ARM.attributes
                0x00000f45       0x1e c:/program files (x86)/atollic/truestudio for stm32 9.3.0/armtools/bin/../lib/gcc/arm-atollic-eabi/6.3.1/armv6-m\libgcc.a(_thumb1_case_uqi.o)
 .ARM.attributes
                0x00000f63       0x1e c:/program files (x86)/atollic/truestudio for stm32 9.3.0/armtools/bin/../lib/gcc/arm-atollic-eabi/6.3.1/armv6-m\libgcc.a(_udivsi3.o)
 .ARM.attributes
                0x00000f81       0x1e c:/program files (x86)/atollic/truestudio for stm32 9.3.0/armtools/bin/../lib/gcc/arm-atollic-eabi/6.3.1/armv6-m\libgcc.a(_divsi3.o)
 .ARM.attributes
                0x00000f9f       0x1e c:/program files (x86)/atollic/truestudio for stm32 9.3.0/armtools/bin/../lib/gcc/arm-atollic-eabi/6.3.1/armv6-m\libgcc.a(_dvmd_tls.o)
 .ARM.attributes
                0x00000fbd       0x1e c:/program files (x86)/atollic/truestudio for stm32 9.3.0/armtools/bin/../lib/gcc/arm-atollic-eabi/6.3.1/armv6-m\libgcc.a(_arm_cmpdf2.o)
 .ARM.attributes
                0x00000fdb       0x2c c:/program files (x86)/atollic/truestudio for stm32 9.3.0/armtools/bin/../lib/gcc/arm-atollic-eabi/6.3.1/armv6-m\libgcc.a(adddf3.o)
 .ARM.attributes
                0x00001007       0x2c c:/program files (x86)/atollic/truestudio for stm32 9.3.0/armtools/bin/../lib/gcc/arm-atollic-eabi/6.3.1/armv6-m\libgcc.a(divdf3.o)
 .ARM.attributes
                0x00001033       0x2c c:/program files (x86)/atollic/truestudio for stm32 9.3.0/armtools/bin/../lib/gcc/arm-atollic-eabi/6.3.1/armv6-m\libgcc.a(eqdf2.o)
 .ARM.attributes
                0x0000105f       0x2c c:/program files (x86)/atollic/truestudio for stm32 9.3.0/armtools/bin/../lib/gcc/arm-atollic-eabi/6.3.1/armv6-m\libgcc.a(gedf2.o)
 .ARM.attributes
                0x0000108b       0x2c c:/program files (x86)/atollic/truestudio for stm32 9.3.0/armtools/bin/../lib/gcc/arm-atollic-eabi/6.3.1/armv6-m\libgcc.a(ledf2.o)
 .ARM.attributes
                0x000010b7       0x2c c:/program files (x86)/atollic/truestudio for stm32 9.3.0/armtools/bin/../lib/gcc/arm-atollic-eabi/6.3.1/armv6-m\libgcc.a(muldf3.o)
 .ARM.attributes
                0x000010e3       0x2c c:/program files (x86)/atollic/truestudio for stm32 9.3.0/armtools/bin/../lib/gcc/arm-atollic-eabi/6.3.1/armv6-m\libgcc.a(subdf3.o)
 .ARM.attributes
                0x0000110f       0x2c c:/program files (x86)/atollic/truestudio for stm32 9.3.0/armtools/bin/../lib/gcc/arm-atollic-eabi/6.3.1/armv6-m\libgcc.a(unorddf2.o)
 .ARM.attributes
                0x0000113b       0x2c c:/program files (x86)/atollic/truestudio for stm32 9.3.0/armtools/bin/../lib/gcc/arm-atollic-eabi/6.3.1/armv6-m\libgcc.a(fixdfsi.o)
 .ARM.attributes
                0x00001167       0x2c c:/program files (x86)/atollic/truestudio for stm32 9.3.0/armtools/bin/../lib/gcc/arm-atollic-eabi/6.3.1/armv6-m\libgcc.a(floatsidf.o)
 .ARM.attributes
                0x00001193       0x2c c:/program files (x86)/atollic/truestudio for stm32 9.3.0/armtools/bin/../lib/gcc/arm-atollic-eabi/6.3.1/armv6-m\libgcc.a(floatunsidf.o)
 .ARM.attributes
                0x000011bf       0x1e c:/program files (x86)/atollic/truestudio for stm32 9.3.0/armtools/bin/../lib/gcc/arm-atollic-eabi/6.3.1/armv6-m\libgcc.a(_clzsi2.o)
 .ARM.attributes
                0x000011dd       0x1e c:/program files (x86)/atollic/truestudio for stm32 9.3.0/armtools/bin/../lib/gcc/arm-atollic-eabi/6.3.1/armv6-m/crtn.o
OUTPUT(USB_MOUSE_PAT9125.elf elf32-littlearm)

.debug_info     0x00000000    0x3148b
 .debug_info    0x00000000     0x2bb3 Core\Src\ADXL345.o
 .debug_info    0x00002bb3     0x1e87 Core\Src\Stepper.o
 .debug_info    0x00004a3a     0x2456 Core\Src\adc.o
 .debug_info    0x00006e90     0x2442 Core\Src\gpio.o
 .debug_info    0x000092d2      0x9be Core\Src\i2c.o
 .debug_info    0x00009c90      0x25b Core\Src\iwdg.o
 .debug_info    0x00009eeb     0x35b7 Core\Src\main.o
 .debug_info    0x0000d4a2     0x2448 Core\Src\pat9125.o
 .debug_info    0x0000f8ea     0x2480 Core\Src\pat9130.o
 .debug_info    0x00011d6a      0x89f Core\Src\spi.o
 .debug_info    0x00012609      0x260 Core\Src\stm32f0xx_hal_msp.o
 .debug_info    0x00012869     0x2ad9 Core\Src\stm32f0xx_it.o
 .debug_info    0x00015342      0xf16 Core\Src\syscalls.o
 .debug_info    0x00016258      0x2a0 Core\Src\system_stm32f0xx.o
 .debug_info    0x000164f8     0x276c Core\Src\tim.o
 .debug_info    0x00018c64      0xa4c Core\Src\usart.o
 .debug_info    0x000196b0      0x6c0 Drivers\STM32F0xx_HAL_Driver\Src\stm32f0xx_hal.o
 .debug_info    0x00019d70      0xca6 Drivers\STM32F0xx_HAL_Driver\Src\stm32f0xx_hal_adc.o
 .debug_info    0x0001aa16      0x601 Drivers\STM32F0xx_HAL_Driver\Src\stm32f0xx_hal_adc_ex.o
 .debug_info    0x0001b017      0x78d Drivers\STM32F0xx_HAL_Driver\Src\stm32f0xx_hal_cortex.o
 .debug_info    0x0001b7a4      0x7a5 Drivers\STM32F0xx_HAL_Driver\Src\stm32f0xx_hal_dma.o
 .debug_info    0x0001bf49      0x689 Drivers\STM32F0xx_HAL_Driver\Src\stm32f0xx_hal_gpio.o
 .debug_info    0x0001c5d2     0x1fbf Drivers\STM32F0xx_HAL_Driver\Src\stm32f0xx_hal_i2c.o
 .debug_info    0x0001e591      0x8c6 Drivers\STM32F0xx_HAL_Driver\Src\stm32f0xx_hal_i2c_ex.o
 .debug_info    0x0001ee57      0x29d Drivers\STM32F0xx_HAL_Driver\Src\stm32f0xx_hal_iwdg.o
 .debug_info    0x0001f0f4     0x119c Drivers\STM32F0xx_HAL_Driver\Src\stm32f0xx_hal_pcd.o
 .debug_info    0x00020290      0x893 Drivers\STM32F0xx_HAL_Driver\Src\stm32f0xx_hal_pcd_ex.o
 .debug_info    0x00020b23      0x82d Drivers\STM32F0xx_HAL_Driver\Src\stm32f0xx_hal_rcc.o
 .debug_info    0x00021350      0x677 Drivers\STM32F0xx_HAL_Driver\Src\stm32f0xx_hal_rcc_ex.o
 .debug_info    0x000219c7     0x1600 Drivers\STM32F0xx_HAL_Driver\Src\stm32f0xx_hal_spi.o
 .debug_info    0x00022fc7     0x2527 Drivers\STM32F0xx_HAL_Driver\Src\stm32f0xx_hal_tim.o
 .debug_info    0x000254ee     0x10ec Drivers\STM32F0xx_HAL_Driver\Src\stm32f0xx_hal_tim_ex.o
 .debug_info    0x000265da     0x1574 Drivers\STM32F0xx_HAL_Driver\Src\stm32f0xx_hal_uart.o
 .debug_info    0x00027b4e      0x87a Drivers\STM32F0xx_HAL_Driver\Src\stm32f0xx_hal_uart_ex.o
 .debug_info    0x000283c8     0x1630 Drivers\STM32F0xx_HAL_Driver\Src\stm32f0xx_ll_usb.o
 .debug_info    0x000299f8     0x110f Middlewares\ST\STM32_USB_Device_Library\Class\HID\Src\usbd_hid.o
 .debug_info    0x0002ab07     0x11ae Middlewares\ST\STM32_USB_Device_Library\Core\Src\usbd_core.o
 .debug_info    0x0002bcb5     0x111e Middlewares\ST\STM32_USB_Device_Library\Core\Src\usbd_ctlreq.o
 .debug_info    0x0002cdd3      0xf0f Middlewares\ST\STM32_USB_Device_Library\Core\Src\usbd_ioreq.o
 .debug_info    0x0002dce2      0xda4 USB_DEVICE\App\usb_device.o
 .debug_info    0x0002ea86      0xcf0 USB_DEVICE\App\usbd_desc.o
 .debug_info    0x0002f776     0x1c8e USB_DEVICE\Target\usbd_conf.o
 .debug_info    0x00031404       0x87 startup\startup_stm32f072xb.o

.debug_abbrev   0x00000000     0x5cb4
 .debug_abbrev  0x00000000      0x3a8 Core\Src\ADXL345.o
 .debug_abbrev  0x000003a8      0x2f8 Core\Src\Stepper.o
 .debug_abbrev  0x000006a0      0x313 Core\Src\adc.o
 .debug_abbrev  0x000009b3      0x335 Core\Src\gpio.o
 .debug_abbrev  0x00000ce8      0x1a8 Core\Src\i2c.o
 .debug_abbrev  0x00000e90      0x113 Core\Src\iwdg.o
 .debug_abbrev  0x00000fa3      0x337 Core\Src\main.o
 .debug_abbrev  0x000012da      0x36a Core\Src\pat9125.o
 .debug_abbrev  0x00001644      0x379 Core\Src\pat9130.o
 .debug_abbrev  0x000019bd      0x194 Core\Src\spi.o
 .debug_abbrev  0x00001b51      0x104 Core\Src\stm32f0xx_hal_msp.o
 .debug_abbrev  0x00001c55      0x2ee Core\Src\stm32f0xx_it.o
 .debug_abbrev  0x00001f43      0x271 Core\Src\syscalls.o
 .debug_abbrev  0x000021b4      0x126 Core\Src\system_stm32f0xx.o
 .debug_abbrev  0x000022da      0x31e Core\Src\tim.o
 .debug_abbrev  0x000025f8      0x19d Core\Src\usart.o
 .debug_abbrev  0x00002795      0x1c2 Drivers\STM32F0xx_HAL_Driver\Src\stm32f0xx_hal.o
 .debug_abbrev  0x00002957      0x202 Drivers\STM32F0xx_HAL_Driver\Src\stm32f0xx_hal_adc.o
 .debug_abbrev  0x00002b59      0x166 Drivers\STM32F0xx_HAL_Driver\Src\stm32f0xx_hal_adc_ex.o
 .debug_abbrev  0x00002cbf      0x254 Drivers\STM32F0xx_HAL_Driver\Src\stm32f0xx_hal_cortex.o
 .debug_abbrev  0x00002f13      0x211 Drivers\STM32F0xx_HAL_Driver\Src\stm32f0xx_hal_dma.o
 .debug_abbrev  0x00003124      0x1bb Drivers\STM32F0xx_HAL_Driver\Src\stm32f0xx_hal_gpio.o
 .debug_abbrev  0x000032df      0x225 Drivers\STM32F0xx_HAL_Driver\Src\stm32f0xx_hal_i2c.o
 .debug_abbrev  0x00003504      0x1b4 Drivers\STM32F0xx_HAL_Driver\Src\stm32f0xx_hal_i2c_ex.o
 .debug_abbrev  0x000036b8      0x142 Drivers\STM32F0xx_HAL_Driver\Src\stm32f0xx_hal_iwdg.o
 .debug_abbrev  0x000037fa      0x263 Drivers\STM32F0xx_HAL_Driver\Src\stm32f0xx_hal_pcd.o
 .debug_abbrev  0x00003a5d      0x1e6 Drivers\STM32F0xx_HAL_Driver\Src\stm32f0xx_hal_pcd_ex.o
 .debug_abbrev  0x00003c43      0x1f0 Drivers\STM32F0xx_HAL_Driver\Src\stm32f0xx_hal_rcc.o
 .debug_abbrev  0x00003e33      0x1a2 Drivers\STM32F0xx_HAL_Driver\Src\stm32f0xx_hal_rcc_ex.o
 .debug_abbrev  0x00003fd5      0x223 Drivers\STM32F0xx_HAL_Driver\Src\stm32f0xx_hal_spi.o
 .debug_abbrev  0x000041f8      0x229 Drivers\STM32F0xx_HAL_Driver\Src\stm32f0xx_hal_tim.o
 .debug_abbrev  0x00004421      0x217 Drivers\STM32F0xx_HAL_Driver\Src\stm32f0xx_hal_tim_ex.o
 .debug_abbrev  0x00004638      0x200 Drivers\STM32F0xx_HAL_Driver\Src\stm32f0xx_hal_uart.o
 .debug_abbrev  0x00004838      0x1dd Drivers\STM32F0xx_HAL_Driver\Src\stm32f0xx_hal_uart_ex.o
 .debug_abbrev  0x00004a15      0x225 Drivers\STM32F0xx_HAL_Driver\Src\stm32f0xx_ll_usb.o
 .debug_abbrev  0x00004c3a      0x263 Middlewares\ST\STM32_USB_Device_Library\Class\HID\Src\usbd_hid.o
 .debug_abbrev  0x00004e9d      0x26b Middlewares\ST\STM32_USB_Device_Library\Core\Src\usbd_core.o
 .debug_abbrev  0x00005108      0x29b Middlewares\ST\STM32_USB_Device_Library\Core\Src\usbd_ctlreq.o
 .debug_abbrev  0x000053a3      0x1db Middlewares\ST\STM32_USB_Device_Library\Core\Src\usbd_ioreq.o
 .debug_abbrev  0x0000557e      0x1b0 USB_DEVICE\App\usb_device.o
 .debug_abbrev  0x0000572e      0x288 USB_DEVICE\App\usbd_desc.o
 .debug_abbrev  0x000059b6      0x2ec USB_DEVICE\Target\usbd_conf.o
 .debug_abbrev  0x00005ca2       0x12 startup\startup_stm32f072xb.o

.debug_aranges  0x00000000     0x1e00
 .debug_aranges
                0x00000000      0x230 Core\Src\ADXL345.o
 .debug_aranges
                0x00000230       0x60 Core\Src\Stepper.o
 .debug_aranges
                0x00000290       0x48 Core\Src\adc.o
 .debug_aranges
                0x000002d8       0x50 Core\Src\gpio.o
 .debug_aranges
                0x00000328       0x30 Core\Src\i2c.o
 .debug_aranges
                0x00000358       0x20 Core\Src\iwdg.o
 .debug_aranges
                0x00000378       0x50 Core\Src\main.o
 .debug_aranges
                0x000003c8       0xa0 Core\Src\pat9125.o
 .debug_aranges
                0x00000468       0xa0 Core\Src\pat9130.o
 .debug_aranges
                0x00000508       0x30 Core\Src\spi.o
 .debug_aranges
                0x00000538       0x20 Core\Src\stm32f0xx_hal_msp.o
 .debug_aranges
                0x00000558       0x88 Core\Src\stm32f0xx_it.o
 .debug_aranges
                0x000005e0       0xb0 Core\Src\syscalls.o
 .debug_aranges
                0x00000690       0x28 Core\Src\system_stm32f0xx.o
 .debug_aranges
                0x000006b8       0x60 Core\Src\tim.o
 .debug_aranges
                0x00000718       0x38 Core\Src\usart.o
 .debug_aranges
                0x00000750       0xd0 Drivers\STM32F0xx_HAL_Driver\Src\stm32f0xx_hal.o
 .debug_aranges
                0x00000820       0xf8 Drivers\STM32F0xx_HAL_Driver\Src\stm32f0xx_hal_adc.o
 .debug_aranges
                0x00000918       0x20 Drivers\STM32F0xx_HAL_Driver\Src\stm32f0xx_hal_adc_ex.o
 .debug_aranges
                0x00000938       0xc0 Drivers\STM32F0xx_HAL_Driver\Src\stm32f0xx_hal_cortex.o
 .debug_aranges
                0x000009f8       0x88 Drivers\STM32F0xx_HAL_Driver\Src\stm32f0xx_hal_dma.o
 .debug_aranges
                0x00000a80       0x58 Drivers\STM32F0xx_HAL_Driver\Src\stm32f0xx_hal_gpio.o
 .debug_aranges
                0x00000ad8      0x290 Drivers\STM32F0xx_HAL_Driver\Src\stm32f0xx_hal_i2c.o
 .debug_aranges
                0x00000d68       0x48 Drivers\STM32F0xx_HAL_Driver\Src\stm32f0xx_hal_i2c_ex.o
 .debug_aranges
                0x00000db0       0x28 Drivers\STM32F0xx_HAL_Driver\Src\stm32f0xx_hal_iwdg.o
 .debug_aranges
                0x00000dd8      0x130 Drivers\STM32F0xx_HAL_Driver\Src\stm32f0xx_hal_pcd.o
 .debug_aranges
                0x00000f08       0x58 Drivers\STM32F0xx_HAL_Driver\Src\stm32f0xx_hal_pcd_ex.o
 .debug_aranges
                0x00000f60       0x80 Drivers\STM32F0xx_HAL_Driver\Src\stm32f0xx_hal_rcc.o
 .debug_aranges
                0x00000fe0       0x78 Drivers\STM32F0xx_HAL_Driver\Src\stm32f0xx_hal_rcc_ex.o
 .debug_aranges
                0x00001058      0x1d8 Drivers\STM32F0xx_HAL_Driver\Src\stm32f0xx_hal_spi.o
 .debug_aranges
                0x00001230      0x3b8 Drivers\STM32F0xx_HAL_Driver\Src\stm32f0xx_hal_tim.o
 .debug_aranges
                0x000015e8      0x150 Drivers\STM32F0xx_HAL_Driver\Src\stm32f0xx_hal_tim_ex.o
 .debug_aranges
                0x00001738      0x210 Drivers\STM32F0xx_HAL_Driver\Src\stm32f0xx_hal_uart.o
 .debug_aranges
                0x00001948       0x50 Drivers\STM32F0xx_HAL_Driver\Src\stm32f0xx_hal_uart_ex.o
 .debug_aranges
                0x00001998       0xb0 Drivers\STM32F0xx_HAL_Driver\Src\stm32f0xx_ll_usb.o
 .debug_aranges
                0x00001a48       0x68 Middlewares\ST\STM32_USB_Device_Library\Class\HID\Src\usbd_hid.o
 .debug_aranges
                0x00001ab0       0xb8 Middlewares\ST\STM32_USB_Device_Library\Core\Src\usbd_core.o
 .debug_aranges
                0x00001b68       0x88 Middlewares\ST\STM32_USB_Device_Library\Core\Src\usbd_ctlreq.o
 .debug_aranges
                0x00001bf0       0x50 Middlewares\ST\STM32_USB_Device_Library\Core\Src\usbd_ioreq.o
 .debug_aranges
                0x00001c40       0x20 USB_DEVICE\App\usb_device.o
 .debug_aranges
                0x00001c60       0x60 USB_DEVICE\App\usbd_desc.o
 .debug_aranges
                0x00001cc0      0x118 USB_DEVICE\Target\usbd_conf.o
 .debug_aranges
                0x00001dd8       0x28 startup\startup_stm32f072xb.o

.debug_ranges   0x00000000     0x1b58
 .debug_ranges  0x00000000      0x220 Core\Src\ADXL345.o
 .debug_ranges  0x00000220       0x50 Core\Src\Stepper.o
 .debug_ranges  0x00000270       0x38 Core\Src\adc.o
 .debug_ranges  0x000002a8       0x40 Core\Src\gpio.o
 .debug_ranges  0x000002e8       0x20 Core\Src\i2c.o
 .debug_ranges  0x00000308       0x10 Core\Src\iwdg.o
 .debug_ranges  0x00000318       0x40 Core\Src\main.o
 .debug_ranges  0x00000358       0x90 Core\Src\pat9125.o
 .debug_ranges  0x000003e8       0x90 Core\Src\pat9130.o
 .debug_ranges  0x00000478       0x20 Core\Src\spi.o
 .debug_ranges  0x00000498       0x10 Core\Src\stm32f0xx_hal_msp.o
 .debug_ranges  0x000004a8       0x78 Core\Src\stm32f0xx_it.o
 .debug_ranges  0x00000520       0xa0 Core\Src\syscalls.o
 .debug_ranges  0x000005c0       0x18 Core\Src\system_stm32f0xx.o
 .debug_ranges  0x000005d8       0x50 Core\Src\tim.o
 .debug_ranges  0x00000628       0x28 Core\Src\usart.o
 .debug_ranges  0x00000650       0xc0 Drivers\STM32F0xx_HAL_Driver\Src\stm32f0xx_hal.o
 .debug_ranges  0x00000710       0xe8 Drivers\STM32F0xx_HAL_Driver\Src\stm32f0xx_hal_adc.o
 .debug_ranges  0x000007f8       0x10 Drivers\STM32F0xx_HAL_Driver\Src\stm32f0xx_hal_adc_ex.o
 .debug_ranges  0x00000808       0xb0 Drivers\STM32F0xx_HAL_Driver\Src\stm32f0xx_hal_cortex.o
 .debug_ranges  0x000008b8       0x78 Drivers\STM32F0xx_HAL_Driver\Src\stm32f0xx_hal_dma.o
 .debug_ranges  0x00000930       0x48 Drivers\STM32F0xx_HAL_Driver\Src\stm32f0xx_hal_gpio.o
 .debug_ranges  0x00000978      0x280 Drivers\STM32F0xx_HAL_Driver\Src\stm32f0xx_hal_i2c.o
 .debug_ranges  0x00000bf8       0x38 Drivers\STM32F0xx_HAL_Driver\Src\stm32f0xx_hal_i2c_ex.o
 .debug_ranges  0x00000c30       0x18 Drivers\STM32F0xx_HAL_Driver\Src\stm32f0xx_hal_iwdg.o
 .debug_ranges  0x00000c48      0x120 Drivers\STM32F0xx_HAL_Driver\Src\stm32f0xx_hal_pcd.o
 .debug_ranges  0x00000d68       0x48 Drivers\STM32F0xx_HAL_Driver\Src\stm32f0xx_hal_pcd_ex.o
 .debug_ranges  0x00000db0       0x70 Drivers\STM32F0xx_HAL_Driver\Src\stm32f0xx_hal_rcc.o
 .debug_ranges  0x00000e20       0x68 Drivers\STM32F0xx_HAL_Driver\Src\stm32f0xx_hal_rcc_ex.o
 .debug_ranges  0x00000e88      0x1c8 Drivers\STM32F0xx_HAL_Driver\Src\stm32f0xx_hal_spi.o
 .debug_ranges  0x00001050      0x3a8 Drivers\STM32F0xx_HAL_Driver\Src\stm32f0xx_hal_tim.o
 .debug_ranges  0x000013f8      0x140 Drivers\STM32F0xx_HAL_Driver\Src\stm32f0xx_hal_tim_ex.o
 .debug_ranges  0x00001538      0x200 Drivers\STM32F0xx_HAL_Driver\Src\stm32f0xx_hal_uart.o
 .debug_ranges  0x00001738       0x40 Drivers\STM32F0xx_HAL_Driver\Src\stm32f0xx_hal_uart_ex.o
 .debug_ranges  0x00001778       0xa0 Drivers\STM32F0xx_HAL_Driver\Src\stm32f0xx_ll_usb.o
 .debug_ranges  0x00001818       0x58 Middlewares\ST\STM32_USB_Device_Library\Class\HID\Src\usbd_hid.o
 .debug_ranges  0x00001870       0xa8 Middlewares\ST\STM32_USB_Device_Library\Core\Src\usbd_core.o
 .debug_ranges  0x00001918       0x78 Middlewares\ST\STM32_USB_Device_Library\Core\Src\usbd_ctlreq.o
 .debug_ranges  0x00001990       0x40 Middlewares\ST\STM32_USB_Device_Library\Core\Src\usbd_ioreq.o
 .debug_ranges  0x000019d0       0x10 USB_DEVICE\App\usb_device.o
 .debug_ranges  0x000019e0       0x50 USB_DEVICE\App\usbd_desc.o
 .debug_ranges  0x00001a30      0x108 USB_DEVICE\Target\usbd_conf.o
 .debug_ranges  0x00001b38       0x20 startup\startup_stm32f072xb.o

.debug_line     0x00000000    0x11bed
 .debug_line    0x00000000      0x8ee Core\Src\ADXL345.o
 .debug_line    0x000008ee      0x426 Core\Src\Stepper.o
 .debug_line    0x00000d14      0x419 Core\Src\adc.o
 .debug_line    0x0000112d      0x49a Core\Src\gpio.o
 .debug_line    0x000015c7      0x264 Core\Src\i2c.o
 .debug_line    0x0000182b      0x1fe Core\Src\iwdg.o
 .debug_line    0x00001a29      0x62a Core\Src\main.o
 .debug_line    0x00002053      0x564 Core\Src\pat9125.o
 .debug_line    0x000025b7      0x55c Core\Src\pat9130.o
 .debug_line    0x00002b13      0x267 Core\Src\spi.o
 .debug_line    0x00002d7a      0x1c3 Core\Src\stm32f0xx_hal_msp.o
 .debug_line    0x00002f3d      0x4dd Core\Src\stm32f0xx_it.o
 .debug_line    0x0000341a      0x3dd Core\Src\syscalls.o
 .debug_line    0x000037f7      0x1f0 Core\Src\system_stm32f0xx.o
 .debug_line    0x000039e7      0x4f3 Core\Src\tim.o
 .debug_line    0x00003eda      0x298 Core\Src\usart.o
 .debug_line    0x00004172      0x3d3 Drivers\STM32F0xx_HAL_Driver\Src\stm32f0xx_hal.o
 .debug_line    0x00004545      0xaac Drivers\STM32F0xx_HAL_Driver\Src\stm32f0xx_hal_adc.o
 .debug_line    0x00004ff1      0x27f Drivers\STM32F0xx_HAL_Driver\Src\stm32f0xx_hal_adc_ex.o
 .debug_line    0x00005270      0x40e Drivers\STM32F0xx_HAL_Driver\Src\stm32f0xx_hal_cortex.o
 .debug_line    0x0000567e      0x4f6 Drivers\STM32F0xx_HAL_Driver\Src\stm32f0xx_hal_dma.o
 .debug_line    0x00005b74      0x4c0 Drivers\STM32F0xx_HAL_Driver\Src\stm32f0xx_hal_gpio.o
 .debug_line    0x00006034     0x1875 Drivers\STM32F0xx_HAL_Driver\Src\stm32f0xx_hal_i2c.o
 .debug_line    0x000078a9      0x3f3 Drivers\STM32F0xx_HAL_Driver\Src\stm32f0xx_hal_i2c_ex.o
 .debug_line    0x00007c9c      0x26a Drivers\STM32F0xx_HAL_Driver\Src\stm32f0xx_hal_iwdg.o
 .debug_line    0x00007f06      0x7f4 Drivers\STM32F0xx_HAL_Driver\Src\stm32f0xx_hal_pcd.o
 .debug_line    0x000086fa      0x2d8 Drivers\STM32F0xx_HAL_Driver\Src\stm32f0xx_hal_pcd_ex.o
 .debug_line    0x000089d2      0x71c Drivers\STM32F0xx_HAL_Driver\Src\stm32f0xx_hal_rcc.o
 .debug_line    0x000090ee      0x540 Drivers\STM32F0xx_HAL_Driver\Src\stm32f0xx_hal_rcc_ex.o
 .debug_line    0x0000962e      0xe88 Drivers\STM32F0xx_HAL_Driver\Src\stm32f0xx_hal_spi.o
 .debug_line    0x0000a4b6     0x2e75 Drivers\STM32F0xx_HAL_Driver\Src\stm32f0xx_hal_tim.o
 .debug_line    0x0000d32b      0xdc5 Drivers\STM32F0xx_HAL_Driver\Src\stm32f0xx_hal_tim_ex.o
 .debug_line    0x0000e0f0      0xee1 Drivers\STM32F0xx_HAL_Driver\Src\stm32f0xx_hal_uart.o
 .debug_line    0x0000efd1      0x39f Drivers\STM32F0xx_HAL_Driver\Src\stm32f0xx_hal_uart_ex.o
 .debug_line    0x0000f370      0x7d1 Drivers\STM32F0xx_HAL_Driver\Src\stm32f0xx_ll_usb.o
 .debug_line    0x0000fb41      0x454 Middlewares\ST\STM32_USB_Device_Library\Class\HID\Src\usbd_hid.o
 .debug_line    0x0000ff95      0x526 Middlewares\ST\STM32_USB_Device_Library\Core\Src\usbd_core.o
 .debug_line    0x000104bb      0x5c6 Middlewares\ST\STM32_USB_Device_Library\Core\Src\usbd_ctlreq.o
 .debug_line    0x00010a81      0x38d Middlewares\ST\STM32_USB_Device_Library\Core\Src\usbd_ioreq.o
 .debug_line    0x00010e0e      0x34c USB_DEVICE\App\usb_device.o
 .debug_line    0x0001115a      0x3c1 USB_DEVICE\App\usbd_desc.o
 .debug_line    0x0001151b      0x650 USB_DEVICE\Target\usbd_conf.o
 .debug_line    0x00011b6b       0x82 startup\startup_stm32f072xb.o

.debug_str      0x00000000     0x88b8
 .debug_str     0x00000000     0x1ebb Core\Src\ADXL345.o
                               0x2087 (size before relaxing)
 .debug_str     0x00001ebb      0x148 Core\Src\Stepper.o
                               0x139e (size before relaxing)
 .debug_str     0x00002003      0x501 Core\Src\adc.o
                               0x19be (size before relaxing)
 .debug_str     0x00002504      0x29d Core\Src\gpio.o
                               0x181f (size before relaxing)
 .debug_str     0x000027a1       0x4b Core\Src\i2c.o
                                0xa02 (size before relaxing)
 .debug_str     0x000027ec       0x20 Core\Src\iwdg.o
                                0x2f6 (size before relaxing)
 .debug_str     0x0000280c      0xb14 Core\Src\main.o
                               0x273f (size before relaxing)
 .debug_str     0x00003320      0x139 Core\Src\pat9125.o
                               0x182a (size before relaxing)
 .debug_str     0x00003459      0x124 Core\Src\pat9130.o
                               0x184e (size before relaxing)
 .debug_str     0x0000357d       0x4b Core\Src\spi.o
                                0x769 (size before relaxing)
 .debug_str     0x000035c8       0x2c Core\Src\stm32f0xx_hal_msp.o
                                0x2d4 (size before relaxing)
 .debug_str     0x000035f4      0x418 Core\Src\stm32f0xx_it.o
                               0x1dfb (size before relaxing)
 .debug_str     0x00003a0c      0x227 Core\Src\syscalls.o
                                0x845 (size before relaxing)
 .debug_str     0x00003c33       0x5f Core\Src\system_stm32f0xx.o
                                0x300 (size before relaxing)
 .debug_str     0x00003c92      0x252 Core\Src\tim.o
                               0x1bc1 (size before relaxing)
 .debug_str     0x00003ee4       0x6b Core\Src\usart.o
                                0x96d (size before relaxing)
 .debug_str     0x00003f4f      0x227 Drivers\STM32F0xx_HAL_Driver\Src\stm32f0xx_hal.o
                                0x710 (size before relaxing)
 .debug_str     0x00004176      0x2d4 Drivers\STM32F0xx_HAL_Driver\Src\stm32f0xx_hal_adc.o
                                0x974 (size before relaxing)
 .debug_str     0x0000444a       0x77 Drivers\STM32F0xx_HAL_Driver\Src\stm32f0xx_hal_adc_ex.o
                                0x688 (size before relaxing)
 .debug_str     0x000044c1      0x281 Drivers\STM32F0xx_HAL_Driver\Src\stm32f0xx_hal_cortex.o
                                0x722 (size before relaxing)
 .debug_str     0x00004742      0x248 Drivers\STM32F0xx_HAL_Driver\Src\stm32f0xx_hal_dma.o
                                0x6d8 (size before relaxing)
 .debug_str     0x0000498a      0x10d Drivers\STM32F0xx_HAL_Driver\Src\stm32f0xx_hal_gpio.o
                                0x4cf (size before relaxing)
 .debug_str     0x00004a97      0x873 Drivers\STM32F0xx_HAL_Driver\Src\stm32f0xx_hal_i2c.o
                                0xff9 (size before relaxing)
 .debug_str     0x0000530a       0xf3 Drivers\STM32F0xx_HAL_Driver\Src\stm32f0xx_hal_i2c_ex.o
                                0x89e (size before relaxing)
 .debug_str     0x000053fd       0x58 Drivers\STM32F0xx_HAL_Driver\Src\stm32f0xx_hal_iwdg.o
                                0x34a (size before relaxing)
 .debug_str     0x00005455      0x3c6 Drivers\STM32F0xx_HAL_Driver\Src\stm32f0xx_hal_pcd.o
                                0xa03 (size before relaxing)
 .debug_str     0x0000581b      0x1c6 Drivers\STM32F0xx_HAL_Driver\Src\stm32f0xx_hal_pcd_ex.o
                                0x829 (size before relaxing)
 .debug_str     0x000059e1      0x1f1 Drivers\STM32F0xx_HAL_Driver\Src\stm32f0xx_hal_rcc.o
                                0x6bd (size before relaxing)
 .debug_str     0x00005bd2      0x27a Drivers\STM32F0xx_HAL_Driver\Src\stm32f0xx_hal_rcc_ex.o
                                0x6a3 (size before relaxing)
 .debug_str     0x00005e4c      0x540 Drivers\STM32F0xx_HAL_Driver\Src\stm32f0xx_hal_spi.o
                                0xc20 (size before relaxing)
 .debug_str     0x0000638c      0xd5a Drivers\STM32F0xx_HAL_Driver\Src\stm32f0xx_hal_tim.o
                               0x14f9 (size before relaxing)
 .debug_str     0x000070e6      0x49b Drivers\STM32F0xx_HAL_Driver\Src\stm32f0xx_hal_tim_ex.o
                                0xcad (size before relaxing)
 .debug_str     0x00007581      0x6b4 Drivers\STM32F0xx_HAL_Driver\Src\stm32f0xx_hal_uart.o
                                0xe1c (size before relaxing)
 .debug_str     0x00007c35      0x160 Drivers\STM32F0xx_HAL_Driver\Src\stm32f0xx_hal_uart_ex.o
                                0x7f4 (size before relaxing)
 .debug_str     0x00007d95      0x1fa Drivers\STM32F0xx_HAL_Driver\Src\stm32f0xx_ll_usb.o
                                0x710 (size before relaxing)
 .debug_str     0x00007f8f      0x24c Middlewares\ST\STM32_USB_Device_Library\Class\HID\Src\usbd_hid.o
                                0xc8c (size before relaxing)
 .debug_str     0x000081db      0x1b5 Middlewares\ST\STM32_USB_Device_Library\Core\Src\usbd_core.o
                                0xc0f (size before relaxing)
 .debug_str     0x00008390      0x12f Middlewares\ST\STM32_USB_Device_Library\Core\Src\usbd_ctlreq.o
                                0xb95 (size before relaxing)
 .debug_str     0x000084bf       0xc9 Middlewares\ST\STM32_USB_Device_Library\Core\Src\usbd_ioreq.o
                                0xb1d (size before relaxing)
 .debug_str     0x00008588       0x3a USB_DEVICE\App\usb_device.o
                                0xa7f (size before relaxing)
 .debug_str     0x000085c2      0x170 USB_DEVICE\App\usbd_desc.o
                                0x925 (size before relaxing)
 .debug_str     0x00008732      0x186 USB_DEVICE\Target\usbd_conf.o
                               0x1382 (size before relaxing)

.comment        0x00000000       0x7c
 .comment       0x00000000       0x7c Core\Src\ADXL345.o
                                 0x7d (size before relaxing)
 .comment       0x0000007c       0x7d Core\Src\Stepper.o
 .comment       0x0000007c       0x7d Core\Src\adc.o
 .comment       0x0000007c       0x7d Core\Src\gpio.o
 .comment       0x0000007c       0x7d Core\Src\i2c.o
 .comment       0x0000007c       0x7d Core\Src\iwdg.o
 .comment       0x0000007c       0x7d Core\Src\main.o
 .comment       0x0000007c       0x7d Core\Src\pat9125.o
 .comment       0x0000007c       0x7d Core\Src\pat9130.o
 .comment       0x0000007c       0x7d Core\Src\spi.o
 .comment       0x0000007c       0x7d Core\Src\stm32f0xx_hal_msp.o
 .comment       0x0000007c       0x7d Core\Src\stm32f0xx_it.o
 .comment       0x0000007c       0x7d Core\Src\syscalls.o
 .comment       0x0000007c       0x7d Core\Src\system_stm32f0xx.o
 .comment       0x0000007c       0x7d Core\Src\tim.o
 .comment       0x0000007c       0x7d Core\Src\usart.o
 .comment       0x0000007c       0x7d Drivers\STM32F0xx_HAL_Driver\Src\stm32f0xx_hal.o
 .comment       0x0000007c       0x7d Drivers\STM32F0xx_HAL_Driver\Src\stm32f0xx_hal_adc.o
 .comment       0x0000007c       0x7d Drivers\STM32F0xx_HAL_Driver\Src\stm32f0xx_hal_adc_ex.o
 .comment       0x0000007c       0x7d Drivers\STM32F0xx_HAL_Driver\Src\stm32f0xx_hal_cortex.o
 .comment       0x0000007c       0x7d Drivers\STM32F0xx_HAL_Driver\Src\stm32f0xx_hal_dma.o
 .comment       0x0000007c       0x7d Drivers\STM32F0xx_HAL_Driver\Src\stm32f0xx_hal_gpio.o
 .comment       0x0000007c       0x7d Drivers\STM32F0xx_HAL_Driver\Src\stm32f0xx_hal_i2c.o
 .comment       0x0000007c       0x7d Drivers\STM32F0xx_HAL_Driver\Src\stm32f0xx_hal_i2c_ex.o
 .comment       0x0000007c       0x7d Drivers\STM32F0xx_HAL_Driver\Src\stm32f0xx_hal_iwdg.o
 .comment       0x0000007c       0x7d Drivers\STM32F0xx_HAL_Driver\Src\stm32f0xx_hal_pcd.o
 .comment       0x0000007c       0x7d Drivers\STM32F0xx_HAL_Driver\Src\stm32f0xx_hal_pcd_ex.o
 .comment       0x0000007c       0x7d Drivers\STM32F0xx_HAL_Driver\Src\stm32f0xx_hal_rcc.o
 .comment       0x0000007c       0x7d Drivers\STM32F0xx_HAL_Driver\Src\stm32f0xx_hal_rcc_ex.o
 .comment       0x0000007c       0x7d Drivers\STM32F0xx_HAL_Driver\Src\stm32f0xx_hal_spi.o
 .comment       0x0000007c       0x7d Drivers\STM32F0xx_HAL_Driver\Src\stm32f0xx_hal_tim.o
 .comment       0x0000007c       0x7d Drivers\STM32F0xx_HAL_Driver\Src\stm32f0xx_hal_tim_ex.o
 .comment       0x0000007c       0x7d Drivers\STM32F0xx_HAL_Driver\Src\stm32f0xx_hal_uart.o
 .comment       0x0000007c       0x7d Drivers\STM32F0xx_HAL_Driver\Src\stm32f0xx_hal_uart_ex.o
 .comment       0x0000007c       0x7d Drivers\STM32F0xx_HAL_Driver\Src\stm32f0xx_ll_usb.o
 .comment       0x0000007c       0x7d Middlewares\ST\STM32_USB_Device_Library\Class\HID\Src\usbd_hid.o
 .comment       0x0000007c       0x7d Middlewares\ST\STM32_USB_Device_Library\Core\Src\usbd_core.o
 .comment       0x0000007c       0x7d Middlewares\ST\STM32_USB_Device_Library\Core\Src\usbd_ctlreq.o
 .comment       0x0000007c       0x7d Middlewares\ST\STM32_USB_Device_Library\Core\Src\usbd_ioreq.o
 .comment       0x0000007c       0x7d USB_DEVICE\App\usb_device.o
 .comment       0x0000007c       0x7d USB_DEVICE\App\usbd_desc.o
 .comment       0x0000007c       0x7d USB_DEVICE\Target\usbd_conf.o

.debug_frame    0x00000000     0x77c0
 .debug_frame   0x00000000      0x80c Core\Src\ADXL345.o
 .debug_frame   0x0000080c      0x12c Core\Src\Stepper.o
 .debug_frame   0x00000938       0xd0 Core\Src\adc.o
 .debug_frame   0x00000a08       0xf8 Core\Src\gpio.o
 .debug_frame   0x00000b00       0x6c Core\Src\i2c.o
 .debug_frame   0x00000b6c       0x2c Core\Src\iwdg.o
 .debug_frame   0x00000b98       0xec Core\Src\main.o
 .debug_frame   0x00000c84      0x208 Core\Src\pat9125.o
 .debug_frame   0x00000e8c      0x208 Core\Src\pat9130.o
 .debug_frame   0x00001094       0x6c Core\Src\spi.o
 .debug_frame   0x00001100       0x30 Core\Src\stm32f0xx_hal_msp.o
 .debug_frame   0x00001130      0x1a4 Core\Src\stm32f0xx_it.o
 .debug_frame   0x000012d4      0x264 Core\Src\syscalls.o
 .debug_frame   0x00001538       0x4c Core\Src\system_stm32f0xx.o
 .debug_frame   0x00001584      0x12c Core\Src\tim.o
 .debug_frame   0x000016b0       0x88 Core\Src\usart.o
 .debug_frame   0x00001738      0x2a0 Drivers\STM32F0xx_HAL_Driver\Src\stm32f0xx_hal.o
 .debug_frame   0x000019d8      0x390 Drivers\STM32F0xx_HAL_Driver\Src\stm32f0xx_hal_adc.o
 .debug_frame   0x00001d68       0x30 Drivers\STM32F0xx_HAL_Driver\Src\stm32f0xx_hal_adc_ex.o
 .debug_frame   0x00001d98      0x2a4 Drivers\STM32F0xx_HAL_Driver\Src\stm32f0xx_hal_cortex.o
 .debug_frame   0x0000203c      0x1d0 Drivers\STM32F0xx_HAL_Driver\Src\stm32f0xx_hal_dma.o
 .debug_frame   0x0000220c      0x110 Drivers\STM32F0xx_HAL_Driver\Src\stm32f0xx_hal_gpio.o
 .debug_frame   0x0000231c      0x9f0 Drivers\STM32F0xx_HAL_Driver\Src\stm32f0xx_hal_i2c.o
 .debug_frame   0x00002d0c       0xd0 Drivers\STM32F0xx_HAL_Driver\Src\stm32f0xx_hal_i2c_ex.o
 .debug_frame   0x00002ddc       0x50 Drivers\STM32F0xx_HAL_Driver\Src\stm32f0xx_hal_iwdg.o
 .debug_frame   0x00002e2c      0x474 Drivers\STM32F0xx_HAL_Driver\Src\stm32f0xx_hal_pcd.o
 .debug_frame   0x000032a0      0x110 Drivers\STM32F0xx_HAL_Driver\Src\stm32f0xx_hal_pcd_ex.o
 .debug_frame   0x000033b0      0x198 Drivers\STM32F0xx_HAL_Driver\Src\stm32f0xx_hal_rcc.o
 .debug_frame   0x00003548      0x180 Drivers\STM32F0xx_HAL_Driver\Src\stm32f0xx_hal_rcc_ex.o
 .debug_frame   0x000036c8      0x710 Drivers\STM32F0xx_HAL_Driver\Src\stm32f0xx_hal_spi.o
 .debug_frame   0x00003dd8      0xe90 Drivers\STM32F0xx_HAL_Driver\Src\stm32f0xx_hal_tim.o
 .debug_frame   0x00004c68      0x4f0 Drivers\STM32F0xx_HAL_Driver\Src\stm32f0xx_hal_tim_ex.o
 .debug_frame   0x00005158      0x7f0 Drivers\STM32F0xx_HAL_Driver\Src\stm32f0xx_hal_uart.o
 .debug_frame   0x00005948       0xf0 Drivers\STM32F0xx_HAL_Driver\Src\stm32f0xx_hal_uart_ex.o
 .debug_frame   0x00005a38      0x280 Drivers\STM32F0xx_HAL_Driver\Src\stm32f0xx_ll_usb.o
 .debug_frame   0x00005cb8      0x150 Middlewares\ST\STM32_USB_Device_Library\Class\HID\Src\usbd_hid.o
 .debug_frame   0x00005e08      0x290 Middlewares\ST\STM32_USB_Device_Library\Core\Src\usbd_core.o
 .debug_frame   0x00006098      0x1d0 Middlewares\ST\STM32_USB_Device_Library\Core\Src\usbd_ctlreq.o
 .debug_frame   0x00006268       0xf0 Middlewares\ST\STM32_USB_Device_Library\Core\Src\usbd_ioreq.o
 .debug_frame   0x00006358       0x2c USB_DEVICE\App\usb_device.o
 .debug_frame   0x00006384      0x130 USB_DEVICE\App\usbd_desc.o
 .debug_frame   0x000064b4      0x418 USB_DEVICE\Target\usbd_conf.o
 .debug_frame   0x000068cc       0x20 c:/program files (x86)/atollic/truestudio for stm32 9.3.0/armtools/bin/../lib/gcc/arm-atollic-eabi/6.3.1/../../../../arm-atollic-eabi/lib/armv6-m\libc_nano.a(lib_a-errno.o)
 .debug_frame   0x000068ec       0x2c c:/program files (x86)/atollic/truestudio for stm32 9.3.0/armtools/bin/../lib/gcc/arm-atollic-eabi/6.3.1/../../../../arm-atollic-eabi/lib/armv6-m\libc_nano.a(lib_a-init.o)
 .debug_frame   0x00006918       0x28 c:/program files (x86)/atollic/truestudio for stm32 9.3.0/armtools/bin/../lib/gcc/arm-atollic-eabi/6.3.1/../../../../arm-atollic-eabi/lib/armv6-m\libc_nano.a(lib_a-memcpy-stub.o)
 .debug_frame   0x00006940       0x20 c:/program files (x86)/atollic/truestudio for stm32 9.3.0/armtools/bin/../lib/gcc/arm-atollic-eabi/6.3.1/../../../../arm-atollic-eabi/lib/armv6-m\libc_nano.a(lib_a-memset.o)
 .debug_frame   0x00006960       0x70 c:/program files (x86)/atollic/truestudio for stm32 9.3.0/armtools/bin/../lib/gcc/arm-atollic-eabi/6.3.1/../../../../arm-atollic-eabi/lib/armv6-m\libc_nano.a(lib_a-nano-vfprintf_float.o)
 .debug_frame   0x000069d0       0x54 c:/program files (x86)/atollic/truestudio for stm32 9.3.0/armtools/bin/../lib/gcc/arm-atollic-eabi/6.3.1/../../../../arm-atollic-eabi/lib/armv6-m\libc_nano.a(lib_a-nano-vfprintf_i.o)
 .debug_frame   0x00006a24       0x50 c:/program files (x86)/atollic/truestudio for stm32 9.3.0/armtools/bin/../lib/gcc/arm-atollic-eabi/6.3.1/../../../../arm-atollic-eabi/lib/armv6-m\libc_nano.a(lib_a-printf.o)
 .debug_frame   0x00006a74       0x48 c:/program files (x86)/atollic/truestudio for stm32 9.3.0/armtools/bin/../lib/gcc/arm-atollic-eabi/6.3.1/../../../../arm-atollic-eabi/lib/armv6-m\libc_nano.a(lib_a-putchar.o)
 .debug_frame   0x00006abc       0x54 c:/program files (x86)/atollic/truestudio for stm32 9.3.0/armtools/bin/../lib/gcc/arm-atollic-eabi/6.3.1/../../../../arm-atollic-eabi/lib/armv6-m\libc_nano.a(lib_a-dtoa.o)
 .debug_frame   0x00006b10      0x140 c:/program files (x86)/atollic/truestudio for stm32 9.3.0/armtools/bin/../lib/gcc/arm-atollic-eabi/6.3.1/../../../../arm-atollic-eabi/lib/armv6-m\libc_nano.a(lib_a-findfp.o)
 .debug_frame   0x00006c50       0x58 c:/program files (x86)/atollic/truestudio for stm32 9.3.0/armtools/bin/../lib/gcc/arm-atollic-eabi/6.3.1/../../../../arm-atollic-eabi/lib/armv6-m\libc_nano.a(lib_a-fwalk.o)
 .debug_frame   0x00006ca8       0x40 c:/program files (x86)/atollic/truestudio for stm32 9.3.0/armtools/bin/../lib/gcc/arm-atollic-eabi/6.3.1/../../../../arm-atollic-eabi/lib/armv6-m\libc_nano.a(lib_a-localeconv.o)
 .debug_frame   0x00006ce8       0x40 c:/program files (x86)/atollic/truestudio for stm32 9.3.0/armtools/bin/../lib/gcc/arm-atollic-eabi/6.3.1/../../../../arm-atollic-eabi/lib/armv6-m\libc_nano.a(lib_a-malloc.o)
 .debug_frame   0x00006d28       0x20 c:/program files (x86)/atollic/truestudio for stm32 9.3.0/armtools/bin/../lib/gcc/arm-atollic-eabi/6.3.1/../../../../arm-atollic-eabi/lib/armv6-m\libc_nano.a(lib_a-memchr-stub.o)
 .debug_frame   0x00006d48      0x238 c:/program files (x86)/atollic/truestudio for stm32 9.3.0/armtools/bin/../lib/gcc/arm-atollic-eabi/6.3.1/../../../../arm-atollic-eabi/lib/armv6-m\libc_nano.a(lib_a-mprec.o)
 .debug_frame   0x00006f80       0x2c c:/program files (x86)/atollic/truestudio for stm32 9.3.0/armtools/bin/../lib/gcc/arm-atollic-eabi/6.3.1/../../../../arm-atollic-eabi/lib/armv6-m\libc_nano.a(lib_a-nano-callocr.o)
 .debug_frame   0x00006fac       0x2c c:/program files (x86)/atollic/truestudio for stm32 9.3.0/armtools/bin/../lib/gcc/arm-atollic-eabi/6.3.1/../../../../arm-atollic-eabi/lib/armv6-m\libc_nano.a(lib_a-nano-freer.o)
 .debug_frame   0x00006fd8       0x2c c:/program files (x86)/atollic/truestudio for stm32 9.3.0/armtools/bin/../lib/gcc/arm-atollic-eabi/6.3.1/../../../../arm-atollic-eabi/lib/armv6-m\libc_nano.a(lib_a-nano-mallocr.o)
 .debug_frame   0x00007004       0x9c c:/program files (x86)/atollic/truestudio for stm32 9.3.0/armtools/bin/../lib/gcc/arm-atollic-eabi/6.3.1/../../../../arm-atollic-eabi/lib/armv6-m\libc_nano.a(lib_a-nano-vfprintf.o)
 .debug_frame   0x000070a0       0x44 c:/program files (x86)/atollic/truestudio for stm32 9.3.0/armtools/bin/../lib/gcc/arm-atollic-eabi/6.3.1/../../../../arm-atollic-eabi/lib/armv6-m\libc_nano.a(lib_a-putc.o)
 .debug_frame   0x000070e4       0x2c c:/program files (x86)/atollic/truestudio for stm32 9.3.0/armtools/bin/../lib/gcc/arm-atollic-eabi/6.3.1/../../../../arm-atollic-eabi/lib/armv6-m\libc_nano.a(lib_a-sbrkr.o)
 .debug_frame   0x00007110       0x90 c:/program files (x86)/atollic/truestudio for stm32 9.3.0/armtools/bin/../lib/gcc/arm-atollic-eabi/6.3.1/../../../../arm-atollic-eabi/lib/armv6-m\libc_nano.a(lib_a-stdio.o)
 .debug_frame   0x000071a0       0x48 c:/program files (x86)/atollic/truestudio for stm32 9.3.0/armtools/bin/../lib/gcc/arm-atollic-eabi/6.3.1/../../../../arm-atollic-eabi/lib/armv6-m\libc_nano.a(lib_a-wbuf.o)
 .debug_frame   0x000071e8       0x2c c:/program files (x86)/atollic/truestudio for stm32 9.3.0/armtools/bin/../lib/gcc/arm-atollic-eabi/6.3.1/../../../../arm-atollic-eabi/lib/armv6-m\libc_nano.a(lib_a-writer.o)
 .debug_frame   0x00007214       0x2c c:/program files (x86)/atollic/truestudio for stm32 9.3.0/armtools/bin/../lib/gcc/arm-atollic-eabi/6.3.1/../../../../arm-atollic-eabi/lib/armv6-m\libc_nano.a(lib_a-wsetup.o)
 .debug_frame   0x00007240       0x2c c:/program files (x86)/atollic/truestudio for stm32 9.3.0/armtools/bin/../lib/gcc/arm-atollic-eabi/6.3.1/../../../../arm-atollic-eabi/lib/armv6-m\libc_nano.a(lib_a-closer.o)
 .debug_frame   0x0000726c       0x68 c:/program files (x86)/atollic/truestudio for stm32 9.3.0/armtools/bin/../lib/gcc/arm-atollic-eabi/6.3.1/../../../../arm-atollic-eabi/lib/armv6-m\libc_nano.a(lib_a-fflush.o)
 .debug_frame   0x000072d4       0x74 c:/program files (x86)/atollic/truestudio for stm32 9.3.0/armtools/bin/../lib/gcc/arm-atollic-eabi/6.3.1/../../../../arm-atollic-eabi/lib/armv6-m\libc_nano.a(lib_a-locale.o)
 .debug_frame   0x00007348       0x2c c:/program files (x86)/atollic/truestudio for stm32 9.3.0/armtools/bin/../lib/gcc/arm-atollic-eabi/6.3.1/../../../../arm-atollic-eabi/lib/armv6-m\libc_nano.a(lib_a-lseekr.o)
 .debug_frame   0x00007374       0x54 c:/program files (x86)/atollic/truestudio for stm32 9.3.0/armtools/bin/../lib/gcc/arm-atollic-eabi/6.3.1/../../../../arm-atollic-eabi/lib/armv6-m\libc_nano.a(lib_a-makebuf.o)
 .debug_frame   0x000073c8       0x44 c:/program files (x86)/atollic/truestudio for stm32 9.3.0/armtools/bin/../lib/gcc/arm-atollic-eabi/6.3.1/../../../../arm-atollic-eabi/lib/armv6-m\libc_nano.a(lib_a-mbtowc_r.o)
 .debug_frame   0x0000740c       0x30 c:/program files (x86)/atollic/truestudio for stm32 9.3.0/armtools/bin/../lib/gcc/arm-atollic-eabi/6.3.1/../../../../arm-atollic-eabi/lib/armv6-m\libc_nano.a(lib_a-mlock.o)
 .debug_frame   0x0000743c       0x2c c:/program files (x86)/atollic/truestudio for stm32 9.3.0/armtools/bin/../lib/gcc/arm-atollic-eabi/6.3.1/../../../../arm-atollic-eabi/lib/armv6-m\libc_nano.a(lib_a-readr.o)
 .debug_frame   0x00007468       0x48 c:/program files (x86)/atollic/truestudio for stm32 9.3.0/armtools/bin/../lib/gcc/arm-atollic-eabi/6.3.1/../../../../arm-atollic-eabi/lib/armv6-m\libc_nano.a(lib_a-reent.o)
 .debug_frame   0x000074b0       0x38 c:/program files (x86)/atollic/truestudio for stm32 9.3.0/armtools/bin/../lib/gcc/arm-atollic-eabi/6.3.1/../../../../arm-atollic-eabi/lib/armv6-m\libc_nano.a(lib_a-wctomb_r.o)
 .debug_frame   0x000074e8       0x2c c:/program files (x86)/atollic/truestudio for stm32 9.3.0/armtools/bin/../lib/gcc/arm-atollic-eabi/6.3.1/../../../../arm-atollic-eabi/lib/armv6-m\libc_nano.a(lib_a-fstatr.o)
 .debug_frame   0x00007514       0x2c c:/program files (x86)/atollic/truestudio for stm32 9.3.0/armtools/bin/../lib/gcc/arm-atollic-eabi/6.3.1/../../../../arm-atollic-eabi/lib/armv6-m\libc_nano.a(lib_a-isattyr.o)
 .debug_frame   0x00007540       0x20 c:/program files (x86)/atollic/truestudio for stm32 9.3.0/armtools/bin/../lib/gcc/arm-atollic-eabi/6.3.1/armv6-m\libgcc.a(_udivsi3.o)
 .debug_frame   0x00007560       0x20 c:/program files (x86)/atollic/truestudio for stm32 9.3.0/armtools/bin/../lib/gcc/arm-atollic-eabi/6.3.1/armv6-m\libgcc.a(_divsi3.o)
 .debug_frame   0x00007580       0x3c c:/program files (x86)/atollic/truestudio for stm32 9.3.0/armtools/bin/../lib/gcc/arm-atollic-eabi/6.3.1/armv6-m\libgcc.a(adddf3.o)
 .debug_frame   0x000075bc       0x3c c:/program files (x86)/atollic/truestudio for stm32 9.3.0/armtools/bin/../lib/gcc/arm-atollic-eabi/6.3.1/armv6-m\libgcc.a(divdf3.o)
 .debug_frame   0x000075f8       0x38 c:/program files (x86)/atollic/truestudio for stm32 9.3.0/armtools/bin/../lib/gcc/arm-atollic-eabi/6.3.1/armv6-m\libgcc.a(eqdf2.o)
 .debug_frame   0x00007630       0x38 c:/program files (x86)/atollic/truestudio for stm32 9.3.0/armtools/bin/../lib/gcc/arm-atollic-eabi/6.3.1/armv6-m\libgcc.a(gedf2.o)
 .debug_frame   0x00007668       0x38 c:/program files (x86)/atollic/truestudio for stm32 9.3.0/armtools/bin/../lib/gcc/arm-atollic-eabi/6.3.1/armv6-m\libgcc.a(ledf2.o)
 .debug_frame   0x000076a0       0x3c c:/program files (x86)/atollic/truestudio for stm32 9.3.0/armtools/bin/../lib/gcc/arm-atollic-eabi/6.3.1/armv6-m\libgcc.a(muldf3.o)
 .debug_frame   0x000076dc       0x38 c:/program files (x86)/atollic/truestudio for stm32 9.3.0/armtools/bin/../lib/gcc/arm-atollic-eabi/6.3.1/armv6-m\libgcc.a(subdf3.o)
 .debug_frame   0x00007714       0x2c c:/program files (x86)/atollic/truestudio for stm32 9.3.0/armtools/bin/../lib/gcc/arm-atollic-eabi/6.3.1/armv6-m\libgcc.a(unorddf2.o)
 .debug_frame   0x00007740       0x2c c:/program files (x86)/atollic/truestudio for stm32 9.3.0/armtools/bin/../lib/gcc/arm-atollic-eabi/6.3.1/armv6-m\libgcc.a(fixdfsi.o)
 .debug_frame   0x0000776c       0x2c c:/program files (x86)/atollic/truestudio for stm32 9.3.0/armtools/bin/../lib/gcc/arm-atollic-eabi/6.3.1/armv6-m\libgcc.a(floatsidf.o)
 .debug_frame   0x00007798       0x28 c:/program files (x86)/atollic/truestudio for stm32 9.3.0/armtools/bin/../lib/gcc/arm-atollic-eabi/6.3.1/armv6-m\libgcc.a(floatunsidf.o)
